Component: ARM Compiler 5.06 (build 20) Tool: armlink [4d35a3]

==============================================================================

Section Cross References

    raw-os.o(.text) refers to cpu.o(.text) for OS_CPU_SR_Save
    raw-os.o(.text) refers to port_error_process.o(.text) for port_system_error_process
    raw-os.o(.text) refers to raw-os.o(.data) for .data
    raw-os.o(.text) refers to raw-os.o(.bss) for .bss
    raw-os.o(.text) refers to user_extension.o(.text) for raw_memset
    raw-os.o(.text) refers to port.o(.text) for port_stack_init
    raw-os.o(.text) refers to port_hook.o(.text) for task_create_hook
    raw-os.o(.text) refers to port_extension.o(.text) for user_sys_time_get
    raw-os.o(.text) refers to lludivv7m.o(.text) for __aeabi_uldivmod
    fifo.o(.text) refers to cpu.o(.text) for OS_CPU_SR_Save
    fifo.o(.text) refers to user_extension.o(.text) for raw_memcpy
    rsh.o(.text) refers to cpu.o(.text) for OS_CPU_SR_Save
    rsh.o(.text) refers to string.o(.text) for raw_strncmp
    rsh.o(.text) refers to user_extension.o(.text) for raw_memset
    rsh.o(.text) refers to rsh.o(.data) for .data
    rsh.o(.text) refers to rsh.o(.conststring) for .conststring
    rsh.o(.constdata) refers to rsh.o(.conststring) for .conststring
    rsh.o(.constdata) refers to rsh.o(.text) for rsh_help_command
==============================================================================

Removing Unused input sections from the image.

    Removing rsh.o(.text), (472 bytes).
    Removing rsh.o(.constdata), (16 bytes).
    Removing rsh.o(.conststring), (50 bytes).
    Removing rsh.o(.conststring), (173 bytes).
    Removing rsh.o(.data), (20 bytes).
    Removing string.o(.text), (592 bytes).
    Removing sysinit.o(.rev16_text), (4 bytes).
    Removing sysinit.o(.revsh_text), (4 bytes).
    Removing lpc43xx_scu.o(.rev16_text), (4 bytes).
    Removing lpc43xx_scu.o(.revsh_text), (4 bytes).
    Removing lpc43xx_sdram.o(.rev16_text), (4 bytes).
    Removing lpc43xx_sdram.o(.revsh_text), (4 bytes).
    Removing main.o(.rev16_text), (4 bytes).
    Removing main.o(.revsh_text), (4 bytes).
    Removing main.o(.data), (4 bytes).
    Removing lpc43xx_lcd.o(.rev16_text), (4 bytes).
    Removing lpc43xx_lcd.o(.revsh_text), (4 bytes).
    Removing lpc43xx_gpio.o(.rev16_text), (4 bytes).
==============================================================================

Image Symbol Table

    Local Symbols

    Symbol Name                              Value     Ov Type        Size  Object(Section)

    ../clib/angel/boardlib.s                 0x00000000   Number         0  boardinit2.o ABSOLUTE
    ../clib/angel/boardlib.s                 0x00000000   Number         0  boardinit1.o ABSOLUTE
    ../clib/angel/boardlib.s                 0x00000000   Number         0  boardinit3.o ABSOLUTE
    ../clib/angel/boardlib.s                 0x00000000   Number         0  boardshut.o ABSOLUTE
    ../clib/angel/dczerorl2.s                0x00000000   Number         0  __dczerorl2.o ABSOLUTE
    ../clib/angel/handlers.s                 0x00000000   Number         0  __scatter_zi.o ABSOLUTE
    ../clib/angel/kernel.s                   0x00000000   Number         0  rtexit2.o ABSOLUTE
    ../clib/angel/kernel.s                   0x00000000   Number         0  rtexit.o ABSOLUTE
    ../clib/angel/kernel.s                   0x00000000   Number         0  __rtentry.o ABSOLUTE
    ../clib/angel/kernel.s                   0x00000000   Number         0  __rtentry2.o ABSOLUTE
    ../clib/angel/kernel.s                   0x00000000   Number         0  __rtentry4.o ABSOLUTE
    ../clib/angel/rt.s                       0x00000000   Number         0  rt_locale_intlibspace.o ABSOLUTE
    ../clib/angel/rt.s                       0x00000000   Number         0  rt_errno_addr.o ABSOLUTE
    ../clib/angel/rt.s                       0x00000000   Number         0  rt_errno_addr_intlibspace.o ABSOLUTE
    ../clib/angel/rt.s                       0x00000000   Number         0  aeabi_ldiv0_sigfpe.o ABSOLUTE
    ../clib/angel/rt.s                       0x00000000   Number         0  rt_raise.o ABSOLUTE
    ../clib/angel/rt.s                       0x00000000   Number         0  aeabi_ldiv0.o ABSOLUTE
    ../clib/angel/rt.s                       0x00000000   Number         0  rt_div0.o ABSOLUTE
    ../clib/angel/rt.s                       0x00000000   Number         0  rt_locale.o ABSOLUTE
    ../clib/angel/scatter.s                  0x00000000   Number         0  __scatter.o ABSOLUTE
    ../clib/angel/startup.s                  0x00000000   Number         0  __main.o ABSOLUTE
    ../clib/angel/sys.s                      0x00000000   Number         0  use_no_semi.o ABSOLUTE
    ../clib/angel/sys.s                      0x00000000   Number         0  indicate_semi.o ABSOLUTE
    ../clib/angel/sys.s                      0x00000000   Number         0  sys_stackheap_outer.o ABSOLUTE
    ../clib/angel/sys.s                      0x00000000   Number         0  libspace.o ABSOLUTE
    ../clib/angel/sysapp.c                   0x00000000   Number         0  sys_command.o ABSOLUTE
    ../clib/angel/sysapp.c                   0x00000000   Number         0  sys_wrch.o ABSOLUTE
    ../clib/armsys.c                         0x00000000   Number         0  argv_veneer.o ABSOLUTE
    ../clib/armsys.c                         0x00000000   Number         0  argv_veneer.o ABSOLUTE
    ../clib/armsys.c                         0x00000000   Number         0  _get_argv_nomalloc.o ABSOLUTE
    ../clib/armsys.c                         0x00000000   Number         0  no_argv.o ABSOLUTE
    ../clib/bigflt.c                         0x00000000   Number         0  bigflt0.o ABSOLUTE
    ../clib/btod.s                           0x00000000   Number         0  btod.o ABSOLUTE
    ../clib/fenv.c                           0x00000000   Number         0  _rserrno.o ABSOLUTE
    ../clib/heapalloc.c                      0x00000000   Number         0  hrguard.o ABSOLUTE
    ../clib/heapaux.c                        0x00000000   Number         0  heapauxi.o ABSOLUTE
    ../clib/libinit.s                        0x00000000   Number         0  libshutdown2.o ABSOLUTE
    ../clib/libinit.s                        0x00000000   Number         0  libinit.o ABSOLUTE
    ../clib/libinit.s                        0x00000000   Number         0  libinit2.o ABSOLUTE
    ../clib/libinit.s                        0x00000000   Number         0  libshutdown.o ABSOLUTE
    ../clib/locale.s                         0x00000000   Number         0  lc_numeric_c.o ABSOLUTE
    ../clib/longlong.s                       0x00000000   Number         0  lludiv10.o ABSOLUTE
    ../clib/longlong.s                       0x00000000   Number         0  lludivv7m.o ABSOLUTE
    ../clib/memcpset.s                       0x00000000   Number         0  rt_memmove_v6.o ABSOLUTE
    ../clib/memcpset.s                       0x00000000   Number         0  rt_memcpy_w.o ABSOLUTE
    ../clib/memcpset.s                       0x00000000   Number         0  aeabi_memset.o ABSOLUTE
    ../clib/memcpset.s                       0x00000000   Number         0  rt_memclr.o ABSOLUTE
    ../clib/memcpset.s                       0x00000000   Number         0  rt_memclr_w.o ABSOLUTE
    ../clib/memcpset.s                       0x00000000   Number         0  rt_memcpy_v6.o ABSOLUTE
    ../clib/memcpset.s                       0x00000000   Number         0  strcmpv7m.o ABSOLUTE
    ../clib/memcpset.s                       0x00000000   Number         0  rt_memmove_w.o ABSOLUTE
    ../clib/memcpset.s                       0x00000000   Number         0  strncpy.o ABSOLUTE
    ../clib/printf.c                         0x00000000   Number         0  _printf_char_common.o ABSOLUTE
    ../clib/printf.c                         0x00000000   Number         0  _printf_char_file.o ABSOLUTE
    ../clib/printf.c                         0x00000000   Number         0  _printf_fp_dec.o ABSOLUTE
    ../clib/printf.c                         0x00000000   Number         0  __printf_ss.o ABSOLUTE
    ../clib/printf.c                         0x00000000   Number         0  __printf_flags_ss.o ABSOLUTE
    ../clib/printf.c                         0x00000000   Number         0  noretval__2printf.o ABSOLUTE
    ../clib/printf.c                         0x00000000   Number         0  __printf_flags_wp.o ABSOLUTE
    ../clib/printf.c                         0x00000000   Number         0  __2printf.o ABSOLUTE
    ../clib/printf.c                         0x00000000   Number         0  __printf_ss_wp.o ABSOLUTE
    ../clib/printf.c                         0x00000000   Number         0  __printf_flags_ss_wp.o ABSOLUTE
    ../clib/printf.c                         0x00000000   Number         0  __printf.o ABSOLUTE
    ../clib/printf.c                         0x00000000   Number         0  __printf_nopercent.o ABSOLUTE
    ../clib/printf.c                         0x00000000   Number         0  __printf_wp.o ABSOLUTE
    ../clib/printf.c                         0x00000000   Number         0  __printf_flags.o ABSOLUTE
    ../clib/printf.c                         0x00000000   Number         0  _printf_fp_infnan.o ABSOLUTE
    ../clib/printf_percent.s                 0x00000000   Number         0  _printf_percent.o ABSOLUTE
    ../clib/printf_percent.s                 0x00000000   Number         0  _printf_f.o ABSOLUTE
    ../clib/printf_percent.s                 0x00000000   Number         0  _printf_percent_end.o ABSOLUTE
    ../clib/signal.c                         0x00000000   Number         0  defsig_exit.o ABSOLUTE
    ../clib/signal.c                         0x00000000   Number         0  defsig_other.o ABSOLUTE
    ../clib/signal.c                         0x00000000   Number         0  defsig_fpe_outer.o ABSOLUTE
    ../clib/signal.c                         0x00000000   Number         0  defsig_segv_inner.o ABSOLUTE
    ../clib/signal.c                         0x00000000   Number         0  defsig_general.o ABSOLUTE
    ../clib/signal.c                         0x00000000   Number         0  defsig_fpe_formal.o ABSOLUTE
    ../clib/signal.c                         0x00000000   Number         0  defsig_abrt_inner.o ABSOLUTE
    ../clib/signal.c                         0x00000000   Number         0  defsig_cppl_inner.o ABSOLUTE
    ../clib/signal.c                         0x00000000   Number         0  defsig_rtmem_inner.o ABSOLUTE
    ../clib/signal.c                         0x00000000   Number         0  defsig_pvfn_inner.o ABSOLUTE
    ../clib/signal.c                         0x00000000   Number         0  __raise.o ABSOLUTE
    ../clib/signal.c                         0x00000000   Number         0  defsig_rtred_inner.o ABSOLUTE
    ../clib/signal.c                         0x00000000   Number         0  defsig_stak_inner.o ABSOLUTE
    ../clib/signal.c                         0x00000000   Number         0  defsig_rtmem_formal.o ABSOLUTE
    ../clib/signal.c                         0x00000000   Number         0  defsig_rtmem_outer.o ABSOLUTE
    ../clib/signal.c                         0x00000000   Number         0  defsig_fpe_inner.o ABSOLUTE
    ../clib/signal.s                         0x00000000   Number         0  defsig.o ABSOLUTE
    ../clib/stdlib.c                         0x00000000   Number         0  rand.o ABSOLUTE
    ../clib/stdlib.c                         0x00000000   Number         0  exit.o ABSOLUTE
    ../clib/stdlib.c                         0x00000000   Number         0  rand.o ABSOLUTE
    ../clib/string.c                         0x00000000   Number         0  memcmp.o ABSOLUTE
    ../clib/string.c                         0x00000000   Number         0  strcat.o ABSOLUTE
    ../clib/string.c                         0x00000000   Number         0  strlen.o ABSOLUTE
    ../clib/string.c                         0x00000000   Number         0  strcpy.o ABSOLUTE
    ../fplib/basic.s                         0x00000000   Number         0  basic.o ABSOLUTE
    ../fplib/d2f.s                           0x00000000   Number         0  d2f.o ABSOLUTE
    ../fplib/daddsub.s                       0x00000000   Number         0  daddsub_clz.o ABSOLUTE
    ../fplib/dcmpi.s                         0x00000000   Number         0  dcmpi.o ABSOLUTE
    ../fplib/ddiv.s                          0x00000000   Number         0  ddiv.o ABSOLUTE
    ../fplib/dfix.s                          0x00000000   Number         0  dfix.o ABSOLUTE
    ../fplib/dflt.s                          0x00000000   Number         0  dflt_clz.o ABSOLUTE
    ../fplib/dleqf.s                         0x00000000   Number         0  dleqf.o ABSOLUTE
    ../fplib/dmul.s                          0x00000000   Number         0  dmul.o ABSOLUTE
    ../fplib/dnaninf.s                       0x00000000   Number         0  dnaninf.o ABSOLUTE
    ../fplib/dretinf.s                       0x00000000   Number         0  dretinf.o ABSOLUTE
    ../fplib/drleqf.s                        0x00000000   Number         0  drleqf.o ABSOLUTE
    ../fplib/dsqrt.s                         0x00000000   Number         0  dsqrt_umaal.o ABSOLUTE
    ../fplib/f2d.s                           0x00000000   Number         0  f2d.o ABSOLUTE
    ../fplib/fnaninf.s                       0x00000000   Number         0  fnaninf.o ABSOLUTE
    ../fplib/fpinit.s                        0x00000000   Number         0  fpinit.o ABSOLUTE
    ../fplib/fretinf.s                       0x00000000   Number         0  fretinf.o ABSOLUTE
    ../fplib/istatus.s                       0x00000000   Number         0  istatus.o ABSOLUTE
    ../fplib/printf1.s                       0x00000000   Number         0  printf1.o ABSOLUTE
    ../fplib/usenofp.s                       0x00000000   Number         0  usenofp.o ABSOLUTE
    ../mathlib/ceil.c                        0x00000000   Number         0  ceil.o ABSOLUTE
    ../mathlib/cos.c                         0x00000000   Number         0  cos_x.o ABSOLUTE
    ../mathlib/cos.c                         0x00000000   Number         0  cos.o ABSOLUTE
    ../mathlib/cos_i.c                       0x00000000   Number         0  cos_i.o ABSOLUTE
    ../mathlib/dunder.c                      0x00000000   Number         0  dunder.o ABSOLUTE
    ../mathlib/fabs.c                        0x00000000   Number         0  fabs.o ABSOLUTE
    ../mathlib/floor.c                       0x00000000   Number         0  floor.o ABSOLUTE
    ../mathlib/fpclassify.c                  0x00000000   Number         0  fpclassify.o ABSOLUTE
    ../mathlib/poly.c                        0x00000000   Number         0  poly.o ABSOLUTE
    ../mathlib/rred.c                        0x00000000   Number         0  rred.o ABSOLUTE
    ../mathlib/sin.c                         0x00000000   Number         0  sin.o ABSOLUTE
    ../mathlib/sin.c                         0x00000000   Number         0  sin_x.o ABSOLUTE
    ../mathlib/sin_i.c                       0x00000000   Number         0  sin_i_x.o ABSOLUTE
    ../mathlib/sin_i.c                       0x00000000   Number         0  sin_i.o ABSOLUTE
    ../mathlib/sqrt.c                        0x00000000   Number         0  sqrt.o ABSOLUTE
    ../mathlib/sqrt.c                        0x00000000   Number         0  sqrt_x.o ABSOLUTE
    ..\..\..\..\software\common\another_touch.c 0x00000000   Number         0  another_touch.o ABSOLUTE
    ..\..\..\..\software\common\lpc43xx_gpio.c 0x00000000   Number         0  lpc43xx_gpio.o ABSOLUTE
    ..\..\..\..\software\common\lpc43xx_lcd.c 0x00000000   Number         0  lpc43xx_lcd.o ABSOLUTE
    ..\..\..\..\software\common\lpc43xx_scu.c 0x00000000   Number         0  lpc43xx_scu.o ABSOLUTE
    ..\..\..\..\software\common\lpc43xx_sdram.c 0x00000000   Number         0  lpc43xx_sdram.o ABSOLUTE
    ..\..\..\..\software\common\lpc43xx_ssp1.c 0x00000000   Number         0  lpc43xx_ssp1.o ABSOLUTE
    ..\..\..\..\software\kernel\port\cpu.asm 0x00000000   Number         0  cpu.o ABSOLUTE
    ..\..\..\..\software\kernel\port\port.c  0x00000000   Number         0  port.o ABSOLUTE
    ..\..\..\..\software\kernel\port\port_error_process.c 0x00000000   Number         0  port_error_process.o ABSOLUTE
    ..\..\..\..\software\kernel\port\port_extension.c 0x00000000   Number         0  port_extension.o ABSOLUTE
    ..\..\..\..\software\kernel\port\port_hook.c 0x00000000   Number         0  port_hook.o ABSOLUTE
    ..\..\..\..\software\kernel\port\raw_trace_port.c 0x00000000   Number         0  raw_trace_port.o ABSOLUTE
    ..\..\..\..\software\kernel\port\user_extension.c 0x00000000   Number         0  user_extension.o ABSOLUTE
    ..\..\..\..\software\kernel\raw-os\extension\lib\fifo.c 0x00000000   Number         0  fifo.o ABSOLUTE
    ..\..\..\..\software\kernel\raw-os\extension\lib\string.c 0x00000000   Number         0  string.o ABSOLUTE
    ..\..\..\..\software\kernel\raw-os\extension\shell\rsh.c 0x00000000   Number         0  rsh.o ABSOLUTE
    ..\..\..\..\software\kernel\raw-os\raw-os.c 0x00000000   Number         0  raw-os.o ABSOLUTE
    ..\..\..\..\software\uCGUI\AntiAlias\GUIAAArc.c 0x00000000   Number         0  guiaaarc.o ABSOLUTE
    ..\..\..\..\software\uCGUI\AntiAlias\GUIAAChar.c 0x00000000   Number         0  guiaachar.o ABSOLUTE
    ..\..\..\..\software\uCGUI\AntiAlias\GUIAAChar2.c 0x00000000   Number         0  guiaachar2.o ABSOLUTE
    ..\..\..\..\software\uCGUI\AntiAlias\GUIAAChar4.c 0x00000000   Number         0  guiaachar4.o ABSOLUTE
    ..\..\..\..\software\uCGUI\AntiAlias\GUIAACircle.c 0x00000000   Number         0  guiaacircle.o ABSOLUTE
    ..\..\..\..\software\uCGUI\AntiAlias\GUIAALib.c 0x00000000   Number         0  guiaalib.o ABSOLUTE
    ..\..\..\..\software\uCGUI\AntiAlias\GUIAALine.c 0x00000000   Number         0  guiaaline.o ABSOLUTE
    ..\..\..\..\software\uCGUI\AntiAlias\GUIAAPoly.c 0x00000000   Number         0  guiaapoly.o ABSOLUTE
    ..\..\..\..\software\uCGUI\AntiAlias\GUIAAPolyOut.c 0x00000000   Number         0  guiaapolyout.o ABSOLUTE
    ..\..\..\..\software\uCGUI\ConvertColor\LCDP111.c 0x00000000   Number         0  lcdp111.o ABSOLUTE
    ..\..\..\..\software\uCGUI\ConvertColor\LCDP222.c 0x00000000   Number         0  lcdp222.o ABSOLUTE
    ..\..\..\..\software\uCGUI\ConvertColor\LCDP233.c 0x00000000   Number         0  lcdp233.o ABSOLUTE
    ..\..\..\..\software\uCGUI\ConvertColor\LCDP323.c 0x00000000   Number         0  lcdp323.o ABSOLUTE
    ..\..\..\..\software\uCGUI\ConvertColor\LCDP332.c 0x00000000   Number         0  lcdp332.o ABSOLUTE
    ..\..\..\..\software\uCGUI\ConvertColor\LCDP444_12.c 0x00000000   Number         0  lcdp444_12.o ABSOLUTE
    ..\..\..\..\software\uCGUI\ConvertColor\LCDP444_12_1.c 0x00000000   Number         0  lcdp444_12_1.o ABSOLUTE
    ..\..\..\..\software\uCGUI\ConvertColor\LCDP444_16.c 0x00000000   Number         0  lcdp444_16.o ABSOLUTE
    ..\..\..\..\software\uCGUI\ConvertColor\LCDP555.c 0x00000000   Number         0  lcdp555.o ABSOLUTE
    ..\..\..\..\software\uCGUI\ConvertColor\LCDP556.c 0x00000000   Number         0  lcdp556.o ABSOLUTE
    ..\..\..\..\software\uCGUI\ConvertColor\LCDP565.c 0x00000000   Number         0  lcdp565.o ABSOLUTE
    ..\..\..\..\software\uCGUI\ConvertColor\LCDP655.c 0x00000000   Number         0  lcdp655.o ABSOLUTE
    ..\..\..\..\software\uCGUI\ConvertColor\LCDP666.c 0x00000000   Number         0  lcdp666.o ABSOLUTE
    ..\..\..\..\software\uCGUI\ConvertColor\LCDP8666.c 0x00000000   Number         0  lcdp8666.o ABSOLUTE
    ..\..\..\..\software\uCGUI\ConvertColor\LCDP8666_1.c 0x00000000   Number         0  lcdp8666_1.o ABSOLUTE
    ..\..\..\..\software\uCGUI\ConvertColor\LCDP888.c 0x00000000   Number         0  lcdp888.o ABSOLUTE
    ..\..\..\..\software\uCGUI\ConvertColor\LCDPM233.c 0x00000000   Number         0  lcdpm233.o ABSOLUTE
    ..\..\..\..\software\uCGUI\ConvertColor\LCDPM323.c 0x00000000   Number         0  lcdpm323.o ABSOLUTE
    ..\..\..\..\software\uCGUI\ConvertColor\LCDPM332.c 0x00000000   Number         0  lcdpm332.o ABSOLUTE
    ..\..\..\..\software\uCGUI\ConvertColor\LCDPM444_12.c 0x00000000   Number         0  lcdpm444_12.o ABSOLUTE
    ..\..\..\..\software\uCGUI\ConvertColor\LCDPM444_16.c 0x00000000   Number         0  lcdpm444_16.o ABSOLUTE
    ..\..\..\..\software\uCGUI\ConvertColor\LCDPM555.c 0x00000000   Number         0  lcdpm555.o ABSOLUTE
    ..\..\..\..\software\uCGUI\ConvertColor\LCDPM556.c 0x00000000   Number         0  lcdpm556.o ABSOLUTE
    ..\..\..\..\software\uCGUI\ConvertColor\LCDPM565.c 0x00000000   Number         0  lcdpm565.o ABSOLUTE
    ..\..\..\..\software\uCGUI\ConvertColor\LCDPM655.c 0x00000000   Number         0  lcdpm655.o ABSOLUTE
    ..\..\..\..\software\uCGUI\ConvertColor\LCDPM666.c 0x00000000   Number         0  lcdpm666.o ABSOLUTE
    ..\..\..\..\software\uCGUI\ConvertColor\LCDPM888.c 0x00000000   Number         0  lcdpm888.o ABSOLUTE
    ..\..\..\..\software\uCGUI\ConvertMono\LCDP0.c 0x00000000   Number         0  lcdp0.o ABSOLUTE
    ..\..\..\..\software\uCGUI\ConvertMono\LCDP2.c 0x00000000   Number         0  lcdp2.o ABSOLUTE
    ..\..\..\..\software\uCGUI\ConvertMono\LCDP4.c 0x00000000   Number         0  lcdp4.o ABSOLUTE
    ..\..\..\..\software\uCGUI\Core\GUI2DLib.c 0x00000000   Number         0  gui2dlib.o ABSOLUTE
    ..\..\..\..\software\uCGUI\Core\GUIAlloc.c 0x00000000   Number         0  guialloc.o ABSOLUTE
    ..\..\..\..\software\uCGUI\Core\GUIArc.c 0x00000000   Number         0  guiarc.o ABSOLUTE
    ..\..\..\..\software\uCGUI\Core\GUIChar.c 0x00000000   Number         0  guichar.o ABSOLUTE
    ..\..\..\..\software\uCGUI\Core\GUICharLine.c 0x00000000   Number         0  guicharline.o ABSOLUTE
    ..\..\..\..\software\uCGUI\Core\GUICharM.c 0x00000000   Number         0  guicharm.o ABSOLUTE
    ..\..\..\..\software\uCGUI\Core\GUICharP.c 0x00000000   Number         0  guicharp.o ABSOLUTE
    ..\..\..\..\software\uCGUI\Core\GUICirc.c 0x00000000   Number         0  guicirc.o ABSOLUTE
    ..\..\..\..\software\uCGUI\Core\GUIColor2Index.c 0x00000000   Number         0  guicolor2index.o ABSOLUTE
    ..\..\..\..\software\uCGUI\Core\GUICore.c 0x00000000   Number         0  guicore.o ABSOLUTE
    ..\..\..\..\software\uCGUI\Core\GUICurs.c 0x00000000   Number         0  guicurs.o ABSOLUTE
    ..\..\..\..\software\uCGUI\Core\GUIEncJS.c 0x00000000   Number         0  guiencjs.o ABSOLUTE
    ..\..\..\..\software\uCGUI\Core\GUIIndex2Color.c 0x00000000   Number         0  guiindex2color.o ABSOLUTE
    ..\..\..\..\software\uCGUI\Core\GUIPolyE.c 0x00000000   Number         0  guipolye.o ABSOLUTE
    ..\..\..\..\software\uCGUI\Core\GUIPolyM.c 0x00000000   Number         0  guipolym.o ABSOLUTE
    ..\..\..\..\software\uCGUI\Core\GUIPolyR.c 0x00000000   Number         0  guipolyr.o ABSOLUTE
    ..\..\..\..\software\uCGUI\Core\GUIRealloc.c 0x00000000   Number         0  guirealloc.o ABSOLUTE
    ..\..\..\..\software\uCGUI\Core\GUIStream.c 0x00000000   Number         0  guistream.o ABSOLUTE
    ..\..\..\..\software\uCGUI\Core\GUITask.c 0x00000000   Number         0  guitask.o ABSOLUTE
    ..\..\..\..\software\uCGUI\Core\GUITime.c 0x00000000   Number         0  guitime.o ABSOLUTE
    ..\..\..\..\software\uCGUI\Core\GUITimer.c 0x00000000   Number         0  guitimer.o ABSOLUTE
    ..\..\..\..\software\uCGUI\Core\GUIUC0.c 0x00000000   Number         0  guiuc0.o ABSOLUTE
    ..\..\..\..\software\uCGUI\Core\GUIVal.c 0x00000000   Number         0  guival.o ABSOLUTE
    ..\..\..\..\software\uCGUI\Core\GUIValf.c 0x00000000   Number         0  guivalf.o ABSOLUTE
    ..\..\..\..\software\uCGUI\Core\GUI_ALLOC_AllocInit.c 0x00000000   Number         0  gui_alloc_allocinit.o ABSOLUTE
    ..\..\..\..\software\uCGUI\Core\GUI_ALLOC_AllocZero.c 0x00000000   Number         0  gui_alloc_alloczero.o ABSOLUTE
    ..\..\..\..\software\uCGUI\Core\GUI_AddBin.c 0x00000000   Number         0  gui_addbin.o ABSOLUTE
    ..\..\..\..\software\uCGUI\Core\GUI_AddDec.c 0x00000000   Number         0  gui_adddec.o ABSOLUTE
    ..\..\..\..\software\uCGUI\Core\GUI_AddDecMin.c 0x00000000   Number         0  gui_adddecmin.o ABSOLUTE
    ..\..\..\..\software\uCGUI\Core\GUI_AddDecShift.c 0x00000000   Number         0  gui_adddecshift.o ABSOLUTE
    ..\..\..\..\software\uCGUI\Core\GUI_AddHex.c 0x00000000   Number         0  gui_addhex.o ABSOLUTE
    ..\..\..\..\software\uCGUI\Core\GUI_AddKeyMsgHook.c 0x00000000   Number         0  gui_addkeymsghook.o ABSOLUTE
    ..\..\..\..\software\uCGUI\Core\GUI_BMP.c 0x00000000   Number         0  gui_bmp.o ABSOLUTE
    ..\..\..\..\software\uCGUI\Core\GUI_BMP_Serialize.c 0x00000000   Number         0  gui_bmp_serialize.o ABSOLUTE
    ..\..\..\..\software\uCGUI\Core\GUI_CalcColorDist.c 0x00000000   Number         0  gui_calccolordist.o ABSOLUTE
    ..\..\..\..\software\uCGUI\Core\GUI_ClearRectEx.c 0x00000000   Number         0  gui_clearrectex.o ABSOLUTE
    ..\..\..\..\software\uCGUI\Core\GUI_Color2VisColor.c 0x00000000   Number         0  gui_color2viscolor.o ABSOLUTE
    ..\..\..\..\software\uCGUI\Core\GUI_CursorArrowL.c 0x00000000   Number         0  gui_cursorarrowl.o ABSOLUTE
    ..\..\..\..\software\uCGUI\Core\GUI_CursorArrowLI.c 0x00000000   Number         0  gui_cursorarrowli.o ABSOLUTE
    ..\..\..\..\software\uCGUI\Core\GUI_CursorArrowLPx.c 0x00000000   Number         0  gui_cursorarrowlpx.o ABSOLUTE
    ..\..\..\..\software\uCGUI\Core\GUI_CursorArrowM.c 0x00000000   Number         0  gui_cursorarrowm.o ABSOLUTE
    ..\..\..\..\software\uCGUI\Core\GUI_CursorArrowMI.c 0x00000000   Number         0  gui_cursorarrowmi.o ABSOLUTE
    ..\..\..\..\software\uCGUI\Core\GUI_CursorArrowMPx.c 0x00000000   Number         0  gui_cursorarrowmpx.o ABSOLUTE
    ..\..\..\..\software\uCGUI\Core\GUI_CursorArrowS.c 0x00000000   Number         0  gui_cursorarrows.o ABSOLUTE
    ..\..\..\..\software\uCGUI\Core\GUI_CursorArrowSI.c 0x00000000   Number         0  gui_cursorarrowsi.o ABSOLUTE
    ..\..\..\..\software\uCGUI\Core\GUI_CursorArrowSPx.c 0x00000000   Number         0  gui_cursorarrowspx.o ABSOLUTE
    ..\..\..\..\software\uCGUI\Core\GUI_CursorCrossL.c 0x00000000   Number         0  gui_cursorcrossl.o ABSOLUTE
    ..\..\..\..\software\uCGUI\Core\GUI_CursorCrossLI.c 0x00000000   Number         0  gui_cursorcrossli.o ABSOLUTE
    ..\..\..\..\software\uCGUI\Core\GUI_CursorCrossLPx.c 0x00000000   Number         0  gui_cursorcrosslpx.o ABSOLUTE
    ..\..\..\..\software\uCGUI\Core\GUI_CursorCrossM.c 0x00000000   Number         0  gui_cursorcrossm.o ABSOLUTE
    ..\..\..\..\software\uCGUI\Core\GUI_CursorCrossMI.c 0x00000000   Number         0  gui_cursorcrossmi.o ABSOLUTE
    ..\..\..\..\software\uCGUI\Core\GUI_CursorCrossMPx.c 0x00000000   Number         0  gui_cursorcrossmpx.o ABSOLUTE
    ..\..\..\..\software\uCGUI\Core\GUI_CursorCrossS.c 0x00000000   Number         0  gui_cursorcrosss.o ABSOLUTE
    ..\..\..\..\software\uCGUI\Core\GUI_CursorCrossSI.c 0x00000000   Number         0  gui_cursorcrosssi.o ABSOLUTE
    ..\..\..\..\software\uCGUI\Core\GUI_CursorCrossSPx.c 0x00000000   Number         0  gui_cursorcrossspx.o ABSOLUTE
    ..\..\..\..\software\uCGUI\Core\GUI_CursorHeaderM.c 0x00000000   Number         0  gui_cursorheaderm.o ABSOLUTE
    ..\..\..\..\software\uCGUI\Core\GUI_CursorHeaderMI.c 0x00000000   Number         0  gui_cursorheadermi.o ABSOLUTE
    ..\..\..\..\software\uCGUI\Core\GUI_CursorHeaderMPx.c 0x00000000   Number         0  gui_cursorheadermpx.o ABSOLUTE
    ..\..\..\..\software\uCGUI\Core\GUI_CursorPal.c 0x00000000   Number         0  gui_cursorpal.o ABSOLUTE
    ..\..\..\..\software\uCGUI\Core\GUI_CursorPalI.c 0x00000000   Number         0  gui_cursorpali.o ABSOLUTE
    ..\..\..\..\software\uCGUI\Core\GUI_DispBin.c 0x00000000   Number         0  gui_dispbin.o ABSOLUTE
    ..\..\..\..\software\uCGUI\Core\GUI_DispCEOL.c 0x00000000   Number         0  gui_dispceol.o ABSOLUTE
    ..\..\..\..\software\uCGUI\Core\GUI_DispChar.c 0x00000000   Number         0  gui_dispchar.o ABSOLUTE
    ..\..\..\..\software\uCGUI\Core\GUI_DispChars.c 0x00000000   Number         0  gui_dispchars.o ABSOLUTE
    ..\..\..\..\software\uCGUI\Core\GUI_DispHex.c 0x00000000   Number         0  gui_disphex.o ABSOLUTE
    ..\..\..\..\software\uCGUI\Core\GUI_DispString.c 0x00000000   Number         0  gui_dispstring.o ABSOLUTE
    ..\..\..\..\software\uCGUI\Core\GUI_DispStringAt.c 0x00000000   Number         0  gui_dispstringat.o ABSOLUTE
    ..\..\..\..\software\uCGUI\Core\GUI_DispStringAtCEOL.c 0x00000000   Number         0  gui_dispstringatceol.o ABSOLUTE
    ..\..\..\..\software\uCGUI\Core\GUI_DispStringHCenter.c 0x00000000   Number         0  gui_dispstringhcenter.o ABSOLUTE
    ..\..\..\..\software\uCGUI\Core\GUI_DispStringInRect.c 0x00000000   Number         0  gui_dispstringinrect.o ABSOLUTE
    ..\..\..\..\software\uCGUI\Core\GUI_DispStringInRectEx.c 0x00000000   Number         0  gui_dispstringinrectex.o ABSOLUTE
    ..\..\..\..\software\uCGUI\Core\GUI_DispStringInRectMax.c 0x00000000   Number         0  gui_dispstringinrectmax.o ABSOLUTE
    ..\..\..\..\software\uCGUI\Core\GUI_DispStringInRectWrap.c 0x00000000   Number         0  gui_dispstringinrectwrap.o ABSOLUTE
    ..\..\..\..\software\uCGUI\Core\GUI_DispStringLen.c 0x00000000   Number         0  gui_dispstringlen.o ABSOLUTE
    ..\..\..\..\software\uCGUI\Core\GUI_DrawBitmap.c 0x00000000   Number         0  gui_drawbitmap.o ABSOLUTE
    ..\..\..\..\software\uCGUI\Core\GUI_DrawBitmapEx.c 0x00000000   Number         0  gui_drawbitmapex.o ABSOLUTE
    ..\..\..\..\software\uCGUI\Core\GUI_DrawBitmapExp.c 0x00000000   Number         0  gui_drawbitmapexp.o ABSOLUTE
    ..\..\..\..\software\uCGUI\Core\GUI_DrawBitmapMag.c 0x00000000   Number         0  gui_drawbitmapmag.o ABSOLUTE
    ..\..\..\..\software\uCGUI\Core\GUI_DrawBitmap_555.c 0x00000000   Number         0  gui_drawbitmap_555.o ABSOLUTE
    ..\..\..\..\software\uCGUI\Core\GUI_DrawBitmap_565.c 0x00000000   Number         0  gui_drawbitmap_565.o ABSOLUTE
    ..\..\..\..\software\uCGUI\Core\GUI_DrawBitmap_888.c 0x00000000   Number         0  gui_drawbitmap_888.o ABSOLUTE
    ..\..\..\..\software\uCGUI\Core\GUI_DrawFocusRect.c 0x00000000   Number         0  gui_drawfocusrect.o ABSOLUTE
    ..\..\..\..\software\uCGUI\Core\GUI_DrawGraph.c 0x00000000   Number         0  gui_drawgraph.o ABSOLUTE
    ..\..\..\..\software\uCGUI\Core\GUI_DrawGraphEx.c 0x00000000   Number         0  gui_drawgraphex.o ABSOLUTE
    ..\..\..\..\software\uCGUI\Core\GUI_DrawHLine.c 0x00000000   Number         0  gui_drawhline.o ABSOLUTE
    ..\..\..\..\software\uCGUI\Core\GUI_DrawLine.c 0x00000000   Number         0  gui_drawline.o ABSOLUTE
    ..\..\..\..\software\uCGUI\Core\GUI_DrawPie.c 0x00000000   Number         0  gui_drawpie.o ABSOLUTE
    ..\..\..\..\software\uCGUI\Core\GUI_DrawPixel.c 0x00000000   Number         0  gui_drawpixel.o ABSOLUTE
    ..\..\..\..\software\uCGUI\Core\GUI_DrawPoint.c 0x00000000   Number         0  gui_drawpoint.o ABSOLUTE
    ..\..\..\..\software\uCGUI\Core\GUI_DrawPolygon.c 0x00000000   Number         0  gui_drawpolygon.o ABSOLUTE
    ..\..\..\..\software\uCGUI\Core\GUI_DrawPolyline.c 0x00000000   Number         0  gui_drawpolyline.o ABSOLUTE
    ..\..\..\..\software\uCGUI\Core\GUI_DrawRectEx.c 0x00000000   Number         0  gui_drawrectex.o ABSOLUTE
    ..\..\..\..\software\uCGUI\Core\GUI_DrawVLine.c 0x00000000   Number         0  gui_drawvline.o ABSOLUTE
    ..\..\..\..\software\uCGUI\Core\GUI_ErrorOut.c 0x00000000   Number         0  gui_errorout.o ABSOLUTE
    ..\..\..\..\software\uCGUI\Core\GUI_Exec.c 0x00000000   Number         0  gui_exec.o ABSOLUTE
    ..\..\..\..\software\uCGUI\Core\GUI_FillPolygon.c 0x00000000   Number         0  gui_fillpolygon.o ABSOLUTE
    ..\..\..\..\software\uCGUI\Core\GUI_FillRect.c 0x00000000   Number         0  gui_fillrect.o ABSOLUTE
    ..\..\..\..\software\uCGUI\Core\GUI_FillRectEx.c 0x00000000   Number         0  gui_fillrectex.o ABSOLUTE
    ..\..\..\..\software\uCGUI\Core\GUI_GIF.c 0x00000000   Number         0  gui_gif.o ABSOLUTE
    ..\..\..\..\software\uCGUI\Core\GUI_GetBitmapPixelColor.c 0x00000000   Number         0  gui_getbitmappixelcolor.o ABSOLUTE
    ..\..\..\..\software\uCGUI\Core\GUI_GetBitmapPixelIndex.c 0x00000000   Number         0  gui_getbitmappixelindex.o ABSOLUTE
    ..\..\..\..\software\uCGUI\Core\GUI_GetClientRect.c 0x00000000   Number         0  gui_getclientrect.o ABSOLUTE
    ..\..\..\..\software\uCGUI\Core\GUI_GetColor.c 0x00000000   Number         0  gui_getcolor.o ABSOLUTE
    ..\..\..\..\software\uCGUI\Core\GUI_GetDispPos.c 0x00000000   Number         0  gui_getdisppos.o ABSOLUTE
    ..\..\..\..\software\uCGUI\Core\GUI_GetDrawMode.c 0x00000000   Number         0  gui_getdrawmode.o ABSOLUTE
    ..\..\..\..\software\uCGUI\Core\GUI_GetFont.c 0x00000000   Number         0  gui_getfont.o ABSOLUTE
    ..\..\..\..\software\uCGUI\Core\GUI_GetFontInfo.c 0x00000000   Number         0  gui_getfontinfo.o ABSOLUTE
    ..\..\..\..\software\uCGUI\Core\GUI_GetFontSizeY.c 0x00000000   Number         0  gui_getfontsizey.o ABSOLUTE
    ..\..\..\..\software\uCGUI\Core\GUI_GetLineStyle.c 0x00000000   Number         0  gui_getlinestyle.o ABSOLUTE
    ..\..\..\..\software\uCGUI\Core\GUI_GetOrg.c 0x00000000   Number         0  gui_getorg.o ABSOLUTE
    ..\..\..\..\software\uCGUI\Core\GUI_GetStringDistX.c 0x00000000   Number         0  gui_getstringdistx.o ABSOLUTE
    ..\..\..\..\software\uCGUI\Core\GUI_GetTextAlign.c 0x00000000   Number         0  gui_gettextalign.o ABSOLUTE
    ..\..\..\..\software\uCGUI\Core\GUI_GetTextExtend.c 0x00000000   Number         0  gui_gettextextend.o ABSOLUTE
    ..\..\..\..\software\uCGUI\Core\GUI_GetTextMode.c 0x00000000   Number         0  gui_gettextmode.o ABSOLUTE
    ..\..\..\..\software\uCGUI\Core\GUI_GetVersionString.c 0x00000000   Number         0  gui_getversionstring.o ABSOLUTE
    ..\..\..\..\software\uCGUI\Core\GUI_GetYSizeOfFont.c 0x00000000   Number         0  gui_getysizeoffont.o ABSOLUTE
    ..\..\..\..\software\uCGUI\Core\GUI_Goto.c 0x00000000   Number         0  gui_goto.o ABSOLUTE
    ..\..\..\..\software\uCGUI\Core\GUI_InitLUT.c 0x00000000   Number         0  gui_initlut.o ABSOLUTE
    ..\..\..\..\software\uCGUI\Core\GUI_InvertRect.c 0x00000000   Number         0  gui_invertrect.o ABSOLUTE
    ..\..\..\..\software\uCGUI\Core\GUI_IsInFont.c 0x00000000   Number         0  gui_isinfont.o ABSOLUTE
    ..\..\..\..\software\uCGUI\Core\GUI_Log.c 0x00000000   Number         0  gui_log.o ABSOLUTE
    ..\..\..\..\software\uCGUI\Core\GUI_MOUSE.c 0x00000000   Number         0  gui_mouse.o ABSOLUTE
    ..\..\..\..\software\uCGUI\Core\GUI_MOUSE_DriverPS2.c 0x00000000   Number         0  gui_mouse_driverps2.o ABSOLUTE
    ..\..\..\..\software\uCGUI\Core\GUI_MergeRect.c 0x00000000   Number         0  gui_mergerect.o ABSOLUTE
    ..\..\..\..\software\uCGUI\Core\GUI_MoveRect.c 0x00000000   Number         0  gui_moverect.o ABSOLUTE
    ..\..\..\..\software\uCGUI\Core\GUI_OnKey.c 0x00000000   Number         0  gui_onkey.o ABSOLUTE
    ..\..\..\..\software\uCGUI\Core\GUI_PID.c 0x00000000   Number         0  gui_pid.o ABSOLUTE
    ..\..\..\..\software\uCGUI\Core\GUI_Pen.c 0x00000000   Number         0  gui_pen.o ABSOLUTE
    ..\..\..\..\software\uCGUI\Core\GUI_RectsIntersect.c 0x00000000   Number         0  gui_rectsintersect.o ABSOLUTE
    ..\..\..\..\software\uCGUI\Core\GUI_SIF.c 0x00000000   Number         0  gui_sif.o ABSOLUTE
    ..\..\..\..\software\uCGUI\Core\GUI_SIF_Prop.c 0x00000000   Number         0  gui_sif_prop.o ABSOLUTE
    ..\..\..\..\software\uCGUI\Core\GUI_SaveContext.c 0x00000000   Number         0  gui_savecontext.o ABSOLUTE
    ..\..\..\..\software\uCGUI\Core\GUI_ScreenSize.c 0x00000000   Number         0  gui_screensize.o ABSOLUTE
    ..\..\..\..\software\uCGUI\Core\GUI_SelectLCD.c 0x00000000   Number         0  gui_selectlcd.o ABSOLUTE
    ..\..\..\..\software\uCGUI\Core\GUI_SelectLayer.c 0x00000000   Number         0  gui_selectlayer.o ABSOLUTE
    ..\..\..\..\software\uCGUI\Core\GUI_SetClipRect.c 0x00000000   Number         0  gui_setcliprect.o ABSOLUTE
    ..\..\..\..\software\uCGUI\Core\GUI_SetColor.c 0x00000000   Number         0  gui_setcolor.o ABSOLUTE
    ..\..\..\..\software\uCGUI\Core\GUI_SetColorIndex.c 0x00000000   Number         0  gui_setcolorindex.o ABSOLUTE
    ..\..\..\..\software\uCGUI\Core\GUI_SetDecChar.c 0x00000000   Number         0  gui_setdecchar.o ABSOLUTE
    ..\..\..\..\software\uCGUI\Core\GUI_SetDefault.c 0x00000000   Number         0  gui_setdefault.o ABSOLUTE
    ..\..\..\..\software\uCGUI\Core\GUI_SetDrawMode.c 0x00000000   Number         0  gui_setdrawmode.o ABSOLUTE
    ..\..\..\..\software\uCGUI\Core\GUI_SetFont.c 0x00000000   Number         0  gui_setfont.o ABSOLUTE
    ..\..\..\..\software\uCGUI\Core\GUI_SetLBorder.c 0x00000000   Number         0  gui_setlborder.o ABSOLUTE
    ..\..\..\..\software\uCGUI\Core\GUI_SetLUTColor.c 0x00000000   Number         0  gui_setlutcolor.o ABSOLUTE
    ..\..\..\..\software\uCGUI\Core\GUI_SetLUTColorEx.c 0x00000000   Number         0  gui_setlutcolorex.o ABSOLUTE
    ..\..\..\..\software\uCGUI\Core\GUI_SetLUTEntry.c 0x00000000   Number         0  gui_setlutentry.o ABSOLUTE
    ..\..\..\..\software\uCGUI\Core\GUI_SetLineStyle.c 0x00000000   Number         0  gui_setlinestyle.o ABSOLUTE
    ..\..\..\..\software\uCGUI\Core\GUI_SetOrg.c 0x00000000   Number         0  gui_setorg.o ABSOLUTE
    ..\..\..\..\software\uCGUI\Core\GUI_SetPixelIndex.c 0x00000000   Number         0  gui_setpixelindex.o ABSOLUTE
    ..\..\..\..\software\uCGUI\Core\GUI_SetTextAlign.c 0x00000000   Number         0  gui_settextalign.o ABSOLUTE
    ..\..\..\..\software\uCGUI\Core\GUI_SetTextMode.c 0x00000000   Number         0  gui_settextmode.o ABSOLUTE
    ..\..\..\..\software\uCGUI\Core\GUI_SetTextStyle.c 0x00000000   Number         0  gui_settextstyle.o ABSOLUTE
    ..\..\..\..\software\uCGUI\Core\GUI_TOUCH.c 0x00000000   Number         0  gui_touch.o ABSOLUTE
    ..\..\..\..\software\uCGUI\Core\GUI_TOUCH_DriverAnalog.c 0x00000000   Number         0  gui_touch_driveranalog.o ABSOLUTE
    ..\..\..\..\software\uCGUI\Core\GUI_TOUCH_StoreState.c 0x00000000   Number         0  gui_touch_storestate.o ABSOLUTE
    ..\..\..\..\software\uCGUI\Core\GUI_TOUCH_StoreUnstable.c 0x00000000   Number         0  gui_touch_storeunstable.o ABSOLUTE
    ..\..\..\..\software\uCGUI\Core\GUI_UC.c 0x00000000   Number         0  gui_uc.o ABSOLUTE
    ..\..\..\..\software\uCGUI\Core\GUI_UC_ConvertUC2UTF8.c 0x00000000   Number         0  gui_uc_convertuc2utf8.o ABSOLUTE
    ..\..\..\..\software\uCGUI\Core\GUI_UC_ConvertUTF82UC.c 0x00000000   Number         0  gui_uc_convertutf82uc.o ABSOLUTE
    ..\..\..\..\software\uCGUI\Core\GUI_UC_DispString.c 0x00000000   Number         0  gui_uc_dispstring.o ABSOLUTE
    ..\..\..\..\software\uCGUI\Core\GUI_UC_EncodeNone.c 0x00000000   Number         0  gui_uc_encodenone.o ABSOLUTE
    ..\..\..\..\software\uCGUI\Core\GUI_UC_EncodeUTF8.c 0x00000000   Number         0  gui_uc_encodeutf8.o ABSOLUTE
    ..\..\..\..\software\uCGUI\Core\GUI_WaitEvent.c 0x00000000   Number         0  gui_waitevent.o ABSOLUTE
    ..\..\..\..\software\uCGUI\Core\GUI_WaitKey.c 0x00000000   Number         0  gui_waitkey.o ABSOLUTE
    ..\..\..\..\software\uCGUI\Core\GUI_Warn.c 0x00000000   Number         0  gui_warn.o ABSOLUTE
    ..\..\..\..\software\uCGUI\Core\GUI__AddSpaceHex.c 0x00000000   Number         0  gui__addspacehex.o ABSOLUTE
    ..\..\..\..\software\uCGUI\Core\GUI__Arabic.c 0x00000000   Number         0  gui__arabic.o ABSOLUTE
    ..\..\..\..\software\uCGUI\Core\GUI__CalcTextRect.c 0x00000000   Number         0  gui__calctextrect.o ABSOLUTE
    ..\..\..\..\software\uCGUI\Core\GUI__DivideRound.c 0x00000000   Number         0  gui__divideround.o ABSOLUTE
    ..\..\..\..\software\uCGUI\Core\GUI__DivideRound32.c 0x00000000   Number         0  gui__divideround32.o ABSOLUTE
    ..\..\..\..\software\uCGUI\Core\GUI__DrawBitmap16bpp.c 0x00000000   Number         0  gui__drawbitmap16bpp.o ABSOLUTE
    ..\..\..\..\software\uCGUI\Core\GUI__GetCursorPos.c 0x00000000   Number         0  gui__getcursorpos.o ABSOLUTE
    ..\..\..\..\software\uCGUI\Core\GUI__GetFontSizeY.c 0x00000000   Number         0  gui__getfontsizey.o ABSOLUTE
    ..\..\..\..\software\uCGUI\Core\GUI__GetNumChars.c 0x00000000   Number         0  gui__getnumchars.o ABSOLUTE
    ..\..\..\..\software\uCGUI\Core\GUI__HandleEOLine.c 0x00000000   Number         0  gui__handleeoline.o ABSOLUTE
    ..\..\..\..\software\uCGUI\Core\GUI__IntersectRect.c 0x00000000   Number         0  gui__intersectrect.o ABSOLUTE
    ..\..\..\..\software\uCGUI\Core\GUI__IntersectRects.c 0x00000000   Number         0  gui__intersectrects.o ABSOLUTE
    ..\..\..\..\software\uCGUI\Core\GUI__Read.c 0x00000000   Number         0  gui__read.o ABSOLUTE
    ..\..\..\..\software\uCGUI\Core\GUI__ReduceRect.c 0x00000000   Number         0  gui__reducerect.o ABSOLUTE
    ..\..\..\..\software\uCGUI\Core\GUI__SetText.c 0x00000000   Number         0  gui__settext.o ABSOLUTE
    ..\..\..\..\software\uCGUI\Core\GUI__Wrap.c 0x00000000   Number         0  gui__wrap.o ABSOLUTE
    ..\..\..\..\software\uCGUI\Core\GUI__memset.c 0x00000000   Number         0  gui__memset.o ABSOLUTE
    ..\..\..\..\software\uCGUI\Core\GUI__memset16.c 0x00000000   Number         0  gui__memset16.o ABSOLUTE
    ..\..\..\..\software\uCGUI\Core\GUI__strcmp.c 0x00000000   Number         0  gui__strcmp.o ABSOLUTE
    ..\..\..\..\software\uCGUI\Core\GUI__strlen.c 0x00000000   Number         0  gui__strlen.o ABSOLUTE
    ..\..\..\..\software\uCGUI\Core\LCD.c    0x00000000   Number         0  lcd.o ABSOLUTE
    ..\..\..\..\software\uCGUI\Core\LCDAA.c  0x00000000   Number         0  lcdaa.o ABSOLUTE
    ..\..\..\..\software\uCGUI\Core\LCDColor.c 0x00000000   Number         0  lcdcolor.o ABSOLUTE
    ..\..\..\..\software\uCGUI\Core\LCDGetP.c 0x00000000   Number         0  lcdgetp.o ABSOLUTE
    ..\..\..\..\software\uCGUI\Core\LCDInfo.c 0x00000000   Number         0  lcdinfo.o ABSOLUTE
    ..\..\..\..\software\uCGUI\Core\LCDInfo0.c 0x00000000   Number         0  lcdinfo0.o ABSOLUTE
    ..\..\..\..\software\uCGUI\Core\LCDInfo1.c 0x00000000   Number         0  lcdinfo1.o ABSOLUTE
    ..\..\..\..\software\uCGUI\Core\LCDL0Delta.c 0x00000000   Number         0  lcdl0delta.o ABSOLUTE
    ..\..\..\..\software\uCGUI\Core\LCDL0Mag.c 0x00000000   Number         0  lcdl0mag.o ABSOLUTE
    ..\..\..\..\software\uCGUI\Core\LCDP1.c  0x00000000   Number         0  lcdp1.o ABSOLUTE
    ..\..\..\..\software\uCGUI\Core\LCDP565_Index2Color.c 0x00000000   Number         0  lcdp565_index2color.o ABSOLUTE
    ..\..\..\..\software\uCGUI\Core\LCDP888_Index2Color.c 0x00000000   Number         0  lcdp888_index2color.o ABSOLUTE
    ..\..\..\..\software\uCGUI\Core\LCDPM565_Index2Color.c 0x00000000   Number         0  lcdpm565_index2color.o ABSOLUTE
    ..\..\..\..\software\uCGUI\Core\LCDPM888_Index2Color.c 0x00000000   Number         0  lcdpm888_index2color.o ABSOLUTE
    ..\..\..\..\software\uCGUI\Core\LCDRLE16.c 0x00000000   Number         0  lcdrle16.o ABSOLUTE
    ..\..\..\..\software\uCGUI\Core\LCDRLE4.c 0x00000000   Number         0  lcdrle4.o ABSOLUTE
    ..\..\..\..\software\uCGUI\Core\LCDRLE8.c 0x00000000   Number         0  lcdrle8.o ABSOLUTE
    ..\..\..\..\software\uCGUI\Core\LCD_API.c 0x00000000   Number         0  lcd_api.o ABSOLUTE
    ..\..\..\..\software\uCGUI\Core\LCD_DrawVLine.c 0x00000000   Number         0  lcd_drawvline.o ABSOLUTE
    ..\..\..\..\software\uCGUI\Core\LCD_GetColorIndex.c 0x00000000   Number         0  lcd_getcolorindex.o ABSOLUTE
    ..\..\..\..\software\uCGUI\Core\LCD_GetEx.c 0x00000000   Number         0  lcd_getex.o ABSOLUTE
    ..\..\..\..\software\uCGUI\Core\LCD_GetNumDisplays.c 0x00000000   Number         0  lcd_getnumdisplays.o ABSOLUTE
    ..\..\..\..\software\uCGUI\Core\LCD_GetPixelColor.c 0x00000000   Number         0  lcd_getpixelcolor.o ABSOLUTE
    ..\..\..\..\software\uCGUI\Core\LCD_Index2ColorEx.c 0x00000000   Number         0  lcd_index2colorex.o ABSOLUTE
    ..\..\..\..\software\uCGUI\Core\LCD_L0_Generic.c 0x00000000   Number         0  lcd_l0_generic.o ABSOLUTE
    ..\..\..\..\software\uCGUI\Core\LCD_Mirror.c 0x00000000   Number         0  lcd_mirror.o ABSOLUTE
    ..\..\..\..\software\uCGUI\Core\LCD_MixColors256.c 0x00000000   Number         0  lcd_mixcolors256.o ABSOLUTE
    ..\..\..\..\software\uCGUI\Core\LCD_ReadRect.c 0x00000000   Number         0  lcd_readrect.o ABSOLUTE
    ..\..\..\..\software\uCGUI\Core\LCD_Rotate180.c 0x00000000   Number         0  lcd_rotate180.o ABSOLUTE
    ..\..\..\..\software\uCGUI\Core\LCD_RotateCCW.c 0x00000000   Number         0  lcd_rotateccw.o ABSOLUTE
    ..\..\..\..\software\uCGUI\Core\LCD_RotateCW.c 0x00000000   Number         0  lcd_rotatecw.o ABSOLUTE
    ..\..\..\..\software\uCGUI\Core\LCD_SelectLCD.c 0x00000000   Number         0  lcd_selectlcd.o ABSOLUTE
    ..\..\..\..\software\uCGUI\Core\LCD_SetAPI.c 0x00000000   Number         0  lcd_setapi.o ABSOLUTE
    ..\..\..\..\software\uCGUI\Core\LCD_SetClipRectEx.c 0x00000000   Number         0  lcd_setcliprectex.o ABSOLUTE
    ..\..\..\..\software\uCGUI\Core\LCD_UpdateColorIndices.c 0x00000000   Number         0  lcd_updatecolorindices.o ABSOLUTE
    ..\..\..\..\software\uCGUI\Font\F08_1.c  0x00000000   Number         0  f08_1.o ABSOLUTE
    ..\..\..\..\software\uCGUI\Font\F08_ASCII.c 0x00000000   Number         0  f08_ascii.o ABSOLUTE
    ..\..\..\..\software\uCGUI\Font\F10S_1.c 0x00000000   Number         0  f10s_1.o ABSOLUTE
    ..\..\..\..\software\uCGUI\Font\F10S_ASCII.c 0x00000000   Number         0  f10s_ascii.o ABSOLUTE
    ..\..\..\..\software\uCGUI\Font\F10_1.c  0x00000000   Number         0  f10_1.o ABSOLUTE
    ..\..\..\..\software\uCGUI\Font\F10_ASCII.c 0x00000000   Number         0  f10_ascii.o ABSOLUTE
    ..\..\..\..\software\uCGUI\Font\F13B_1.c 0x00000000   Number         0  f13b_1.o ABSOLUTE
    ..\..\..\..\software\uCGUI\Font\F13B_ASCII.c 0x00000000   Number         0  f13b_ascii.o ABSOLUTE
    ..\..\..\..\software\uCGUI\Font\F13HB_1.c 0x00000000   Number         0  f13hb_1.o ABSOLUTE
    ..\..\..\..\software\uCGUI\Font\F13HB_ASCII.c 0x00000000   Number         0  f13hb_ascii.o ABSOLUTE
    ..\..\..\..\software\uCGUI\Font\F13H_1.c 0x00000000   Number         0  f13h_1.o ABSOLUTE
    ..\..\..\..\software\uCGUI\Font\F13H_ASCII.c 0x00000000   Number         0  f13h_ascii.o ABSOLUTE
    ..\..\..\..\software\uCGUI\Font\F13_1.c  0x00000000   Number         0  f13_1.o ABSOLUTE
    ..\..\..\..\software\uCGUI\Font\F13_ASCII.c 0x00000000   Number         0  f13_ascii.o ABSOLUTE
    ..\..\..\..\software\uCGUI\Font\F16B_1.c 0x00000000   Number         0  f16b_1.o ABSOLUTE
    ..\..\..\..\software\uCGUI\Font\F16B_ASCII.c 0x00000000   Number         0  f16b_ascii.o ABSOLUTE
    ..\..\..\..\software\uCGUI\Font\F16_1.c  0x00000000   Number         0  f16_1.o ABSOLUTE
    ..\..\..\..\software\uCGUI\Font\F16_1HK.c 0x00000000   Number         0  f16_1hk.o ABSOLUTE
    ..\..\..\..\software\uCGUI\Font\F16_ASCII.c 0x00000000   Number         0  f16_ascii.o ABSOLUTE
    ..\..\..\..\software\uCGUI\Font\F16_HK.c 0x00000000   Number         0  f16_hk.o ABSOLUTE
    ..\..\..\..\software\uCGUI\Font\F24B_1.c 0x00000000   Number         0  f24b_1.o ABSOLUTE
    ..\..\..\..\software\uCGUI\Font\F24B_ASCII.c 0x00000000   Number         0  f24b_ascii.o ABSOLUTE
    ..\..\..\..\software\uCGUI\Font\F24_1.c  0x00000000   Number         0  f24_1.o ABSOLUTE
    ..\..\..\..\software\uCGUI\Font\F24_ASCII.c 0x00000000   Number         0  f24_ascii.o ABSOLUTE
    ..\..\..\..\software\uCGUI\Font\F32B_1.c 0x00000000   Number         0  f32b_1.o ABSOLUTE
    ..\..\..\..\software\uCGUI\Font\F32B_ASCII.c 0x00000000   Number         0  f32b_ascii.o ABSOLUTE
    ..\..\..\..\software\uCGUI\Font\F32_1.c  0x00000000   Number         0  f32_1.o ABSOLUTE
    ..\..\..\..\software\uCGUI\Font\F32_ASCII.c 0x00000000   Number         0  f32_ascii.o ABSOLUTE
    ..\..\..\..\software\uCGUI\Font\F4x6.c   0x00000000   Number         0  f4x6.o ABSOLUTE
    ..\..\..\..\software\uCGUI\Font\F6x8.c   0x00000000   Number         0  f6x8.o ABSOLUTE
    ..\..\..\..\software\uCGUI\Font\F8x10_ASCII.c 0x00000000   Number         0  f8x10_ascii.o ABSOLUTE
    ..\..\..\..\software\uCGUI\Font\F8x12_ASCII.c 0x00000000   Number         0  f8x12_ascii.o ABSOLUTE
    ..\..\..\..\software\uCGUI\Font\F8x13_1.c 0x00000000   Number         0  f8x13_1.o ABSOLUTE
    ..\..\..\..\software\uCGUI\Font\F8x13_ASCII.c 0x00000000   Number         0  f8x13_ascii.o ABSOLUTE
    ..\..\..\..\software\uCGUI\Font\F8x15B_1.c 0x00000000   Number         0  f8x15b_1.o ABSOLUTE
    ..\..\..\..\software\uCGUI\Font\F8x15B_ASCII.c 0x00000000   Number         0  f8x15b_ascii.o ABSOLUTE
    ..\..\..\..\software\uCGUI\Font\F8x16.c  0x00000000   Number         0  f8x16.o ABSOLUTE
    ..\..\..\..\software\uCGUI\Font\F8x8.c   0x00000000   Number         0  f8x8.o ABSOLUTE
    ..\..\..\..\software\uCGUI\Font\FComic18B_1.c 0x00000000   Number         0  fcomic18b_1.o ABSOLUTE
    ..\..\..\..\software\uCGUI\Font\FComic18B_ASCII.c 0x00000000   Number         0  fcomic18b_ascii.o ABSOLUTE
    ..\..\..\..\software\uCGUI\Font\FComic24B_1.c 0x00000000   Number         0  fcomic24b_1.o ABSOLUTE
    ..\..\..\..\software\uCGUI\Font\FComic24B_ASCII.c 0x00000000   Number         0  fcomic24b_ascii.o ABSOLUTE
    ..\..\..\..\software\uCGUI\Font\FD24x32.c 0x00000000   Number         0  fd24x32.o ABSOLUTE
    ..\..\..\..\software\uCGUI\Font\FD32.c   0x00000000   Number         0  fd32.o ABSOLUTE
    ..\..\..\..\software\uCGUI\Font\FD36x48.c 0x00000000   Number         0  fd36x48.o ABSOLUTE
    ..\..\..\..\software\uCGUI\Font\FD48.c   0x00000000   Number         0  fd48.o ABSOLUTE
    ..\..\..\..\software\uCGUI\Font\FD48x64.c 0x00000000   Number         0  fd48x64.o ABSOLUTE
    ..\..\..\..\software\uCGUI\Font\FD60x80.c 0x00000000   Number         0  fd60x80.o ABSOLUTE
    ..\..\..\..\software\uCGUI\Font\FD64.c   0x00000000   Number         0  fd64.o ABSOLUTE
    ..\..\..\..\software\uCGUI\Font\FD80.c   0x00000000   Number         0  fd80.o ABSOLUTE
    ..\..\..\..\software\uCGUI\MemDev\GUIDEV.c 0x00000000   Number         0  guidev.o ABSOLUTE
    ..\..\..\..\software\uCGUI\MemDev\GUIDEV_1.c 0x00000000   Number         0  guidev_1.o ABSOLUTE
    ..\..\..\..\software\uCGUI\MemDev\GUIDEV_16.c 0x00000000   Number         0  guidev_16.o ABSOLUTE
    ..\..\..\..\software\uCGUI\MemDev\GUIDEV_8.c 0x00000000   Number         0  guidev_8.o ABSOLUTE
    ..\..\..\..\software\uCGUI\MemDev\GUIDEV_AA.c 0x00000000   Number         0  guidev_aa.o ABSOLUTE
    ..\..\..\..\software\uCGUI\MemDev\GUIDEV_Auto.c 0x00000000   Number         0  guidev_auto.o ABSOLUTE
    ..\..\..\..\software\uCGUI\MemDev\GUIDEV_Banding.c 0x00000000   Number         0  guidev_banding.o ABSOLUTE
    ..\..\..\..\software\uCGUI\MemDev\GUIDEV_Clear.c 0x00000000   Number         0  guidev_clear.o ABSOLUTE
    ..\..\..\..\software\uCGUI\MemDev\GUIDEV_CmpWithLCD.c 0x00000000   Number         0  guidev_cmpwithlcd.o ABSOLUTE
    ..\..\..\..\software\uCGUI\MemDev\GUIDEV_CopyFromLCD.c 0x00000000   Number         0  guidev_copyfromlcd.o ABSOLUTE
    ..\..\..\..\software\uCGUI\MemDev\GUIDEV_CreateFixed.c 0x00000000   Number         0  guidev_createfixed.o ABSOLUTE
    ..\..\..\..\software\uCGUI\MemDev\GUIDEV_GetDataPtr.c 0x00000000   Number         0  guidev_getdataptr.o ABSOLUTE
    ..\..\..\..\software\uCGUI\MemDev\GUIDEV_GetXSize.c 0x00000000   Number         0  guidev_getxsize.o ABSOLUTE
    ..\..\..\..\software\uCGUI\MemDev\GUIDEV_GetYSize.c 0x00000000   Number         0  guidev_getysize.o ABSOLUTE
    ..\..\..\..\software\uCGUI\MemDev\GUIDEV_Measure.c 0x00000000   Number         0  guidev_measure.o ABSOLUTE
    ..\..\..\..\software\uCGUI\MemDev\GUIDEV_ReduceYSize.c 0x00000000   Number         0  guidev_reduceysize.o ABSOLUTE
    ..\..\..\..\software\uCGUI\MemDev\GUIDEV_SetOrg.c 0x00000000   Number         0  guidev_setorg.o ABSOLUTE
    ..\..\..\..\software\uCGUI\MemDev\GUIDEV_Usage.c 0x00000000   Number         0  guidev_usage.o ABSOLUTE
    ..\..\..\..\software\uCGUI\MemDev\GUIDEV_UsageBM.c 0x00000000   Number         0  guidev_usagebm.o ABSOLUTE
    ..\..\..\..\software\uCGUI\MemDev\GUIDEV_Write.c 0x00000000   Number         0  guidev_write.o ABSOLUTE
    ..\..\..\..\software\uCGUI\MemDev\GUIDEV_WriteAlpha.c 0x00000000   Number         0  guidev_writealpha.o ABSOLUTE
    ..\..\..\..\software\uCGUI\MemDev\GUIDEV_WriteEx.c 0x00000000   Number         0  guidev_writeex.o ABSOLUTE
    ..\..\..\..\software\uCGUI\MemDev\GUIDEV_XY2PTR.c 0x00000000   Number         0  guidev_xy2ptr.o ABSOLUTE
    ..\..\..\..\software\uCGUI\WM\WM.c       0x00000000   Number         0  wm.o ABSOLUTE
    ..\..\..\..\software\uCGUI\WM\WMMemDev.c 0x00000000   Number         0  wmmemdev.o ABSOLUTE
    ..\..\..\..\software\uCGUI\WM\WMTouch.c  0x00000000   Number         0  wmtouch.o ABSOLUTE
    ..\..\..\..\software\uCGUI\WM\WM_AttachWindow.c 0x00000000   Number         0  wm_attachwindow.o ABSOLUTE
    ..\..\..\..\software\uCGUI\WM\WM_BringToBottom.c 0x00000000   Number         0  wm_bringtobottom.o ABSOLUTE
    ..\..\..\..\software\uCGUI\WM\WM_BringToTop.c 0x00000000   Number         0  wm_bringtotop.o ABSOLUTE
    ..\..\..\..\software\uCGUI\WM\WM_Broadcast.c 0x00000000   Number         0  wm_broadcast.o ABSOLUTE
    ..\..\..\..\software\uCGUI\WM\WM_CheckScrollPos.c 0x00000000   Number         0  wm_checkscrollpos.o ABSOLUTE
    ..\..\..\..\software\uCGUI\WM\WM_CriticalHandle.c 0x00000000   Number         0  wm_criticalhandle.o ABSOLUTE
    ..\..\..\..\software\uCGUI\WM\WM_DIAG.c  0x00000000   Number         0  wm_diag.o ABSOLUTE
    ..\..\..\..\software\uCGUI\WM\WM_EnableWindow.c 0x00000000   Number         0  wm_enablewindow.o ABSOLUTE
    ..\..\..\..\software\uCGUI\WM\WM_ForEachDesc.c 0x00000000   Number         0  wm_foreachdesc.o ABSOLUTE
    ..\..\..\..\software\uCGUI\WM\WM_GetBkColor.c 0x00000000   Number         0  wm_getbkcolor.o ABSOLUTE
    ..\..\..\..\software\uCGUI\WM\WM_GetCallback.c 0x00000000   Number         0  wm_getcallback.o ABSOLUTE
    ..\..\..\..\software\uCGUI\WM\WM_GetClientRect.c 0x00000000   Number         0  wm_getclientrect.o ABSOLUTE
    ..\..\..\..\software\uCGUI\WM\WM_GetClientWindow.c 0x00000000   Number         0  wm_getclientwindow.o ABSOLUTE
    ..\..\..\..\software\uCGUI\WM\WM_GetDesktopWindow.c 0x00000000   Number         0  wm_getdesktopwindow.o ABSOLUTE
    ..\..\..\..\software\uCGUI\WM\WM_GetDesktopWindowEx.c 0x00000000   Number         0  wm_getdesktopwindowex.o ABSOLUTE
    ..\..\..\..\software\uCGUI\WM\WM_GetDiagInfo.c 0x00000000   Number         0  wm_getdiaginfo.o ABSOLUTE
    ..\..\..\..\software\uCGUI\WM\WM_GetDialogItem.c 0x00000000   Number         0  wm_getdialogitem.o ABSOLUTE
    ..\..\..\..\software\uCGUI\WM\WM_GetFirstChild.c 0x00000000   Number         0  wm_getfirstchild.o ABSOLUTE
    ..\..\..\..\software\uCGUI\WM\WM_GetFlags.c 0x00000000   Number         0  wm_getflags.o ABSOLUTE
    ..\..\..\..\software\uCGUI\WM\WM_GetFocussedWindow.c 0x00000000   Number         0  wm_getfocussedwindow.o ABSOLUTE
    ..\..\..\..\software\uCGUI\WM\WM_GetId.c 0x00000000   Number         0  wm_getid.o ABSOLUTE
    ..\..\..\..\software\uCGUI\WM\WM_GetInsideRect.c 0x00000000   Number         0  wm_getinsiderect.o ABSOLUTE
    ..\..\..\..\software\uCGUI\WM\WM_GetInsideRectExScrollbar.c 0x00000000   Number         0  wm_getinsiderectexscrollbar.o ABSOLUTE
    ..\..\..\..\software\uCGUI\WM\WM_GetInvalidRect.c 0x00000000   Number         0  wm_getinvalidrect.o ABSOLUTE
    ..\..\..\..\software\uCGUI\WM\WM_GetNextSibling.c 0x00000000   Number         0  wm_getnextsibling.o ABSOLUTE
    ..\..\..\..\software\uCGUI\WM\WM_GetOrg.c 0x00000000   Number         0  wm_getorg.o ABSOLUTE
    ..\..\..\..\software\uCGUI\WM\WM_GetParent.c 0x00000000   Number         0  wm_getparent.o ABSOLUTE
    ..\..\..\..\software\uCGUI\WM\WM_GetPrevSibling.c 0x00000000   Number         0  wm_getprevsibling.o ABSOLUTE
    ..\..\..\..\software\uCGUI\WM\WM_GetScrollPartner.c 0x00000000   Number         0  wm_getscrollpartner.o ABSOLUTE
    ..\..\..\..\software\uCGUI\WM\WM_GetScrollPos.c 0x00000000   Number         0  wm_getscrollpos.o ABSOLUTE
    ..\..\..\..\software\uCGUI\WM\WM_GetScrollState.c 0x00000000   Number         0  wm_getscrollstate.o ABSOLUTE
    ..\..\..\..\software\uCGUI\WM\WM_GetScrollbar.c 0x00000000   Number         0  wm_getscrollbar.o ABSOLUTE
    ..\..\..\..\software\uCGUI\WM\WM_GetWindowRect.c 0x00000000   Number         0  wm_getwindowrect.o ABSOLUTE
    ..\..\..\..\software\uCGUI\WM\WM_GetWindowSize.c 0x00000000   Number         0  wm_getwindowsize.o ABSOLUTE
    ..\..\..\..\software\uCGUI\WM\WM_HasCaptured.c 0x00000000   Number         0  wm_hascaptured.o ABSOLUTE
    ..\..\..\..\software\uCGUI\WM\WM_HasFocus.c 0x00000000   Number         0  wm_hasfocus.o ABSOLUTE
    ..\..\..\..\software\uCGUI\WM\WM_Hide.c  0x00000000   Number         0  wm_hide.o ABSOLUTE
    ..\..\..\..\software\uCGUI\WM\WM_InvalidateArea.c 0x00000000   Number         0  wm_invalidatearea.o ABSOLUTE
    ..\..\..\..\software\uCGUI\WM\WM_IsCompletelyVisible.c 0x00000000   Number         0  wm_iscompletelyvisible.o ABSOLUTE
    ..\..\..\..\software\uCGUI\WM\WM_IsEnabled.c 0x00000000   Number         0  wm_isenabled.o ABSOLUTE
    ..\..\..\..\software\uCGUI\WM\WM_IsFocussable.c 0x00000000   Number         0  wm_isfocussable.o ABSOLUTE
    ..\..\..\..\software\uCGUI\WM\WM_IsVisible.c 0x00000000   Number         0  wm_isvisible.o ABSOLUTE
    ..\..\..\..\software\uCGUI\WM\WM_IsWindow.c 0x00000000   Number         0  wm_iswindow.o ABSOLUTE
    ..\..\..\..\software\uCGUI\WM\WM_MakeModal.c 0x00000000   Number         0  wm_makemodal.o ABSOLUTE
    ..\..\..\..\software\uCGUI\WM\WM_Move.c  0x00000000   Number         0  wm_move.o ABSOLUTE
    ..\..\..\..\software\uCGUI\WM\WM_MoveChildTo.c 0x00000000   Number         0  wm_movechildto.o ABSOLUTE
    ..\..\..\..\software\uCGUI\WM\WM_NotifyParent.c 0x00000000   Number         0  wm_notifyparent.o ABSOLUTE
    ..\..\..\..\software\uCGUI\WM\WM_OnKey.c 0x00000000   Number         0  wm_onkey.o ABSOLUTE
    ..\..\..\..\software\uCGUI\WM\WM_PID__GetPrevState.c 0x00000000   Number         0  wm_pid__getprevstate.o ABSOLUTE
    ..\..\..\..\software\uCGUI\WM\WM_Paint.c 0x00000000   Number         0  wm_paint.o ABSOLUTE
    ..\..\..\..\software\uCGUI\WM\WM_PaintWindowAndDescs.c 0x00000000   Number         0  wm_paintwindowanddescs.o ABSOLUTE
    ..\..\..\..\software\uCGUI\WM\WM_ResizeWindow.c 0x00000000   Number         0  wm_resizewindow.o ABSOLUTE
    ..\..\..\..\software\uCGUI\WM\WM_SIM.c   0x00000000   Number         0  wm_sim.o ABSOLUTE
    ..\..\..\..\software\uCGUI\WM\WM_Screen2Win.c 0x00000000   Number         0  wm_screen2win.o ABSOLUTE
    ..\..\..\..\software\uCGUI\WM\WM_SendMessageNoPara.c 0x00000000   Number         0  wm_sendmessagenopara.o ABSOLUTE
    ..\..\..\..\software\uCGUI\WM\WM_SendToParent.c 0x00000000   Number         0  wm_sendtoparent.o ABSOLUTE
    ..\..\..\..\software\uCGUI\WM\WM_SetAnchor.c 0x00000000   Number         0  wm_setanchor.o ABSOLUTE
    ..\..\..\..\software\uCGUI\WM\WM_SetCallback.c 0x00000000   Number         0  wm_setcallback.o ABSOLUTE
    ..\..\..\..\software\uCGUI\WM\WM_SetCapture.c 0x00000000   Number         0  wm_setcapture.o ABSOLUTE
    ..\..\..\..\software\uCGUI\WM\WM_SetCaptureMove.c 0x00000000   Number         0  wm_setcapturemove.o ABSOLUTE
    ..\..\..\..\software\uCGUI\WM\WM_SetCreateFlags.c 0x00000000   Number         0  wm_setcreateflags.o ABSOLUTE
    ..\..\..\..\software\uCGUI\WM\WM_SetDesktopColor.c 0x00000000   Number         0  wm_setdesktopcolor.o ABSOLUTE
    ..\..\..\..\software\uCGUI\WM\WM_SetFocus.c 0x00000000   Number         0  wm_setfocus.o ABSOLUTE
    ..\..\..\..\software\uCGUI\WM\WM_SetFocusOnNextChild.c 0x00000000   Number         0  wm_setfocusonnextchild.o ABSOLUTE
    ..\..\..\..\software\uCGUI\WM\WM_SetFocusOnPrevChild.c 0x00000000   Number         0  wm_setfocusonprevchild.o ABSOLUTE
    ..\..\..\..\software\uCGUI\WM\WM_SetId.c 0x00000000   Number         0  wm_setid.o ABSOLUTE
    ..\..\..\..\software\uCGUI\WM\WM_SetScrollPos.c 0x00000000   Number         0  wm_setscrollpos.o ABSOLUTE
    ..\..\..\..\software\uCGUI\WM\WM_SetScrollState.c 0x00000000   Number         0  wm_setscrollstate.o ABSOLUTE
    ..\..\..\..\software\uCGUI\WM\WM_SetScrollbar.c 0x00000000   Number         0  wm_setscrollbar.o ABSOLUTE
    ..\..\..\..\software\uCGUI\WM\WM_SetSize.c 0x00000000   Number         0  wm_setsize.o ABSOLUTE
    ..\..\..\..\software\uCGUI\WM\WM_SetTrans.c 0x00000000   Number         0  wm_settrans.o ABSOLUTE
    ..\..\..\..\software\uCGUI\WM\WM_SetTransState.c 0x00000000   Number         0  wm_settransstate.o ABSOLUTE
    ..\..\..\..\software\uCGUI\WM\WM_SetUserClipRect.c 0x00000000   Number         0  wm_setusercliprect.o ABSOLUTE
    ..\..\..\..\software\uCGUI\WM\WM_SetWindowPos.c 0x00000000   Number         0  wm_setwindowpos.o ABSOLUTE
    ..\..\..\..\software\uCGUI\WM\WM_SetXSize.c 0x00000000   Number         0  wm_setxsize.o ABSOLUTE
    ..\..\..\..\software\uCGUI\WM\WM_SetYSize.c 0x00000000   Number         0  wm_setysize.o ABSOLUTE
    ..\..\..\..\software\uCGUI\WM\WM_SetpfPollPID.c 0x00000000   Number         0  wm_setpfpollpid.o ABSOLUTE
    ..\..\..\..\software\uCGUI\WM\WM_Show.c  0x00000000   Number         0  wm_show.o ABSOLUTE
    ..\..\..\..\software\uCGUI\WM\WM_StayOnTop.c 0x00000000   Number         0  wm_stayontop.o ABSOLUTE
    ..\..\..\..\software\uCGUI\WM\WM_Timer.c 0x00000000   Number         0  wm_timer.o ABSOLUTE
    ..\..\..\..\software\uCGUI\WM\WM_TimerExternal.c 0x00000000   Number         0  wm_timerexternal.o ABSOLUTE
    ..\..\..\..\software\uCGUI\WM\WM_UpdateWindowAndDescs.c 0x00000000   Number         0  wm_updatewindowanddescs.o ABSOLUTE
    ..\..\..\..\software\uCGUI\WM\WM_UserData.c 0x00000000   Number         0  wm_userdata.o ABSOLUTE
    ..\..\..\..\software\uCGUI\WM\WM_Validate.c 0x00000000   Number         0  wm_validate.o ABSOLUTE
    ..\..\..\..\software\uCGUI\WM\WM_ValidateWindow.c 0x00000000   Number         0  wm_validatewindow.o ABSOLUTE
    ..\..\..\..\software\uCGUI\WM\WM__ForEachDesc.c 0x00000000   Number         0  wm__foreachdesc.o ABSOLUTE
    ..\..\..\..\software\uCGUI\WM\WM__GetFirstSibling.c 0x00000000   Number         0  wm__getfirstsibling.o ABSOLUTE
    ..\..\..\..\software\uCGUI\WM\WM__GetFocussedChild.c 0x00000000   Number         0  wm__getfocussedchild.o ABSOLUTE
    ..\..\..\..\software\uCGUI\WM\WM__GetLastSibling.c 0x00000000   Number         0  wm__getlastsibling.o ABSOLUTE
    ..\..\..\..\software\uCGUI\WM\WM__GetOrg_AA.c 0x00000000   Number         0  wm__getorg_aa.o ABSOLUTE
    ..\..\..\..\software\uCGUI\WM\WM__GetPrevSibling.c 0x00000000   Number         0  wm__getprevsibling.o ABSOLUTE
    ..\..\..\..\software\uCGUI\WM\WM__IsAncestor.c 0x00000000   Number         0  wm__isancestor.o ABSOLUTE
    ..\..\..\..\software\uCGUI\WM\WM__IsChild.c 0x00000000   Number         0  wm__ischild.o ABSOLUTE
    ..\..\..\..\software\uCGUI\WM\WM__IsEnabled.c 0x00000000   Number         0  wm__isenabled.o ABSOLUTE
    ..\..\..\..\software\uCGUI\WM\WM__NotifyVisChanged.c 0x00000000   Number         0  wm__notifyvischanged.o ABSOLUTE
    ..\..\..\..\software\uCGUI\WM\WM__Screen2Client.c 0x00000000   Number         0  wm__screen2client.o ABSOLUTE
    ..\..\..\..\software\uCGUI\WM\WM__SendMessage.c 0x00000000   Number         0  wm__sendmessage.o ABSOLUTE
    ..\..\..\..\software\uCGUI\WM\WM__SendMessageIfEnabled.c 0x00000000   Number         0  wm__sendmessageifenabled.o ABSOLUTE
    ..\..\..\..\software\uCGUI\WM\WM__SendMessageNoPara.c 0x00000000   Number         0  wm__sendmessagenopara.o ABSOLUTE
    ..\..\..\..\software\uCGUI\WM\WM__UpdateChildPositions.c 0x00000000   Number         0  wm__updatechildpositions.o ABSOLUTE
    ..\..\..\..\software\uCGUI\Widget\BUTTON.c 0x00000000   Number         0  button.o ABSOLUTE
    ..\..\..\..\software\uCGUI\Widget\BUTTON_BMP.c 0x00000000   Number         0  button_bmp.o ABSOLUTE
    ..\..\..\..\software\uCGUI\Widget\BUTTON_Bitmap.c 0x00000000   Number         0  button_bitmap.o ABSOLUTE
    ..\..\..\..\software\uCGUI\Widget\BUTTON_Create.c 0x00000000   Number         0  button_create.o ABSOLUTE
    ..\..\..\..\software\uCGUI\Widget\BUTTON_CreateIndirect.c 0x00000000   Number         0  button_createindirect.o ABSOLUTE
    ..\..\..\..\software\uCGUI\Widget\BUTTON_Default.c 0x00000000   Number         0  button_default.o ABSOLUTE
    ..\..\..\..\software\uCGUI\Widget\BUTTON_Get.c 0x00000000   Number         0  button_get.o ABSOLUTE
    ..\..\..\..\software\uCGUI\Widget\BUTTON_GetBitmap.c 0x00000000   Number         0  button_getbitmap.o ABSOLUTE
    ..\..\..\..\software\uCGUI\Widget\BUTTON_IsPressed.c 0x00000000   Number         0  button_ispressed.o ABSOLUTE
    ..\..\..\..\software\uCGUI\Widget\BUTTON_SelfDraw.c 0x00000000   Number         0  button_selfdraw.o ABSOLUTE
    ..\..\..\..\software\uCGUI\Widget\BUTTON_SetFocusColor.c 0x00000000   Number         0  button_setfocuscolor.o ABSOLUTE
    ..\..\..\..\software\uCGUI\Widget\BUTTON_SetTextAlign.c 0x00000000   Number         0  button_settextalign.o ABSOLUTE
    ..\..\..\..\software\uCGUI\Widget\BUTTON_StreamedBitmap.c 0x00000000   Number         0  button_streamedbitmap.o ABSOLUTE
    ..\..\..\..\software\uCGUI\Widget\BUTTON__SetBitmapObj.c 0x00000000   Number         0  button__setbitmapobj.o ABSOLUTE
    ..\..\..\..\software\uCGUI\Widget\CHECKBOX.c 0x00000000   Number         0  checkbox.o ABSOLUTE
    ..\..\..\..\software\uCGUI\Widget\CHECKBOX_Create.c 0x00000000   Number         0  checkbox_create.o ABSOLUTE
    ..\..\..\..\software\uCGUI\Widget\CHECKBOX_CreateIndirect.c 0x00000000   Number         0  checkbox_createindirect.o ABSOLUTE
    ..\..\..\..\software\uCGUI\Widget\CHECKBOX_Default.c 0x00000000   Number         0  checkbox_default.o ABSOLUTE
    ..\..\..\..\software\uCGUI\Widget\CHECKBOX_GetState.c 0x00000000   Number         0  checkbox_getstate.o ABSOLUTE
    ..\..\..\..\software\uCGUI\Widget\CHECKBOX_GetText.c 0x00000000   Number         0  checkbox_gettext.o ABSOLUTE
    ..\..\..\..\software\uCGUI\Widget\CHECKBOX_Image.c 0x00000000   Number         0  checkbox_image.o ABSOLUTE
    ..\..\..\..\software\uCGUI\Widget\CHECKBOX_IsChecked.c 0x00000000   Number         0  checkbox_ischecked.o ABSOLUTE
    ..\..\..\..\software\uCGUI\Widget\CHECKBOX_SetBkColor.c 0x00000000   Number         0  checkbox_setbkcolor.o ABSOLUTE
    ..\..\..\..\software\uCGUI\Widget\CHECKBOX_SetBoxBkColor.c 0x00000000   Number         0  checkbox_setboxbkcolor.o ABSOLUTE
    ..\..\..\..\software\uCGUI\Widget\CHECKBOX_SetDefaultImage.c 0x00000000   Number         0  checkbox_setdefaultimage.o ABSOLUTE
    ..\..\..\..\software\uCGUI\Widget\CHECKBOX_SetFocusColor.c 0x00000000   Number         0  checkbox_setfocuscolor.o ABSOLUTE
    ..\..\..\..\software\uCGUI\Widget\CHECKBOX_SetFont.c 0x00000000   Number         0  checkbox_setfont.o ABSOLUTE
    ..\..\..\..\software\uCGUI\Widget\CHECKBOX_SetImage.c 0x00000000   Number         0  checkbox_setimage.o ABSOLUTE
    ..\..\..\..\software\uCGUI\Widget\CHECKBOX_SetNumStates.c 0x00000000   Number         0  checkbox_setnumstates.o ABSOLUTE
    ..\..\..\..\software\uCGUI\Widget\CHECKBOX_SetSpacing.c 0x00000000   Number         0  checkbox_setspacing.o ABSOLUTE
    ..\..\..\..\software\uCGUI\Widget\CHECKBOX_SetState.c 0x00000000   Number         0  checkbox_setstate.o ABSOLUTE
    ..\..\..\..\software\uCGUI\Widget\CHECKBOX_SetText.c 0x00000000   Number         0  checkbox_settext.o ABSOLUTE
    ..\..\..\..\software\uCGUI\Widget\CHECKBOX_SetTextAlign.c 0x00000000   Number         0  checkbox_settextalign.o ABSOLUTE
    ..\..\..\..\software\uCGUI\Widget\CHECKBOX_SetTextColor.c 0x00000000   Number         0  checkbox_settextcolor.o ABSOLUTE
    ..\..\..\..\software\uCGUI\Widget\DIALOG.c 0x00000000   Number         0  dialog.o ABSOLUTE
    ..\..\..\..\software\uCGUI\Widget\DROPDOWN.c 0x00000000   Number         0  dropdown.o ABSOLUTE
    ..\..\..\..\software\uCGUI\Widget\DROPDOWN_AddString.c 0x00000000   Number         0  dropdown_addstring.o ABSOLUTE
    ..\..\..\..\software\uCGUI\Widget\DROPDOWN_Create.c 0x00000000   Number         0  dropdown_create.o ABSOLUTE
    ..\..\..\..\software\uCGUI\Widget\DROPDOWN_CreateIndirect.c 0x00000000   Number         0  dropdown_createindirect.o ABSOLUTE
    ..\..\..\..\software\uCGUI\Widget\DROPDOWN_Default.c 0x00000000   Number         0  dropdown_default.o ABSOLUTE
    ..\..\..\..\software\uCGUI\Widget\DROPDOWN_DeleteItem.c 0x00000000   Number         0  dropdown_deleteitem.o ABSOLUTE
    ..\..\..\..\software\uCGUI\Widget\DROPDOWN_GetNumItems.c 0x00000000   Number         0  dropdown_getnumitems.o ABSOLUTE
    ..\..\..\..\software\uCGUI\Widget\DROPDOWN_InsertString.c 0x00000000   Number         0  dropdown_insertstring.o ABSOLUTE
    ..\..\..\..\software\uCGUI\Widget\DROPDOWN_ItemSpacing.c 0x00000000   Number         0  dropdown_itemspacing.o ABSOLUTE
    ..\..\..\..\software\uCGUI\Widget\DROPDOWN_SetAutoScroll.c 0x00000000   Number         0  dropdown_setautoscroll.o ABSOLUTE
    ..\..\..\..\software\uCGUI\Widget\DROPDOWN_SetBkColor.c 0x00000000   Number         0  dropdown_setbkcolor.o ABSOLUTE
    ..\..\..\..\software\uCGUI\Widget\DROPDOWN_SetColor.c 0x00000000   Number         0  dropdown_setcolor.o ABSOLUTE
    ..\..\..\..\software\uCGUI\Widget\DROPDOWN_SetFont.c 0x00000000   Number         0  dropdown_setfont.o ABSOLUTE
    ..\..\..\..\software\uCGUI\Widget\DROPDOWN_SetScrollbarColor.c 0x00000000   Number         0  dropdown_setscrollbarcolor.o ABSOLUTE
    ..\..\..\..\software\uCGUI\Widget\DROPDOWN_SetScrollbarWidth.c 0x00000000   Number         0  dropdown_setscrollbarwidth.o ABSOLUTE
    ..\..\..\..\software\uCGUI\Widget\DROPDOWN_SetTextAlign.c 0x00000000   Number         0  dropdown_settextalign.o ABSOLUTE
    ..\..\..\..\software\uCGUI\Widget\DROPDOWN_SetTextColor.c 0x00000000   Number         0  dropdown_settextcolor.o ABSOLUTE
    ..\..\..\..\software\uCGUI\Widget\DROPDOWN_SetTextHeight.c 0x00000000   Number         0  dropdown_settextheight.o ABSOLUTE
    ..\..\..\..\software\uCGUI\Widget\EDIT.c 0x00000000   Number         0  edit.o ABSOLUTE
    ..\..\..\..\software\uCGUI\Widget\EDITBin.c 0x00000000   Number         0  editbin.o ABSOLUTE
    ..\..\..\..\software\uCGUI\Widget\EDITDec.c 0x00000000   Number         0  editdec.o ABSOLUTE
    ..\..\..\..\software\uCGUI\Widget\EDITFloat.c 0x00000000   Number         0  editfloat.o ABSOLUTE
    ..\..\..\..\software\uCGUI\Widget\EDITHex.c 0x00000000   Number         0  edithex.o ABSOLUTE
    ..\..\..\..\software\uCGUI\Widget\EDITUlong.c 0x00000000   Number         0  editulong.o ABSOLUTE
    ..\..\..\..\software\uCGUI\Widget\EDIT_Create.c 0x00000000   Number         0  edit_create.o ABSOLUTE
    ..\..\..\..\software\uCGUI\Widget\EDIT_CreateIndirect.c 0x00000000   Number         0  edit_createindirect.o ABSOLUTE
    ..\..\..\..\software\uCGUI\Widget\EDIT_Default.c 0x00000000   Number         0  edit_default.o ABSOLUTE
    ..\..\..\..\software\uCGUI\Widget\EDIT_GetCursorPixelPos.c 0x00000000   Number         0  edit_getcursorpixelpos.o ABSOLUTE
    ..\..\..\..\software\uCGUI\Widget\EDIT_GetCursorPos.c 0x00000000   Number         0  edit_getcursorpos.o ABSOLUTE
    ..\..\..\..\software\uCGUI\Widget\EDIT_GetNumChars.c 0x00000000   Number         0  edit_getnumchars.o ABSOLUTE
    ..\..\..\..\software\uCGUI\Widget\EDIT_SetCursorAtChar.c 0x00000000   Number         0  edit_setcursoratchar.o ABSOLUTE
    ..\..\..\..\software\uCGUI\Widget\EDIT_SetFocussable.c 0x00000000   Number         0  edit_setfocussable.o ABSOLUTE
    ..\..\..\..\software\uCGUI\Widget\EDIT_SetInsertMode.c 0x00000000   Number         0  edit_setinsertmode.o ABSOLUTE
    ..\..\..\..\software\uCGUI\Widget\EDIT_SetSel.c 0x00000000   Number         0  edit_setsel.o ABSOLUTE
    ..\..\..\..\software\uCGUI\Widget\EDIT_SetTextMode.c 0x00000000   Number         0  edit_settextmode.o ABSOLUTE
    ..\..\..\..\software\uCGUI\Widget\EDIT_SetpfAddKeyEx.c 0x00000000   Number         0  edit_setpfaddkeyex.o ABSOLUTE
    ..\..\..\..\software\uCGUI\Widget\EDIT_SetpfUpdateBuffer.c 0x00000000   Number         0  edit_setpfupdatebuffer.o ABSOLUTE
    ..\..\..\..\software\uCGUI\Widget\FRAMEWIN.c 0x00000000   Number         0  framewin.o ABSOLUTE
    ..\..\..\..\software\uCGUI\Widget\FRAMEWIN_AddMenu.c 0x00000000   Number         0  framewin_addmenu.o ABSOLUTE
    ..\..\..\..\software\uCGUI\Widget\FRAMEWIN_Button.c 0x00000000   Number         0  framewin_button.o ABSOLUTE
    ..\..\..\..\software\uCGUI\Widget\FRAMEWIN_ButtonClose.c 0x00000000   Number         0  framewin_buttonclose.o ABSOLUTE
    ..\..\..\..\software\uCGUI\Widget\FRAMEWIN_ButtonMax.c 0x00000000   Number         0  framewin_buttonmax.o ABSOLUTE
    ..\..\..\..\software\uCGUI\Widget\FRAMEWIN_ButtonMin.c 0x00000000   Number         0  framewin_buttonmin.o ABSOLUTE
    ..\..\..\..\software\uCGUI\Widget\FRAMEWIN_Create.c 0x00000000   Number         0  framewin_create.o ABSOLUTE
    ..\..\..\..\software\uCGUI\Widget\FRAMEWIN_CreateIndirect.c 0x00000000   Number         0  framewin_createindirect.o ABSOLUTE
    ..\..\..\..\software\uCGUI\Widget\FRAMEWIN_Default.c 0x00000000   Number         0  framewin_default.o ABSOLUTE
    ..\..\..\..\software\uCGUI\Widget\FRAMEWIN_Get.c 0x00000000   Number         0  framewin_get.o ABSOLUTE
    ..\..\..\..\software\uCGUI\Widget\FRAMEWIN_IsMinMax.c 0x00000000   Number         0  framewin_isminmax.o ABSOLUTE
    ..\..\..\..\software\uCGUI\Widget\FRAMEWIN_MinMaxRest.c 0x00000000   Number         0  framewin_minmaxrest.o ABSOLUTE
    ..\..\..\..\software\uCGUI\Widget\FRAMEWIN_SetBorderSize.c 0x00000000   Number         0  framewin_setbordersize.o ABSOLUTE
    ..\..\..\..\software\uCGUI\Widget\FRAMEWIN_SetColors.c 0x00000000   Number         0  framewin_setcolors.o ABSOLUTE
    ..\..\..\..\software\uCGUI\Widget\FRAMEWIN_SetFont.c 0x00000000   Number         0  framewin_setfont.o ABSOLUTE
    ..\..\..\..\software\uCGUI\Widget\FRAMEWIN_SetResizeable.c 0x00000000   Number         0  framewin_setresizeable.o ABSOLUTE
    ..\..\..\..\software\uCGUI\Widget\FRAMEWIN_SetTitleHeight.c 0x00000000   Number         0  framewin_settitleheight.o ABSOLUTE
    ..\..\..\..\software\uCGUI\Widget\FRAMEWIN_SetTitleVis.c 0x00000000   Number         0  framewin_settitlevis.o ABSOLUTE
    ..\..\..\..\software\uCGUI\Widget\FRAMEWIN__UpdateButtons.c 0x00000000   Number         0  framewin__updatebuttons.o ABSOLUTE
    ..\..\..\..\software\uCGUI\Widget\GRAPH.c 0x00000000   Number         0  graph.o ABSOLUTE
    ..\..\..\..\software\uCGUI\Widget\GRAPH_CreateIndirect.c 0x00000000   Number         0  graph_createindirect.o ABSOLUTE
    ..\..\..\..\software\uCGUI\Widget\GRAPH_DATA_XY.c 0x00000000   Number         0  graph_data_xy.o ABSOLUTE
    ..\..\..\..\software\uCGUI\Widget\GRAPH_DATA_YT.c 0x00000000   Number         0  graph_data_yt.o ABSOLUTE
    ..\..\..\..\software\uCGUI\Widget\GRAPH_SCALE.c 0x00000000   Number         0  graph_scale.o ABSOLUTE
    ..\..\..\..\software\uCGUI\Widget\GUI_ARRAY.c 0x00000000   Number         0  gui_array.o ABSOLUTE
    ..\..\..\..\software\uCGUI\Widget\GUI_ARRAY_DeleteItem.c 0x00000000   Number         0  gui_array_deleteitem.o ABSOLUTE
    ..\..\..\..\software\uCGUI\Widget\GUI_ARRAY_InsertItem.c 0x00000000   Number         0  gui_array_insertitem.o ABSOLUTE
    ..\..\..\..\software\uCGUI\Widget\GUI_ARRAY_ResizeItem.c 0x00000000   Number         0  gui_array_resizeitem.o ABSOLUTE
    ..\..\..\..\software\uCGUI\Widget\GUI_DRAW.c 0x00000000   Number         0  gui_draw.o ABSOLUTE
    ..\..\..\..\software\uCGUI\Widget\GUI_DRAW_BITMAP.c 0x00000000   Number         0  gui_draw_bitmap.o ABSOLUTE
    ..\..\..\..\software\uCGUI\Widget\GUI_DRAW_BMP.c 0x00000000   Number         0  gui_draw_bmp.o ABSOLUTE
    ..\..\..\..\software\uCGUI\Widget\GUI_DRAW_STREAMED.c 0x00000000   Number         0  gui_draw_streamed.o ABSOLUTE
    ..\..\..\..\software\uCGUI\Widget\GUI_DRAW_Self.c 0x00000000   Number         0  gui_draw_self.o ABSOLUTE
    ..\..\..\..\software\uCGUI\Widget\GUI_EditBin.c 0x00000000   Number         0  gui_editbin.o ABSOLUTE
    ..\..\..\..\software\uCGUI\Widget\GUI_EditDec.c 0x00000000   Number         0  gui_editdec.o ABSOLUTE
    ..\..\..\..\software\uCGUI\Widget\GUI_EditFloat.c 0x00000000   Number         0  gui_editfloat.o ABSOLUTE
    ..\..\..\..\software\uCGUI\Widget\GUI_EditHex.c 0x00000000   Number         0  gui_edithex.o ABSOLUTE
    ..\..\..\..\software\uCGUI\Widget\GUI_EditString.c 0x00000000   Number         0  gui_editstring.o ABSOLUTE
    ..\..\..\..\software\uCGUI\Widget\GUI_HOOK.c 0x00000000   Number         0  gui_hook.o ABSOLUTE
    ..\..\..\..\software\uCGUI\Widget\HEADER.c 0x00000000   Number         0  header.o ABSOLUTE
    ..\..\..\..\software\uCGUI\Widget\HEADER_BMP.c 0x00000000   Number         0  header_bmp.o ABSOLUTE
    ..\..\..\..\software\uCGUI\Widget\HEADER_Bitmap.c 0x00000000   Number         0  header_bitmap.o ABSOLUTE
    ..\..\..\..\software\uCGUI\Widget\HEADER_Create.c 0x00000000   Number         0  header_create.o ABSOLUTE
    ..\..\..\..\software\uCGUI\Widget\HEADER_CreateIndirect.c 0x00000000   Number         0  header_createindirect.o ABSOLUTE
    ..\..\..\..\software\uCGUI\Widget\HEADER_GetSel.c 0x00000000   Number         0  header_getsel.o ABSOLUTE
    ..\..\..\..\software\uCGUI\Widget\HEADER_SetDragLimit.c 0x00000000   Number         0  header_setdraglimit.o ABSOLUTE
    ..\..\..\..\software\uCGUI\Widget\HEADER_StreamedBitmap.c 0x00000000   Number         0  header_streamedbitmap.o ABSOLUTE
    ..\..\..\..\software\uCGUI\Widget\HEADER__SetDrawObj.c 0x00000000   Number         0  header__setdrawobj.o ABSOLUTE
    ..\..\..\..\software\uCGUI\Widget\LISTBOX.c 0x00000000   Number         0  listbox.o ABSOLUTE
    ..\..\..\..\software\uCGUI\Widget\LISTBOX_Create.c 0x00000000   Number         0  listbox_create.o ABSOLUTE
    ..\..\..\..\software\uCGUI\Widget\LISTBOX_CreateIndirect.c 0x00000000   Number         0  listbox_createindirect.o ABSOLUTE
    ..\..\..\..\software\uCGUI\Widget\LISTBOX_Default.c 0x00000000   Number         0  listbox_default.o ABSOLUTE
    ..\..\..\..\software\uCGUI\Widget\LISTBOX_DeleteItem.c 0x00000000   Number         0  listbox_deleteitem.o ABSOLUTE
    ..\..\..\..\software\uCGUI\Widget\LISTBOX_Font.c 0x00000000   Number         0  listbox_font.o ABSOLUTE
    ..\..\..\..\software\uCGUI\Widget\LISTBOX_GetItemText.c 0x00000000   Number         0  listbox_getitemtext.o ABSOLUTE
    ..\..\..\..\software\uCGUI\Widget\LISTBOX_GetNumItems.c 0x00000000   Number         0  listbox_getnumitems.o ABSOLUTE
    ..\..\..\..\software\uCGUI\Widget\LISTBOX_GetTextAlign.c 0x00000000   Number         0  listbox_gettextalign.o ABSOLUTE
    ..\..\..\..\software\uCGUI\Widget\LISTBOX_InsertString.c 0x00000000   Number         0  listbox_insertstring.o ABSOLUTE
    ..\..\..\..\software\uCGUI\Widget\LISTBOX_ItemDisabled.c 0x00000000   Number         0  listbox_itemdisabled.o ABSOLUTE
    ..\..\..\..\software\uCGUI\Widget\LISTBOX_ItemSpacing.c 0x00000000   Number         0  listbox_itemspacing.o ABSOLUTE
    ..\..\..\..\software\uCGUI\Widget\LISTBOX_MultiSel.c 0x00000000   Number         0  listbox_multisel.o ABSOLUTE
    ..\..\..\..\software\uCGUI\Widget\LISTBOX_ScrollStep.c 0x00000000   Number         0  listbox_scrollstep.o ABSOLUTE
    ..\..\..\..\software\uCGUI\Widget\LISTBOX_SetAutoScroll.c 0x00000000   Number         0  listbox_setautoscroll.o ABSOLUTE
    ..\..\..\..\software\uCGUI\Widget\LISTBOX_SetBkColor.c 0x00000000   Number         0  listbox_setbkcolor.o ABSOLUTE
    ..\..\..\..\software\uCGUI\Widget\LISTBOX_SetOwner.c 0x00000000   Number         0  listbox_setowner.o ABSOLUTE
    ..\..\..\..\software\uCGUI\Widget\LISTBOX_SetOwnerDraw.c 0x00000000   Number         0  listbox_setownerdraw.o ABSOLUTE
    ..\..\..\..\software\uCGUI\Widget\LISTBOX_SetScrollbarColor.c 0x00000000   Number         0  listbox_setscrollbarcolor.o ABSOLUTE
    ..\..\..\..\software\uCGUI\Widget\LISTBOX_SetScrollbarWidth.c 0x00000000   Number         0  listbox_setscrollbarwidth.o ABSOLUTE
    ..\..\..\..\software\uCGUI\Widget\LISTBOX_SetString.c 0x00000000   Number         0  listbox_setstring.o ABSOLUTE
    ..\..\..\..\software\uCGUI\Widget\LISTBOX_SetTextAlign.c 0x00000000   Number         0  listbox_settextalign.o ABSOLUTE
    ..\..\..\..\software\uCGUI\Widget\LISTBOX_SetTextColor.c 0x00000000   Number         0  listbox_settextcolor.o ABSOLUTE
    ..\..\..\..\software\uCGUI\Widget\LISTVIEW.c 0x00000000   Number         0  listview.o ABSOLUTE
    ..\..\..\..\software\uCGUI\Widget\LISTVIEW_Create.c 0x00000000   Number         0  listview_create.o ABSOLUTE
    ..\..\..\..\software\uCGUI\Widget\LISTVIEW_CreateIndirect.c 0x00000000   Number         0  listview_createindirect.o ABSOLUTE
    ..\..\..\..\software\uCGUI\Widget\LISTVIEW_Default.c 0x00000000   Number         0  listview_default.o ABSOLUTE
    ..\..\..\..\software\uCGUI\Widget\LISTVIEW_DeleteAllRows.c 0x00000000   Number         0  listview_deleteallrows.o ABSOLUTE
    ..\..\..\..\software\uCGUI\Widget\LISTVIEW_DeleteColumn.c 0x00000000   Number         0  listview_deletecolumn.o ABSOLUTE
    ..\..\..\..\software\uCGUI\Widget\LISTVIEW_DeleteRow.c 0x00000000   Number         0  listview_deleterow.o ABSOLUTE
    ..\..\..\..\software\uCGUI\Widget\LISTVIEW_DisableRow.c 0x00000000   Number         0  listview_disablerow.o ABSOLUTE
    ..\..\..\..\software\uCGUI\Widget\LISTVIEW_GetBkColor.c 0x00000000   Number         0  listview_getbkcolor.o ABSOLUTE
    ..\..\..\..\software\uCGUI\Widget\LISTVIEW_GetFont.c 0x00000000   Number         0  listview_getfont.o ABSOLUTE
    ..\..\..\..\software\uCGUI\Widget\LISTVIEW_GetHeader.c 0x00000000   Number         0  listview_getheader.o ABSOLUTE
    ..\..\..\..\software\uCGUI\Widget\LISTVIEW_GetItemText.c 0x00000000   Number         0  listview_getitemtext.o ABSOLUTE
    ..\..\..\..\software\uCGUI\Widget\LISTVIEW_GetNumColumns.c 0x00000000   Number         0  listview_getnumcolumns.o ABSOLUTE
    ..\..\..\..\software\uCGUI\Widget\LISTVIEW_GetNumRows.c 0x00000000   Number         0  listview_getnumrows.o ABSOLUTE
    ..\..\..\..\software\uCGUI\Widget\LISTVIEW_GetSel.c 0x00000000   Number         0  listview_getsel.o ABSOLUTE
    ..\..\..\..\software\uCGUI\Widget\LISTVIEW_GetTextColor.c 0x00000000   Number         0  listview_gettextcolor.o ABSOLUTE
    ..\..\..\..\software\uCGUI\Widget\LISTVIEW_InsertRow.c 0x00000000   Number         0  listview_insertrow.o ABSOLUTE
    ..\..\..\..\software\uCGUI\Widget\LISTVIEW_SetAutoScroll.c 0x00000000   Number         0  listview_setautoscroll.o ABSOLUTE
    ..\..\..\..\software\uCGUI\Widget\LISTVIEW_SetBkColor.c 0x00000000   Number         0  listview_setbkcolor.o ABSOLUTE
    ..\..\..\..\software\uCGUI\Widget\LISTVIEW_SetColumnWidth.c 0x00000000   Number         0  listview_setcolumnwidth.o ABSOLUTE
    ..\..\..\..\software\uCGUI\Widget\LISTVIEW_SetFont.c 0x00000000   Number         0  listview_setfont.o ABSOLUTE
    ..\..\..\..\software\uCGUI\Widget\LISTVIEW_SetGridVis.c 0x00000000   Number         0  listview_setgridvis.o ABSOLUTE
    ..\..\..\..\software\uCGUI\Widget\LISTVIEW_SetItemColor.c 0x00000000   Number         0  listview_setitemcolor.o ABSOLUTE
    ..\..\..\..\software\uCGUI\Widget\LISTVIEW_SetItemText.c 0x00000000   Number         0  listview_setitemtext.o ABSOLUTE
    ..\..\..\..\software\uCGUI\Widget\LISTVIEW_SetLBorder.c 0x00000000   Number         0  listview_setlborder.o ABSOLUTE
    ..\..\..\..\software\uCGUI\Widget\LISTVIEW_SetRBorder.c 0x00000000   Number         0  listview_setrborder.o ABSOLUTE
    ..\..\..\..\software\uCGUI\Widget\LISTVIEW_SetRowHeight.c 0x00000000   Number         0  listview_setrowheight.o ABSOLUTE
    ..\..\..\..\software\uCGUI\Widget\LISTVIEW_SetSel.c 0x00000000   Number         0  listview_setsel.o ABSOLUTE
    ..\..\..\..\software\uCGUI\Widget\LISTVIEW_SetSort.c 0x00000000   Number         0  listview_setsort.o ABSOLUTE
    ..\..\..\..\software\uCGUI\Widget\LISTVIEW_SetTextAlign.c 0x00000000   Number         0  listview_settextalign.o ABSOLUTE
    ..\..\..\..\software\uCGUI\Widget\LISTVIEW_SetTextColor.c 0x00000000   Number         0  listview_settextcolor.o ABSOLUTE
    ..\..\..\..\software\uCGUI\Widget\LISTVIEW_UserData.c 0x00000000   Number         0  listview_userdata.o ABSOLUTE
    ..\..\..\..\software\uCGUI\Widget\MENU.c 0x00000000   Number         0  menu.o ABSOLUTE
    ..\..\..\..\software\uCGUI\Widget\MENU_Attach.c 0x00000000   Number         0  menu_attach.o ABSOLUTE
    ..\..\..\..\software\uCGUI\Widget\MENU_CreateIndirect.c 0x00000000   Number         0  menu_createindirect.o ABSOLUTE
    ..\..\..\..\software\uCGUI\Widget\MENU_Default.c 0x00000000   Number         0  menu_default.o ABSOLUTE
    ..\..\..\..\software\uCGUI\Widget\MENU_DeleteItem.c 0x00000000   Number         0  menu_deleteitem.o ABSOLUTE
    ..\..\..\..\software\uCGUI\Widget\MENU_DisableItem.c 0x00000000   Number         0  menu_disableitem.o ABSOLUTE
    ..\..\..\..\software\uCGUI\Widget\MENU_EnableItem.c 0x00000000   Number         0  menu_enableitem.o ABSOLUTE
    ..\..\..\..\software\uCGUI\Widget\MENU_GetItem.c 0x00000000   Number         0  menu_getitem.o ABSOLUTE
    ..\..\..\..\software\uCGUI\Widget\MENU_GetItemText.c 0x00000000   Number         0  menu_getitemtext.o ABSOLUTE
    ..\..\..\..\software\uCGUI\Widget\MENU_GetNumItems.c 0x00000000   Number         0  menu_getnumitems.o ABSOLUTE
    ..\..\..\..\software\uCGUI\Widget\MENU_InsertItem.c 0x00000000   Number         0  menu_insertitem.o ABSOLUTE
    ..\..\..\..\software\uCGUI\Widget\MENU_Popup.c 0x00000000   Number         0  menu_popup.o ABSOLUTE
    ..\..\..\..\software\uCGUI\Widget\MENU_SetBkColor.c 0x00000000   Number         0  menu_setbkcolor.o ABSOLUTE
    ..\..\..\..\software\uCGUI\Widget\MENU_SetBorderSize.c 0x00000000   Number         0  menu_setbordersize.o ABSOLUTE
    ..\..\..\..\software\uCGUI\Widget\MENU_SetFont.c 0x00000000   Number         0  menu_setfont.o ABSOLUTE
    ..\..\..\..\software\uCGUI\Widget\MENU_SetItem.c 0x00000000   Number         0  menu_setitem.o ABSOLUTE
    ..\..\..\..\software\uCGUI\Widget\MENU_SetTextColor.c 0x00000000   Number         0  menu_settextcolor.o ABSOLUTE
    ..\..\..\..\software\uCGUI\Widget\MENU__FindItem.c 0x00000000   Number         0  menu__finditem.o ABSOLUTE
    ..\..\..\..\software\uCGUI\Widget\MESSAGEBOX.c 0x00000000   Number         0  messagebox.o ABSOLUTE
    ..\..\..\..\software\uCGUI\Widget\MULTIEDIT.c 0x00000000   Number         0  multiedit.o ABSOLUTE
    ..\..\..\..\software\uCGUI\Widget\MULTIEDIT_Create.c 0x00000000   Number         0  multiedit_create.o ABSOLUTE
    ..\..\..\..\software\uCGUI\Widget\MULTIEDIT_CreateIndirect.c 0x00000000   Number         0  multiedit_createindirect.o ABSOLUTE
    ..\..\..\..\software\uCGUI\Widget\MULTIPAGE.c 0x00000000   Number         0  multipage.o ABSOLUTE
    ..\..\..\..\software\uCGUI\Widget\MULTIPAGE_Create.c 0x00000000   Number         0  multipage_create.o ABSOLUTE
    ..\..\..\..\software\uCGUI\Widget\MULTIPAGE_CreateIndirect.c 0x00000000   Number         0  multipage_createindirect.o ABSOLUTE
    ..\..\..\..\software\uCGUI\Widget\MULTIPAGE_Default.c 0x00000000   Number         0  multipage_default.o ABSOLUTE
    ..\..\..\..\software\uCGUI\Widget\PROGBAR.c 0x00000000   Number         0  progbar.o ABSOLUTE
    ..\..\..\..\software\uCGUI\Widget\PROGBAR_Create.c 0x00000000   Number         0  progbar_create.o ABSOLUTE
    ..\..\..\..\software\uCGUI\Widget\PROGBAR_CreateIndirect.c 0x00000000   Number         0  progbar_createindirect.o ABSOLUTE
    ..\..\..\..\software\uCGUI\Widget\PROGBAR_SetBarColor.c 0x00000000   Number         0  progbar_setbarcolor.o ABSOLUTE
    ..\..\..\..\software\uCGUI\Widget\PROGBAR_SetFont.c 0x00000000   Number         0  progbar_setfont.o ABSOLUTE
    ..\..\..\..\software\uCGUI\Widget\PROGBAR_SetMinMax.c 0x00000000   Number         0  progbar_setminmax.o ABSOLUTE
    ..\..\..\..\software\uCGUI\Widget\PROGBAR_SetText.c 0x00000000   Number         0  progbar_settext.o ABSOLUTE
    ..\..\..\..\software\uCGUI\Widget\PROGBAR_SetTextAlign.c 0x00000000   Number         0  progbar_settextalign.o ABSOLUTE
    ..\..\..\..\software\uCGUI\Widget\PROGBAR_SetTextColor.c 0x00000000   Number         0  progbar_settextcolor.o ABSOLUTE
    ..\..\..\..\software\uCGUI\Widget\PROGBAR_SetTextPos.c 0x00000000   Number         0  progbar_settextpos.o ABSOLUTE
    ..\..\..\..\software\uCGUI\Widget\RADIO.c 0x00000000   Number         0  radio.o ABSOLUTE
    ..\..\..\..\software\uCGUI\Widget\RADIO_Create.c 0x00000000   Number         0  radio_create.o ABSOLUTE
    ..\..\..\..\software\uCGUI\Widget\RADIO_CreateIndirect.c 0x00000000   Number         0  radio_createindirect.o ABSOLUTE
    ..\..\..\..\software\uCGUI\Widget\RADIO_Default.c 0x00000000   Number         0  radio_default.o ABSOLUTE
    ..\..\..\..\software\uCGUI\Widget\RADIO_GetText.c 0x00000000   Number         0  radio_gettext.o ABSOLUTE
    ..\..\..\..\software\uCGUI\Widget\RADIO_Image.c 0x00000000   Number         0  radio_image.o ABSOLUTE
    ..\..\..\..\software\uCGUI\Widget\RADIO_SetBkColor.c 0x00000000   Number         0  radio_setbkcolor.o ABSOLUTE
    ..\..\..\..\software\uCGUI\Widget\RADIO_SetDefaultImage.c 0x00000000   Number         0  radio_setdefaultimage.o ABSOLUTE
    ..\..\..\..\software\uCGUI\Widget\RADIO_SetFocusColor.c 0x00000000   Number         0  radio_setfocuscolor.o ABSOLUTE
    ..\..\..\..\software\uCGUI\Widget\RADIO_SetFont.c 0x00000000   Number         0  radio_setfont.o ABSOLUTE
    ..\..\..\..\software\uCGUI\Widget\RADIO_SetGroupId.c 0x00000000   Number         0  radio_setgroupid.o ABSOLUTE
    ..\..\..\..\software\uCGUI\Widget\RADIO_SetImage.c 0x00000000   Number         0  radio_setimage.o ABSOLUTE
    ..\..\..\..\software\uCGUI\Widget\RADIO_SetText.c 0x00000000   Number         0  radio_settext.o ABSOLUTE
    ..\..\..\..\software\uCGUI\Widget\RADIO_SetTextColor.c 0x00000000   Number         0  radio_settextcolor.o ABSOLUTE
    ..\..\..\..\software\uCGUI\Widget\SCROLLBAR.c 0x00000000   Number         0  scrollbar.o ABSOLUTE
    ..\..\..\..\software\uCGUI\Widget\SCROLLBAR_Create.c 0x00000000   Number         0  scrollbar_create.o ABSOLUTE
    ..\..\..\..\software\uCGUI\Widget\SCROLLBAR_CreateIndirect.c 0x00000000   Number         0  scrollbar_createindirect.o ABSOLUTE
    ..\..\..\..\software\uCGUI\Widget\SCROLLBAR_Defaults.c 0x00000000   Number         0  scrollbar_defaults.o ABSOLUTE
    ..\..\..\..\software\uCGUI\Widget\SCROLLBAR_GetValue.c 0x00000000   Number         0  scrollbar_getvalue.o ABSOLUTE
    ..\..\..\..\software\uCGUI\Widget\SCROLLBAR_SetColor.c 0x00000000   Number         0  scrollbar_setcolor.o ABSOLUTE
    ..\..\..\..\software\uCGUI\Widget\SCROLLBAR_SetWidth.c 0x00000000   Number         0  scrollbar_setwidth.o ABSOLUTE
    ..\..\..\..\software\uCGUI\Widget\SLIDER.c 0x00000000   Number         0  slider.o ABSOLUTE
    ..\..\..\..\software\uCGUI\Widget\SLIDER_Create.c 0x00000000   Number         0  slider_create.o ABSOLUTE
    ..\..\..\..\software\uCGUI\Widget\SLIDER_CreateIndirect.c 0x00000000   Number         0  slider_createindirect.o ABSOLUTE
    ..\..\..\..\software\uCGUI\Widget\SLIDER_Default.c 0x00000000   Number         0  slider_default.o ABSOLUTE
    ..\..\..\..\software\uCGUI\Widget\SLIDER_SetFocusColor.c 0x00000000   Number         0  slider_setfocuscolor.o ABSOLUTE
    ..\..\..\..\software\uCGUI\Widget\TEXT.c 0x00000000   Number         0  text.o ABSOLUTE
    ..\..\..\..\software\uCGUI\Widget\TEXT_Create.c 0x00000000   Number         0  text_create.o ABSOLUTE
    ..\..\..\..\software\uCGUI\Widget\TEXT_CreateIndirect.c 0x00000000   Number         0  text_createindirect.o ABSOLUTE
    ..\..\..\..\software\uCGUI\Widget\TEXT_Default.c 0x00000000   Number         0  text_default.o ABSOLUTE
    ..\..\..\..\software\uCGUI\Widget\TEXT_SetBkColor.c 0x00000000   Number         0  text_setbkcolor.o ABSOLUTE
    ..\..\..\..\software\uCGUI\Widget\TEXT_SetFont.c 0x00000000   Number         0  text_setfont.o ABSOLUTE
    ..\..\..\..\software\uCGUI\Widget\TEXT_SetText.c 0x00000000   Number         0  text_settext.o ABSOLUTE
    ..\..\..\..\software\uCGUI\Widget\TEXT_SetTextAlign.c 0x00000000   Number         0  text_settextalign.o ABSOLUTE
    ..\..\..\..\software\uCGUI\Widget\TEXT_SetTextColor.c 0x00000000   Number         0  text_settextcolor.o ABSOLUTE
    ..\..\..\..\software\uCGUI\Widget\TEXT_SetWrapMode.c 0x00000000   Number         0  text_setwrapmode.o ABSOLUTE
    ..\..\..\..\software\uCGUI\Widget\WIDGET.c 0x00000000   Number         0  widget.o ABSOLUTE
    ..\..\..\..\software\uCGUI\Widget\WIDGET_Effect_3D.c 0x00000000   Number         0  widget_effect_3d.o ABSOLUTE
    ..\..\..\..\software\uCGUI\Widget\WIDGET_Effect_3D1L.c 0x00000000   Number         0  widget_effect_3d1l.o ABSOLUTE
    ..\..\..\..\software\uCGUI\Widget\WIDGET_Effect_3D2L.c 0x00000000   Number         0  widget_effect_3d2l.o ABSOLUTE
    ..\..\..\..\software\uCGUI\Widget\WIDGET_Effect_None.c 0x00000000   Number         0  widget_effect_none.o ABSOLUTE
    ..\..\..\..\software\uCGUI\Widget\WIDGET_Effect_Simple.c 0x00000000   Number         0  widget_effect_simple.o ABSOLUTE
    ..\..\..\..\software\uCGUI\Widget\WIDGET_FillStringInRect.c 0x00000000   Number         0  widget_fillstringinrect.o ABSOLUTE
    ..\..\..\..\software\uCGUI\Widget\WIDGET_SetEffect.c 0x00000000   Number         0  widget_seteffect.o ABSOLUTE
    ..\..\..\..\software\uCGUI\Widget\WIDGET_SetWidth.c 0x00000000   Number         0  widget_setwidth.o ABSOLUTE
    ..\..\..\..\software\uCGUI\Widget\WINDOW.c 0x00000000   Number         0  window.o ABSOLUTE
    ..\..\..\..\software\uCGUI\Widget\WINDOW_Default.c 0x00000000   Number         0  window_default.o ABSOLUTE
    ..\..\..\..\software\uCGUI\example\WIDGET_SimpleButton.c 0x00000000   Number         0  widget_simplebutton.o ABSOLUTE
    ..\..\..\..\software\uCGUI\uCGUIDemo\GUIDEMO.c 0x00000000   Number         0  guidemo.o ABSOLUTE
    ..\..\..\..\software\uCGUI\uCGUIDemo\GUIDEMO_Automotive.c 0x00000000   Number         0  guidemo_automotive.o ABSOLUTE
    ..\..\..\..\software\uCGUI\uCGUIDemo\GUIDEMO_Bitmap.c 0x00000000   Number         0  guidemo_bitmap.o ABSOLUTE
    ..\..\..\..\software\uCGUI\uCGUIDemo\GUIDEMO_Bitmap4bpp.c 0x00000000   Number         0  guidemo_bitmap4bpp.o ABSOLUTE
    ..\..\..\..\software\uCGUI\uCGUIDemo\GUIDEMO_Circle.c 0x00000000   Number         0  guidemo_circle.o ABSOLUTE
    ..\..\..\..\software\uCGUI\uCGUIDemo\GUIDEMO_ColorBar.c 0x00000000   Number         0  guidemo_colorbar.o ABSOLUTE
    ..\..\..\..\software\uCGUI\uCGUIDemo\GUIDEMO_ColorList.c 0x00000000   Number         0  guidemo_colorlist.o ABSOLUTE
    ..\..\..\..\software\uCGUI\uCGUIDemo\GUIDEMO_Cursor.c 0x00000000   Number         0  guidemo_cursor.o ABSOLUTE
    ..\..\..\..\software\uCGUI\uCGUIDemo\GUIDEMO_Dialog.c 0x00000000   Number         0  guidemo_dialog.o ABSOLUTE
    ..\..\..\..\software\uCGUI\uCGUIDemo\GUIDEMO_Font.c 0x00000000   Number         0  guidemo_font.o ABSOLUTE
    ..\..\..\..\software\uCGUI\uCGUIDemo\GUIDEMO_FrameWin.c 0x00000000   Number         0  guidemo_framewin.o ABSOLUTE
    ..\..\..\..\software\uCGUI\uCGUIDemo\GUIDEMO_Graph.c 0x00000000   Number         0  guidemo_graph.o ABSOLUTE
    ..\..\..\..\software\uCGUI\uCGUIDemo\GUIDEMO_HardwareInfo.c 0x00000000   Number         0  guidemo_hardwareinfo.o ABSOLUTE
    ..\..\..\..\software\uCGUI\uCGUIDemo\GUIDEMO_Intro.c 0x00000000   Number         0  guidemo_intro.o ABSOLUTE
    ..\..\..\..\software\uCGUI\uCGUIDemo\GUIDEMO_LUT.c 0x00000000   Number         0  guidemo_lut.o ABSOLUTE
    ..\..\..\..\software\uCGUI\uCGUIDemo\GUIDEMO_MemDevB.c 0x00000000   Number         0  guidemo_memdevb.o ABSOLUTE
    ..\..\..\..\software\uCGUI\uCGUIDemo\GUIDEMO_Messagebox.c 0x00000000   Number         0  guidemo_messagebox.o ABSOLUTE
    ..\..\..\..\software\uCGUI\uCGUIDemo\GUIDEMO_Navi.c 0x00000000   Number         0  guidemo_navi.o ABSOLUTE
    ..\..\..\..\software\uCGUI\uCGUIDemo\GUIDEMO_Polygon.c 0x00000000   Number         0  guidemo_polygon.o ABSOLUTE
    ..\..\..\..\software\uCGUI\uCGUIDemo\GUIDEMO_ProgBar.c 0x00000000   Number         0  guidemo_progbar.o ABSOLUTE
    ..\..\..\..\software\uCGUI\uCGUIDemo\GUIDEMO_Speed.c 0x00000000   Number         0  guidemo_speed.o ABSOLUTE
    ..\..\..\..\software\uCGUI\uCGUIDemo\GUIDEMO_WM.c 0x00000000   Number         0  guidemo_wm.o ABSOLUTE
    ..\..\..\..\software\uCGUI\uCGUIDemo\MicriumLogo.c 0x00000000   Number         0  micriumlogo.o ABSOLUTE
    ..\..\..\..\software\uCGUI\uCGUIDemo\MicriumLogoWRed.c 0x00000000   Number         0  micriumlogowred.o ABSOLUTE
    ..\..\..\..\software\uCGUI\ucgui_port\GUI_RAWOS_Touch.c 0x00000000   Number         0  gui_rawos_touch.o ABSOLUTE
    ..\..\..\..\software\uCGUI\ucgui_port\GUI_RAW_OS.c 0x00000000   Number         0  gui_raw_os.o ABSOLUTE
    ..\..\..\..\software\uCGUI\ucgui_port\LCDDummy.c 0x00000000   Number         0  lcddummy.o ABSOLUTE
    ..\..\board_common\uda1380.c             0x00000000   Number         0  uda1380.o ABSOLUTE
    ..\..\examples\ucgui\main.c              0x00000000   Number         0  main.o ABSOLUTE
    ..\..\startup_code\keil_startup_lpc18xx43xx.s 0x00000000   Number         0  keil_startup_lpc18xx43xx.o ABSOLUTE
    ..\..\startup_code\sysinit.c             0x00000000   Number         0  sysinit.o ABSOLUTE
    ..\\..\\..\\..\\software\\common\\another_touch.c 0x00000000   Number         0  another_touch.o ABSOLUTE
    ..\\..\\..\\..\\software\\common\\lpc43xx_gpio.c 0x00000000   Number         0  lpc43xx_gpio.o ABSOLUTE
    ..\\..\\..\\..\\software\\common\\lpc43xx_lcd.c 0x00000000   Number         0  lpc43xx_lcd.o ABSOLUTE
    ..\\..\\..\\..\\software\\common\\lpc43xx_scu.c 0x00000000   Number         0  lpc43xx_scu.o ABSOLUTE
    ..\\..\\..\\..\\software\\common\\lpc43xx_sdram.c 0x00000000   Number         0  lpc43xx_sdram.o ABSOLUTE
    ..\\..\\..\\..\\software\\common\\lpc43xx_ssp1.c 0x00000000   Number         0  lpc43xx_ssp1.o ABSOLUTE
    ..\\..\\board_common\\uda1380.c          0x00000000   Number         0  uda1380.o ABSOLUTE
    ..\\..\\examples\\ucgui\\main.c          0x00000000   Number         0  main.o ABSOLUTE
    ..\\..\\startup_code\\sysinit.c          0x00000000   Number         0  sysinit.o ABSOLUTE
    ..\\chip_common\\fpu_init.c              0x00000000   Number         0  fpu_init.o ABSOLUTE
    ..\chip_common\fpu_init.c                0x00000000   Number         0  fpu_init.o ABSOLUTE
    ..\chip_common\ring_buffer.c             0x00000000   Number         0  ring_buffer.o ABSOLUTE
    board.c                                  0x00000000   Number         0  board.o ABSOLUTE
    board.c                                  0x00000000   Number         0  board.o ABSOLUTE
    board_sysinit.c                          0x00000000   Number         0  board_sysinit.o ABSOLUTE
    board_sysinit.c                          0x00000000   Number         0  board_sysinit.o ABSOLUTE
    chip_18xx_43xx.c                         0x00000000   Number         0  chip_18xx_43xx.o ABSOLUTE
    chip_18xx_43xx.c                         0x00000000   Number         0  chip_18xx_43xx.o ABSOLUTE
    clock_18xx_43xx.c                        0x00000000   Number         0  clock_18xx_43xx.o ABSOLUTE
    clock_18xx_43xx.c                        0x00000000   Number         0  clock_18xx_43xx.o ABSOLUTE
    dc.s                                     0x00000000   Number         0  dc.o ABSOLUTE
    emc_18xx_43xx.c                          0x00000000   Number         0  emc_18xx_43xx.o ABSOLUTE
    emc_18xx_43xx.c                          0x00000000   Number         0  emc_18xx_43xx.o ABSOLUTE
    gpio_18xx_43xx.c                         0x00000000   Number         0  gpio_18xx_43xx.o ABSOLUTE
    gpio_18xx_43xx.c                         0x00000000   Number         0  gpio_18xx_43xx.o ABSOLUTE
    i2c_18xx_43xx.c                          0x00000000   Number         0  i2c_18xx_43xx.o ABSOLUTE
    i2c_18xx_43xx.c                          0x00000000   Number         0  i2c_18xx_43xx.o ABSOLUTE
    i2s_18xx_43xx.c                          0x00000000   Number         0  i2s_18xx_43xx.o ABSOLUTE
    i2s_18xx_43xx.c                          0x00000000   Number         0  i2s_18xx_43xx.o ABSOLUTE
    rgu_18xx_43xx.c                          0x00000000   Number         0  rgu_18xx_43xx.o ABSOLUTE
    rgu_18xx_43xx.c                          0x00000000   Number         0  rgu_18xx_43xx.o ABSOLUTE
    ssp_18xx_43xx.c                          0x00000000   Number         0  ssp_18xx_43xx.o ABSOLUTE
    ssp_18xx_43xx.c                          0x00000000   Number         0  ssp_18xx_43xx.o ABSOLUTE
    sysinit_18xx_43xx.c                      0x00000000   Number         0  sysinit_18xx_43xx.o ABSOLUTE
    sysinit_18xx_43xx.c                      0x00000000   Number         0  sysinit_18xx_43xx.o ABSOLUTE
    uart_18xx_43xx.c                         0x00000000   Number         0  uart_18xx_43xx.o ABSOLUTE
    uart_18xx_43xx.c                         0x00000000   Number         0  uart_18xx_43xx.o ABSOLUTE
    .data                                    0x10000000   Section       56  raw-os.o(.data)
    .data                                    0x10000038   Section        4  port.o(.data)
    mpu_region_numbers                       0x10000038   Data           4  port.o(.data)
    .data                                    0x1000003c   Section        4  main.o(.data)
    .data                                    0x10000040   Section       12  lpc43xx_lcd.o(.data)
    g_lcdHSize                               0x10000040   Data           4  lpc43xx_lcd.o(.data)
    g_lcdVSize                               0x10000044   Data           4  lpc43xx_lcd.o(.data)
    lcd_frame_buffer                         0x10000048   Data           4  lpc43xx_lcd.o(.data)
    .data                                    0x1000004c   Section       44  guiaalib.o(.data)
    pabAABuffer                              0x1000004c   Data           4  guiaalib.o(.data)
    _x0                                      0x10000050   Data           4  guiaalib.o(.data)
    _x1                                      0x10000054   Data           4  guiaalib.o(.data)
    _y                                       0x10000058   Data           4  guiaalib.o(.data)
    _x0_InUse                                0x1000005c   Data           4  guiaalib.o(.data)
    _x1_InUse                                0x10000060   Data           4  guiaalib.o(.data)
    pLCD_HLPrev                              0x10000064   Data           4  guiaalib.o(.data)
    ClipRect_HL                              0x10000068   Data           8  guiaalib.o(.data)
    DrawAPICopy                              0x10000070   Data           8  guiaalib.o(.data)
    .data                                    0x10000078   Section        4  gui_fillpolygon.o(.data)
    GL_FP_Cnt                                0x10000078   Data           4  gui_fillpolygon.o(.data)
    .data                                    0x1000007c   Section        7  gui_getversionstring.o(.data)
    _acVersion                               0x1000007c   Data           7  gui_getversionstring.o(.data)
    .data                                    0x10000084   Section       16  gui_onkey.o(.data)
    _KeyMsgCnt                               0x10000084   Data           4  gui_onkey.o(.data)
    _Key                                     0x10000088   Data           4  gui_onkey.o(.data)
    _KeyMsg                                  0x1000008c   Data           8  gui_onkey.o(.data)
    .data                                    0x10000094   Section       16  gui_touch_driveranalog.o(.data)
    _xLast                                   0x10000094   Data           4  gui_touch_driveranalog.o(.data)
    _yLast                                   0x10000098   Data           4  gui_touch_driveranalog.o(.data)
    last_x_pixsel                            0x1000009c   Data           4  gui_touch_driveranalog.o(.data)
    last_y_pixsel                            0x100000a0   Data           4  gui_touch_driveranalog.o(.data)
    .data                                    0x100000a4   Section        8  gui_touch_storeunstable.o(.data)
    _x                                       0x100000a4   Data           4  gui_touch_storeunstable.o(.data)
    _y                                       0x100000a8   Data           4  gui_touch_storeunstable.o(.data)
    .data                                    0x100000ac   Section       12  guialloc.o(.data)
    IsInitialized                            0x100000ac   Data           1  guialloc.o(.data)
    _FirstFreeHandle                         0x100000b0   Data           4  guialloc.o(.data)
    _LockCnt                                 0x100000b4   Data           4  guialloc.o(.data)
    .data                                    0x100000b8   Section        1  guicore.o(.data)
    .data                                    0x100000bc   Section        4  guicore.o(.data)
    .data                                    0x100000c0   Section        4  guicore.o(.data)
    .data                                    0x100000c4   Section        4  guicore.o(.data)
    .data                                    0x100000c8   Section        4  guicore.o(.data)
    .data                                    0x100000cc   Section        4  guicore.o(.data)
    .data                                    0x100000d0   Section        4  guicore.o(.data)
    .data                                    0x100000d4   Section        2  guicore.o(.data)
    .data                                    0x100000d6   Section        2  guicore.o(.data)
    .data                                    0x100000d8   Section        1  guicore.o(.data)
    .data                                    0x100000dc   Section       48  guicurs.o(.data)
    _CursorIsVis                             0x100000dc   Data           1  guicurs.o(.data)
    _CursorOn                                0x100000dd   Data           1  guicurs.o(.data)
    _CursorDeActCnt                          0x100000de   Data           1  guicurs.o(.data)
    _hBuffer                                 0x100000e0   Data           2  guicurs.o(.data)
    _pCursor                                 0x100000e4   Data           4  guicurs.o(.data)
    _AllocSize                               0x100000e8   Data           4  guicurs.o(.data)
    _x                                       0x100000ec   Data           4  guicurs.o(.data)
    _y                                       0x100000f0   Data           4  guicurs.o(.data)
    _Rect                                    0x100000f4   Data           8  guicurs.o(.data)
    _ClipRect                                0x100000fc   Data           8  guicurs.o(.data)
    _ColorIndex                              0x10000104   Data           8  guicurs.o(.data)
    .data                                    0x1000010c   Section       12  guitask.o(.data)
    _CurrentTaskNo                           0x1000010c   Data           4  guitask.o(.data)
    _TaskIDLock                              0x10000110   Data           4  guitask.o(.data)
    .data                                    0x10000118   Section        4  lcd_api.o(.data)
    .data                                    0x1000011c   Section        8  another_touch.o(.data)
    .data                                    0x10000124   Section       36  button.o(.data)
    .data                                    0x10000148   Section        4  dialog.o(.data)
    _BkColor                                 0x10000148   Data           4  dialog.o(.data)
    .data                                    0x1000014c   Section       28  edit.o(.data)
    .data                                    0x10000168   Section       36  framewin.o(.data)
    FRAMEWIN__MinVisibility                  0x10000168   Data           2  framewin.o(.data)
    .data                                    0x1000018c   Section       56  listbox.o(.data)
    .data                                    0x100001c4   Section       20  progbar.o(.data)
    .data                                    0x100001d8   Section       16  scrollbar.o(.data)
    .data                                    0x100001e8   Section       12  slider.o(.data)
    .data                                    0x100001f4   Section       16  text.o(.data)
    .data                                    0x10000204   Section        4  widget.o(.data)
    .data                                    0x10000208   Section       40  wm.o(.data)
    _CursorHidden                            0x10000208   Data           1  wm.o(.data)
    _IsInited                                0x1000020b   Data           1  wm.o(.data)
    NextDrawWin                              0x1000021c   Data           2  wm.o(.data)
    .data                                    0x10000230   Section        1  wm.o(.data)
    .data                                    0x10000234   Section        4  wm__sendmessage.o(.data)
    _EntranceCnt                             0x10000234   Data           4  wm__sendmessage.o(.data)
    .data                                    0x10000238   Section        4  wm_setcapturemove.o(.data)
    WM__CapturePoint                         0x10000238   Data           4  wm_setcapturemove.o(.data)
    .data                                    0x1000023c   Section       16  wmtouch.o(.data)
    .data                                    0x1000024c   Section      112  guidemo.o(.data)
    _CmdNext                                 0x1000024c   Data           1  guidemo.o(.data)
    _ahButton                                0x1000024e   Data           4  guidemo.o(.data)
    _ahFrameWin                              0x10000252   Data           4  guidemo.o(.data)
    _ButtonSizeX                             0x10000258   Data           4  guidemo.o(.data)
    _ButtonSizeY                             0x1000025c   Data           4  guidemo.o(.data)
    _ahInfoWin                               0x10000260   Data           4  guidemo.o(.data)
    _sInfo                                   0x10000264   Data           4  guidemo.o(.data)
    _iTest                                   0x10000268   Data           4  guidemo.o(.data)
    _iTestMinor                              0x1000026c   Data           4  guidemo.o(.data)
    _sExplain                                0x10000270   Data           4  guidemo.o(.data)
    _apfTest                                 0x10000274   Data          72  guidemo.o(.data)
    .data                                    0x100002bc   Section       96  guidemo_dialog.o(.data)
    _aID                                     0x100002bc   Data          96  guidemo_dialog.o(.data)
    .data                                    0x1000031c   Section       68  guidemo_font.o(.data)
    _apSJIS                                  0x1000031c   Data           4  guidemo_font.o(.data)
    _apDigitFonts                            0x10000320   Data           8  guidemo_font.o(.data)
    _apPropFonts                             0x10000328   Data          28  guidemo_font.o(.data)
    _apMonoFonts                             0x10000344   Data          28  guidemo_font.o(.data)
    .data                                    0x10000360   Section        4  guidemo_memdevb.o(.data)
    iLast                                    0x10000360   Data           4  guidemo_memdevb.o(.data)
    .data                                    0x10000364   Section       16  guidemo_navi.o(.data)
    _MapX                                    0x10000364   Data           4  guidemo_navi.o(.data)
    _MapY                                    0x10000368   Data           4  guidemo_navi.o(.data)
    _MapHereX                                0x1000036c   Data           4  guidemo_navi.o(.data)
    _MapHereY                                0x10000370   Data           4  guidemo_navi.o(.data)
    .data                                    0x10000374   Section       16  guidemo_polygon.o(.data)
    _aiCursor                                0x10000374   Data          16  guidemo_polygon.o(.data)
    .data                                    0x10000384   Section       24  guidemo_wm.o(.data)
    _hWindow1                                0x10000384   Data           2  guidemo_wm.o(.data)
    _hWindow2                                0x10000386   Data           2  guidemo_wm.o(.data)
    _hChild                                  0x10000388   Data           2  guidemo_wm.o(.data)
    _WindowColor1                            0x1000038c   Data           4  guidemo_wm.o(.data)
    _WindowColor2                            0x10000390   Data           4  guidemo_wm.o(.data)
    _ChildColor                              0x10000394   Data           4  guidemo_wm.o(.data)
    _cbBkWindowOld                           0x10000398   Data           4  guidemo_wm.o(.data)
    .data                                    0x1000039c   Section       20  board.o(.data)
    .data                                    0x100003b0   Section        4  chip_18xx_43xx.o(.data)
    .data                                    0x100003b4   Section        8  clock_18xx_43xx.o(.data)
    audio_usb_pll_freq                       0x100003b4   Data           8  clock_18xx_43xx.o(.data)
    .data                                    0x100003bc   Section       56  i2c_18xx_43xx.o(.data)
    i2c                                      0x100003bc   Data          56  i2c_18xx_43xx.o(.data)
    .bss                                     0x100003f8   Section     3548  raw-os.o(.bss)
    .bss                                     0x100011d8   Section     6284  main.o(.bss)
    fifo_buffer                              0x100019e4   Data         128  main.o(.bss)
    .bss                                     0x10002a64   Section      800  guiaalib.o(.bss)
    abAABuffer                               0x10002a64   Data         800  guiaalib.o(.bss)
    .bss                                     0x10002d84   Section       24  gui_fillpolygon.o(.bss)
    _aX                                      0x10002d84   Data          24  gui_fillpolygon.o(.bss)
    .bss                                     0x10002d9c   Section       12  gui_pid.o(.bss)
    _State                                   0x10002d9c   Data          12  gui_pid.o(.bss)
    .bss                                     0x10002da8   Section       12  gui_touch.o(.bss)
    _State                                   0x10002da8   Data          12  gui_touch.o(.bss)
    .bss                                     0x10002db4   Section       12  gui_touch_storestate.o(.bss)
    _State                                   0x10002db4   Data          12  gui_touch_storestate.o(.bss)
    .bss                                     0x10002dc0   Section    12532  guialloc.o(.bss)
    aBlock                                   0x100054d0   Data        2512  guialloc.o(.bss)
    .bss                                     0x10005eb4   Section      100  guicore.o(.bss)
    .bss                                     0x10005f18   Section      416  guitask.o(.bss)
    _Save                                    0x10005f18   Data         416  guitask.o(.bss)
    .bss                                     0x100060b8   Section      512  lcdcolor.o(.bss)
    .bss                                     0x100062b8   Section       16  lcdrle8.o(.bss)
    Cache                                    0x100062b8   Data          16  lcdrle8.o(.bss)
    .bss                                     0x100062c8   Section       36  gui_raw_os.o(.bss)
    .bss                                     0x100062ec   Section       92  another_touch.o(.bss)
    ad_buf_x                                 0x100062ec   Data          32  another_touch.o(.bss)
    ad_buf_y                                 0x1000630c   Data          32  another_touch.o(.bss)
    .bss                                     0x10006348   Section       12  wm.o(.bss)
    .bss                                     0x10006354   Section       24  wm.o(.bss)
    _ClipContext                             0x10006354   Data          24  wm.o(.bss)
    .bss                                     0x1000636c   Section       12  wm_pid__getprevstate.o(.bss)
    _PrevState                               0x1000636c   Data          12  wm_pid__getprevstate.o(.bss)
    .bss                                     0x10006378   Section       28  guidemo_memdevb.o(.bss)
    aPoint                                   0x10006378   Data          28  guidemo_memdevb.o(.bss)
    .bss                                     0x10006394   Section       40  guidemo_wm.o(.bss)
    _acInfoText                              0x10006394   Data          40  guidemo_wm.o(.bss)
    .bss                                     0x100063bc   Section      228  rand.o(.bss)
    .bss                                     0x100064a0   Section       96  libspace.o(.bss)
    HEAP                                     0x10006500   Section      256  keil_startup_lpc18xx43xx.o(HEAP)
    Heap_Mem                                 0x10006500   Data         256  keil_startup_lpc18xx43xx.o(HEAP)
    STACK                                    0x10006600   Section     1536  keil_startup_lpc18xx43xx.o(STACK)
    __initial_sp                             0x10006c00   Data           0  keil_startup_lpc18xx43xx.o(STACK)
    RESET                                    0x1a000000   Section      276  keil_startup_lpc18xx43xx.o(RESET)
    !!!main                                  0x1a000114   Section        8  __main.o(!!!main)
    !!!scatter                               0x1a00011c   Section       52  __scatter.o(!!!scatter)
    !!dczerorl2                              0x1a000150   Section       90  __dczerorl2.o(!!dczerorl2)
    !!handler_zi                             0x1a0001ac   Section       28  __scatter_zi.o(!!handler_zi)
    .ARM.Collect$$_printf_percent$$00000000  0x1a0001c8   Section        0  _printf_percent.o(.ARM.Collect$$_printf_percent$$00000000)
    .ARM.Collect$$_printf_percent$$00000003  0x1a0001c8   Section        6  _printf_f.o(.ARM.Collect$$_printf_percent$$00000003)
    .ARM.Collect$$_printf_percent$$00000017  0x1a0001ce   Section        4  _printf_percent_end.o(.ARM.Collect$$_printf_percent$$00000017)
    .ARM.Collect$$libinit$$00000000          0x1a0001d2   Section        2  libinit.o(.ARM.Collect$$libinit$$00000000)
    .ARM.Collect$$libinit$$00000001          0x1a0001d4   Section        4  libinit2.o(.ARM.Collect$$libinit$$00000001)
    .ARM.Collect$$libinit$$00000004          0x1a0001d8   Section        0  libinit2.o(.ARM.Collect$$libinit$$00000004)
    .ARM.Collect$$libinit$$0000000A          0x1a0001d8   Section        0  libinit2.o(.ARM.Collect$$libinit$$0000000A)
    .ARM.Collect$$libinit$$0000000C          0x1a0001d8   Section        0  libinit2.o(.ARM.Collect$$libinit$$0000000C)
    .ARM.Collect$$libinit$$0000000D          0x1a0001d8   Section        4  libinit2.o(.ARM.Collect$$libinit$$0000000D)
    .ARM.Collect$$libinit$$0000000E          0x1a0001dc   Section        0  libinit2.o(.ARM.Collect$$libinit$$0000000E)
    .ARM.Collect$$libinit$$0000000F          0x1a0001dc   Section        6  libinit2.o(.ARM.Collect$$libinit$$0000000F)
    .ARM.Collect$$libinit$$00000011          0x1a0001e2   Section        0  libinit2.o(.ARM.Collect$$libinit$$00000011)
    .ARM.Collect$$libinit$$00000013          0x1a0001e2   Section        0  libinit2.o(.ARM.Collect$$libinit$$00000013)
    .ARM.Collect$$libinit$$00000015          0x1a0001e2   Section        0  libinit2.o(.ARM.Collect$$libinit$$00000015)
    .ARM.Collect$$libinit$$00000016          0x1a0001e2   Section       10  libinit2.o(.ARM.Collect$$libinit$$00000016)
    .ARM.Collect$$libinit$$00000017          0x1a0001ec   Section        0  libinit2.o(.ARM.Collect$$libinit$$00000017)
    .ARM.Collect$$libinit$$00000019          0x1a0001ec   Section        0  libinit2.o(.ARM.Collect$$libinit$$00000019)
    .ARM.Collect$$libinit$$0000001B          0x1a0001ec   Section        0  libinit2.o(.ARM.Collect$$libinit$$0000001B)
    .ARM.Collect$$libinit$$0000001D          0x1a0001ec   Section        0  libinit2.o(.ARM.Collect$$libinit$$0000001D)
    .ARM.Collect$$libinit$$0000001F          0x1a0001ec   Section        0  libinit2.o(.ARM.Collect$$libinit$$0000001F)
    .ARM.Collect$$libinit$$00000021          0x1a0001ec   Section        0  libinit2.o(.ARM.Collect$$libinit$$00000021)
    .ARM.Collect$$libinit$$00000023          0x1a0001ec   Section        0  libinit2.o(.ARM.Collect$$libinit$$00000023)
    .ARM.Collect$$libinit$$00000025          0x1a0001ec   Section        0  libinit2.o(.ARM.Collect$$libinit$$00000025)
    .ARM.Collect$$libinit$$0000002C          0x1a0001ec   Section        0  libinit2.o(.ARM.Collect$$libinit$$0000002C)
    .ARM.Collect$$libinit$$0000002E          0x1a0001ec   Section        0  libinit2.o(.ARM.Collect$$libinit$$0000002E)
    .ARM.Collect$$libinit$$00000030          0x1a0001ec   Section        0  libinit2.o(.ARM.Collect$$libinit$$00000030)
    .ARM.Collect$$libinit$$00000032          0x1a0001ec   Section        0  libinit2.o(.ARM.Collect$$libinit$$00000032)
    .ARM.Collect$$libinit$$00000033          0x1a0001ec   Section        2  libinit2.o(.ARM.Collect$$libinit$$00000033)
    .ARM.Collect$$libshutdown$$00000000      0x1a0001ee   Section        2  libshutdown.o(.ARM.Collect$$libshutdown$$00000000)
    .ARM.Collect$$libshutdown$$00000002      0x1a0001f0   Section        0  libshutdown2.o(.ARM.Collect$$libshutdown$$00000002)
    .ARM.Collect$$libshutdown$$00000004      0x1a0001f0   Section        0  libshutdown2.o(.ARM.Collect$$libshutdown$$00000004)
    .ARM.Collect$$libshutdown$$00000007      0x1a0001f0   Section        0  libshutdown2.o(.ARM.Collect$$libshutdown$$00000007)
    .ARM.Collect$$libshutdown$$0000000A      0x1a0001f0   Section        0  libshutdown2.o(.ARM.Collect$$libshutdown$$0000000A)
    .ARM.Collect$$libshutdown$$0000000C      0x1a0001f0   Section        0  libshutdown2.o(.ARM.Collect$$libshutdown$$0000000C)
    .ARM.Collect$$libshutdown$$0000000F      0x1a0001f0   Section        0  libshutdown2.o(.ARM.Collect$$libshutdown$$0000000F)
    .ARM.Collect$$libshutdown$$00000010      0x1a0001f0   Section        2  libshutdown2.o(.ARM.Collect$$libshutdown$$00000010)
    .ARM.Collect$$rtentry$$00000000          0x1a0001f2   Section        0  __rtentry.o(.ARM.Collect$$rtentry$$00000000)
    .ARM.Collect$$rtentry$$00000002          0x1a0001f2   Section        0  __rtentry2.o(.ARM.Collect$$rtentry$$00000002)
    .ARM.Collect$$rtentry$$00000004          0x1a0001f2   Section        6  __rtentry4.o(.ARM.Collect$$rtentry$$00000004)
    .ARM.Collect$$rtentry$$00000009          0x1a0001f8   Section        0  __rtentry2.o(.ARM.Collect$$rtentry$$00000009)
    .ARM.Collect$$rtentry$$0000000A          0x1a0001f8   Section        4  __rtentry2.o(.ARM.Collect$$rtentry$$0000000A)
    .ARM.Collect$$rtentry$$0000000C          0x1a0001fc   Section        0  __rtentry2.o(.ARM.Collect$$rtentry$$0000000C)
    .ARM.Collect$$rtentry$$0000000D          0x1a0001fc   Section        8  __rtentry2.o(.ARM.Collect$$rtentry$$0000000D)
    .ARM.Collect$$rtexit$$00000000           0x1a000204   Section        2  rtexit.o(.ARM.Collect$$rtexit$$00000000)
    .ARM.Collect$$rtexit$$00000002           0x1a000206   Section        0  rtexit2.o(.ARM.Collect$$rtexit$$00000002)
    .ARM.Collect$$rtexit$$00000003           0x1a000206   Section        4  rtexit2.o(.ARM.Collect$$rtexit$$00000003)
    .ARM.Collect$$rtexit$$00000004           0x1a00020a   Section        6  rtexit2.o(.ARM.Collect$$rtexit$$00000004)
    .emb_text                                0x1a000210   Section       52  rand.o(.emb_text)
    .text                                    0x1a000244   Section        0  raw-os.o(.text)
    tick_task_process                        0x1a0007a9   Thumb Code    28  raw-os.o(.text)
    pend_task_wake_up                        0x1a000949   Thumb Code    96  raw-os.o(.text)
    is_list_empty                            0x1a002a31   Thumb Code    14  raw-os.o(.text)
    list_insert                              0x1a002a3f   Thumb Code    14  raw-os.o(.text)
    list_delete                              0x1a002a4d   Thumb Code    12  raw-os.o(.text)
    add_to_priority_list                     0x1a002a59   Thumb Code    30  raw-os.o(.text)
    bit_set                                  0x1a002a77   Thumb Code    20  raw-os.o(.text)
    release_mutex                            0x1a002a8b   Thumb Code    30  raw-os.o(.text)
    timer_list_remove                        0x1a002aa9   Thumb Code    22  raw-os.o(.text)
    timer_list_priority_insert               0x1a002abf   Thumb Code    32  raw-os.o(.text)
    raw_byte_pool_search                     0x1a002adf   Thumb Code   188  raw-os.o(.text)
    .text                                    0x1a002bac   Section        0  fifo.o(.text)
    internal_fifo_out_peek                   0x1a002c4d   Thumb Code    62  fifo.o(.text)
    .text                                    0x1a002d20   Section      172  cpu.o(.text)
    $v0                                      0x1a002d20   Number         0  cpu.o(.text)
    .text                                    0x1a002dcc   Section        0  port.o(.text)
    .text                                    0x1a002fa0   Section        0  port_hook.o(.text)
    .text                                    0x1a002fbe   Section        0  user_extension.o(.text)
    .text                                    0x1a003046   Section        0  port_error_process.o(.text)
    .text                                    0x1a0030a0   Section        0  port_extension.o(.text)
    .text                                    0x1a0030d0   Section       68  keil_startup_lpc18xx43xx.o(.text)
    $v0                                      0x1a0030d0   Number         0  keil_startup_lpc18xx43xx.o(.text)
    .text                                    0x1a003114   Section        0  sysinit.o(.text)
    .text                                    0x1a003130   Section        0  lpc43xx_scu.o(.text)
    .text                                    0x1a003144   Section        0  lpc43xx_sdram.o(.text)
    .text                                    0x1a0035a0   Section        0  main.o(.text)
    RePaint                                  0x1a00391b   Thumb Code    12  main.o(.text)
    NVIC_EnableIRQ                           0x1a00400d   Thumb Code    22  main.o(.text)
    NVIC_SetPriority                         0x1a004023   Thumb Code    32  main.o(.text)
    Chip_GPIO_SetPinDIROutput                0x1a004043   Thumb Code    20  main.o(.text)
    .text                                    0x1a0040b8   Section        0  lpc43xx_lcd.o(.text)
    .text                                    0x1a004444   Section        0  lpc43xx_gpio.o(.text)
    .text                                    0x1a004484   Section        0  guiaacircle.o(.text)
    FillCircle                               0x1a00451d   Thumb Code   164  guiaacircle.o(.text)
    .text                                    0x1a0045c4   Section        0  guiaalib.o(.text)
    _CleanLine                               0x1a0045c5   Thumb Code    32  guiaalib.o(.text)
    _FlushLine                               0x1a0045e5   Thumb Code   148  guiaalib.o(.text)
    _DrawHLine                               0x1a004679   Thumb Code   198  guiaalib.o(.text)
    CalcClipRectHL                           0x1a00473f   Thumb Code    48  guiaalib.o(.text)
    .text                                    0x1a00482c   Section        0  guiaapoly.o(.text)
    _FillPolygonAA                           0x1a00482d   Thumb Code   228  guiaapoly.o(.text)
    .text                                    0x1a004968   Section        0  lcdpm565.o(.text)
    .text                                    0x1a004984   Section        0  gui__calctextrect.o(.text)
    .text                                    0x1a004a20   Section        0  gui__divideround.o(.text)
    .text                                    0x1a004a36   Section        0  gui__divideround32.o(.text)
    .text                                    0x1a004a50   Section        0  gui__getcursorpos.o(.text)
    .text                                    0x1a004ab8   Section        0  gui__getfontsizey.o(.text)
    .text                                    0x1a004acc   Section        0  gui__getnumchars.o(.text)
    .text                                    0x1a004ae6   Section        0  gui__handleeoline.o(.text)
    .text                                    0x1a004afe   Section        0  gui__intersectrect.o(.text)
    .text                                    0x1a004b38   Section        0  gui__intersectrects.o(.text)
    .text                                    0x1a004b8a   Section        0  gui__memset.o(.text)
    .text                                    0x1a004bd6   Section        0  gui__memset16.o(.text)
    .text                                    0x1a004c12   Section        0  gui__reducerect.o(.text)
    .text                                    0x1a004c2c   Section        0  gui__settext.o(.text)
    .text                                    0x1a004c88   Section        0  gui__strcmp.o(.text)
    .text                                    0x1a004ccc   Section        0  gui__strlen.o(.text)
    .text                                    0x1a004ce0   Section        0  gui__wrap.o(.text)
    _WrapGetNumCharsDisp                     0x1a004ce1   Thumb Code    74  gui__wrap.o(.text)
    _GetWordWrap                             0x1a004d9f   Thumb Code   100  gui__wrap.o(.text)
    .text                                    0x1a004e02   Section        0  gui_addbin.o(.text)
    .text                                    0x1a004e22   Section        0  gui_adddecmin.o(.text)
    .text                                    0x1a004e3c   Section        0  gui_adddecshift.o(.text)
    .text                                    0x1a004efc   Section        0  gui_addhex.o(.text)
    .text                                    0x1a004f28   Section        0  gui_alloc_allocinit.o(.text)
    .text                                    0x1a004f60   Section        0  gui_alloc_alloczero.o(.text)
    .text                                    0x1a004f86   Section        0  gui_calccolordist.o(.text)
    .text                                    0x1a004fc2   Section        0  gui_clearrectex.o(.text)
    .text                                    0x1a004fd6   Section        0  gui_color2viscolor.o(.text)
    .text                                    0x1a00501c   Section        0  gui_dispceol.o(.text)
    .text                                    0x1a005048   Section        0  gui_dispchar.o(.text)
    CL_DispChar                              0x1a005049   Thumb Code   122  gui_dispchar.o(.text)
    .text                                    0x1a0050fc   Section        0  gui_dispstring.o(.text)
    .text                                    0x1a0051fc   Section        0  gui_dispstringat.o(.text)
    .text                                    0x1a005220   Section        0  gui_dispstringatceol.o(.text)
    .text                                    0x1a005230   Section        0  gui_dispstringhcenter.o(.text)
    .text                                    0x1a005264   Section        0  gui_dispstringinrect.o(.text)
    .text                                    0x1a0053f4   Section        0  gui_dispstringinrectwrap.o(.text)
    .text                                    0x1a00550c   Section        0  gui_drawbitmap.o(.text)
    .text                                    0x1a0055e8   Section        0  gui_drawbitmapex.o(.text)
    GL_DrawBitmapEx                          0x1a0055e9   Thumb Code   460  gui_drawbitmapex.o(.text)
    .text                                    0x1a0058c0   Section        0  gui_drawfocusrect.o(.text)
    .text                                    0x1a005964   Section        0  gui_drawgraph.o(.text)
    _DrawGraph                               0x1a0059a3   Thumb Code   158  gui_drawgraph.o(.text)
    .text                                    0x1a005a44   Section        0  gui_drawhline.o(.text)
    .text                                    0x1a005a98   Section        0  gui_drawline.o(.text)
    _SetLineColor                            0x1a005aed   Thumb Code   114  gui_drawline.o(.text)
    Abs                                      0x1a005f43   Thumb Code     8  gui_drawline.o(.text)
    _atan2                                   0x1a005f4b   Thumb Code   126  gui_drawline.o(.text)
    _DrawLineEnd                             0x1a005fc9   Thumb Code    14  gui_drawline.o(.text)
    .text                                    0x1a005fe0   Section        0  gui_drawpoint.o(.text)
    .text                                    0x1a006034   Section        0  gui_drawvline.o(.text)
    .text                                    0x1a006080   Section        0  gui_exec.o(.text)
    .text                                    0x1a0060b4   Section        0  gui_fillpolygon.o(.text)
    _Add                                     0x1a0060b5   Thumb Code    46  gui_fillpolygon.o(.text)
    .text                                    0x1a0062e8   Section        0  gui_fillrect.o(.text)
    .text                                    0x1a006340   Section        0  gui_fillrectex.o(.text)
    .text                                    0x1a006354   Section        0  gui_getbitmappixelindex.o(.text)
    .text                                    0x1a0063e2   Section        0  gui_getclientrect.o(.text)
    .text                                    0x1a0063ec   Section        0  gui_getcolor.o(.text)
    .text                                    0x1a006444   Section        0  gui_getfontsizey.o(.text)
    .text                                    0x1a006458   Section        0  gui_getstringdistx.o(.text)
    .text                                    0x1a00646c   Section        0  gui_getversionstring.o(.text)
    .text                                    0x1a006480   Section        0  gui_getysizeoffont.o(.text)
    .text                                    0x1a006494   Section        0  gui_goto.o(.text)
    _GotoY                                   0x1a0064e9   Thumb Code     8  gui_goto.o(.text)
    _GotoX                                   0x1a0064f1   Thumb Code     8  gui_goto.o(.text)
    .text                                    0x1a0064fc   Section        0  gui_invertrect.o(.text)
    .text                                    0x1a006560   Section        0  gui_isinfont.o(.text)
    .text                                    0x1a006570   Section        0  gui_mergerect.o(.text)
    .text                                    0x1a0065c8   Section        0  gui_moverect.o(.text)
    .text                                    0x1a0065e8   Section        0  gui_onkey.o(.text)
    .text                                    0x1a006670   Section        0  gui_pen.o(.text)
    .text                                    0x1a0066c4   Section        0  gui_pid.o(.text)
    .text                                    0x1a006708   Section        0  gui_rectsintersect.o(.text)
    .text                                    0x1a006740   Section        0  gui_savecontext.o(.text)
    .text                                    0x1a006758   Section        0  gui_selectlcd.o(.text)
    .text                                    0x1a006772   Section        0  gui_setcliprect.o(.text)
    .text                                    0x1a00678a   Section        0  gui_setcolor.o(.text)
    .text                                    0x1a0067b8   Section        0  gui_setcolorindex.o(.text)
    .text                                    0x1a0067f8   Section        0  gui_setdefault.o(.text)
    .text                                    0x1a006848   Section        0  gui_setdrawmode.o(.text)
    .text                                    0x1a006860   Section        0  gui_setfont.o(.text)
    .text                                    0x1a00687c   Section        0  gui_setlinestyle.o(.text)
    .text                                    0x1a006898   Section        0  gui_setlutentry.o(.text)
    .text                                    0x1a0068b4   Section        0  gui_setpixelindex.o(.text)
    .text                                    0x1a0068e8   Section        0  gui_settextalign.o(.text)
    .text                                    0x1a006904   Section        0  gui_settextmode.o(.text)
    .text                                    0x1a006920   Section        0  gui_touch.o(.text)
    .text                                    0x1a006960   Section        0  gui_touch_driveranalog.o(.text)
    _StoreUnstable                           0x1a006961   Thumb Code    44  gui_touch_driveranalog.o(.text)
    .text                                    0x1a0069ec   Section        0  gui_touch_storestate.o(.text)
    .text                                    0x1a006a10   Section        0  gui_touch_storeunstable.o(.text)
    .text                                    0x1a006a48   Section        0  gui_uc.o(.text)
    .text                                    0x1a006b1c   Section        0  gui_uc_encodenone.o(.text)
    _GetCharCode                             0x1a006b1d   Thumb Code     4  gui_uc_encodenone.o(.text)
    _GetCharSize                             0x1a006b21   Thumb Code     4  gui_uc_encodenone.o(.text)
    _CalcSizeOfChar                          0x1a006b25   Thumb Code     4  gui_uc_encodenone.o(.text)
    _Encode                                  0x1a006b29   Thumb Code     6  gui_uc_encodenone.o(.text)
    .text                                    0x1a006b4c   Section        0  gui_waitevent.o(.text)
    .text                                    0x1a006b7c   Section        0  gui2dlib.o(.text)
    .text                                    0x1a006c44   Section        0  guialloc.o(.text)
    _Alloc                                   0x1a006cc7   Thumb Code   272  guialloc.o(.text)
    _Free                                    0x1a006eb5   Thumb Code    76  guialloc.o(.text)
    _CreateHole                              0x1a006f01   Thumb Code   108  guialloc.o(.text)
    _CheckInit                               0x1a006f6d   Thumb Code    12  guialloc.o(.text)
    .text                                    0x1a006f88   Section        0  guichar.o(.text)
    .text                                    0x1a007048   Section        0  guicharline.o(.text)
    _DispLine                                0x1a007049   Thumb Code    70  guicharline.o(.text)
    .text                                    0x1a007194   Section        0  guicharm.o(.text)
    .text                                    0x1a007308   Section        0  guicharp.o(.text)
    GUIPROP_FindChar                         0x1a00741d   Thumb Code    22  guicharp.o(.text)
    .text                                    0x1a00743c   Section        0  guicirc.o(.text)
    Draw8Point                               0x1a00743d   Thumb Code   138  guicirc.o(.text)
    .text                                    0x1a007820   Section        0  guicolor2index.o(.text)
    .text                                    0x1a007838   Section        0  guicore.o(.text)
    .text                                    0x1a007938   Section        0  guicurs.o(.text)
    _SetPixelIndex                           0x1a007939   Thumb Code    50  guicurs.o(.text)
    _GetPixelIndex                           0x1a00796b   Thumb Code    42  guicurs.o(.text)
    _CalcRect                                0x1a007995   Thumb Code    54  guicurs.o(.text)
    _TempHide                                0x1a0079cb   Thumb Code    36  guicurs.o(.text)
    _TempUnhide                              0x1a0079ef   Thumb Code     4  guicurs.o(.text)
    _Log2Phys                                0x1a007d3d   Thumb Code    32  guicurs.o(.text)
    _Hide                                    0x1a007d5d   Thumb Code    22  guicurs.o(.text)
    _Show                                    0x1a007d73   Thumb Code    26  guicurs.o(.text)
    _Undraw                                  0x1a007d8d   Thumb Code   118  guicurs.o(.text)
    _Draw                                    0x1a007e03   Thumb Code   156  guicurs.o(.text)
    .text                                    0x1a007ea4   Section        0  guiencjs.o(.text)
    _GetLineDistX_SJIS                       0x1a007ea5   Thumb Code    50  guiencjs.o(.text)
    _GetLineLen_SJIS                         0x1a007ed7   Thumb Code    36  guiencjs.o(.text)
    _DispLine_SJIS                           0x1a007efb   Thumb Code    36  guiencjs.o(.text)
    .text                                    0x1a007f1e   Section        0  guipolyr.o(.text)
    .text                                    0x1a007fce   Section        0  guirealloc.o(.text)
    .text                                    0x1a00801c   Section        0  guitask.o(.text)
    .text                                    0x1a008128   Section        0  guitime.o(.text)
    .text                                    0x1a008154   Section        0  guival.o(.text)
    .text                                    0x1a008214   Section        0  lcd.o(.text)
    _GetColorIndex                           0x1a00856b   Thumb Code    12  lcd.o(.text)
    .text                                    0x1a008580   Section        0  lcd_drawvline.o(.text)
    .text                                    0x1a0085bc   Section        0  lcd_getcolorindex.o(.text)
    .text                                    0x1a0085cc   Section        0  lcd_getpixelcolor.o(.text)
    .text                                    0x1a0085dc   Section        0  lcd_l0_generic.o(.text)
    .text                                    0x1a008604   Section        0  lcd_selectlcd.o(.text)
    .text                                    0x1a008624   Section        0  lcd_setcliprectex.o(.text)
    .text                                    0x1a008644   Section        0  lcd_updatecolorindices.o(.text)
    .text                                    0x1a008664   Section        0  lcdaa.o(.text)
    .text                                    0x1a008794   Section        0  lcdcolor.o(.text)
    .text                                    0x1a0087d4   Section        0  lcdgetp.o(.text)
    .text                                    0x1a008818   Section        0  lcdinfo.o(.text)
    .text                                    0x1a008860   Section        0  lcdinfo0.o(.text)
    .text                                    0x1a008890   Section        0  lcdpm565_index2color.o(.text)
    .text                                    0x1a0088c4   Section        0  lcdrle4.o(.text)
    _DrawBitmap_RLE4                         0x1a0088c5   Thumb Code   472  lcdrle4.o(.text)
    .text                                    0x1a008aa0   Section        0  lcdrle8.o(.text)
    _DrawBitmap_RLE8                         0x1a008aa1   Thumb Code   456  lcdrle8.o(.text)
    .text                                    0x1a008c70   Section        0  guidev.o(.text)
    .text                                    0x1a009028   Section        0  guidev_auto.o(.text)
    .text                                    0x1a0090d4   Section        0  guidev_banding.o(.text)
    _Min                                     0x1a0091b9   Thumb Code     8  guidev_banding.o(.text)
    .text                                    0x1a0091c0   Section        0  guidev_clear.o(.text)
    .text                                    0x1a0091f8   Section        0  guidev_getysize.o(.text)
    .text                                    0x1a009224   Section        0  guidev_measure.o(.text)
    _MarkPixel                               0x1a009225   Thumb Code    62  guidev_measure.o(.text)
    _MarkRect                                0x1a009263   Thumb Code    66  guidev_measure.o(.text)
    _DrawBitmap                              0x1a0092a5   Thumb Code    10  guidev_measure.o(.text)
    _DrawHLine                               0x1a0092af   Thumb Code     4  guidev_measure.o(.text)
    _DrawVLine                               0x1a0092b3   Thumb Code     6  guidev_measure.o(.text)
    _SetPixelIndex                           0x1a0092b9   Thumb Code     2  guidev_measure.o(.text)
    _XorPixel                                0x1a0092bb   Thumb Code     2  guidev_measure.o(.text)
    _GetPixelIndex                           0x1a0092bd   Thumb Code     4  guidev_measure.o(.text)
    _FillRect                                0x1a0092c1   Thumb Code     2  guidev_measure.o(.text)
    _GetRect                                 0x1a0092c3   Thumb Code    18  guidev_measure.o(.text)
    _Color2Index                             0x1a0092d5   Thumb Code    24  guidev_measure.o(.text)
    _Index2Color                             0x1a0092ed   Thumb Code    24  guidev_measure.o(.text)
    _GetIndexMask                            0x1a009305   Thumb Code    20  guidev_measure.o(.text)
    _CalcPolyRect                            0x1a009319   Thumb Code    72  guidev_measure.o(.text)
    _FillPolygon                             0x1a009361   Thumb Code    48  guidev_measure.o(.text)
    _FillPolygonAA                           0x1a009391   Thumb Code   116  guidev_measure.o(.text)
    .text                                    0x1a0094d8   Section        0  guidev_reduceysize.o(.text)
    .text                                    0x1a00950c   Section        0  guidev_setorg.o(.text)
    .text                                    0x1a009564   Section        0  guidev_usage.o(.text)
    .text                                    0x1a0095d4   Section        0  guidev_usagebm.o(.text)
    GUI_USAGE_BM_AddPixel                    0x1a0095d5   Thumb Code    44  guidev_usagebm.o(.text)
    GUI_USAGE_BM_AddHLine                    0x1a009601   Thumb Code   108  guidev_usagebm.o(.text)
    GUI_USAGE_BM_Clear                       0x1a00966d   Thumb Code    14  guidev_usagebm.o(.text)
    GUI_USAGE_BM_GetNextDirty                0x1a00967b   Thumb Code   154  guidev_usagebm.o(.text)
    _GUI_USAGE_BM_Delete                     0x1a009715   Thumb Code     4  guidev_usagebm.o(.text)
    .text                                    0x1a00976c   Section        0  guidev_16.o(.text)
    _DrawBitLine1BPP                         0x1a00976d   Thumb Code   256  guidev_16.o(.text)
    _DrawBitLine4BPP                         0x1a00986d   Thumb Code   344  guidev_16.o(.text)
    _DrawBitmap                              0x1a0099c5   Thumb Code   556  guidev_16.o(.text)
    _FillRect                                0x1a009bf1   Thumb Code   130  guidev_16.o(.text)
    _DrawHLine                               0x1a009c73   Thumb Code     4  guidev_16.o(.text)
    _DrawVLine                               0x1a009c77   Thumb Code   166  guidev_16.o(.text)
    _SetPixelIndex                           0x1a009d1d   Thumb Code    72  guidev_16.o(.text)
    _XorPixel                                0x1a009d65   Thumb Code    80  guidev_16.o(.text)
    _GetPixelIndex                           0x1a009db5   Thumb Code    10  guidev_16.o(.text)
    _XY2PTR                                  0x1a009dbf   Thumb Code    48  guidev_16.o(.text)
    _DrawBitLine2BPP                         0x1a009def   Thumb Code   212  guidev_16.o(.text)
    .text                                    0x1a009ecc   Section        0  gui_raw_os.o(.text)
    .text                                    0x1a009f1c   Section        0  lcddummy.o(.text)
    _DrawBitLine2BPP                         0x1a009f2b   Thumb Code   280  lcddummy.o(.text)
    _DrawBitLine4BPP                         0x1a00a043   Thumb Code   278  lcddummy.o(.text)
    _DrawBitLine1BPP                         0x1a00a2b1   Thumb Code   192  lcddummy.o(.text)
    _DrawBitLine8BPP                         0x1a00a371   Thumb Code   136  lcddummy.o(.text)
    DrawBitLine16BPP                         0x1a00a3f9   Thumb Code   130  lcddummy.o(.text)
    .text                                    0x1a00a480   Section        0  lpc43xx_ssp1.o(.text)
    .text                                    0x1a00a4fc   Section        0  another_touch.o(.text)
    __touch_x_y_get                          0x1a00a555   Thumb Code    84  another_touch.o(.text)
    SPI_WriteByte                            0x1a00a695   Thumb Code     4  another_touch.o(.text)
    InsertSort                               0x1a00a699   Thumb Code    46  another_touch.o(.text)
    .text                                    0x1a00a6dc   Section        0  button.o(.text)
    _Paint                                   0x1a00a6dd   Thumb Code   256  button.o(.text)
    _OnButtonPressed                         0x1a00a9c9   Thumb Code    34  button.o(.text)
    _OnButtonReleased                        0x1a00a9eb   Thumb Code    48  button.o(.text)
    .text                                    0x1a00aa20   Section        0  button__setbitmapobj.o(.text)
    .text                                    0x1a00aa58   Section        0  button_create.o(.text)
    .text                                    0x1a00aa8c   Section        0  button_createindirect.o(.text)
    .text                                    0x1a00aaca   Section        0  button_selfdraw.o(.text)
    .text                                    0x1a00aaf8   Section        0  dialog.o(.text)
    .text                                    0x1a00ac00   Section        0  edit.o(.text)
    _Paint                                   0x1a00ac01   Thumb Code   338  edit.o(.text)
    _IncrementBuffer                         0x1a00ad53   Thumb Code    44  edit.o(.text)
    _IsSpaceInBuffer                         0x1a00ad7f   Thumb Code    52  edit.o(.text)
    _DeleteChar                              0x1a00adb3   Thumb Code    68  edit.o(.text)
    _SetValue                                0x1a00aeed   Thumb Code    92  edit.o(.text)
    _InsertChar                              0x1a00b3c9   Thumb Code   122  edit.o(.text)
    .text                                    0x1a00b448   Section        0  edit_createindirect.o(.text)
    .text                                    0x1a00b490   Section        0  editbin.o(.text)
    _AddKeyBin                               0x1a00b491   Thumb Code   122  editbin.o(.text)
    _UpdateBuffer                            0x1a00b579   Thumb Code    32  editbin.o(.text)
    _EditBin                                 0x1a00b599   Thumb Code    36  editbin.o(.text)
    _GetCurrentBit                           0x1a00b5bd   Thumb Code    26  editbin.o(.text)
    .text                                    0x1a00b5e0   Section        0  edithex.o(.text)
    _AddPosition                             0x1a00b5e1   Thumb Code    44  edithex.o(.text)
    _AddKeyHex                               0x1a00b60d   Thumb Code   140  edithex.o(.text)
    _UpdateBuffer                            0x1a00b707   Thumb Code    32  edithex.o(.text)
    .text                                    0x1a00b730   Section        0  framewin.o(.text)
    _SetActive                               0x1a00b731   Thumb Code    54  framewin.o(.text)
    _Paint                                   0x1a00b84b   Thumb Code   306  framewin.o(.text)
    FRAMEWIN__cbClient                       0x1a00b97d   Thumb Code   230  framewin.o(.text)
    .text                                    0x1a00bde4   Section        0  framewin__updatebuttons.o(.text)
    .text                                    0x1a00beb8   Section        0  framewin_button.o(.text)
    .text                                    0x1a00bf2c   Section        0  framewin_buttonmax.o(.text)
    _cbMax                                   0x1a00bf2d   Thumb Code    52  framewin_buttonmax.o(.text)
    _DrawMax                                 0x1a00bf61   Thumb Code   184  framewin_buttonmax.o(.text)
    _DrawRestore                             0x1a00c019   Thumb Code   282  framewin_buttonmax.o(.text)
    _Draw                                    0x1a00c133   Thumb Code    34  framewin_buttonmax.o(.text)
    .text                                    0x1a00c180   Section        0  framewin_buttonmin.o(.text)
    _cbMin                                   0x1a00c181   Thumb Code    52  framewin_buttonmin.o(.text)
    _Draw                                    0x1a00c1b5   Thumb Code    38  framewin_buttonmin.o(.text)
    _DrawMin                                 0x1a00c1f9   Thumb Code   120  framewin_buttonmin.o(.text)
    _DrawRestore                             0x1a00c271   Thumb Code   120  framewin_buttonmin.o(.text)
    .text                                    0x1a00c2f4   Section        0  framewin_create.o(.text)
    .text                                    0x1a00c33e   Section        0  framewin_createindirect.o(.text)
    .text                                    0x1a00c37a   Section        0  framewin_get.o(.text)
    .text                                    0x1a00c3ee   Section        0  framewin_minmaxrest.o(.text)
    _RestoreMinimized                        0x1a00c3ef   Thumb Code    96  framewin_minmaxrest.o(.text)
    _RestoreMaximized                        0x1a00c44f   Thumb Code    90  framewin_minmaxrest.o(.text)
    _InvalidateButton                        0x1a00c519   Thumb Code    44  framewin_minmaxrest.o(.text)
    _MinimizeFramewin                        0x1a00c545   Thumb Code   116  framewin_minmaxrest.o(.text)
    _MaximizeFramewin                        0x1a00c5b9   Thumb Code   126  framewin_minmaxrest.o(.text)
    .text                                    0x1a00c636   Section        0  framewin_setfont.o(.text)
    .text                                    0x1a00c670   Section        0  gui_array.o(.text)
    .text                                    0x1a00c7ba   Section        0  gui_draw.o(.text)
    .text                                    0x1a00c804   Section        0  gui_draw_self.o(.text)
    _Draw                                    0x1a00c805   Thumb Code     4  gui_draw_self.o(.text)
    _GetXSize                                0x1a00c809   Thumb Code     4  gui_draw_self.o(.text)
    _GetYSize                                0x1a00c80d   Thumb Code     4  gui_draw_self.o(.text)
    .text                                    0x1a00c848   Section        0  listbox.o(.text)
    _GetItemSizeY                            0x1a00ca31   Thumb Code    64  listbox.o(.text)
    _GetContentsSizeX                        0x1a00ca77   Thumb Code    94  listbox.o(.text)
    _GetItemPosY                             0x1a00cad5   Thumb Code    60  listbox.o(.text)
    _GetNumVisItems                          0x1a00cb11   Thumb Code    70  listbox.o(.text)
    _NotifyOwner                             0x1a00cb57   Thumb Code    50  listbox.o(.text)
    _UpdateScrollPos                         0x1a00cb89   Thumb Code   130  listbox.o(.text)
    _OnPaint                                 0x1a00cdbd   Thumb Code   238  listbox.o(.text)
    _ToggleMultiSel                          0x1a00ceab   Thumb Code    68  listbox.o(.text)
    _MoveSel                                 0x1a00cf0f   Thumb Code   126  listbox.o(.text)
    _AddKey                                  0x1a00cfc7   Thumb Code   198  listbox.o(.text)
    _CallOwnerDraw                           0x1a00d427   Thumb Code    30  listbox.o(.text)
    _GetYSize                                0x1a00d445   Thumb Code    22  listbox.o(.text)
    _ManageAutoScroll                        0x1a00d45b   Thumb Code   128  listbox.o(.text)
    _Tolower                                 0x1a00d4db   Thumb Code    12  listbox.o(.text)
    .text                                    0x1a00d4ec   Section        0  listbox_create.o(.text)
    .text                                    0x1a00d53a   Section        0  listbox_createindirect.o(.text)
    .text                                    0x1a00d570   Section        0  listbox_font.o(.text)
    .text                                    0x1a00d5b8   Section        0  progbar.o(.text)
    _Value2Pos                               0x1a00d5b9   Thumb Code    80  progbar.o(.text)
    _DrawPart                                0x1a00d609   Thumb Code    56  progbar.o(.text)
    _Paint                                   0x1a00d6fb   Thumb Code   236  progbar.o(.text)
    .text                                    0x1a00d9c4   Section        0  progbar_create.o(.text)
    .text                                    0x1a00d9f6   Section        0  progbar_setbarcolor.o(.text)
    .text                                    0x1a00da24   Section        0  progbar_setfont.o(.text)
    .text                                    0x1a00da48   Section        0  progbar_setminmax.o(.text)
    .text                                    0x1a00da80   Section        0  progbar_settext.o(.text)
    .text                                    0x1a00daf8   Section        0  progbar_settextalign.o(.text)
    .text                                    0x1a00db1c   Section        0  scrollbar.o(.text)
    _CalcPositions                           0x1a00db1d   Thumb Code   340  scrollbar.o(.text)
    _DrawTriangle                            0x1a00dc71   Thumb Code    64  scrollbar.o(.text)
    _Paint                                   0x1a00dcb1   Thumb Code   344  scrollbar.o(.text)
    _OnTouch                                 0x1a00de51   Thumb Code   218  scrollbar.o(.text)
    .text                                    0x1a00e1ac   Section        0  scrollbar_create.o(.text)
    .text                                    0x1a00e200   Section        0  scrollbar_defaults.o(.text)
    .text                                    0x1a00e230   Section        0  scrollbar_setcolor.o(.text)
    .text                                    0x1a00e266   Section        0  scrollbar_setwidth.o(.text)
    .text                                    0x1a00e290   Section        0  slider.o(.text)
    _Paint                                   0x1a00e291   Thumb Code   304  slider.o(.text)
    _OnTouch                                 0x1a00e403   Thumb Code   206  slider.o(.text)
    .text                                    0x1a00e710   Section        0  slider_createindirect.o(.text)
    .text                                    0x1a00e744   Section        0  text.o(.text)
    .text                                    0x1a00e854   Section        0  text_createindirect.o(.text)
    .text                                    0x1a00e88c   Section        0  widget.o(.text)
    _EffectRequiresRedraw                    0x1a00e88d   Thumb Code    86  widget.o(.text)
    .text                                    0x1a00ec84   Section        0  widget_effect_3d.o(.text)
    _WIDGET_EFFECT_3D_DrawUpRect             0x1a00ec85   Thumb Code    92  widget_effect_3d.o(.text)
    _WIDGET_EFFECT_3D_DrawDownRect           0x1a00ece1   Thumb Code   132  widget_effect_3d.o(.text)
    _WIDGET_EFFECT_3D_DrawDown               0x1a00ed65   Thumb Code    16  widget_effect_3d.o(.text)
    _WIDGET_EFFECT_3D_GetRect                0x1a00ed75   Thumb Code    22  widget_effect_3d.o(.text)
    .text                                    0x1a00edb0   Section        0  widget_effect_none.o(.text)
    _WIDGET_EFFECT_None_DrawDown             0x1a00edb1   Thumb Code     2  widget_effect_none.o(.text)
    _WIDGET_EFFECT_None_DrawUp               0x1a00edb3   Thumb Code     2  widget_effect_none.o(.text)
    _WIDGET_EFFECT_None_DrawDownRect         0x1a00edb5   Thumb Code     2  widget_effect_none.o(.text)
    _WIDGET_EFFECT_None_DrawUpRect           0x1a00edb7   Thumb Code     2  widget_effect_none.o(.text)
    _WIDGET_EFFECT_None_GetRect              0x1a00edb9   Thumb Code     4  widget_effect_none.o(.text)
    .text                                    0x1a00edc8   Section        0  widget_fillstringinrect.o(.text)
    .text                                    0x1a00eec0   Section        0  widget_seteffect.o(.text)
    .text                                    0x1a00eed8   Section        0  widget_setwidth.o(.text)
    .text                                    0x1a00ef10   Section        0  wm.o(.text)
    _SetClipRectUserIntersect                0x1a00ef21   Thumb Code    68  wm.o(.text)
    _DeleteAllChildren                       0x1a00f33f   Thumb Code    20  wm.o(.text)
    _Findy1                                  0x1a00f353   Thumb Code   146  wm.o(.text)
    _Findx0                                  0x1a00f3e5   Thumb Code   128  wm.o(.text)
    _Findx1                                  0x1a00f465   Thumb Code   114  wm.o(.text)
    _FindNext_IVR                            0x1a00f6cd   Thumb Code   310  wm.o(.text)
    _Paint1                                  0x1a00f917   Thumb Code   122  wm.o(.text)
    _Paint1Trans                             0x1a00f991   Thumb Code    92  wm.o(.text)
    _PaintTransChildren                      0x1a00f9ed   Thumb Code   108  wm.o(.text)
    _cbPaintMemDev                           0x1a00fae7   Thumb Code    44  wm.o(.text)
    cbBackWin                                0x1a00fc7b   Thumb Code    66  wm.o(.text)
    .text                                    0x1a00fd54   Section        0  wm__foreachdesc.o(.text)
    .text                                    0x1a00fd8a   Section        0  wm__getfirstsibling.o(.text)
    .text                                    0x1a00fda0   Section        0  wm__getfocussedchild.o(.text)
    .text                                    0x1a00fdc0   Section        0  wm__getlastsibling.o(.text)
    .text                                    0x1a00fddc   Section        0  wm__getorg_aa.o(.text)
    .text                                    0x1a00fe08   Section        0  wm__getprevsibling.o(.text)
    .text                                    0x1a00fe2e   Section        0  wm__isancestor.o(.text)
    .text                                    0x1a00fe5a   Section        0  wm__ischild.o(.text)
    .text                                    0x1a00fe76   Section        0  wm__isenabled.o(.text)
    .text                                    0x1a00fe8a   Section        0  wm__screen2client.o(.text)
    .text                                    0x1a00fea0   Section        0  wm__sendmessage.o(.text)
    .text                                    0x1a00fedc   Section        0  wm__sendmessageifenabled.o(.text)
    .text                                    0x1a00fef8   Section        0  wm__sendmessagenopara.o(.text)
    .text                                    0x1a00ff20   Section        0  wm__updatechildpositions.o(.text)
    .text                                    0x1a00fff0   Section        0  wm_bringtobottom.o(.text)
    .text                                    0x1a010048   Section        0  wm_bringtotop.o(.text)
    _cbInvalidateOne                         0x1a010049   Thumb Code     4  wm_bringtotop.o(.text)
    .text                                    0x1a0100a4   Section        0  wm_checkscrollpos.o(.text)
    .text                                    0x1a010104   Section        0  wm_criticalhandle.o(.text)
    .text                                    0x1a010138   Section        0  wm_foreachdesc.o(.text)
    .text                                    0x1a010156   Section        0  wm_getbkcolor.o(.text)
    .text                                    0x1a010170   Section        0  wm_getclientrect.o(.text)
    .text                                    0x1a0101c0   Section        0  wm_getclientwindow.o(.text)
    .text                                    0x1a0101d8   Section        0  wm_getdesktopwindow.o(.text)
    .text                                    0x1a0101e4   Section        0  wm_getdialogitem.o(.text)
    _GetDialogItem                           0x1a0101e5   Thumb Code    60  wm_getdialogitem.o(.text)
    .text                                    0x1a010242   Section        0  wm_getfirstchild.o(.text)
    .text                                    0x1a01025e   Section        0  wm_getflags.o(.text)
    .text                                    0x1a01027c   Section        0  wm_getid.o(.text)
    .text                                    0x1a01028c   Section        0  wm_getinsiderect.o(.text)
    .text                                    0x1a0102ac   Section        0  wm_getinsiderectexscrollbar.o(.text)
    .text                                    0x1a010350   Section        0  wm_getparent.o(.text)
    .text                                    0x1a01036c   Section        0  wm_getscrollbar.o(.text)
    .text                                    0x1a010378   Section        0  wm_getscrollpartner.o(.text)
    .text                                    0x1a0103a2   Section        0  wm_getscrollstate.o(.text)
    .text                                    0x1a0103b4   Section        0  wm_getwindowrect.o(.text)
    .text                                    0x1a010414   Section        0  wm_getwindowsize.o(.text)
    _GetDefaultWin                           0x1a01047d   Thumb Code    10  wm_getwindowsize.o(.text)
    .text                                    0x1a010488   Section        0  wm_hascaptured.o(.text)
    .text                                    0x1a0104a0   Section        0  wm_hide.o(.text)
    .text                                    0x1a0104d8   Section        0  wm_isfocussable.o(.text)
    .text                                    0x1a0104f4   Section        0  wm_iswindow.o(.text)
    .text                                    0x1a01050c   Section        0  wm_move.o(.text)
    _MoveDescendents                         0x1a01050d   Thumb Code    72  wm_move.o(.text)
    .text                                    0x1a010626   Section        0  wm_movechildto.o(.text)
    .text                                    0x1a010674   Section        0  wm_notifyparent.o(.text)
    .text                                    0x1a010684   Section        0  wm_onkey.o(.text)
    .text                                    0x1a0106bc   Section        0  wm_pid__getprevstate.o(.text)
    .text                                    0x1a0106d4   Section        0  wm_resizewindow.o(.text)
    .text                                    0x1a0107b4   Section        0  wm_screen2win.o(.text)
    _Screen2hWin                             0x1a0107e3   Thumb Code    76  wm_screen2win.o(.text)
    .text                                    0x1a01087c   Section        0  wm_sendmessagenopara.o(.text)
    .text                                    0x1a010896   Section        0  wm_sendtoparent.o(.text)
    .text                                    0x1a0108bc   Section        0  wm_setcallback.o(.text)
    .text                                    0x1a0108e4   Section        0  wm_setcapture.o(.text)
    WM__ReleaseCapture                       0x1a01091d   Thumb Code    28  wm_setcapture.o(.text)
    .text                                    0x1a010940   Section        0  wm_setcapturemove.o(.text)
    .text                                    0x1a0109e8   Section        0  wm_setcreateflags.o(.text)
    .text                                    0x1a0109f8   Section        0  wm_setdesktopcolor.o(.text)
    .text                                    0x1a010a38   Section        0  wm_setfocus.o(.text)
    .text                                    0x1a010ad0   Section        0  wm_setfocusonnextchild.o(.text)
    _GetNextChild                            0x1a010b21   Thumb Code    38  wm_setfocusonnextchild.o(.text)
    .text                                    0x1a010b46   Section        0  wm_setfocusonprevchild.o(.text)
    _GetPrevChild                            0x1a010b8d   Thumb Code    26  wm_setfocusonprevchild.o(.text)
    .text                                    0x1a010ba6   Section        0  wm_setscrollbar.o(.text)
    _SetScrollbar                            0x1a010ba7   Thumb Code    54  wm_setscrollbar.o(.text)
    .text                                    0x1a010c20   Section        0  wm_setscrollstate.o(.text)
    .text                                    0x1a010c38   Section        0  wm_setsize.o(.text)
    .text                                    0x1a010c78   Section        0  wm_settrans.o(.text)
    .text                                    0x1a010d00   Section        0  wm_setusercliprect.o(.text)
    .text                                    0x1a010d20   Section        0  wm_setxsize.o(.text)
    .text                                    0x1a010d62   Section        0  wm_setysize.o(.text)
    .text                                    0x1a010da4   Section        0  wm_show.o(.text)
    .text                                    0x1a010dfc   Section        0  wmmemdev.o(.text)
    .text                                    0x1a010e44   Section        0  wmtouch.o(.text)
    .text                                    0x1a0110a0   Section        0  guidemo.o(.text)
    _cbCmdWin                                0x1a0110a1   Thumb Code    74  guidemo.o(.text)
    _UpdateInfoWin                           0x1a0110eb   Thumb Code   144  guidemo.o(.text)
    _UpdateCmdWin                            0x1a01155d   Thumb Code    10  guidemo.o(.text)
    .text                                    0x1a01156c   Section        0  guidemo_automotive.o(.text)
    _Draw_0                                  0x1a01156d   Thumb Code    96  guidemo_automotive.o(.text)
    _Draw_1                                  0x1a0115cd   Thumb Code   102  guidemo_automotive.o(.text)
    _GetAngle_0                              0x1a0117b7   Thumb Code   108  guidemo_automotive.o(.text)
    _GetAngle_1                              0x1a011823   Thumb Code    98  guidemo_automotive.o(.text)
    .text                                    0x1a011934   Section        0  guidemo_bitmap.o(.text)
    .text                                    0x1a011c8c   Section        0  guidemo_circle.o(.text)
    .text                                    0x1a011d80   Section        0  guidemo_colorbar.o(.text)
    .text                                    0x1a0120c0   Section        0  guidemo_colorlist.o(.text)
    .text                                    0x1a0120c4   Section        0  guidemo_dialog.o(.text)
    _cbCallback                              0x1a0120c5   Thumb Code   214  guidemo_dialog.o(.text)
    .text                                    0x1a012308   Section        0  guidemo_font.o(.text)
    _ShowCharacters                          0x1a012309   Thumb Code   104  guidemo_font.o(.text)
    _ShowFonts                               0x1a012371   Thumb Code    58  guidemo_font.o(.text)
    _Label                                   0x1a01242b   Thumb Code    28  guidemo_font.o(.text)
    .text                                    0x1a0125a4   Section        0  guidemo_framewin.o(.text)
    .text                                    0x1a0126d8   Section        0  guidemo_graph.o(.text)
    _Draw                                    0x1a0126d9   Thumb Code   122  guidemo_graph.o(.text)
    _Draw2                                   0x1a012753   Thumb Code    36  guidemo_graph.o(.text)
    _ShowText                                0x1a012777   Thumb Code    52  guidemo_graph.o(.text)
    _GetSineData                             0x1a0127ab   Thumb Code   102  guidemo_graph.o(.text)
    _Label                                   0x1a01283b   Thumb Code   200  guidemo_graph.o(.text)
    _DemoRandomGraph                         0x1a012903   Thumb Code   156  guidemo_graph.o(.text)
    _DemoSineWave                            0x1a01299f   Thumb Code   174  guidemo_graph.o(.text)
    _DemoOrData                              0x1a012a4d   Thumb Code   280  guidemo_graph.o(.text)
    _GetRandomData                           0x1a012b65   Thumb Code   130  guidemo_graph.o(.text)
    _LabelMS                                 0x1a012be7   Thumb Code    22  guidemo_graph.o(.text)
    _DisplayTime                             0x1a012bfd   Thumb Code    38  guidemo_graph.o(.text)
    .text                                    0x1a012c34   Section        0  guidemo_hardwareinfo.o(.text)
    .text                                    0x1a012c38   Section        0  guidemo_intro.o(.text)
    .text                                    0x1a012e50   Section        0  guidemo_lut.o(.text)
    .text                                    0x1a012ec8   Section        0  guidemo_memdevb.o(.text)
    _Draw                                    0x1a012ec9   Thumb Code   188  guidemo_memdevb.o(.text)
    .text                                    0x1a0130f4   Section        0  guidemo_navi.o(.text)
    _cbNaviWindow                            0x1a0130f5   Thumb Code   120  guidemo_navi.o(.text)
    _NavigationDriveTo                       0x1a01316d   Thumb Code   334  guidemo_navi.o(.text)
    _ShowMovingMap                           0x1a0132cd   Thumb Code   166  guidemo_navi.o(.text)
    .text                                    0x1a0133e4   Section        0  guidemo_polygon.o(.text)
    .text                                    0x1a0134cc   Section        0  guidemo_progbar.o(.text)
    .text                                    0x1a013740   Section        0  guidemo_speed.o(.text)
    .text                                    0x1a013844   Section        0  guidemo_wm.o(.text)
    _LiftUp                                  0x1a013845   Thumb Code    78  guidemo_wm.o(.text)
    _LiftDown                                0x1a013893   Thumb Code    72  guidemo_wm.o(.text)
    _cbBkWindow                              0x1a0138db   Thumb Code    84  guidemo_wm.o(.text)
    _cbWindow1                               0x1a01392f   Thumb Code    92  guidemo_wm.o(.text)
    _cbWindow2                               0x1a01398b   Thumb Code   110  guidemo_wm.o(.text)
    _cbChild                                 0x1a0139f9   Thumb Code    90  guidemo_wm.o(.text)
    _cbDemoCallback1                         0x1a013a53   Thumb Code    90  guidemo_wm.o(.text)
    _cbDemoCallback2                         0x1a013aad   Thumb Code    94  guidemo_wm.o(.text)
    _DemoRedrawing                           0x1a013bf3   Thumb Code   584  guidemo_wm.o(.text)
    _DemoResizeWindow                        0x1a013e3b   Thumb Code   198  guidemo_wm.o(.text)
    _ChangeInfoText                          0x1a013ffd   Thumb Code    30  guidemo_wm.o(.text)
    _DemoSetDesktopColor                     0x1a01401b   Thumb Code    92  guidemo_wm.o(.text)
    _DemoCreateWindow                        0x1a014077   Thumb Code    94  guidemo_wm.o(.text)
    _DemoMoveTo                              0x1a0140d5   Thumb Code   432  guidemo_wm.o(.text)
    _DemoMoveWindow                          0x1a014285   Thumb Code   134  guidemo_wm.o(.text)
    _DemoHideShowParent                      0x1a01430b   Thumb Code    94  guidemo_wm.o(.text)
    _DemoSetCallback                         0x1a014369   Thumb Code   120  guidemo_wm.o(.text)
    _DemoDeleteWindow                        0x1a0143e1   Thumb Code    78  guidemo_wm.o(.text)
    .text                                    0x1a0144ac   Section        0  board.o(.text)
    delay                                    0x1a014515   Thumb Code    12  board.o(.text)
    Board_Audio_CodecInit                    0x1a014521   Thumb Code    32  board.o(.text)
    writeLCD00_16                            0x1a014541   Thumb Code    58  board.o(.text)
    writeLCD01_16                            0x1a01457b   Thumb Code    72  board.o(.text)
    writeLCDReg                              0x1a0145c3   Thumb Code    20  board.o(.text)
    pinConfig                                0x1a0145d7   Thumb Code    14  board.o(.text)
    writeTSCReg                              0x1a0145e5   Thumb Code    28  board.o(.text)
    readTSCReg                               0x1a014601   Thumb Code    24  board.o(.text)
    detectTSCTouch                           0x1a014619   Thumb Code    36  board.o(.text)
    getTSCCoord                              0x1a01463d   Thumb Code   114  board.o(.text)
    Board_LED_Init                           0x1a014747   Thumb Code    28  board.o(.text)
    Chip_SCU_PinMuxSet                       0x1a014ec9   Thumb Code    12  board.o(.text)
    Chip_GPIO_SetPinState                    0x1a014ed5   Thumb Code    10  board.o(.text)
    Chip_GPIO_GetPinState                    0x1a014edf   Thumb Code    18  board.o(.text)
    Chip_GPIO_SetPinDIROutput                0x1a014ef1   Thumb Code    72  board.o(.text)
    Chip_GPIO_SetPinDIRInput                 0x1a014f39   Thumb Code    28  board.o(.text)
    .text                                    0x1a014f54   Section        0  board_sysinit.o(.text)
    Chip_SCU_SetPinMuxing                    0x1a014f55   Thumb Code    44  board_sysinit.o(.text)
    .text                                    0x1a0150f0   Section        0  uda1380.o(.text)
    Audio_Codec_SetDefaultValues             0x1a015157   Thumb Code    36  uda1380.o(.text)
    .text                                    0x1a015274   Section      238  lludivv7m.o(.text)
    .text                                    0x1a015364   Section        0  noretval__2printf.o(.text)
    .text                                    0x1a01537c   Section        0  __printf.o(.text)
    .text                                    0x1a0153e4   Section        0  rand.o(.text)
    .text                                    0x1a015420   Section        0  memcmp.o(.text)
    .text                                    0x1a015478   Section        0  strcpy.o(.text)
    .text                                    0x1a0154c0   Section        0  strlen.o(.text)
    .text                                    0x1a0154fe   Section        0  strcat.o(.text)
    .text                                    0x1a015516   Section      138  rt_memcpy_v6.o(.text)
    .text                                    0x1a0155a0   Section      132  rt_memmove_v6.o(.text)
    .text                                    0x1a015624   Section      100  rt_memcpy_w.o(.text)
    .text                                    0x1a015688   Section       16  aeabi_memset.o(.text)
    .text                                    0x1a015698   Section       68  rt_memclr.o(.text)
    .text                                    0x1a0156dc   Section       78  rt_memclr_w.o(.text)
    .text                                    0x1a01572c   Section      128  strcmpv7m.o(.text)
    .text                                    0x1a0157ac   Section        0  heapauxi.o(.text)
    .text                                    0x1a0157b2   Section        0  _rserrno.o(.text)
    .text                                    0x1a0157c8   Section        0  _printf_fp_dec.o(.text)
    _fp_digits                               0x1a0157cb   Thumb Code   428  _printf_fp_dec.o(.text)
    .text                                    0x1a015be4   Section        0  _printf_char_file.o(.text)
    .text                                    0x1a015c08   Section      122  rt_memmove_w.o(.text)
    .text                                    0x1a015c84   Section        8  rt_locale_intlibspace.o(.text)
    .text                                    0x1a015c8c   Section        8  rt_errno_addr_intlibspace.o(.text)
    .text                                    0x1a015c94   Section      138  lludiv10.o(.text)
    .text                                    0x1a015d20   Section        0  _printf_char_common.o(.text)
    _printf_input_char                       0x1a015d21   Thumb Code    10  _printf_char_common.o(.text)
    .text                                    0x1a015d50   Section        0  _printf_fp_infnan.o(.text)
    .text                                    0x1a015dd0   Section        0  bigflt0.o(.text)
    .text                                    0x1a015eac   Section        8  libspace.o(.text)
    .text                                    0x1a015eb4   Section       74  sys_stackheap_outer.o(.text)
    .text                                    0x1a015efe   Section        0  exit.o(.text)
    CL$$btod_d2e                             0x1a015f10   Section       62  btod.o(CL$$btod_d2e)
    CL$$btod_d2e_denorm_low                  0x1a015f4e   Section       70  btod.o(CL$$btod_d2e_denorm_low)
    CL$$btod_d2e_norm_op1                    0x1a015f94   Section       96  btod.o(CL$$btod_d2e_norm_op1)
    CL$$btod_div_common                      0x1a015ff4   Section      824  btod.o(CL$$btod_div_common)
    CL$$btod_e2e                             0x1a01632c   Section      198  btod.o(CL$$btod_e2e)
    CL$$btod_ediv                            0x1a0163f2   Section       40  btod.o(CL$$btod_ediv)
    CL$$btod_emul                            0x1a01641a   Section       40  btod.o(CL$$btod_emul)
    CL$$btod_mult_common                     0x1a016442   Section      580  btod.o(CL$$btod_mult_common)
    i.Chip_Clock_Enable                      0x1a016688   Section        0  clock_18xx_43xx.o(i.Chip_Clock_Enable)
    i.Chip_Clock_EnableOpts                  0x1a0166c0   Section        0  clock_18xx_43xx.o(i.Chip_Clock_EnableOpts)
    i.Chip_Clock_FindBaseClock               0x1a0166fc   Section        0  clock_18xx_43xx.o(i.Chip_Clock_FindBaseClock)
    Chip_Clock_FindBaseClock                 0x1a0166fd   Thumb Code    74  clock_18xx_43xx.o(i.Chip_Clock_FindBaseClock)
    i.Chip_Clock_GetBaseClock                0x1a01674c   Section        0  clock_18xx_43xx.o(i.Chip_Clock_GetBaseClock)
    i.Chip_Clock_GetBaseClocktHz             0x1a016770   Section        0  clock_18xx_43xx.o(i.Chip_Clock_GetBaseClocktHz)
    i.Chip_Clock_GetClockInputHz             0x1a016784   Section        0  clock_18xx_43xx.o(i.Chip_Clock_GetClockInputHz)
    i.Chip_Clock_GetDivRate                  0x1a016858   Section        0  clock_18xx_43xx.o(i.Chip_Clock_GetDivRate)
    Chip_Clock_GetDivRate                    0x1a016859   Thumb Code    40  clock_18xx_43xx.o(i.Chip_Clock_GetDivRate)
    i.Chip_Clock_GetDividerDivisor           0x1a016880   Section        0  clock_18xx_43xx.o(i.Chip_Clock_GetDividerDivisor)
    i.Chip_Clock_GetDividerSource            0x1a0168a0   Section        0  clock_18xx_43xx.o(i.Chip_Clock_GetDividerSource)
    i.Chip_Clock_GetEMCRate                  0x1a0168c0   Section        0  clock_18xx_43xx.o(i.Chip_Clock_GetEMCRate)
    i.Chip_Clock_GetMainPLLHz                0x1a0168f0   Section        0  clock_18xx_43xx.o(i.Chip_Clock_GetMainPLLHz)
    i.Chip_Clock_GetRate                     0x1a016968   Section        0  clock_18xx_43xx.o(i.Chip_Clock_GetRate)
    i.Chip_Clock_SetBaseClock                0x1a0169c0   Section        0  clock_18xx_43xx.o(i.Chip_Clock_SetBaseClock)
    i.Chip_Clock_SetDivider                  0x1a016a08   Section        0  clock_18xx_43xx.o(i.Chip_Clock_SetDivider)
    i.Chip_EMC_Dynamic_Init                  0x1a016a58   Section        0  emc_18xx_43xx.o(i.Chip_EMC_Dynamic_Init)
    i.Chip_EMC_Init                          0x1a016a74   Section        0  emc_18xx_43xx.o(i.Chip_EMC_Init)
    i.Chip_EMC_Static_Init                   0x1a016aa0   Section        0  emc_18xx_43xx.o(i.Chip_EMC_Static_Init)
    i.Chip_GPIO_Init                         0x1a016abc   Section        0  gpio_18xx_43xx.o(i.Chip_GPIO_Init)
    i.Chip_I2C_EventHandler                  0x1a016ac0   Section        0  i2c_18xx_43xx.o(i.Chip_I2C_EventHandler)
    i.Chip_I2C_EventHandlerPolling           0x1a016ae8   Section        0  i2c_18xx_43xx.o(i.Chip_I2C_EventHandlerPolling)
    i.Chip_I2C_GetMasterEventHandler         0x1a016b28   Section        0  i2c_18xx_43xx.o(i.Chip_I2C_GetMasterEventHandler)
    i.Chip_I2C_Init                          0x1a016b3c   Section        0  i2c_18xx_43xx.o(i.Chip_I2C_Init)
    i.Chip_I2C_IsStateChanged                0x1a016b68   Section        0  i2c_18xx_43xx.o(i.Chip_I2C_IsStateChanged)
    i.Chip_I2C_MasterCmdRead                 0x1a016b80   Section        0  i2c_18xx_43xx.o(i.Chip_I2C_MasterCmdRead)
    i.Chip_I2C_MasterSend                    0x1a016bba   Section        0  i2c_18xx_43xx.o(i.Chip_I2C_MasterSend)
    i.Chip_I2C_MasterStateHandler            0x1a016bec   Section        0  i2c_18xx_43xx.o(i.Chip_I2C_MasterStateHandler)
    i.Chip_I2C_MasterTransfer                0x1a016c24   Section        0  i2c_18xx_43xx.o(i.Chip_I2C_MasterTransfer)
    i.Chip_I2C_SetClockRate                  0x1a016c90   Section        0  i2c_18xx_43xx.o(i.Chip_I2C_SetClockRate)
    i.Chip_I2C_SetMasterEventHandler         0x1a016ccc   Section        0  i2c_18xx_43xx.o(i.Chip_I2C_SetMasterEventHandler)
    i.Chip_I2S_Init                          0x1a016cf4   Section        0  i2s_18xx_43xx.o(i.Chip_I2S_Init)
    i.Chip_I2S_TxConfig                      0x1a016d00   Section        0  i2s_18xx_43xx.o(i.Chip_I2S_TxConfig)
    i.Chip_RGU_InReset                       0x1a016d7c   Section        0  rgu_18xx_43xx.o(i.Chip_RGU_InReset)
    i.Chip_RGU_TriggerReset                  0x1a016db4   Section        0  rgu_18xx_43xx.o(i.Chip_RGU_TriggerReset)
    i.Chip_SSP_ClearIntPending               0x1a016de0   Section        0  ssp_18xx_43xx.o(i.Chip_SSP_ClearIntPending)
    Chip_SSP_ClearIntPending                 0x1a016de1   Thumb Code     4  ssp_18xx_43xx.o(i.Chip_SSP_ClearIntPending)
    i.Chip_SSP_GetClockIndex                 0x1a016de4   Section        0  ssp_18xx_43xx.o(i.Chip_SSP_GetClockIndex)
    Chip_SSP_GetClockIndex                   0x1a016de5   Thumb Code    16  ssp_18xx_43xx.o(i.Chip_SSP_GetClockIndex)
    i.Chip_SSP_GetRawIntStatus               0x1a016df8   Section        0  ssp_18xx_43xx.o(i.Chip_SSP_GetRawIntStatus)
    Chip_SSP_GetRawIntStatus                 0x1a016df9   Thumb Code    16  ssp_18xx_43xx.o(i.Chip_SSP_GetRawIntStatus)
    i.Chip_SSP_GetStatus                     0x1a016e08   Section        0  ssp_18xx_43xx.o(i.Chip_SSP_GetStatus)
    Chip_SSP_GetStatus                       0x1a016e09   Thumb Code    16  ssp_18xx_43xx.o(i.Chip_SSP_GetStatus)
    i.Chip_SSP_Init                          0x1a016e18   Section        0  ssp_18xx_43xx.o(i.Chip_SSP_Init)
    i.Chip_SSP_ReceiveFrame                  0x1a016e54   Section        0  ssp_18xx_43xx.o(i.Chip_SSP_ReceiveFrame)
    Chip_SSP_ReceiveFrame                    0x1a016e55   Thumb Code     8  ssp_18xx_43xx.o(i.Chip_SSP_ReceiveFrame)
    i.Chip_SSP_SendFrame                     0x1a016e5c   Section        0  ssp_18xx_43xx.o(i.Chip_SSP_SendFrame)
    Chip_SSP_SendFrame                       0x1a016e5d   Thumb Code     6  ssp_18xx_43xx.o(i.Chip_SSP_SendFrame)
    i.Chip_SSP_SetBitRate                    0x1a016e62   Section        0  ssp_18xx_43xx.o(i.Chip_SSP_SetBitRate)
    i.Chip_SSP_SetClockRate                  0x1a016ea8   Section        0  ssp_18xx_43xx.o(i.Chip_SSP_SetClockRate)
    i.Chip_SSP_SetMaster                     0x1a016ebc   Section        0  ssp_18xx_43xx.o(i.Chip_SSP_SetMaster)
    i.Chip_SSP_Set_Mode                      0x1a016ed8   Section        0  ssp_18xx_43xx.o(i.Chip_SSP_Set_Mode)
    Chip_SSP_Set_Mode                        0x1a016ed9   Thumb Code    12  ssp_18xx_43xx.o(i.Chip_SSP_Set_Mode)
    i.Chip_SSP_WriteFrames_Blocking          0x1a016ee4   Section        0  ssp_18xx_43xx.o(i.Chip_SSP_WriteFrames_Blocking)
    i.Chip_SetupCoreClock                    0x1a016fce   Section        0  sysinit_18xx_43xx.o(i.Chip_SetupCoreClock)
    i.Chip_UART_DisableDivisorAccess         0x1a016fdc   Section        0  uart_18xx_43xx.o(i.Chip_UART_DisableDivisorAccess)
    Chip_UART_DisableDivisorAccess           0x1a016fdd   Thumb Code    10  uart_18xx_43xx.o(i.Chip_UART_DisableDivisorAccess)
    i.Chip_UART_EnableDivisorAccess          0x1a016fe6   Section        0  uart_18xx_43xx.o(i.Chip_UART_EnableDivisorAccess)
    Chip_UART_EnableDivisorAccess            0x1a016fe7   Thumb Code    10  uart_18xx_43xx.o(i.Chip_UART_EnableDivisorAccess)
    i.Chip_UART_GetClockIndex                0x1a016ff0   Section        0  uart_18xx_43xx.o(i.Chip_UART_GetClockIndex)
    Chip_UART_GetClockIndex                  0x1a016ff1   Thumb Code    36  uart_18xx_43xx.o(i.Chip_UART_GetClockIndex)
    i.Chip_UART_Init                         0x1a017020   Section        0  uart_18xx_43xx.o(i.Chip_UART_Init)
    i.Chip_UART_SetBaud                      0x1a01706c   Section        0  uart_18xx_43xx.o(i.Chip_UART_SetBaud)
    i.Chip_UART_SetDivisorLatches            0x1a0170ae   Section        0  uart_18xx_43xx.o(i.Chip_UART_SetDivisorLatches)
    Chip_UART_SetDivisorLatches              0x1a0170af   Thumb Code     6  uart_18xx_43xx.o(i.Chip_UART_SetDivisorLatches)
    i.SystemCoreClockUpdate                  0x1a0170b4   Section        0  chip_18xx_43xx.o(i.SystemCoreClockUpdate)
    i.__ARM_fpclassify                       0x1a0170c8   Section        0  fpclassify.o(i.__ARM_fpclassify)
    i.__hardfp_cos                           0x1a0170f8   Section        0  cos.o(i.__hardfp_cos)
    i.__hardfp_sin                           0x1a0171c0   Section        0  sin.o(i.__hardfp_sin)
    i.__hardfp_sqrt                          0x1a017288   Section        0  sqrt.o(i.__hardfp_sqrt)
    i.__ieee754_rem_pio2                     0x1a017308   Section        0  rred.o(i.__ieee754_rem_pio2)
    i.__kernel_cos                           0x1a017740   Section        0  cos_i.o(i.__kernel_cos)
    i.__kernel_poly                          0x1a0178b0   Section        0  poly.o(i.__kernel_poly)
    i.__kernel_sin                           0x1a0179a8   Section        0  sin_i.o(i.__kernel_sin)
    i.__mathlib_dbl_infnan                   0x1a017ad8   Section        0  dunder.o(i.__mathlib_dbl_infnan)
    i.__mathlib_dbl_invalid                  0x1a017af0   Section        0  dunder.o(i.__mathlib_dbl_invalid)
    i.__mathlib_dbl_underflow                0x1a017b10   Section        0  dunder.o(i.__mathlib_dbl_underflow)
    i.clock_init_delay                       0x1a017b30   Section        0  sysinit_18xx_43xx.o(i.clock_init_delay)
    clock_init_delay                         0x1a017b31   Thumb Code    36  sysinit_18xx_43xx.o(i.clock_init_delay)
    i.clock_main_init                        0x1a017b54   Section        0  sysinit_18xx_43xx.o(i.clock_main_init)
    clock_main_init                          0x1a017b55   Thumb Code   168  sysinit_18xx_43xx.o(i.clock_main_init)
    i.convertTimmingParam                    0x1a017c10   Section        0  emc_18xx_43xx.o(i.convertTimmingParam)
    convertTimmingParam                      0x1a017c11   Thumb Code    50  emc_18xx_43xx.o(i.convertTimmingParam)
    i.fabs                                   0x1a017c48   Section        0  fabs.o(i.fabs)
    i.fpuInit                                0x1a017c60   Section        0  fpu_init.o(i.fpuInit)
    i.getClkDiv                              0x1a017cb0   Section        0  i2s_18xx_43xx.o(i.getClkDiv)
    getClkDiv                                0x1a017cb1   Thumb Code   354  i2s_18xx_43xx.o(i.getClkDiv)
    i.getClkRate                             0x1a017e14   Section        0  i2c_18xx_43xx.o(i.getClkRate)
    getClkRate                               0x1a017e15   Thumb Code    22  i2c_18xx_43xx.o(i.getClkRate)
    i.getColsLen                             0x1a017e30   Section        0  emc_18xx_43xx.o(i.getColsLen)
    getColsLen                               0x1a017e31   Thumb Code    40  emc_18xx_43xx.o(i.getColsLen)
    i.getCurState                            0x1a017e58   Section        0  i2c_18xx_43xx.o(i.getCurState)
    getCurState                              0x1a017e59   Thumb Code    10  i2c_18xx_43xx.o(i.getCurState)
    i.handleMasterXferState                  0x1a017e62   Section        0  i2c_18xx_43xx.o(i.handleMasterXferState)
    i.initDynMem                             0x1a017f42   Section        0  emc_18xx_43xx.o(i.initDynMem)
    i.initStaticMem                          0x1a01812a   Section        0  emc_18xx_43xx.o(i.initStaticMem)
    i.startSlaverXfer                        0x1a018192   Section        0  i2c_18xx_43xx.o(i.startSlaverXfer)
    startSlaverXfer                          0x1a018193   Thumb Code    10  i2c_18xx_43xx.o(i.startSlaverXfer)
    locale$$code                             0x1a01819c   Section       44  lc_numeric_c.o(locale$$code)
    x$fpl$basic                              0x1a0181c8   Section       24  basic.o(x$fpl$basic)
    $v0                                      0x1a0181c8   Number         0  basic.o(x$fpl$basic)
    x$fpl$d2f                                0x1a0181e0   Section       98  d2f.o(x$fpl$d2f)
    $v0                                      0x1a0181e0   Number         0  d2f.o(x$fpl$d2f)
    x$fpl$dadd                               0x1a018244   Section      336  daddsub_clz.o(x$fpl$dadd)
    $v0                                      0x1a018244   Number         0  daddsub_clz.o(x$fpl$dadd)
    _dadd1                                   0x1a018255   Thumb Code     0  daddsub_clz.o(x$fpl$dadd)
    x$fpl$dcmpinf                            0x1a018394   Section       24  dcmpi.o(x$fpl$dcmpinf)
    $v0                                      0x1a018394   Number         0  dcmpi.o(x$fpl$dcmpinf)
    x$fpl$ddiv                               0x1a0183ac   Section      688  ddiv.o(x$fpl$ddiv)
    $v0                                      0x1a0183ac   Number         0  ddiv.o(x$fpl$ddiv)
    ddiv_entry                               0x1a0183b3   Thumb Code     0  ddiv.o(x$fpl$ddiv)
    x$fpl$dfix                               0x1a01865c   Section       94  dfix.o(x$fpl$dfix)
    $v0                                      0x1a01865c   Number         0  dfix.o(x$fpl$dfix)
    x$fpl$dflt                               0x1a0186ba   Section       46  dflt_clz.o(x$fpl$dflt)
    $v0                                      0x1a0186ba   Number         0  dflt_clz.o(x$fpl$dflt)
    x$fpl$dfltu                              0x1a0186e8   Section       38  dflt_clz.o(x$fpl$dfltu)
    $v0                                      0x1a0186e8   Number         0  dflt_clz.o(x$fpl$dfltu)
    x$fpl$dleqf                              0x1a018710   Section      120  dleqf.o(x$fpl$dleqf)
    $v0                                      0x1a018710   Number         0  dleqf.o(x$fpl$dleqf)
    x$fpl$dmul                               0x1a018788   Section      340  dmul.o(x$fpl$dmul)
    $v0                                      0x1a018788   Number         0  dmul.o(x$fpl$dmul)
    x$fpl$dnaninf                            0x1a0188dc   Section      156  dnaninf.o(x$fpl$dnaninf)
    $v0                                      0x1a0188dc   Number         0  dnaninf.o(x$fpl$dnaninf)
    x$fpl$dretinf                            0x1a018978   Section       12  dretinf.o(x$fpl$dretinf)
    $v0                                      0x1a018978   Number         0  dretinf.o(x$fpl$dretinf)
    x$fpl$drsb                               0x1a018984   Section       22  daddsub_clz.o(x$fpl$drsb)
    $v0                                      0x1a018984   Number         0  daddsub_clz.o(x$fpl$drsb)
    x$fpl$dsqrt                              0x1a01899c   Section      408  dsqrt_umaal.o(x$fpl$dsqrt)
    $v0                                      0x1a01899c   Number         0  dsqrt_umaal.o(x$fpl$dsqrt)
    x$fpl$dsub                               0x1a018b34   Section      468  daddsub_clz.o(x$fpl$dsub)
    $v0                                      0x1a018b34   Number         0  daddsub_clz.o(x$fpl$dsub)
    _dsub1                                   0x1a018b45   Thumb Code     0  daddsub_clz.o(x$fpl$dsub)
    x$fpl$f2d                                0x1a018d08   Section       86  f2d.o(x$fpl$f2d)
    $v0                                      0x1a018d08   Number         0  f2d.o(x$fpl$f2d)
    x$fpl$fnaninf                            0x1a018d5e   Section      140  fnaninf.o(x$fpl$fnaninf)
    $v0                                      0x1a018d5e   Number         0  fnaninf.o(x$fpl$fnaninf)
    x$fpl$fpinit                             0x1a018dea   Section       10  fpinit.o(x$fpl$fpinit)
    $v0                                      0x1a018dea   Number         0  fpinit.o(x$fpl$fpinit)
    x$fpl$fretinf                            0x1a018df4   Section       10  fretinf.o(x$fpl$fretinf)
    $v0                                      0x1a018df4   Number         0  fretinf.o(x$fpl$fretinf)
    x$fpl$printf1                            0x1a018dfe   Section        4  printf1.o(x$fpl$printf1)
    $v0                                      0x1a018dfe   Number         0  printf1.o(x$fpl$printf1)
    x$fpl$usenofp                            0x1a018e02   Section        0  usenofp.o(x$fpl$usenofp)
    .constdata                               0x1a018e04   Section       40  gui_adddecshift.o(.constdata)
    .constdata                               0x1a018e2c   Section       16  gui_addhex.o(.constdata)
    acHex                                    0x1a018e2c   Data          16  gui_addhex.o(.constdata)
    .constdata                               0x1a018e3c   Section       20  gui_cursorarrowm.o(.constdata)
    .constdata                               0x1a018e50   Section       12  gui_cursorarrowm.o(.constdata)
    .constdata                               0x1a018e5c   Section       60  gui_cursorarrowmpx.o(.constdata)
    .constdata                               0x1a018e98   Section       12  gui_cursorpal.o(.constdata)
    _aColor                                  0x1a018e98   Data          12  gui_cursorpal.o(.constdata)
    .constdata                               0x1a018ea4   Section       12  gui_cursorpal.o(.constdata)
    .constdata                               0x1a018eb0   Section       68  gui_drawline.o(.constdata)
    aSin                                     0x1a018eb0   Data          34  gui_drawline.o(.constdata)
    .constdata                               0x1a018ef4   Section       16  gui_uc_encodenone.o(.constdata)
    .constdata                               0x1a018f04   Section        8  guicore.o(.constdata)
    _HL_APIList                              0x1a018f04   Data           8  guicore.o(.constdata)
    .constdata                               0x1a018f0c   Section       12  guiencjs.o(.constdata)
    .constdata                               0x1a018f18   Section      256  lcd_mirror.o(.constdata)
    .constdata                               0x1a019018   Section        8  lcdrle4.o(.constdata)
    .constdata                               0x1a019020   Section        8  lcdrle8.o(.constdata)
    .constdata                               0x1a019028   Section       68  lcd_api.o(.constdata)
    .constdata                               0x1a01906c   Section      570  f4x6.o(.constdata)
    .constdata                               0x1a0192a8   Section       20  f4x6.o(.constdata)
    .constdata                               0x1a0192bc   Section       32  f4x6.o(.constdata)
    .constdata                               0x1a0192dc   Section     1304  f6x8.o(.constdata)
    .constdata                               0x1a0197f4   Section      448  f6x8.o(.constdata)
    .constdata                               0x1a0199b4   Section        8  f6x8.o(.constdata)
    .constdata                               0x1a0199bc   Section       20  f6x8.o(.constdata)
    .constdata                               0x1a0199d0   Section       32  f6x8.o(.constdata)
    .constdata                               0x1a0199f0   Section        8  f08_1.o(.constdata)
    .constdata                               0x1a0199f8   Section        8  f08_1.o(.constdata)
    .constdata                               0x1a019a00   Section        8  f08_1.o(.constdata)
    .constdata                               0x1a019a08   Section        8  f08_1.o(.constdata)
    .constdata                               0x1a019a10   Section        8  f08_1.o(.constdata)
    .constdata                               0x1a019a18   Section        8  f08_1.o(.constdata)
    .constdata                               0x1a019a20   Section        8  f08_1.o(.constdata)
    .constdata                               0x1a019a28   Section        8  f08_1.o(.constdata)
    .constdata                               0x1a019a30   Section        8  f08_1.o(.constdata)
