Component: ARM Compiler 5.06 (build 20) Tool: armlink [4d35a3]

==============================================================================

Section Cross References

    raw-os.o(.text) refers to cpu.o(.text) for OS_CPU_SR_Save
    raw-os.o(.text) refers to port_error_process.o(.text) for port_system_error_process
    raw-os.o(.text) refers to raw-os.o(.data) for high_ready_obj
    raw-os.o(.text) refers to raw-os.o(.bss) for raw_ready_queue
    raw-os.o(.text) refers to user_extension.o(.text) for raw_memset
    raw-os.o(.text) refers to port.o(.text) for port_stack_init
    raw-os.o(.text) refers to port_hook.o(.text) for task_create_hook
    fifo.o(.text) refers to cpu.o(.text) for OS_CPU_SR_Save
    fifo.o(.text) refers to user_extension.o(.text) for raw_memcpy
    rsh.o(.text) refers to cpu.o(.text) for OS_CPU_SR_Save
    rsh.o(.text) refers to string.o(.text) for raw_strncmp
    rsh.o(.text) refers to user_extension.o(.text) for raw_memset
    rsh.o(.text) refers to rsh.o(.data) for current_command_list_point
    rsh.o(.text) refers to rsh.o(.conststring) for .conststring
    rsh.o(.constdata) refers to rsh.o(.conststring) for .conststring
    rsh.o(.constdata) refers to rsh.o(.text) for rsh_help_command
    rsh.o(.data) refers to rsh.o(.constdata) for xHelpCommand
    cpu.o(.text) refers to raw-os.o(.text) for raw_stack_check
==============================================================================

Removing Unused input sections from the image.

    Removing rsh.o(.text), (608 bytes).
    Removing rsh.o(.constdata), (16 bytes).
    Removing rsh.o(.conststring), (225 bytes).
    Removing rsh.o(.data), (20 bytes).
    Removing string.o(.text), (700 bytes).
    Removing sysinit.o(.rev16_text), (4 bytes).
    Removing sysinit.o(.revsh_text), (4 bytes).
    Removing lpc43xx_scu.o(.rev16_text), (4 bytes).
    Removing lpc43xx_scu.o(.revsh_text), (4 bytes).
    Removing lpc43xx_scu.o(.text), (36 bytes).
    Removing lpc43xx_sdram.o(.rev16_text), (4 bytes).
    Removing lpc43xx_sdram.o(.revsh_text), (4 bytes).
    Removing lpc43xx_sdram.o(.text), (1200 bytes).
    Removing successwave.o(.constdata), (183340 bytes).
    Removing main.o(.rev16_text), (4 bytes).
    Removing main.o(.revsh_text), (4 bytes).
    Removing main.o(.data), (4 bytes).
    Removing test_suite.o(.rev16_text), (4 bytes).
==============================================================================

Image Symbol Table

    Local Symbols

    Symbol Name                              Value     Ov Type        Size  Object(Section)

    ../clib/angel/boardlib.s                 0x00000000   Number         0  boardinit3.o ABSOLUTE
    ../clib/angel/boardlib.s                 0x00000000   Number         0  boardinit2.o ABSOLUTE
    ../clib/angel/boardlib.s                 0x00000000   Number         0  boardinit1.o ABSOLUTE
    ../clib/angel/boardlib.s                 0x00000000   Number         0  boardshut.o ABSOLUTE
    ../clib/angel/dczerorl2.s                0x00000000   Number         0  __dczerorl2.o ABSOLUTE
    ../clib/angel/handlers.s                 0x00000000   Number         0  __scatter_zi.o ABSOLUTE
    ../clib/angel/kernel.s                   0x00000000   Number         0  __rtentry.o ABSOLUTE
    ../clib/angel/kernel.s                   0x00000000   Number         0  __rtentry4.o ABSOLUTE
    ../clib/angel/kernel.s                   0x00000000   Number         0  rtexit.o ABSOLUTE
    ../clib/angel/kernel.s                   0x00000000   Number         0  __rtentry2.o ABSOLUTE
    ../clib/angel/kernel.s                   0x00000000   Number         0  rtexit2.o ABSOLUTE
    ../clib/angel/rt.s                       0x00000000   Number         0  rt_raise.o ABSOLUTE
    ../clib/angel/rt.s                       0x00000000   Number         0  aeabi_ldiv0_sigfpe.o ABSOLUTE
    ../clib/angel/rt.s                       0x00000000   Number         0  aeabi_ldiv0.o ABSOLUTE
    ../clib/angel/rt.s                       0x00000000   Number         0  rt_div0.o ABSOLUTE
    ../clib/angel/scatter.s                  0x00000000   Number         0  __scatter.o ABSOLUTE
    ../clib/angel/startup.s                  0x00000000   Number         0  __main.o ABSOLUTE
    ../clib/angel/sys.s                      0x00000000   Number         0  use_no_semi.o ABSOLUTE
    ../clib/angel/sys.s                      0x00000000   Number         0  indicate_semi.o ABSOLUTE
    ../clib/angel/sys.s                      0x00000000   Number         0  libspace.o ABSOLUTE
    ../clib/angel/sys.s                      0x00000000   Number         0  sys_stackheap_outer.o ABSOLUTE
    ../clib/angel/sysapp.c                   0x00000000   Number         0  sys_wrch.o ABSOLUTE
    ../clib/angel/sysapp.c                   0x00000000   Number         0  sys_command.o ABSOLUTE
    ../clib/armsys.c                         0x00000000   Number         0  argv_veneer.o ABSOLUTE
    ../clib/armsys.c                         0x00000000   Number         0  no_argv.o ABSOLUTE
    ../clib/armsys.c                         0x00000000   Number         0  _get_argv_nomalloc.o ABSOLUTE
    ../clib/armsys.c                         0x00000000   Number         0  argv_veneer.o ABSOLUTE
    ../clib/heapalloc.c                      0x00000000   Number         0  hrguard.o ABSOLUTE
    ../clib/heapaux.c                        0x00000000   Number         0  heapauxi.o ABSOLUTE
    ../clib/libinit.s                        0x00000000   Number         0  libinit2.o ABSOLUTE
    ../clib/libinit.s                        0x00000000   Number         0  libinit.o ABSOLUTE
    ../clib/libinit.s                        0x00000000   Number         0  libshutdown2.o ABSOLUTE
    ../clib/libinit.s                        0x00000000   Number         0  libshutdown.o ABSOLUTE
    ../clib/longlong.s                       0x00000000   Number         0  lludivv7m.o ABSOLUTE
    ../clib/memcpset.s                       0x00000000   Number         0  rt_memcpy_v6.o ABSOLUTE
    ../clib/memcpset.s                       0x00000000   Number         0  rt_memcpy_w.o ABSOLUTE
    ../clib/memcpset.s                       0x00000000   Number         0  rt_memclr_w.o ABSOLUTE
    ../clib/misc.s                           0x00000000   Number         0  printf_stubs.o ABSOLUTE
    ../clib/printf.c                         0x00000000   Number         0  __printf_nopercent.o ABSOLUTE
    ../clib/printf.c                         0x00000000   Number         0  __printf_flags_ss_wp.o ABSOLUTE
    ../clib/printf.c                         0x00000000   Number         0  __printf_ss_wp.o ABSOLUTE
    ../clib/printf.c                         0x00000000   Number         0  __printf_flags_wp.o ABSOLUTE
    ../clib/printf.c                         0x00000000   Number         0  __printf_wp.o ABSOLUTE
    ../clib/printf.c                         0x00000000   Number         0  __printf_flags_ss.o ABSOLUTE
    ../clib/printf.c                         0x00000000   Number         0  _printf_intcommon.o ABSOLUTE
    ../clib/printf.c                         0x00000000   Number         0  _printf_char.o ABSOLUTE
    ../clib/printf.c                         0x00000000   Number         0  _printf_char_file.o ABSOLUTE
    ../clib/printf.c                         0x00000000   Number         0  __printf_ss.o ABSOLUTE
    ../clib/printf.c                         0x00000000   Number         0  __printf_flags.o ABSOLUTE
    ../clib/printf.c                         0x00000000   Number         0  _printf_hex_int_ll_ptr.o ABSOLUTE
    ../clib/printf.c                         0x00000000   Number         0  _printf_hex_ll_ptr.o ABSOLUTE
    ../clib/printf.c                         0x00000000   Number         0  _printf_hex_int_ptr.o ABSOLUTE
    ../clib/printf.c                         0x00000000   Number         0  _printf_hex_int_ll.o ABSOLUTE
    ../clib/printf.c                         0x00000000   Number         0  _printf_hex_int.o ABSOLUTE
    ../clib/printf.c                         0x00000000   Number         0  _printf_hex_ll.o ABSOLUTE
    ../clib/printf.c                         0x00000000   Number         0  _printf_dec.o ABSOLUTE
    ../clib/printf.c                         0x00000000   Number         0  _printf_hex_ptr.o ABSOLUTE
    ../clib/printf.c                         0x00000000   Number         0  _printf_str.o ABSOLUTE
    ../clib/printf.c                         0x00000000   Number         0  _printf_pad.o ABSOLUTE
    ../clib/printf.c                         0x00000000   Number         0  _printf_char_common.o ABSOLUTE
    ../clib/printf.c                         0x00000000   Number         0  __printf.o ABSOLUTE
    ../clib/printf.c                         0x00000000   Number         0  noretval__2printf.o ABSOLUTE
    ../clib/printf.c                         0x00000000   Number         0  __2printf.o ABSOLUTE
    ../clib/printf_percent.s                 0x00000000   Number         0  _printf_d.o ABSOLUTE
    ../clib/printf_percent.s                 0x00000000   Number         0  _printf_percent.o ABSOLUTE
    ../clib/printf_percent.s                 0x00000000   Number         0  _printf_percent_end.o ABSOLUTE
    ../clib/printf_percent.s                 0x00000000   Number         0  _printf_s.o ABSOLUTE
    ../clib/printf_percent.s                 0x00000000   Number         0  _printf_x.o ABSOLUTE
    ../clib/signal.c                         0x00000000   Number         0  defsig_exit.o ABSOLUTE
    ../clib/signal.c                         0x00000000   Number         0  defsig_general.o ABSOLUTE
    ../clib/signal.c                         0x00000000   Number         0  defsig_rtmem_inner.o ABSOLUTE
    ../clib/signal.c                         0x00000000   Number         0  defsig_rtmem_outer.o ABSOLUTE
    ../clib/signal.c                         0x00000000   Number         0  defsig_segv_inner.o ABSOLUTE
    ../clib/signal.c                         0x00000000   Number         0  defsig_rtmem_formal.o ABSOLUTE
    ../clib/signal.c                         0x00000000   Number         0  defsig_fpe_inner.o ABSOLUTE
    ../clib/signal.c                         0x00000000   Number         0  defsig_stak_inner.o ABSOLUTE
    ../clib/signal.c                         0x00000000   Number         0  defsig_pvfn_inner.o ABSOLUTE
    ../clib/signal.c                         0x00000000   Number         0  defsig_cppl_inner.o ABSOLUTE
    ../clib/signal.c                         0x00000000   Number         0  defsig_other.o ABSOLUTE
    ../clib/signal.c                         0x00000000   Number         0  defsig_fpe_formal.o ABSOLUTE
    ../clib/signal.c                         0x00000000   Number         0  defsig_fpe_outer.o ABSOLUTE
    ../clib/signal.c                         0x00000000   Number         0  defsig_abrt_inner.o ABSOLUTE
    ../clib/signal.c                         0x00000000   Number         0  defsig_rtred_inner.o ABSOLUTE
    ../clib/signal.c                         0x00000000   Number         0  __raise.o ABSOLUTE
    ../clib/signal.s                         0x00000000   Number         0  defsig.o ABSOLUTE
    ../clib/stdlib.c                         0x00000000   Number         0  exit.o ABSOLUTE
    ../fplib/fpinit.s                        0x00000000   Number         0  fpinit.o ABSOLUTE
    ..\..\..\..\software\common\lpc43xx_scu.c 0x00000000   Number         0  lpc43xx_scu.o ABSOLUTE
    ..\..\..\..\software\common\lpc43xx_sdram.c 0x00000000   Number         0  lpc43xx_sdram.o ABSOLUTE
    ..\..\..\..\software\kernel\port\cpu.asm 0x00000000   Number         0  cpu.o ABSOLUTE
    ..\..\..\..\software\kernel\port\port.c  0x00000000   Number         0  port.o ABSOLUTE
    ..\..\..\..\software\kernel\port\port_error_process.c 0x00000000   Number         0  port_error_process.o ABSOLUTE
    ..\..\..\..\software\kernel\port\port_hook.c 0x00000000   Number         0  port_hook.o ABSOLUTE
    ..\..\..\..\software\kernel\port\raw_trace_port.c 0x00000000   Number         0  raw_trace_port.o ABSOLUTE
    ..\..\..\..\software\kernel\port\user_extension.c 0x00000000   Number         0  user_extension.o ABSOLUTE
    ..\..\..\..\software\kernel\raw-os\extension\lib\fifo.c 0x00000000   Number         0  fifo.o ABSOLUTE
    ..\..\..\..\software\kernel\raw-os\extension\lib\string.c 0x00000000   Number         0  string.o ABSOLUTE
    ..\..\..\..\software\kernel\raw-os\extension\shell\rsh.c 0x00000000   Number         0  rsh.o ABSOLUTE
    ..\..\..\..\software\kernel\raw-os\raw-os.c 0x00000000   Number         0  raw-os.o ABSOLUTE
    ..\..\..\..\software\lpclibspifi\test\test_suite.c 0x00000000   Number         0  test_suite.o ABSOLUTE
    ..\..\..\src\spifilib_dev_common.c       0x00000000   Number         0  spifilib_dev_common.o ABSOLUTE
    ..\..\..\src\spifilib_fam_standard_cmd.c 0x00000000   Number         0  spifilib_fam_standard_cmd.o ABSOLUTE
    ..\..\board_common\uda1380.c             0x00000000   Number         0  uda1380.o ABSOLUTE
    ..\..\examples\i2s_play\successwave.c    0x00000000   Number         0  successwave.o ABSOLUTE
    ..\..\examples\spifi\main.c              0x00000000   Number         0  main.o ABSOLUTE
    ..\..\startup_code\keil_startup_lpc18xx43xx.s 0x00000000   Number         0  keil_startup_lpc18xx43xx.o ABSOLUTE
    ..\..\startup_code\sysinit.c             0x00000000   Number         0  sysinit.o ABSOLUTE
    ..\\..\\..\\..\\software\\common\\lpc43xx_scu.c 0x00000000   Number         0  lpc43xx_scu.o ABSOLUTE
    ..\\..\\..\\..\\software\\common\\lpc43xx_sdram.c 0x00000000   Number         0  lpc43xx_sdram.o ABSOLUTE
    ..\\..\\..\\..\\software\\lpclibspifi\\test\\test_suite.c 0x00000000   Number         0  test_suite.o ABSOLUTE
    ..\\..\\board_common\\uda1380.c          0x00000000   Number         0  uda1380.o ABSOLUTE
    ..\\..\\examples\\spifi\\main.c          0x00000000   Number         0  main.o ABSOLUTE
    ..\\..\\startup_code\\sysinit.c          0x00000000   Number         0  sysinit.o ABSOLUTE
    ..\\chip_common\\fpu_init.c              0x00000000   Number         0  fpu_init.o ABSOLUTE
    ..\chip_common\fpu_init.c                0x00000000   Number         0  fpu_init.o ABSOLUTE
    ..\chip_common\ring_buffer.c             0x00000000   Number         0  ring_buffer.o ABSOLUTE
    board.c                                  0x00000000   Number         0  board.o ABSOLUTE
    board.c                                  0x00000000   Number         0  board.o ABSOLUTE
    board_sysinit.c                          0x00000000   Number         0  board_sysinit.o ABSOLUTE
    board_sysinit.c                          0x00000000   Number         0  board_sysinit.o ABSOLUTE
    chip_18xx_43xx.c                         0x00000000   Number         0  chip_18xx_43xx.o ABSOLUTE
    chip_18xx_43xx.c                         0x00000000   Number         0  chip_18xx_43xx.o ABSOLUTE
    clock_18xx_43xx.c                        0x00000000   Number         0  clock_18xx_43xx.o ABSOLUTE
    clock_18xx_43xx.c                        0x00000000   Number         0  clock_18xx_43xx.o ABSOLUTE
    dc.s                                     0x00000000   Number         0  dc.o ABSOLUTE
    emc_18xx_43xx.c                          0x00000000   Number         0  emc_18xx_43xx.o ABSOLUTE
    emc_18xx_43xx.c                          0x00000000   Number         0  emc_18xx_43xx.o ABSOLUTE
    gpio_18xx_43xx.c                         0x00000000   Number         0  gpio_18xx_43xx.o ABSOLUTE
    gpio_18xx_43xx.c                         0x00000000   Number         0  gpio_18xx_43xx.o ABSOLUTE
    i2c_18xx_43xx.c                          0x00000000   Number         0  i2c_18xx_43xx.o ABSOLUTE
    i2c_18xx_43xx.c                          0x00000000   Number         0  i2c_18xx_43xx.o ABSOLUTE
    i2s_18xx_43xx.c                          0x00000000   Number         0  i2s_18xx_43xx.o ABSOLUTE
    i2s_18xx_43xx.c                          0x00000000   Number         0  i2s_18xx_43xx.o ABSOLUTE
    rgu_18xx_43xx.c                          0x00000000   Number         0  rgu_18xx_43xx.o ABSOLUTE
    rgu_18xx_43xx.c                          0x00000000   Number         0  rgu_18xx_43xx.o ABSOLUTE
    ssp_18xx_43xx.c                          0x00000000   Number         0  ssp_18xx_43xx.o ABSOLUTE
    ssp_18xx_43xx.c                          0x00000000   Number         0  ssp_18xx_43xx.o ABSOLUTE
    stopwatch_18xx_43xx.c                    0x00000000   Number         0  stopwatch_18xx_43xx.o ABSOLUTE
    stopwatch_18xx_43xx.c                    0x00000000   Number         0  stopwatch_18xx_43xx.o ABSOLUTE
    sysinit_18xx_43xx.c                      0x00000000   Number         0  sysinit_18xx_43xx.o ABSOLUTE
    sysinit_18xx_43xx.c                      0x00000000   Number         0  sysinit_18xx_43xx.o ABSOLUTE
    timer_18xx_43xx.c                        0x00000000   Number         0  timer_18xx_43xx.o ABSOLUTE
    timer_18xx_43xx.c                        0x00000000   Number         0  timer_18xx_43xx.o ABSOLUTE
    uart_18xx_43xx.c                         0x00000000   Number         0  uart_18xx_43xx.o ABSOLUTE
    uart_18xx_43xx.c                         0x00000000   Number         0  uart_18xx_43xx.o ABSOLUTE
    .bss                                     0x10000000   Section    24576  test_suite.o(.bss)
    testBuff                                 0x10000000   Data        8192  test_suite.o(.bss)
    largeTestBuffer                          0x10002000   Data       16384  test_suite.o(.bss)
    RESET                                    0x1a000000   Section      276  keil_startup_lpc18xx43xx.o(RESET)
    !!!main                                  0x1a000114   Section        8  __main.o(!!!main)
    !!!scatter                               0x1a00011c   Section       52  __scatter.o(!!!scatter)
    !!dczerorl2                              0x1a000150   Section       90  __dczerorl2.o(!!dczerorl2)
    !!handler_zi                             0x1a0001ac   Section       28  __scatter_zi.o(!!handler_zi)
    .ARM.Collect$$_printf_percent$$00000000  0x1a0001c8   Section        0  _printf_percent.o(.ARM.Collect$$_printf_percent$$00000000)
    .ARM.Collect$$_printf_percent$$00000009  0x1a0001c8   Section        6  _printf_d.o(.ARM.Collect$$_printf_percent$$00000009)
    .ARM.Collect$$_printf_percent$$0000000C  0x1a0001ce   Section        6  _printf_x.o(.ARM.Collect$$_printf_percent$$0000000C)
    .ARM.Collect$$_printf_percent$$00000014  0x1a0001d4   Section        6  _printf_s.o(.ARM.Collect$$_printf_percent$$00000014)
    .ARM.Collect$$_printf_percent$$00000017  0x1a0001da   Section        4  _printf_percent_end.o(.ARM.Collect$$_printf_percent$$00000017)
    .ARM.Collect$$libinit$$00000000          0x1a0001de   Section        2  libinit.o(.ARM.Collect$$libinit$$00000000)
    .ARM.Collect$$libinit$$00000001          0x1a0001e0   Section        4  libinit2.o(.ARM.Collect$$libinit$$00000001)
    .ARM.Collect$$libinit$$00000004          0x1a0001e4   Section        0  libinit2.o(.ARM.Collect$$libinit$$00000004)
    .ARM.Collect$$libinit$$0000000A          0x1a0001e4   Section        0  libinit2.o(.ARM.Collect$$libinit$$0000000A)
    .ARM.Collect$$libinit$$0000000C          0x1a0001e4   Section        0  libinit2.o(.ARM.Collect$$libinit$$0000000C)
    .ARM.Collect$$libinit$$0000000E          0x1a0001e4   Section        0  libinit2.o(.ARM.Collect$$libinit$$0000000E)
    .ARM.Collect$$libinit$$00000011          0x1a0001e4   Section        0  libinit2.o(.ARM.Collect$$libinit$$00000011)
    .ARM.Collect$$libinit$$00000013          0x1a0001e4   Section        0  libinit2.o(.ARM.Collect$$libinit$$00000013)
    .ARM.Collect$$libinit$$00000015          0x1a0001e4   Section        0  libinit2.o(.ARM.Collect$$libinit$$00000015)
    .ARM.Collect$$libinit$$00000017          0x1a0001e4   Section        0  libinit2.o(.ARM.Collect$$libinit$$00000017)
    .ARM.Collect$$libinit$$00000019          0x1a0001e4   Section        0  libinit2.o(.ARM.Collect$$libinit$$00000019)
    .ARM.Collect$$libinit$$0000001B          0x1a0001e4   Section        0  libinit2.o(.ARM.Collect$$libinit$$0000001B)
    .ARM.Collect$$libinit$$0000001D          0x1a0001e4   Section        0  libinit2.o(.ARM.Collect$$libinit$$0000001D)
    .ARM.Collect$$libinit$$0000001F          0x1a0001e4   Section        0  libinit2.o(.ARM.Collect$$libinit$$0000001F)
    .ARM.Collect$$libinit$$00000021          0x1a0001e4   Section        0  libinit2.o(.ARM.Collect$$libinit$$00000021)
    .ARM.Collect$$libinit$$00000023          0x1a0001e4   Section        0  libinit2.o(.ARM.Collect$$libinit$$00000023)
    .ARM.Collect$$libinit$$00000025          0x1a0001e4   Section        0  libinit2.o(.ARM.Collect$$libinit$$00000025)
    .ARM.Collect$$libinit$$0000002C          0x1a0001e4   Section        0  libinit2.o(.ARM.Collect$$libinit$$0000002C)
    .ARM.Collect$$libinit$$0000002E          0x1a0001e4   Section        0  libinit2.o(.ARM.Collect$$libinit$$0000002E)
    .ARM.Collect$$libinit$$00000030          0x1a0001e4   Section        0  libinit2.o(.ARM.Collect$$libinit$$00000030)
    .ARM.Collect$$libinit$$00000032          0x1a0001e4   Section        0  libinit2.o(.ARM.Collect$$libinit$$00000032)
    .ARM.Collect$$libinit$$00000033          0x1a0001e4   Section        2  libinit2.o(.ARM.Collect$$libinit$$00000033)
    .ARM.Collect$$libshutdown$$00000000      0x1a0001e6   Section        2  libshutdown.o(.ARM.Collect$$libshutdown$$00000000)
    .ARM.Collect$$libshutdown$$00000002      0x1a0001e8   Section        0  libshutdown2.o(.ARM.Collect$$libshutdown$$00000002)
    .ARM.Collect$$libshutdown$$00000004      0x1a0001e8   Section        0  libshutdown2.o(.ARM.Collect$$libshutdown$$00000004)
    .ARM.Collect$$libshutdown$$00000007      0x1a0001e8   Section        0  libshutdown2.o(.ARM.Collect$$libshutdown$$00000007)
    .ARM.Collect$$libshutdown$$0000000A      0x1a0001e8   Section        0  libshutdown2.o(.ARM.Collect$$libshutdown$$0000000A)
    .ARM.Collect$$libshutdown$$0000000C      0x1a0001e8   Section        0  libshutdown2.o(.ARM.Collect$$libshutdown$$0000000C)
    .ARM.Collect$$libshutdown$$0000000F      0x1a0001e8   Section        0  libshutdown2.o(.ARM.Collect$$libshutdown$$0000000F)
    .ARM.Collect$$libshutdown$$00000010      0x1a0001e8   Section        2  libshutdown2.o(.ARM.Collect$$libshutdown$$00000010)
    .ARM.Collect$$rtentry$$00000000          0x1a0001ea   Section        0  __rtentry.o(.ARM.Collect$$rtentry$$00000000)
    .ARM.Collect$$rtentry$$00000002          0x1a0001ea   Section        0  __rtentry2.o(.ARM.Collect$$rtentry$$00000002)
    .ARM.Collect$$rtentry$$00000004          0x1a0001ea   Section        6  __rtentry4.o(.ARM.Collect$$rtentry$$00000004)
    .ARM.Collect$$rtentry$$00000009          0x1a0001f0   Section        0  __rtentry2.o(.ARM.Collect$$rtentry$$00000009)
    .ARM.Collect$$rtentry$$0000000A          0x1a0001f0   Section        4  __rtentry2.o(.ARM.Collect$$rtentry$$0000000A)
    .ARM.Collect$$rtentry$$0000000C          0x1a0001f4   Section        0  __rtentry2.o(.ARM.Collect$$rtentry$$0000000C)
    .ARM.Collect$$rtentry$$0000000D          0x1a0001f4   Section        8  __rtentry2.o(.ARM.Collect$$rtentry$$0000000D)
    .ARM.Collect$$rtexit$$00000000           0x1a0001fc   Section        2  rtexit.o(.ARM.Collect$$rtexit$$00000000)
    .ARM.Collect$$rtexit$$00000002           0x1a0001fe   Section        0  rtexit2.o(.ARM.Collect$$rtexit$$00000002)
    .ARM.Collect$$rtexit$$00000003           0x1a0001fe   Section        4  rtexit2.o(.ARM.Collect$$rtexit$$00000003)
    .ARM.Collect$$rtexit$$00000004           0x1a000202   Section        6  rtexit2.o(.ARM.Collect$$rtexit$$00000004)
    .text                                    0x1a000208   Section        0  raw-os.o(.text)
    list_insert                              0x1a000209   Thumb Code    14  raw-os.o(.text)
    add_to_priority_list                     0x1a00034b   Thumb Code    50  raw-os.o(.text)
    bit_set                                  0x1a000397   Thumb Code    26  raw-os.o(.text)
    release_mutex                            0x1a000577   Thumb Code   110  raw-os.o(.text)
    tick_task_process                        0x1a0008ef   Thumb Code    28  raw-os.o(.text)
    pend_task_wake_up                        0x1a000ae1   Thumb Code   106  raw-os.o(.text)
    timer_list_remove                        0x1a000c23   Thumb Code    20  raw-os.o(.text)
    timer_list_priority_insert               0x1a000c37   Thumb Code    60  raw-os.o(.text)
    timer_list_init                          0x1a000f43   Thumb Code    10  raw-os.o(.text)
    raw_byte_pool_search                     0x1a001b59   Thumb Code   254  raw-os.o(.text)
    msg_to_end_buffer                        0x1a0024ff   Thumb Code   104  raw-os.o(.text)
    buffer_to_msg                            0x1a002567   Thumb Code   108  raw-os.o(.text)
    list_init                                0x1a003317   Thumb Code     6  raw-os.o(.text)
    is_list_empty                            0x1a00331d   Thumb Code    16  raw-os.o(.text)
    list_delete                              0x1a00332d   Thumb Code    14  raw-os.o(.text)
    .text                                    0x1a003340   Section        0  fifo.o(.text)
    fifo_unused                              0x1a003341   Thumb Code    16  fifo.o(.text)
    is_power_of_2                            0x1a003351   Thumb Code    18  fifo.o(.text)
    fifo_copy_in                             0x1a0033a5   Thumb Code    68  fifo.o(.text)
    kfifo_copy_out                           0x1a003437   Thumb Code    70  fifo.o(.text)
    internal_fifo_out_peek                   0x1a00347d   Thumb Code    40  fifo.o(.text)
    .text                                    0x1a003568   Section      164  cpu.o(.text)
    $v0                                      0x1a003568   Number         0  cpu.o(.text)
    .text                                    0x1a00360c   Section        0  port.o(.text)
    .text                                    0x1a0037c6   Section        0  port_hook.o(.text)
    .text                                    0x1a0037d8   Section        0  user_extension.o(.text)
    .text                                    0x1a003878   Section        0  port_error_process.o(.text)
    .text                                    0x1a003904   Section       68  keil_startup_lpc18xx43xx.o(.text)
    $v0                                      0x1a003904   Number         0  keil_startup_lpc18xx43xx.o(.text)
    .text                                    0x1a003948   Section        0  sysinit.o(.text)
    .text                                    0x1a003964   Section        0  main.o(.text)
    NVIC_SetPriority                         0x1a003965   Thumb Code    32  main.o(.text)
    initializeSpifi                          0x1a003985   Thumb Code   112  main.o(.text)
    RunExample                               0x1a0039f5   Thumb Code   354  main.o(.text)
    uart_3_irq                               0x1a003bef   Thumb Code    58  main.o(.text)
    uart3_int_init                           0x1a003c39   Thumb Code    32  main.o(.text)
    NVIC_EnableIRQ                           0x1a003cfd   Thumb Code    22  main.o(.text)
    .text                                    0x1a003f48   Section        0  test_suite.o(.text)
    populateDeviceData                       0x1a003f49   Thumb Code    92  test_suite.o(.text)
    bulkEraseDevice                          0x1a0040ef   Thumb Code   116  test_suite.o(.text)
    rangeCheckEraseDevice                    0x1a004163   Thumb Code   108  test_suite.o(.text)
    setMemModeVerify                         0x1a0041cf   Thumb Code    34  test_suite.o(.text)
    spifiDevUnlockDevice                     0x1a00620f   Thumb Code    18  test_suite.o(.text)
    spifiDevPageProgram                      0x1a006221   Thumb Code    32  test_suite.o(.text)
    spifiDevRead                             0x1a006241   Thumb Code    32  test_suite.o(.text)
    StopWatch_Elapsed                        0x1a006261   Thumb Code    12  test_suite.o(.text)
    .text                                    0x1a006508   Section        0  noretval__2printf.o(.text)
    .text                                    0x1a006520   Section        0  _printf_pad.o(.text)
    .text                                    0x1a00656e   Section        0  _printf_str.o(.text)
    .text                                    0x1a0065c0   Section        0  _printf_dec.o(.text)
    .text                                    0x1a006638   Section        0  _printf_hex_int.o(.text)
    .text                                    0x1a006690   Section        0  __printf_flags_wp.o(.text)
    .text                                    0x1a0067c8   Section      138  rt_memcpy_v6.o(.text)
    .text                                    0x1a006852   Section        0  heapauxi.o(.text)
    .text                                    0x1a006858   Section        0  _printf_intcommon.o(.text)
    .text                                    0x1a00690a   Section        0  _printf_char.o(.text)
    .text                                    0x1a006938   Section        0  _printf_char_file.o(.text)
    .text                                    0x1a00695c   Section      100  rt_memcpy_w.o(.text)
    .text                                    0x1a0069c0   Section        0  _printf_char_common.o(.text)
    _printf_input_char                       0x1a0069c1   Thumb Code    10  _printf_char_common.o(.text)
    .text                                    0x1a0069f0   Section       74  sys_stackheap_outer.o(.text)
    .text                                    0x1a006a3a   Section        0  exit.o(.text)
    .text                                    0x1a006a4c   Section        8  libspace.o(.text)
    i.Board_SetupClocking                    0x1a006a54   Section        0  board_sysinit.o(i.Board_SetupClocking)
    i.Board_SetupMuxing                      0x1a006b08   Section        0  board_sysinit.o(i.Board_SetupMuxing)
    i.Board_SystemInit                       0x1a006b54   Section        0  board_sysinit.o(i.Board_SystemInit)
    i.Board_UARTPutChar                      0x1a006b60   Section        0  board.o(i.Board_UARTPutChar)
    i.Board_UART_Init                        0x1a006b80   Section        0  board.o(i.Board_UART_Init)
    i.Chip_Clock_Enable                      0x1a006bc4   Section        0  clock_18xx_43xx.o(i.Chip_Clock_Enable)
    i.Chip_Clock_EnableOpts                  0x1a006bfc   Section        0  clock_18xx_43xx.o(i.Chip_Clock_EnableOpts)
    i.Chip_Clock_FindBaseClock               0x1a006c38   Section        0  clock_18xx_43xx.o(i.Chip_Clock_FindBaseClock)
    Chip_Clock_FindBaseClock                 0x1a006c39   Thumb Code    74  clock_18xx_43xx.o(i.Chip_Clock_FindBaseClock)
    i.Chip_Clock_GetBaseClock                0x1a006c88   Section        0  clock_18xx_43xx.o(i.Chip_Clock_GetBaseClock)
    i.Chip_Clock_GetBaseClocktHz             0x1a006cac   Section        0  clock_18xx_43xx.o(i.Chip_Clock_GetBaseClocktHz)
    i.Chip_Clock_GetClockInputHz             0x1a006cc0   Section        0  clock_18xx_43xx.o(i.Chip_Clock_GetClockInputHz)
    i.Chip_Clock_GetDivRate                  0x1a006d94   Section        0  clock_18xx_43xx.o(i.Chip_Clock_GetDivRate)
    Chip_Clock_GetDivRate                    0x1a006d95   Thumb Code    40  clock_18xx_43xx.o(i.Chip_Clock_GetDivRate)
    i.Chip_Clock_GetDividerDivisor           0x1a006dbc   Section        0  clock_18xx_43xx.o(i.Chip_Clock_GetDividerDivisor)
    i.Chip_Clock_GetDividerSource            0x1a006ddc   Section        0  clock_18xx_43xx.o(i.Chip_Clock_GetDividerSource)
    i.Chip_Clock_GetMainPLLHz                0x1a006dfc   Section        0  clock_18xx_43xx.o(i.Chip_Clock_GetMainPLLHz)
    i.Chip_Clock_GetRate                     0x1a006e74   Section        0  clock_18xx_43xx.o(i.Chip_Clock_GetRate)
    i.Chip_Clock_SetBaseClock                0x1a006ecc   Section        0  clock_18xx_43xx.o(i.Chip_Clock_SetBaseClock)
    i.Chip_Clock_SetDivider                  0x1a006f14   Section        0  clock_18xx_43xx.o(i.Chip_Clock_SetDivider)
    i.Chip_SCU_PinMuxSet                     0x1a006f64   Section        0  board.o(i.Chip_SCU_PinMuxSet)
    Chip_SCU_PinMuxSet                       0x1a006f65   Thumb Code    12  board.o(i.Chip_SCU_PinMuxSet)
    i.Chip_SCU_SetPinMuxing                  0x1a006f74   Section        0  board_sysinit.o(i.Chip_SCU_SetPinMuxing)
    Chip_SCU_SetPinMuxing                    0x1a006f75   Thumb Code    44  board_sysinit.o(i.Chip_SCU_SetPinMuxing)
    i.Chip_SetupCoreClock                    0x1a006fa4   Section        0  sysinit_18xx_43xx.o(i.Chip_SetupCoreClock)
    i.Chip_TIMER_GetClockIndex               0x1a006fb4   Section        0  timer_18xx_43xx.o(i.Chip_TIMER_GetClockIndex)
    Chip_TIMER_GetClockIndex                 0x1a006fb5   Thumb Code    36  timer_18xx_43xx.o(i.Chip_TIMER_GetClockIndex)
    i.Chip_TIMER_Init                        0x1a006fe4   Section        0  timer_18xx_43xx.o(i.Chip_TIMER_Init)
    i.Chip_UART_DisableDivisorAccess         0x1a006ff6   Section        0  uart_18xx_43xx.o(i.Chip_UART_DisableDivisorAccess)
    Chip_UART_DisableDivisorAccess           0x1a006ff7   Thumb Code    10  uart_18xx_43xx.o(i.Chip_UART_DisableDivisorAccess)
    i.Chip_UART_EnableDivisorAccess          0x1a007000   Section        0  uart_18xx_43xx.o(i.Chip_UART_EnableDivisorAccess)
    Chip_UART_EnableDivisorAccess            0x1a007001   Thumb Code    10  uart_18xx_43xx.o(i.Chip_UART_EnableDivisorAccess)
    i.Chip_UART_GetClockIndex                0x1a00700c   Section        0  uart_18xx_43xx.o(i.Chip_UART_GetClockIndex)
    Chip_UART_GetClockIndex                  0x1a00700d   Thumb Code    36  uart_18xx_43xx.o(i.Chip_UART_GetClockIndex)
    i.Chip_UART_Init                         0x1a00703c   Section        0  uart_18xx_43xx.o(i.Chip_UART_Init)
    i.Chip_UART_SetBaud                      0x1a007088   Section        0  uart_18xx_43xx.o(i.Chip_UART_SetBaud)
    i.Chip_UART_SetDivisorLatches            0x1a0070ca   Section        0  uart_18xx_43xx.o(i.Chip_UART_SetDivisorLatches)
    Chip_UART_SetDivisorLatches              0x1a0070cb   Thumb Code     6  uart_18xx_43xx.o(i.Chip_UART_SetDivisorLatches)
    i.StopWatch_Init                         0x1a0070d0   Section        0  stopwatch_18xx_43xx.o(i.StopWatch_Init)
    i.StopWatch_Start                        0x1a007130   Section        0  stopwatch_18xx_43xx.o(i.StopWatch_Start)
    i.StopWatch_TicksToMs                    0x1a00713c   Section        0  stopwatch_18xx_43xx.o(i.StopWatch_TicksToMs)
    i.SystemCoreClockUpdate                  0x1a00714c   Section        0  chip_18xx_43xx.o(i.SystemCoreClockUpdate)
    i._is_digit                              0x1a007160   Section        0  __printf_wp.o(i._is_digit)
    i._sys_exit                              0x1a00716e   Section        0  board.o(i._sys_exit)
    i.clock_init_delay                       0x1a007174   Section        0  sysinit_18xx_43xx.o(i.clock_init_delay)
    clock_init_delay                         0x1a007175   Thumb Code    36  sysinit_18xx_43xx.o(i.clock_init_delay)
    i.clock_main_init                        0x1a007198   Section        0  sysinit_18xx_43xx.o(i.clock_main_init)
    clock_main_init                          0x1a007199   Thumb Code   168  sysinit_18xx_43xx.o(i.clock_main_init)
    i.ferror                                 0x1a007254   Section        0  board.o(i.ferror)
    i.fpuInit                                0x1a00725c   Section        0  fpu_init.o(i.fpuInit)
    i.fputc                                  0x1a0072ac   Section        0  board.o(i.fputc)
    i.spifiDevDeInit                         0x1a0072c0   Section        0  spifilib_dev_common.o(i.spifiDevDeInit)
    i.spifiDevGetInfo                        0x1a0072dc   Section        0  spifilib_dev_common.o(i.spifiDevGetInfo)
    i.spifiDevGetMemoryMode                  0x1a0073b0   Section        0  spifilib_dev_common.o(i.spifiDevGetMemoryMode)
    i.spifiDevInit                           0x1a0073bc   Section        0  spifilib_dev_common.o(i.spifiDevInit)
    i.spifiDevRegister                       0x1a0073d8   Section        0  spifilib_dev_common.o(i.spifiDevRegister)
    i.spifiDevSetMemMode                     0x1a0073f4   Section        0  spifilib_dev_common.o(i.spifiDevSetMemMode)
    i.spifiDevSetOpts                        0x1a007462   Section        0  spifilib_dev_common.o(i.spifiDevSetOpts)
    i.spifiDevice4BInitReadCommand           0x1a0074e8   Section        0  spifilib_fam_standard_cmd.o(i.spifiDevice4BInitReadCommand)
    spifiDevice4BInitReadCommand             0x1a0074e9   Thumb Code    32  spifilib_fam_standard_cmd.o(i.spifiDevice4BInitReadCommand)
    i.spifiDevice4BInitWriteCommand          0x1a007514   Section        0  spifilib_fam_standard_cmd.o(i.spifiDevice4BInitWriteCommand)
    spifiDevice4BInitWriteCommand            0x1a007515   Thumb Code    20  spifilib_fam_standard_cmd.o(i.spifiDevice4BInitWriteCommand)
    i.spifiDeviceDataClearStatusNone         0x1a007530   Section        0  spifilib_fam_standard_cmd.o(i.spifiDeviceDataClearStatusNone)
    spifiDeviceDataClearStatusNone           0x1a007531   Thumb Code     2  spifilib_fam_standard_cmd.o(i.spifiDeviceDataClearStatusNone)
    i.spifiDeviceDataClearStatusS25FL032P    0x1a007534   Section        0  spifilib_fam_standard_cmd.o(i.spifiDeviceDataClearStatusS25FL032P)
    spifiDeviceDataClearStatusS25FL032P      0x1a007535   Thumb Code    16  spifilib_fam_standard_cmd.o(i.spifiDeviceDataClearStatusS25FL032P)
    i.spifiDeviceDataGetStatusMX25L3235E     0x1a007548   Section        0  spifilib_fam_standard_cmd.o(i.spifiDeviceDataGetStatusMX25L3235E)
    spifiDeviceDataGetStatusMX25L3235E       0x1a007549   Thumb Code    18  spifilib_fam_standard_cmd.o(i.spifiDeviceDataGetStatusMX25L3235E)
    i.spifiDeviceDataGetStatusS25FL032P      0x1a007560   Section        0  spifilib_fam_standard_cmd.o(i.spifiDeviceDataGetStatusS25FL032P)
    spifiDeviceDataGetStatusS25FL032P        0x1a007561   Thumb Code    68  spifilib_fam_standard_cmd.o(i.spifiDeviceDataGetStatusS25FL032P)
    i.spifiDeviceDataGetStatusS25FL164K      0x1a0075a8   Section        0  spifilib_fam_standard_cmd.o(i.spifiDeviceDataGetStatusS25FL164K)
    spifiDeviceDataGetStatusS25FL164K        0x1a0075a9   Thumb Code    50  spifilib_fam_standard_cmd.o(i.spifiDeviceDataGetStatusS25FL164K)
    i.spifiDeviceDataGetStatusW25Q80BV       0x1a0075e0   Section        0  spifilib_fam_standard_cmd.o(i.spifiDeviceDataGetStatusW25Q80BV)
    spifiDeviceDataGetStatusW25Q80BV         0x1a0075e1   Thumb Code    50  spifilib_fam_standard_cmd.o(i.spifiDeviceDataGetStatusW25Q80BV)
    i.spifiDeviceDataInitDeinit              0x1a007618   Section        0  spifilib_fam_standard_cmd.o(i.spifiDeviceDataInitDeinit)
    spifiDeviceDataInitDeinit                0x1a007619   Thumb Code     4  spifilib_fam_standard_cmd.o(i.spifiDeviceDataInitDeinit)
    i.spifiDeviceDataInitDeinitS25FL164K     0x1a00761c   Section        0  spifilib_fam_standard_cmd.o(i.spifiDeviceDataInitDeinitS25FL164K)
    spifiDeviceDataInitDeinitS25FL164K       0x1a00761d   Thumb Code    30  spifilib_fam_standard_cmd.o(i.spifiDeviceDataInitDeinitS25FL164K)
    i.spifiDeviceDataSetOptsQuadModeBit6     0x1a00763a   Section        0  spifilib_fam_standard_cmd.o(i.spifiDeviceDataSetOptsQuadModeBit6)
    spifiDeviceDataSetOptsQuadModeBit6       0x1a00763b   Thumb Code    20  spifilib_fam_standard_cmd.o(i.spifiDeviceDataSetOptsQuadModeBit6)
    i.spifiDeviceDataSetOptsQuadModeBit9     0x1a00764e   Section        0  spifilib_fam_standard_cmd.o(i.spifiDeviceDataSetOptsQuadModeBit9)
    spifiDeviceDataSetOptsQuadModeBit9       0x1a00764f   Thumb Code    20  spifilib_fam_standard_cmd.o(i.spifiDeviceDataSetOptsQuadModeBit9)
    i.spifiDeviceDataSetStatusMX25L3235E     0x1a007664   Section        0  spifilib_fam_standard_cmd.o(i.spifiDeviceDataSetStatusMX25L3235E)
    spifiDeviceDataSetStatusMX25L3235E       0x1a007665   Thumb Code    38  spifilib_fam_standard_cmd.o(i.spifiDeviceDataSetStatusMX25L3235E)
    i.spifiDeviceDataSetStatusS25FL032P      0x1a007690   Section        0  spifilib_fam_standard_cmd.o(i.spifiDeviceDataSetStatusS25FL032P)
    spifiDeviceDataSetStatusS25FL032P        0x1a007691   Thumb Code    42  spifilib_fam_standard_cmd.o(i.spifiDeviceDataSetStatusS25FL032P)
    i.spifiDeviceDataSetStatusS25FL164K      0x1a0076c0   Section        0  spifilib_fam_standard_cmd.o(i.spifiDeviceDataSetStatusS25FL164K)
    spifiDeviceDataSetStatusS25FL164K        0x1a0076c1   Thumb Code    46  spifilib_fam_standard_cmd.o(i.spifiDeviceDataSetStatusS25FL164K)
    i.spifiDeviceFxError                     0x1a0076f4   Section        0  spifilib_fam_standard_cmd.o(i.spifiDeviceFxError)
    spifiDeviceFxError                       0x1a0076f5   Thumb Code     2  spifilib_fam_standard_cmd.o(i.spifiDeviceFxError)
    i.spifiDeviceInitReadCommand             0x1a0076f8   Section        0  spifilib_fam_standard_cmd.o(i.spifiDeviceInitReadCommand)
    spifiDeviceInitReadCommand               0x1a0076f9   Thumb Code    32  spifilib_fam_standard_cmd.o(i.spifiDeviceInitReadCommand)
    i.spifiDeviceInitWriteCommand            0x1a007724   Section        0  spifilib_fam_standard_cmd.o(i.spifiDeviceInitWriteCommand)
    spifiDeviceInitWriteCommand              0x1a007725   Thumb Code    20  spifilib_fam_standard_cmd.o(i.spifiDeviceInitWriteCommand)
    i.spifiDeviceInitWriteCommandMacronix    0x1a007740   Section        0  spifilib_fam_standard_cmd.o(i.spifiDeviceInitWriteCommandMacronix)
    spifiDeviceInitWriteCommandMacronix      0x1a007741   Thumb Code    20  spifilib_fam_standard_cmd.o(i.spifiDeviceInitWriteCommandMacronix)
    i.spifiErase                             0x1a00775c   Section        0  spifilib_dev_common.o(i.spifiErase)
    i.spifiEraseByAddr                       0x1a00778c   Section        0  spifilib_dev_common.o(i.spifiEraseByAddr)
    i.spifiFamFxDeviceSetup                  0x1a0077bc   Section        0  spifilib_fam_standard_cmd.o(i.spifiFamFxDeviceSetup)
    spifiFamFxDeviceSetup                    0x1a0077bd   Thumb Code   272  spifilib_fam_standard_cmd.o(i.spifiFamFxDeviceSetup)
    i.spifiFamFxEraseAll                     0x1a00793c   Section        0  spifilib_fam_standard_cmd.o(i.spifiFamFxEraseAll)
    spifiFamFxEraseAll                       0x1a00793d   Thumb Code    44  spifilib_fam_standard_cmd.o(i.spifiFamFxEraseAll)
    i.spifiFamFxEraseBlock                   0x1a00796c   Section        0  spifilib_fam_standard_cmd.o(i.spifiFamFxEraseBlock)
    spifiFamFxEraseBlock                     0x1a00796d   Thumb Code   110  spifilib_fam_standard_cmd.o(i.spifiFamFxEraseBlock)
    i.spifiFamFxEraseSubBlock                0x1a0079e4   Section        0  spifilib_fam_standard_cmd.o(i.spifiFamFxEraseSubBlock)
    spifiFamFxEraseSubBlock                  0x1a0079e5   Thumb Code    98  spifilib_fam_standard_cmd.o(i.spifiFamFxEraseSubBlock)
    i.spifiFamFxGetDeviceStatus              0x1a007a46   Section        0  spifilib_fam_standard_cmd.o(i.spifiFamFxGetDeviceStatus)
    spifiFamFxGetDeviceStatus                0x1a007a47   Thumb Code    88  spifilib_fam_standard_cmd.o(i.spifiFamFxGetDeviceStatus)
    i.spifiFamFxLockDeviceCmd                0x1a007a9e   Section        0  spifilib_fam_standard_cmd.o(i.spifiFamFxLockDeviceCmd)
    spifiFamFxLockDeviceCmd                  0x1a007a9f   Thumb Code    62  spifilib_fam_standard_cmd.o(i.spifiFamFxLockDeviceCmd)
    i.spifiFamFxPageProgram                  0x1a007adc   Section        0  spifilib_fam_standard_cmd.o(i.spifiFamFxPageProgram)
    spifiFamFxPageProgram                    0x1a007add   Thumb Code   186  spifilib_fam_standard_cmd.o(i.spifiFamFxPageProgram)
    i.spifiFamFxReadDevice                   0x1a007b96   Section        0  spifilib_fam_standard_cmd.o(i.spifiFamFxReadDevice)
    spifiFamFxReadDevice                     0x1a007b97   Thumb Code   116  spifilib_fam_standard_cmd.o(i.spifiFamFxReadDevice)
    i.spifiFamFxResetDevice                  0x1a007c0a   Section        0  spifilib_fam_standard_cmd.o(i.spifiFamFxResetDevice)
    spifiFamFxResetDevice                    0x1a007c0b   Thumb Code     4  spifilib_fam_standard_cmd.o(i.spifiFamFxResetDevice)
    i.spifiGetAddrFromBlock                  0x1a007c0e   Section        0  spifilib_dev_common.o(i.spifiGetAddrFromBlock)
    i.spifiGetAddrFromSubBlock               0x1a007c26   Section        0  spifilib_dev_common.o(i.spifiGetAddrFromSubBlock)
    i.spifiGetBlockFromAddr                  0x1a007c54   Section        0  spifilib_dev_common.o(i.spifiGetBlockFromAddr)
    i.spifiGetHandleMemSize                  0x1a007c6c   Section        0  spifilib_dev_common.o(i.spifiGetHandleMemSize)
    i.spifiGetLibVersion                     0x1a007c82   Section        0  spifilib_dev_common.o(i.spifiGetLibVersion)
    i.spifiGetSubBlockFromAddr               0x1a007c88   Section        0  spifilib_dev_common.o(i.spifiGetSubBlockFromAddr)
    i.spifiGetSubBlockFromBlock              0x1a007cb8   Section        0  spifilib_dev_common.o(i.spifiGetSubBlockFromBlock)
    i.spifiGetSuppFamilyCount                0x1a007ce4   Section        0  spifilib_dev_common.o(i.spifiGetSuppFamilyCount)
    i.spifiGetSuppFamilyName                 0x1a007cf0   Section        0  spifilib_dev_common.o(i.spifiGetSuppFamilyName)
    i.spifiInit                              0x1a007d1c   Section        0  spifilib_dev_common.o(i.spifiInit)
    i.spifiInitDevice                        0x1a007d40   Section        0  spifilib_dev_common.o(i.spifiInitDevice)
    i.spifiProgram                           0x1a007dfe   Section        0  spifilib_dev_common.o(i.spifiProgram)
    i.spifiPrvCheckWriteState                0x1a007e44   Section        0  spifilib_fam_standard_cmd.o(i.spifiPrvCheckWriteState)
    spifiPrvCheckWriteState                  0x1a007e45   Thumb Code    26  spifilib_fam_standard_cmd.o(i.spifiPrvCheckWriteState)
    i.spifiPrvDevDetect                      0x1a007e60   Section        0  spifilib_dev_common.o(i.spifiPrvDevDetect)
    spifiPrvDevDetect                        0x1a007e61   Thumb Code   120  spifilib_dev_common.o(i.spifiPrvDevDetect)
    i.spifiPrvDevGetID                       0x1a007edc   Section        0  spifilib_dev_common.o(i.spifiPrvDevGetID)
    spifiPrvDevGetID                         0x1a007edd   Thumb Code    52  spifilib_dev_common.o(i.spifiPrvDevGetID)
    i.spifiPrvFindDeviceMatch                0x1a007f14   Section        0  spifilib_dev_common.o(i.spifiPrvFindDeviceMatch)
    spifiPrvFindDeviceMatch                  0x1a007f15   Thumb Code    82  spifilib_dev_common.o(i.spifiPrvFindDeviceMatch)
    i.spifiPrvPartDetect                     0x1a007f68   Section        0  spifilib_dev_common.o(i.spifiPrvPartDetect)
    spifiPrvPartDetect                       0x1a007f69   Thumb Code    38  spifilib_dev_common.o(i.spifiPrvPartDetect)
    i.spifiPrvSetQuadModeBitPosition         0x1a007f94   Section        0  spifilib_fam_standard_cmd.o(i.spifiPrvSetQuadModeBitPosition)
    spifiPrvSetQuadModeBitPosition           0x1a007f95   Thumb Code    42  spifilib_fam_standard_cmd.o(i.spifiPrvSetQuadModeBitPosition)
    i.spifiPrvSetWREN                        0x1a007fbe   Section        0  spifilib_fam_standard_cmd.o(i.spifiPrvSetWREN)
    spifiPrvSetWREN                          0x1a007fbf   Thumb Code    14  spifilib_fam_standard_cmd.o(i.spifiPrvSetWREN)
    i.spifiPrvWaitUnBusy                     0x1a007fcc   Section        0  spifilib_fam_standard_cmd.o(i.spifiPrvWaitUnBusy)
    spifiPrvWaitUnBusy                       0x1a007fcd   Thumb Code    18  spifilib_fam_standard_cmd.o(i.spifiPrvWaitUnBusy)
    i.spifiRead                              0x1a007fde   Section        0  spifilib_dev_common.o(i.spifiRead)
    i.spifiRegisterFamily                    0x1a008024   Section        0  spifilib_dev_common.o(i.spifiRegisterFamily)
    i.spifiReturnErrString                   0x1a008044   Section        0  spifilib_dev_common.o(i.spifiReturnErrString)
    i.spifi_HW_ResetController               0x1a00805c   Section        0  spifilib_dev_common.o(i.spifi_HW_ResetController)
    spifi_HW_ResetController                 0x1a00805d   Thumb Code    12  spifilib_dev_common.o(i.spifi_HW_ResetController)
    i.spifi_REG_FAMILY_CommonCommandSet      0x1a008068   Section        0  spifilib_fam_standard_cmd.o(i.spifi_REG_FAMILY_CommonCommandSet)
    x$fpl$fpinit                             0x1a0081e8   Section       10  fpinit.o(x$fpl$fpinit)
    $v0                                      0x1a0081e8   Number         0  fpinit.o(x$fpl$fpinit)
    .constdata                               0x1a0081f2   Section       24  main.o(.constdata)
    spifipinmuxing                           0x1a0081f2   Data          24  main.o(.constdata)
    .constdata                               0x1a00820c   Section        4  test_suite.o(.constdata)
    .constdata                               0x1a008210   Section       64  board.o(.constdata)
    ledports                                 0x1a008210   Data           8  board.o(.constdata)
    ledbits                                  0x1a008218   Data           8  board.o(.constdata)
    .constdata                               0x1a008250   Section      700  board_sysinit.o(.constdata)
    InitClkStates                            0x1a008250   Data          16  board_sysinit.o(.constdata)
    spifipinmuxing                           0x1a008260   Data          24  board_sysinit.o(.constdata)
    pinmuxing                                0x1a008278   Data         496  board_sysinit.o(.constdata)
    pinclockmuxing                           0x1a008468   Data          16  board_sysinit.o(.constdata)
    MT48LC4M32_config                        0x1a008478   Data         116  board_sysinit.o(.constdata)
    S29GL64N90_config                        0x1a0084ec   Data          32  board_sysinit.o(.constdata)
    .constdata                               0x1a00850c   Section       14  spifilib_dev_common.o(.constdata)
    noName                                   0x1a00850c   Data          14  spifilib_dev_common.o(.constdata)
    .constdata                               0x1a00851c   Section      840  spifilib_fam_standard_cmd.o(.constdata)
    spifiCmdOp                               0x1a00851c   Data           2  spifilib_fam_standard_cmd.o(.constdata)
    spifiCmdOp                               0x1a00851e   Data           2  spifilib_fam_standard_cmd.o(.constdata)
    spifiCmdOp                               0x1a008520   Data           3  spifilib_fam_standard_cmd.o(.constdata)
    pData                                    0x1a008524   Data          52  spifilib_fam_standard_cmd.o(.constdata)
    pData                                    0x1a008558   Data          52  spifilib_fam_standard_cmd.o(.constdata)
    pData                                    0x1a00858c   Data          52  spifilib_fam_standard_cmd.o(.constdata)
    pData                                    0x1a0085c0   Data          52  spifilib_fam_standard_cmd.o(.constdata)
    pData                                    0x1a0085f4   Data          52  spifilib_fam_standard_cmd.o(.constdata)
    pData                                    0x1a008628   Data          52  spifilib_fam_standard_cmd.o(.constdata)
    pData                                    0x1a00865c   Data          52  spifilib_fam_standard_cmd.o(.constdata)
    pData                                    0x1a008690   Data          52  spifilib_fam_standard_cmd.o(.constdata)
    pData                                    0x1a0086c4   Data          52  spifilib_fam_standard_cmd.o(.constdata)
    pData                                    0x1a0086f8   Data          52  spifilib_fam_standard_cmd.o(.constdata)
    pData                                    0x1a00872c   Data          52  spifilib_fam_standard_cmd.o(.constdata)
    pData                                    0x1a008760   Data          52  spifilib_fam_standard_cmd.o(.constdata)
    pData                                    0x1a008794   Data          52  spifilib_fam_standard_cmd.o(.constdata)
    pData                                    0x1a0087c8   Data          52  spifilib_fam_standard_cmd.o(.constdata)
    pData                                    0x1a0087fc   Data          52  spifilib_fam_standard_cmd.o(.constdata)
    pData                                    0x1a008830   Data          52  spifilib_fam_standard_cmd.o(.constdata)
    .constdata                               0x1a008864   Section      108  clock_18xx_43xx.o(.constdata)
    periph_to_base                           0x1a008864   Data         108  clock_18xx_43xx.o(.constdata)
    .constdata                               0x1a0088d0   Section       72  sysinit_18xx_43xx.o(.constdata)
    InitClkStates                            0x1a0088d0   Data          72  sysinit_18xx_43xx.o(.constdata)
    .constdata                               0x1a008918   Section       40  _printf_hex_int.o(.constdata)
    uc_hextab                                0x1a008918   Data          20  _printf_hex_int.o(.constdata)
    lc_hextab                                0x1a00892c   Data          20  _printf_hex_int.o(.constdata)
    .constdata                               0x1a008940   Section       17  __printf_flags_wp.o(.constdata)
    maptable                                 0x1a008940   Data          17  __printf_flags_wp.o(.constdata)
    .conststring                             0x1a008954   Section      226  test_suite.o(.conststring)
    .conststring                             0x1a008a38   Section      247  spifilib_dev_common.o(.conststring)
    .conststring                             0x1a008b30   Section      222  spifilib_fam_standard_cmd.o(.conststring)
    .data                                    0x20000000   Section       64  raw-os.o(.data)
    .data                                    0x20000040   Section        4  test_suite.o(.data)
    blinkToggleRate                          0x20000040   Data           4  test_suite.o(.data)
    .data                                    0x20000044   Section       20  board.o(.data)
    .data                                    0x20000058   Section        4  chip_18xx_43xx.o(.data)
    .data                                    0x2000005c   Section       12  stopwatch_18xx_43xx.o(.data)
    ticksPerSecond                           0x2000005c   Data           4  stopwatch_18xx_43xx.o(.data)
    ticksPerMs                               0x20000060   Data           4  stopwatch_18xx_43xx.o(.data)
    ticksPerUs                               0x20000064   Data           4  stopwatch_18xx_43xx.o(.data)
    .data                                    0x20000068   Section       64  spifilib_dev_common.o(.data)
    famCount                                 0x20000068   Data           4  spifilib_dev_common.o(.data)
    famListHead                              0x2000006c   Data           8  spifilib_dev_common.o(.data)
    spifiErrStrings                          0x20000074   Data          52  spifilib_dev_common.o(.data)
    .data                                    0x200000a8   Section      148  spifilib_fam_standard_cmd.o(.data)
    devCount                                 0x200000a8   Data           4  spifilib_fam_standard_cmd.o(.data)
    devListBase                              0x200000ac   Data           8  spifilib_fam_standard_cmd.o(.data)
    devFamily                                0x200000b4   Data           8  spifilib_fam_standard_cmd.o(.data)
    data                                     0x200000bc   Data           8  spifilib_fam_standard_cmd.o(.data)
    data                                     0x200000c4   Data           8  spifilib_fam_standard_cmd.o(.data)
    data                                     0x200000cc   Data           8  spifilib_fam_standard_cmd.o(.data)
    data                                     0x200000d4   Data           8  spifilib_fam_standard_cmd.o(.data)
    data                                     0x200000dc   Data           8  spifilib_fam_standard_cmd.o(.data)
    data                                     0x200000e4   Data           8  spifilib_fam_standard_cmd.o(.data)
    data                                     0x200000ec   Data           8  spifilib_fam_standard_cmd.o(.data)
    data                                     0x200000f4   Data           8  spifilib_fam_standard_cmd.o(.data)
    data                                     0x200000fc   Data           8  spifilib_fam_standard_cmd.o(.data)
    data                                     0x20000104   Data           8  spifilib_fam_standard_cmd.o(.data)
    data                                     0x2000010c   Data           8  spifilib_fam_standard_cmd.o(.data)
    data                                     0x20000114   Data           8  spifilib_fam_standard_cmd.o(.data)
    data                                     0x2000011c   Data           8  spifilib_fam_standard_cmd.o(.data)
    data                                     0x20000124   Data           8  spifilib_fam_standard_cmd.o(.data)
    data                                     0x2000012c   Data           8  spifilib_fam_standard_cmd.o(.data)
    data                                     0x20000134   Data           8  spifilib_fam_standard_cmd.o(.data)
    .data                                    0x2000013c   Section        8  clock_18xx_43xx.o(.data)
    audio_usb_pll_freq                       0x2000013c   Data           8  clock_18xx_43xx.o(.data)
    .bss                                     0x20000144   Section     4000  raw-os.o(.bss)
    .bss                                     0x200010e4   Section     8456  main.o(.bss)
    lmem                                     0x200030c8   Data         164  main.o(.bss)
    fifo_buffer                              0x2000316c   Data         128  main.o(.bss)
    .bss                                     0x200031ec   Section       88  spifilib_fam_standard_cmd.o(.bss)
    fxTable                                  0x200031ec   Data          64  spifilib_fam_standard_cmd.o(.bss)
    famDesc                                  0x2000322c   Data          24  spifilib_fam_standard_cmd.o(.bss)
    .bss                                     0x20003244   Section       96  libspace.o(.bss)
    HEAP                                     0x200032a8   Section      256  keil_startup_lpc18xx43xx.o(HEAP)
    Heap_Mem                                 0x200032a8   Data         256  keil_startup_lpc18xx43xx.o(HEAP)
    STACK                                    0x200033a8   Section     1536  keil_startup_lpc18xx43xx.o(STACK)
    Stack_Mem                                0x200033a8   Data        1536  keil_startup_lpc18xx43xx.o(STACK)
    __initial_sp                             0x200039a8   Data           0  keil_startup_lpc18xx43xx.o(STACK)

    Global Symbols

    Symbol Name                              Value     Ov Type        Size  Object(Section)

    BuildAttributes$$THM_ISAv4$E$P$D$K$B$S$7EM$VFPi3$EXTD16$VFPS$VFMA$PE$A:L22UL41UL21$X:L11$S22US41US21$IEEE1$IW$USESV6$~STKCKD$USESV7$~SHL$OSPACE$ROPI$EBA8$UX$STANDARDLIB$REQ8$PRES8$EABIv2 0x00000000   Number         0  anon$$obj.o ABSOLUTE
    __ARM_use_no_argv                        0x00000000   Number         0  main.o ABSOLUTE
    _printf_flags                            0x00000000   Number         0  printf_stubs.o ABSOLUTE
    _printf_return_value                     0x00000000   Number         0  printf_stubs.o ABSOLUTE
    _printf_sizespec                         0x00000000   Number         0  printf_stubs.o ABSOLUTE
    _printf_widthprec                        0x00000000   Number         0  printf_stubs.o ABSOLUTE
    __ARM_exceptions_init                     - Undefined Weak Reference
    __alloca_initialize                       - Undefined Weak Reference
    __arm_preinit_                            - Undefined Weak Reference
    __cpp_initialize__aeabi_                  - Undefined Weak Reference
    __cxa_finalize                            - Undefined Weak Reference
    __rt_locale                               - Undefined Weak Reference
    __sigvec_lookup                           - Undefined Weak Reference
    _atexit_init                              - Undefined Weak Reference
    _call_atexit_fns                          - Undefined Weak Reference
    _clock_init                               - Undefined Weak Reference
    _fp_trap_init                             - Undefined Weak Reference
    _fp_trap_shutdown                         - Undefined Weak Reference
    _get_lc_collate                           - Undefined Weak Reference
    _get_lc_ctype                             - Undefined Weak Reference
    _get_lc_monetary                          - Undefined Weak Reference
    _get_lc_numeric                           - Undefined Weak Reference
    _get_lc_time                              - Undefined Weak Reference
    _getenv_init                              - Undefined Weak Reference
    _handle_redirection                       - Undefined Weak Reference
    _init_alloc                               - Undefined Weak Reference
    _init_user_alloc                          - Undefined Weak Reference
    _initio                                   - Undefined Weak Reference
    _printf_mbtowc                            - Undefined Weak Reference
    _printf_truncate_signed                   - Undefined Weak Reference
    _printf_truncate_unsigned                 - Undefined Weak Reference
    _rand_init                                - Undefined Weak Reference
    _signal_finish                            - Undefined Weak Reference
    _signal_init                              - Undefined Weak Reference
    _terminate_alloc                          - Undefined Weak Reference
    _terminate_user_alloc                     - Undefined Weak Reference
    _terminateio                              - Undefined Weak Reference
    __Vectors                                0x1a000000   Data           4  keil_startup_lpc18xx43xx.o(RESET)
    __main                                   0x1a000115   Thumb Code     8  __main.o(!!!main)
    __scatterload                            0x1a00011d   Thumb Code     0  __scatter.o(!!!scatter)
    __scatterload_rt2                        0x1a00011d   Thumb Code    44  __scatter.o(!!!scatter)
    __scatterload_rt2_thumb_only             0x1a00011d   Thumb Code     0  __scatter.o(!!!scatter)
    __scatterload_null                       0x1a00012b   Thumb Code     0  __scatter.o(!!!scatter)
    __decompress                             0x1a000151   Thumb Code    90  __dczerorl2.o(!!dczerorl2)
    __decompress1                            0x1a000151   Thumb Code     0  __dczerorl2.o(!!dczerorl2)
    __scatterload_zeroinit                   0x1a0001ad   Thumb Code    28  __scatter_zi.o(!!handler_zi)
    _printf_d                                0x1a0001c9   Thumb Code     0  _printf_d.o(.ARM.Collect$$_printf_percent$$00000009)
    _printf_percent                          0x1a0001c9   Thumb Code     0  _printf_percent.o(.ARM.Collect$$_printf_percent$$00000000)
    _printf_x                                0x1a0001cf   Thumb Code     0  _printf_x.o(.ARM.Collect$$_printf_percent$$0000000C)
    _printf_s                                0x1a0001d5   Thumb Code     0  _printf_s.o(.ARM.Collect$$_printf_percent$$00000014)
    _printf_percent_end                      0x1a0001db   Thumb Code     0  _printf_percent_end.o(.ARM.Collect$$_printf_percent$$00000017)
    __rt_lib_init                            0x1a0001df   Thumb Code     0  libinit.o(.ARM.Collect$$libinit$$00000000)
    __rt_lib_init_fp_1                       0x1a0001e1   Thumb Code     0  libinit2.o(.ARM.Collect$$libinit$$00000001)
    __rt_lib_init_alloca_1                   0x1a0001e5   Thumb Code     0  libinit2.o(.ARM.Collect$$libinit$$0000002E)
    __rt_lib_init_argv_1                     0x1a0001e5   Thumb Code     0  libinit2.o(.ARM.Collect$$libinit$$0000002C)
    __rt_lib_init_atexit_1                   0x1a0001e5   Thumb Code     0  libinit2.o(.ARM.Collect$$libinit$$0000001B)
    __rt_lib_init_clock_1                    0x1a0001e5   Thumb Code     0  libinit2.o(.ARM.Collect$$libinit$$00000021)
    __rt_lib_init_cpp_1                      0x1a0001e5   Thumb Code     0  libinit2.o(.ARM.Collect$$libinit$$00000032)
    __rt_lib_init_exceptions_1               0x1a0001e5   Thumb Code     0  libinit2.o(.ARM.Collect$$libinit$$00000030)
    __rt_lib_init_fp_trap_1                  0x1a0001e5   Thumb Code     0  libinit2.o(.ARM.Collect$$libinit$$0000001F)
    __rt_lib_init_getenv_1                   0x1a0001e5   Thumb Code     0  libinit2.o(.ARM.Collect$$libinit$$00000023)
    __rt_lib_init_heap_1                     0x1a0001e5   Thumb Code     0  libinit2.o(.ARM.Collect$$libinit$$0000000A)
    __rt_lib_init_lc_collate_1               0x1a0001e5   Thumb Code     0  libinit2.o(.ARM.Collect$$libinit$$00000011)
    __rt_lib_init_lc_ctype_1                 0x1a0001e5   Thumb Code     0  libinit2.o(.ARM.Collect$$libinit$$00000013)
    __rt_lib_init_lc_monetary_1              0x1a0001e5   Thumb Code     0  libinit2.o(.ARM.Collect$$libinit$$00000015)
    __rt_lib_init_lc_numeric_1               0x1a0001e5   Thumb Code     0  libinit2.o(.ARM.Collect$$libinit$$00000017)
    __rt_lib_init_lc_time_1                  0x1a0001e5   Thumb Code     0  libinit2.o(.ARM.Collect$$libinit$$00000019)
    __rt_lib_init_preinit_1                  0x1a0001e5   Thumb Code     0  libinit2.o(.ARM.Collect$$libinit$$00000004)
    __rt_lib_init_rand_1                     0x1a0001e5   Thumb Code     0  libinit2.o(.ARM.Collect$$libinit$$0000000E)
    __rt_lib_init_return                     0x1a0001e5   Thumb Code     0  libinit2.o(.ARM.Collect$$libinit$$00000033)
    __rt_lib_init_signal_1                   0x1a0001e5   Thumb Code     0  libinit2.o(.ARM.Collect$$libinit$$0000001D)
    __rt_lib_init_stdio_1                    0x1a0001e5   Thumb Code     0  libinit2.o(.ARM.Collect$$libinit$$00000025)
    __rt_lib_init_user_alloc_1               0x1a0001e5   Thumb Code     0  libinit2.o(.ARM.Collect$$libinit$$0000000C)
    __rt_lib_shutdown                        0x1a0001e7   Thumb Code     0  libshutdown.o(.ARM.Collect$$libshutdown$$00000000)
    __rt_lib_shutdown_cpp_1                  0x1a0001e9   Thumb Code     0  libshutdown2.o(.ARM.Collect$$libshutdown$$00000002)
    __rt_lib_shutdown_fp_trap_1              0x1a0001e9   Thumb Code     0  libshutdown2.o(.ARM.Collect$$libshutdown$$00000007)
    __rt_lib_shutdown_heap_1                 0x1a0001e9   Thumb Code     0  libshutdown2.o(.ARM.Collect$$libshutdown$$0000000F)
    __rt_lib_shutdown_return                 0x1a0001e9   Thumb Code     0  libshutdown2.o(.ARM.Collect$$libshutdown$$00000010)
    __rt_lib_shutdown_signal_1               0x1a0001e9   Thumb Code     0  libshutdown2.o(.ARM.Collect$$libshutdown$$0000000A)
    __rt_lib_shutdown_stdio_1                0x1a0001e9   Thumb Code     0  libshutdown2.o(.ARM.Collect$$libshutdown$$00000004)
    __rt_lib_shutdown_user_alloc_1           0x1a0001e9   Thumb Code     0  libshutdown2.o(.ARM.Collect$$libshutdown$$0000000C)
    __rt_entry                               0x1a0001eb   Thumb Code     0  __rtentry.o(.ARM.Collect$$rtentry$$00000000)
    __rt_entry_presh_1                       0x1a0001eb   Thumb Code     0  __rtentry2.o(.ARM.Collect$$rtentry$$00000002)
    __rt_entry_sh                            0x1a0001eb   Thumb Code     0  __rtentry4.o(.ARM.Collect$$rtentry$$00000004)
    __rt_entry_li                            0x1a0001f1   Thumb Code     0  __rtentry2.o(.ARM.Collect$$rtentry$$0000000A)
    __rt_entry_postsh_1                      0x1a0001f1   Thumb Code     0  __rtentry2.o(.ARM.Collect$$rtentry$$00000009)
    __rt_entry_main                          0x1a0001f5   Thumb Code     0  __rtentry2.o(.ARM.Collect$$rtentry$$0000000D)
    __rt_entry_postli_1                      0x1a0001f5   Thumb Code     0  __rtentry2.o(.ARM.Collect$$rtentry$$0000000C)
    __rt_exit                                0x1a0001fd   Thumb Code     0  rtexit.o(.ARM.Collect$$rtexit$$00000000)
    __rt_exit_ls                             0x1a0001ff   Thumb Code     0  rtexit2.o(.ARM.Collect$$rtexit$$00000003)
    __rt_exit_prels_1                        0x1a0001ff   Thumb Code     0  rtexit2.o(.ARM.Collect$$rtexit$$00000002)
    __rt_exit_exit                           0x1a000203   Thumb Code     0  rtexit2.o(.ARM.Collect$$rtexit$$00000004)
    get_ready_task                           0x1a000217   Thumb Code    18  raw-os.o(.text)
    raw_sched                                0x1a000229   Thumb Code    64  raw-os.o(.text)
    raw_semaphore_create                     0x1a000269   Thumb Code    48  raw-os.o(.text)
    raw_task_semaphore_create                0x1a000299   Thumb Code    28  raw-os.o(.text)
    tick_list_remove                         0x1a0002b5   Thumb Code    22  raw-os.o(.text)
    mtx_chg_pri                              0x1a0002cb   Thumb Code   128  raw-os.o(.text)
    change_pend_list_priority                0x1a00037d   Thumb Code    26  raw-os.o(.text)
    add_ready_list_end                       0x1a0003b1   Thumb Code    40  raw-os.o(.text)
    add_ready_list_head                      0x1a0003d9   Thumb Code    40  raw-os.o(.text)
    bit_search_first_one                     0x1a000401   Thumb Code   146  raw-os.o(.text)
    remove_ready_list                        0x1a000493   Thumb Code   116  raw-os.o(.text)
    change_internal_task_priority            0x1a000507   Thumb Code   112  raw-os.o(.text)
    mutex_state_change                       0x1a0005e5   Thumb Code    68  raw-os.o(.text)
    add_ready_list                           0x1a000629   Thumb Code    38  raw-os.o(.text)
    tick_list_update                         0x1a00064f   Thumb Code   252  raw-os.o(.text)
    block_state_post_process                 0x1a00074b   Thumb Code    74  raw-os.o(.text)
    tick_list_insert                         0x1a000795   Thumb Code    94  raw-os.o(.text)
    raw_pend_object                          0x1a0007f3   Thumb Code    70  raw-os.o(.text)
    raw_semaphore_get                        0x1a000839   Thumb Code   164  raw-os.o(.text)
    raw_task_semaphore_get                   0x1a0008dd   Thumb Code    18  raw-os.o(.text)
    raw_task_create                          0x1a00090b   Thumb Code   354  raw-os.o(.text)
    tick_task_start                          0x1a000a6d   Thumb Code    52  raw-os.o(.text)
    raw_mutex_create                         0x1a000aa1   Thumb Code    64  raw-os.o(.text)
    raw_wake_object                          0x1a000b4b   Thumb Code    12  raw-os.o(.text)
    raw_mutex_put                            0x1a000b57   Thumb Code   204  raw-os.o(.text)
    raw_mutex_get                            0x1a000c73   Thumb Code   330  raw-os.o(.text)
    raw_semaphore_set                        0x1a000dbd   Thumb Code   108  raw-os.o(.text)
    timer_task                               0x1a000e29   Thumb Code   282  raw-os.o(.text)
    raw_timer_init                           0x1a000f4d   Thumb Code    62  raw-os.o(.text)
    raw_idle_task                            0x1a000f8b   Thumb Code    42  raw-os.o(.text)
    tick_list_init                           0x1a000fb5   Thumb Code    10  raw-os.o(.text)
    run_queue_init                           0x1a000fbf   Thumb Code    32  raw-os.o(.text)
    raw_os_init                              0x1a000fdf   Thumb Code    90  raw-os.o(.text)
    raw_os_start                             0x1a001039   Thumb Code    44  raw-os.o(.text)
    move_to_ready_list_end                   0x1a001065   Thumb Code    30  raw-os.o(.text)
    calculate_time_slice                     0x1a001083   Thumb Code   142  raw-os.o(.text)
    wake_send_msg                            0x1a001111   Thumb Code    16  raw-os.o(.text)
    wake_send_msg_size                       0x1a001121   Thumb Code    20  raw-os.o(.text)
    delete_pend_obj                          0x1a001135   Thumb Code   108  raw-os.o(.text)
    raw_task_stack_check                     0x1a0011a1   Thumb Code    50  raw-os.o(.text)
    raw_disable_sche                         0x1a0011d3   Thumb Code    60  raw-os.o(.text)
    raw_enable_sche                          0x1a00120f   Thumb Code    82  raw-os.o(.text)
    raw_sleep                                0x1a001261   Thumb Code   260  raw-os.o(.text)
    raw_time_sleep                           0x1a001365   Thumb Code   102  raw-os.o(.text)
    task_suspend                             0x1a0013cb   Thumb Code   192  raw-os.o(.text)
    raw_task_suspend                         0x1a00148b   Thumb Code    28  raw-os.o(.text)
    task_resume                              0x1a0014a7   Thumb Code   170  raw-os.o(.text)
    raw_task_resume                          0x1a001551   Thumb Code    18  raw-os.o(.text)
    chg_pri_mutex                            0x1a001563   Thumb Code   130  raw-os.o(.text)
    raw_task_priority_change                 0x1a0015e5   Thumb Code   148  raw-os.o(.text)
    raw_task_free_mutex                      0x1a001679   Thumb Code    82  raw-os.o(.text)
    raw_task_delete                          0x1a0016cb   Thumb Code   226  raw-os.o(.text)
    raw_set_task_user_point                  0x1a0017ad   Thumb Code    44  raw-os.o(.text)
    raw_get_task_user_point                  0x1a0017d9   Thumb Code    12  raw-os.o(.text)
    raw_task_time_slice_change               0x1a0017e5   Thumb Code    62  raw-os.o(.text)
    raw_set_sched_way                        0x1a001823   Thumb Code    62  raw-os.o(.text)
    raw_get_sched_way                        0x1a001861   Thumb Code    58  raw-os.o(.text)
    raw_task_wait_abort                      0x1a00189b   Thumb Code   190  raw-os.o(.text)
    raw_task_identify                        0x1a001959   Thumb Code     6  raw-os.o(.text)
    raw_iter_block_task                      0x1a00195f   Thumb Code    84  raw-os.o(.text)
    raw_get_system_global_space              0x1a0019b3   Thumb Code    18  raw-os.o(.text)
    raw_block_pool_create                    0x1a0019c5   Thumb Code   126  raw-os.o(.text)
    raw_block_allocate                       0x1a001a43   Thumb Code    88  raw-os.o(.text)
    raw_block_release                        0x1a001a9b   Thumb Code    72  raw-os.o(.text)
    raw_byte_pool_create                     0x1a001ae3   Thumb Code   118  raw-os.o(.text)
    raw_byte_allocate                        0x1a001c57   Thumb Code   140  raw-os.o(.text)
    raw_byte_release                         0x1a001ce3   Thumb Code    84  raw-os.o(.text)
    raw_event_create                         0x1a001d37   Thumb Code    36  raw-os.o(.text)
    raw_event_get                            0x1a001d5b   Thumb Code   264  raw-os.o(.text)
    event_set                                0x1a001e63   Thumb Code   206  raw-os.o(.text)
    raw_event_set                            0x1a001f31   Thumb Code    36  raw-os.o(.text)
    raw_event_delete                         0x1a001f55   Thumb Code   120  raw-os.o(.text)
    raw_mutex_delete                         0x1a001fcd   Thumb Code    98  raw-os.o(.text)
    raw_queue_create                         0x1a00202f   Thumb Code    76  raw-os.o(.text)
    raw_queue_full_register                  0x1a00207b   Thumb Code    44  raw-os.o(.text)
    msg_post                                 0x1a0020a7   Thumb Code   242  raw-os.o(.text)
    raw_queue_front_post                     0x1a002199   Thumb Code    32  raw-os.o(.text)
    raw_queue_end_post                       0x1a0021b9   Thumb Code    32  raw-os.o(.text)
    raw_queue_post_notify                    0x1a0021d9   Thumb Code    32  raw-os.o(.text)
    raw_queue_all_post                       0x1a0021f9   Thumb Code    34  raw-os.o(.text)
    raw_queue_send_notify                    0x1a00221b   Thumb Code    70  raw-os.o(.text)
    raw_queue_receive                        0x1a002261   Thumb Code   210  raw-os.o(.text)
    raw_queue_full_check                     0x1a002333   Thumb Code    70  raw-os.o(.text)
    raw_queue_flush                          0x1a002379   Thumb Code    78  raw-os.o(.text)
    raw_queue_delete                         0x1a0023c7   Thumb Code    96  raw-os.o(.text)
    raw_queue_get_information                0x1a002427   Thumb Code   116  raw-os.o(.text)
    raw_queue_buffer_create                  0x1a00249b   Thumb Code   100  raw-os.o(.text)
    queue_buffer_post                        0x1a0025d3   Thumb Code   152  raw-os.o(.text)
    raw_queue_buffer_end_post                0x1a00266b   Thumb Code    42  raw-os.o(.text)
    raw_queue_buffer_receive                 0x1a002695   Thumb Code   214  raw-os.o(.text)
    raw_queue_buffer_flush                   0x1a00276b   Thumb Code    76  raw-os.o(.text)
    raw_queue_buffer_delete                  0x1a0027b7   Thumb Code    96  raw-os.o(.text)
    raw_queue_buffer_info_get                0x1a002817   Thumb Code    84  raw-os.o(.text)
    raw_queue_size_create                    0x1a00286b   Thumb Code   102  raw-os.o(.text)
    raw_queue_size_full_register             0x1a0028d1   Thumb Code    44  raw-os.o(.text)
    msg_size_post                            0x1a0028fd   Thumb Code   242  raw-os.o(.text)
    raw_queue_size_receive                   0x1a0029ef   Thumb Code   280  raw-os.o(.text)
    raw_queue_size_front_post                0x1a002b07   Thumb Code    38  raw-os.o(.text)
    raw_queue_size_end_post                  0x1a002b2d   Thumb Code    38  raw-os.o(.text)
    raw_queue_size_all_post                  0x1a002b53   Thumb Code    40  raw-os.o(.text)
    raw_queue_size_full_check                0x1a002b7b   Thumb Code    70  raw-os.o(.text)
    raw_queue_size_flush                     0x1a002bc1   Thumb Code    88  raw-os.o(.text)
    raw_queue_size_delete                    0x1a002c19   Thumb Code    96  raw-os.o(.text)
    raw_queue_size_get_information           0x1a002c79   Thumb Code    96  raw-os.o(.text)
    semaphore_put                            0x1a002cd9   Thumb Code   164  raw-os.o(.text)
    raw_semaphore_put                        0x1a002d7d   Thumb Code    20  raw-os.o(.text)
    raw_semaphore_put_notify                 0x1a002d91   Thumb Code    20  raw-os.o(.text)
    raw_semaphore_put_all                    0x1a002da5   Thumb Code    20  raw-os.o(.text)
    raw_semphore_send_notify                 0x1a002db9   Thumb Code    70  raw-os.o(.text)
    raw_semaphore_delete                     0x1a002dff   Thumb Code    96  raw-os.o(.text)
    raw_stack_check                          0x1a002e5f   Thumb Code    86  raw-os.o(.text)
    raw_finish_int                           0x1a002eb5   Thumb Code   118  raw-os.o(.text)
    call_timer_task                          0x1a002f2b   Thumb Code    30  raw-os.o(.text)
    raw_task_semaphore_put                   0x1a002f49   Thumb Code    12  raw-os.o(.text)
    raw_time_tick                            0x1a002f55   Thumb Code    28  raw-os.o(.text)
    raw_enter_interrupt                      0x1a002f71   Thumb Code    80  raw-os.o(.text)
    raw_system_time_get                      0x1a002fc1   Thumb Code     6  raw-os.o(.text)
    raw_system_time_set                      0x1a002fc7   Thumb Code    44  raw-os.o(.text)
    raw_task_qsize_create                    0x1a002ff3   Thumb Code    34  raw-os.o(.text)
    raw_task_qsize_receive                   0x1a003015   Thumb Code    26  raw-os.o(.text)
    raw_task_qsize_front_post                0x1a00302f   Thumb Code    20  raw-os.o(.text)
    raw_task_qsize_end_post                  0x1a003043   Thumb Code    20  raw-os.o(.text)
    raw_task_qsize_flush                     0x1a003057   Thumb Code    12  raw-os.o(.text)
    raw_task_qsize_delete                    0x1a003063   Thumb Code    12  raw-os.o(.text)
    raw_task_qsize_get_information           0x1a00306f   Thumb Code    28  raw-os.o(.text)
    raw_task_semaphore_set                   0x1a00308b   Thumb Code    16  raw-os.o(.text)
    raw_task_semaphore_delete                0x1a00309b   Thumb Code    12  raw-os.o(.text)
    raw_timer_activate                       0x1a0030a7   Thumb Code   134  raw-os.o(.text)
    raw_timer_create                         0x1a00312d   Thumb Code   114  raw-os.o(.text)
    raw_timer_change                         0x1a00319f   Thumb Code   108  raw-os.o(.text)
    raw_timer_deactivate                     0x1a00320b   Thumb Code   112  raw-os.o(.text)
    raw_timer_delete                         0x1a00327b   Thumb Code   156  raw-os.o(.text)
    fifo_init                                0x1a003363   Thumb Code    66  fifo.o(.text)
    fifo_in                                  0x1a0033e9   Thumb Code    78  fifo.o(.text)
    fifo_out_peek                            0x1a0034a5   Thumb Code    50  fifo.o(.text)
    fifo_out                                 0x1a0034d7   Thumb Code    62  fifo.o(.text)
    fifo_out_all                             0x1a003515   Thumb Code    82  fifo.o(.text)
    OS_CPU_SR_Save                           0x1a003569   Thumb Code     0  cpu.o(.text)
    OS_CPU_SR_Restore                        0x1a003571   Thumb Code     0  cpu.o(.text)
    CPU_IntDis                               0x1a003577   Thumb Code     0  cpu.o(.text)
    CPU_IntEn                                0x1a00357b   Thumb Code     0  cpu.o(.text)
    raw_start_first_task                     0x1a00357f   Thumb Code     0  cpu.o(.text)
    port_task_switch                         0x1a0035a7   Thumb Code     0  cpu.o(.text)
    raw_int_switch                           0x1a0035b1   Thumb Code     0  cpu.o(.text)
    PendSV_Handler                           0x1a0035bb   Thumb Code     0  cpu.o(.text)
    port_stack_init                          0x1a00360d   Thumb Code   440  port.o(.text)
    port_isr_stack_check                     0x1a0037c5   Thumb Code     2  port.o(.text)
    raw_os_init_hook                         0x1a0037c7   Thumb Code     2  port_hook.o(.text)
    raw_task_delete_hook                     0x1a0037c9   Thumb Code     2  port_hook.o(.text)
    raw_task_abort_hook                      0x1a0037cb   Thumb Code     2  port_hook.o(.text)
    raw_idle_task_hook                       0x1a0037cd   Thumb Code     2  port_hook.o(.text)
    raw_task_switch_hook                     0x1a0037cf   Thumb Code     2  port_hook.o(.text)
    raw_tick_hook                            0x1a0037d1   Thumb Code     2  port_hook.o(.text)
    task_create_hook                         0x1a0037d3   Thumb Code     2  port_hook.o(.text)
    raw_idle_coroutine_hook                  0x1a0037d5   Thumb Code     4  port_hook.o(.text)
    raw_memcpy                               0x1a0037d9   Thumb Code    90  user_extension.o(.text)
    raw_memset                               0x1a003833   Thumb Code    70  user_extension.o(.text)
    port_system_error_process                0x1a003879   Thumb Code   140  port_error_process.o(.text)
    Reset_Handler                            0x1a003905   Thumb Code     8  keil_startup_lpc18xx43xx.o(.text)
    NMI_Handler                              0x1a00390d   Thumb Code     2  keil_startup_lpc18xx43xx.o(.text)
    HardFault_Handler                        0x1a00390f   Thumb Code     2  keil_startup_lpc18xx43xx.o(.text)
    MemManage_Handler                        0x1a003911   Thumb Code     2  keil_startup_lpc18xx43xx.o(.text)
    BusFault_Handler                         0x1a003913   Thumb Code     2  keil_startup_lpc18xx43xx.o(.text)
    UsageFault_Handler                       0x1a003915   Thumb Code     2  keil_startup_lpc18xx43xx.o(.text)
    SVC_Handler                              0x1a003917   Thumb Code     2  keil_startup_lpc18xx43xx.o(.text)
    DebugMon_Handler                         0x1a003919   Thumb Code     2  keil_startup_lpc18xx43xx.o(.text)
    UnHandled_Vector                         0x1a00391f   Thumb Code     2  keil_startup_lpc18xx43xx.o(.text)
    ADC0_IRQHandler                          0x1a003921   Thumb Code     0  keil_startup_lpc18xx43xx.o(.text)
    ADC1_IRQHandler                          0x1a003921   Thumb Code     0  keil_startup_lpc18xx43xx.o(.text)
    ADCHS_IRQHandler                         0x1a003921   Thumb Code     0  keil_startup_lpc18xx43xx.o(.text)
    ATIMER_IRQHandler                        0x1a003921   Thumb Code     0  keil_startup_lpc18xx43xx.o(.text)
    CAN0_IRQHandler                          0x1a003921   Thumb Code     0  keil_startup_lpc18xx43xx.o(.text)
    CAN1_IRQHandler                          0x1a003921   Thumb Code     0  keil_startup_lpc18xx43xx.o(.text)
    DAC_IRQHandler                           0x1a003921   Thumb Code     0  keil_startup_lpc18xx43xx.o(.text)
    DMA_IRQHandler                           0x1a003921   Thumb Code     0  keil_startup_lpc18xx43xx.o(.text)
    ETH_IRQHandler                           0x1a003921   Thumb Code     0  keil_startup_lpc18xx43xx.o(.text)
    EVRT_IRQHandler                          0x1a003921   Thumb Code     0  keil_startup_lpc18xx43xx.o(.text)
    FLASHEEPROM_IRQHandler                   0x1a003921   Thumb Code     0  keil_startup_lpc18xx43xx.o(.text)
    GINT0_IRQHandler                         0x1a003921   Thumb Code     0  keil_startup_lpc18xx43xx.o(.text)
    GINT1_IRQHandler                         0x1a003921   Thumb Code     0  keil_startup_lpc18xx43xx.o(.text)
    GPIO0_IRQHandler                         0x1a003921   Thumb Code     0  keil_startup_lpc18xx43xx.o(.text)
    GPIO1_IRQHandler                         0x1a003921   Thumb Code     0  keil_startup_lpc18xx43xx.o(.text)
    GPIO2_IRQHandler                         0x1a003921   Thumb Code     0  keil_startup_lpc18xx43xx.o(.text)
    GPIO3_IRQHandler                         0x1a003921   Thumb Code     0  keil_startup_lpc18xx43xx.o(.text)
    GPIO4_IRQHandler                         0x1a003921   Thumb Code     0  keil_startup_lpc18xx43xx.o(.text)
    GPIO5_IRQHandler                         0x1a003921   Thumb Code     0  keil_startup_lpc18xx43xx.o(.text)
    GPIO6_IRQHandler                         0x1a003921   Thumb Code     0  keil_startup_lpc18xx43xx.o(.text)
    GPIO7_IRQHandler                         0x1a003921   Thumb Code     0  keil_startup_lpc18xx43xx.o(.text)
    I2C0_IRQHandler                          0x1a003921   Thumb Code     0  keil_startup_lpc18xx43xx.o(.text)
    I2C1_IRQHandler                          0x1a003921   Thumb Code     0  keil_startup_lpc18xx43xx.o(.text)
    I2S0_IRQHandler                          0x1a003921   Thumb Code     0  keil_startup_lpc18xx43xx.o(.text)
    I2S1_IRQHandler                          0x1a003921   Thumb Code     0  keil_startup_lpc18xx43xx.o(.text)
    LCD_IRQHandler                           0x1a003921   Thumb Code     0  keil_startup_lpc18xx43xx.o(.text)
    MCPWM_IRQHandler                         0x1a003921   Thumb Code     0  keil_startup_lpc18xx43xx.o(.text)
    MX_CORE_IRQHandler                       0x1a003921   Thumb Code     0  keil_startup_lpc18xx43xx.o(.text)
    QEI_IRQHandler                           0x1a003921   Thumb Code     0  keil_startup_lpc18xx43xx.o(.text)
    RIT_IRQHandler                           0x1a003921   Thumb Code     0  keil_startup_lpc18xx43xx.o(.text)
    RTC_IRQHandler                           0x1a003921   Thumb Code     0  keil_startup_lpc18xx43xx.o(.text)
    SCT_IRQHandler                           0x1a003921   Thumb Code     0  keil_startup_lpc18xx43xx.o(.text)
    SDIO_IRQHandler                          0x1a003921   Thumb Code     0  keil_startup_lpc18xx43xx.o(.text)
    SGPIO_IRQHandler                         0x1a003921   Thumb Code     0  keil_startup_lpc18xx43xx.o(.text)
    SPIFI_IRQHandler                         0x1a003921   Thumb Code     0  keil_startup_lpc18xx43xx.o(.text)
    SPI_IRQHandler                           0x1a003921   Thumb Code     0  keil_startup_lpc18xx43xx.o(.text)
    SSP0_IRQHandler                          0x1a003921   Thumb Code     0  keil_startup_lpc18xx43xx.o(.text)
    SSP1_IRQHandler                          0x1a003921   Thumb Code     0  keil_startup_lpc18xx43xx.o(.text)
    TIMER0_IRQHandler                        0x1a003921   Thumb Code     0  keil_startup_lpc18xx43xx.o(.text)
    TIMER1_IRQHandler                        0x1a003921   Thumb Code     0  keil_startup_lpc18xx43xx.o(.text)
    TIMER2_IRQHandler                        0x1a003921   Thumb Code     0  keil_startup_lpc18xx43xx.o(.text)
    TIMER3_IRQHandler                        0x1a003921   Thumb Code     0  keil_startup_lpc18xx43xx.o(.text)
    UART0_IRQHandler                         0x1a003921   Thumb Code     0  keil_startup_lpc18xx43xx.o(.text)
    UART1_IRQHandler                         0x1a003921   Thumb Code     0  keil_startup_lpc18xx43xx.o(.text)
    UART2_IRQHandler                         0x1a003921   Thumb Code     0  keil_startup_lpc18xx43xx.o(.text)
    USB0_IRQHandler                          0x1a003921   Thumb Code     0  keil_startup_lpc18xx43xx.o(.text)
    USB1_IRQHandler                          0x1a003921   Thumb Code     0  keil_startup_lpc18xx43xx.o(.text)
    WDT_IRQHandler                           0x1a003921   Thumb Code     0  keil_startup_lpc18xx43xx.o(.text)
    __user_initial_stackheap                 0x1a003925   Thumb Code     0  keil_startup_lpc18xx43xx.o(.text)
    SystemInit                               0x1a003949   Thumb Code    18  sysinit.o(.text)
    SysTick_Handler                          0x1a003b57   Thumb Code    16  main.o(.text)
    OS_CPU_SysTickInit                       0x1a003b67   Thumb Code    60  main.o(.text)
    uart_3_recv                              0x1a003ba3   Thumb Code    76  main.o(.text)
    UART3_IRQHandler                         0x1a003c29   Thumb Code    16  main.o(.text)
    shell_task                               0x1a003c59   Thumb Code   110  main.o(.text)
    main                                     0x1a003cc7   Thumb Code    54  main.o(.text)
    test_suiteSetErrorBlinkRate              0x1a003fa5   Thumb Code     6  test_suite.o(.text)
    test_suiteError                          0x1a003fab   Thumb Code    36  test_suite.o(.text)
    test_suiteVerifyBlockErased              0x1a003fcf   Thumb Code   200  test_suite.o(.text)
    test_suiteVerifyDeviceErased             0x1a004097   Thumb Code    88  test_suite.o(.text)
    test_suiteLibHelperBattery               0x1a0041f1   Thumb Code  3014  test_suite.o(.text)
    test_suiteGetBuffer                      0x1a004db7   Thumb Code    10  test_suite.o(.text)
    test_suiteVerifyBufferFilledWithValue    0x1a004dc1   Thumb Code    58  test_suite.o(.text)
    test_suiteVerifySubBlockErased           0x1a004dfb   Thumb Code   226  test_suite.o(.text)
    test_suiteEraseSubBlocks                 0x1a004edd   Thumb Code    52  test_suite.o(.text)
    test_suiteWriteSubBlock                  0x1a004f11   Thumb Code    92  test_suite.o(.text)
    test_suiteEraseBlocks                    0x1a004f6d   Thumb Code    36  test_suite.o(.text)
    test_suiteEraseByAddr                    0x1a004f91   Thumb Code    36  test_suite.o(.text)
    test_suiteVerifyPattern                  0x1a004fb5   Thumb Code   878  test_suite.o(.text)
    test_suiteWriteBlock                     0x1a005323   Thumb Code    92  test_suite.o(.text)
    test_suiteFillBuffer                     0x1a00537f   Thumb Code    20  test_suite.o(.text)
    test_suiteLibEraseBattery                0x1a005393   Thumb Code   808  test_suite.o(.text)
    test_suiteValidateDeviceWithAddressPattern 0x1a0056bb   Thumb Code   788  test_suite.o(.text)
    test_suiteFillDeviceWithAddressPattern   0x1a0059cf   Thumb Code   156  test_suite.o(.text)
    test_suiteHighSpeedDataBattery           0x1a005a6b   Thumb Code   438  test_suite.o(.text)
    test_suiteDataBattery                    0x1a005c21   Thumb Code    36  test_suite.o(.text)
    test_suiteLockUnlockBattery              0x1a005c45   Thumb Code   826  test_suite.o(.text)
    test_suiteTimedReadBlock                 0x1a005f7f   Thumb Code    68  test_suite.o(.text)
    test_suiteMemModeTestBattery             0x1a005fc3   Thumb Code    70  test_suite.o(.text)
    test_suiteTimedReadDevice                0x1a006009   Thumb Code   178  test_suite.o(.text)
    test_suitePerformanceBattery             0x1a0060bb   Thumb Code   162  test_suite.o(.text)
    test_suiteDeInitBattery                  0x1a00615d   Thumb Code    68  test_suite.o(.text)
    test_suiteGetErrorBlinkRate              0x1a0061a1   Thumb Code     6  test_suite.o(.text)
    test_suiteCompareTestBuffers             0x1a0061a7   Thumb Code    68  test_suite.o(.text)
    test_suiteBulkEraseDevice                0x1a0061eb   Thumb Code    36  test_suite.o(.text)
    __2printf                                0x1a006509   Thumb Code    20  noretval__2printf.o(.text)
    _printf_pre_padding                      0x1a006521   Thumb Code    44  _printf_pad.o(.text)
    _printf_post_padding                     0x1a00654d   Thumb Code    34  _printf_pad.o(.text)
    _printf_str                              0x1a00656f   Thumb Code    82  _printf_str.o(.text)
    _printf_int_dec                          0x1a0065c1   Thumb Code   104  _printf_dec.o(.text)
    _printf_int_hex                          0x1a006639   Thumb Code    84  _printf_hex_int.o(.text)
    _printf_longlong_hex                     0x1a006639   Thumb Code     0  _printf_hex_int.o(.text)
    __printf                                 0x1a006691   Thumb Code   308  __printf_flags_wp.o(.text)
    __aeabi_memcpy                           0x1a0067c9   Thumb Code     0  rt_memcpy_v6.o(.text)
    __rt_memcpy                              0x1a0067c9   Thumb Code   138  rt_memcpy_v6.o(.text)
    _memcpy_lastbytes                        0x1a00682f   Thumb Code     0  rt_memcpy_v6.o(.text)
    __use_two_region_memory                  0x1a006853   Thumb Code     2  heapauxi.o(.text)
    __rt_heap_escrow$2region                 0x1a006855   Thumb Code     2  heapauxi.o(.text)
    __rt_heap_expand$2region                 0x1a006857   Thumb Code     2  heapauxi.o(.text)
    _printf_int_common                       0x1a006859   Thumb Code   178  _printf_intcommon.o(.text)
    _printf_cs_common                        0x1a00690b   Thumb Code    20  _printf_char.o(.text)
    _printf_char                             0x1a00691f   Thumb Code    16  _printf_char.o(.text)
    _printf_string                           0x1a00692f   Thumb Code     8  _printf_char.o(.text)
    _printf_char_file                        0x1a006939   Thumb Code    32  _printf_char_file.o(.text)
    __aeabi_memcpy4                          0x1a00695d   Thumb Code     0  rt_memcpy_w.o(.text)
    __aeabi_memcpy8                          0x1a00695d   Thumb Code     0  rt_memcpy_w.o(.text)
    __rt_memcpy_w                            0x1a00695d   Thumb Code   100  rt_memcpy_w.o(.text)
    _memcpy_lastbytes_aligned                0x1a0069a5   Thumb Code     0  rt_memcpy_w.o(.text)
    _printf_char_common                      0x1a0069cb   Thumb Code    32  _printf_char_common.o(.text)
    __user_setup_stackheap                   0x1a0069f1   Thumb Code    74  sys_stackheap_outer.o(.text)
    exit                                     0x1a006a3b   Thumb Code    18  exit.o(.text)
    __user_libspace                          0x1a006a4d   Thumb Code     8  libspace.o(.text)
    __user_perproc_libspace                  0x1a006a4d   Thumb Code     0  libspace.o(.text)
    __user_perthread_libspace                0x1a006a4d   Thumb Code     0  libspace.o(.text)
    Board_SetupClocking                      0x1a006a55   Thumb Code   158  board_sysinit.o(i.Board_SetupClocking)
    Board_SetupMuxing                        0x1a006b09   Thumb Code    58  board_sysinit.o(i.Board_SetupMuxing)
    Board_SystemInit                         0x1a006b55   Thumb Code    12  board_sysinit.o(i.Board_SystemInit)
    Board_UARTPutChar                        0x1a006b61   Thumb Code    26  board.o(i.Board_UARTPutChar)
    Board_UART_Init                          0x1a006b81   Thumb Code    60  board.o(i.Board_UART_Init)
    Chip_Clock_Enable                        0x1a006bc5   Thumb Code    46  clock_18xx_43xx.o(i.Chip_Clock_Enable)
    Chip_Clock_EnableOpts                    0x1a006bfd   Thumb Code    52  clock_18xx_43xx.o(i.Chip_Clock_EnableOpts)
    Chip_Clock_GetBaseClock                  0x1a006c89   Thumb Code    32  clock_18xx_43xx.o(i.Chip_Clock_GetBaseClock)
    Chip_Clock_GetBaseClocktHz               0x1a006cad   Thumb Code    18  clock_18xx_43xx.o(i.Chip_Clock_GetBaseClocktHz)
    Chip_Clock_GetClockInputHz               0x1a006cc1   Thumb Code   182  clock_18xx_43xx.o(i.Chip_Clock_GetClockInputHz)
    Chip_Clock_GetDividerDivisor             0x1a006dbd   Thumb Code    18  clock_18xx_43xx.o(i.Chip_Clock_GetDividerDivisor)
    Chip_Clock_GetDividerSource              0x1a006ddd   Thumb Code    26  clock_18xx_43xx.o(i.Chip_Clock_GetDividerSource)
    Chip_Clock_GetMainPLLHz                  0x1a006dfd   Thumb Code   110  clock_18xx_43xx.o(i.Chip_Clock_GetMainPLLHz)
    Chip_Clock_GetRate                       0x1a006e75   Thumb Code    78  clock_18xx_43xx.o(i.Chip_Clock_GetRate)
    Chip_Clock_SetBaseClock                  0x1a006ecd   Thumb Code    64  clock_18xx_43xx.o(i.Chip_Clock_SetBaseClock)
    Chip_Clock_SetDivider                    0x1a006f15   Thumb Code    64  clock_18xx_43xx.o(i.Chip_Clock_SetDivider)
    Chip_SetupCoreClock                      0x1a006fa5   Thumb Code    14  sysinit_18xx_43xx.o(i.Chip_SetupCoreClock)
    Chip_TIMER_Init                          0x1a006fe5   Thumb Code    18  timer_18xx_43xx.o(i.Chip_TIMER_Init)
    Chip_UART_Init                           0x1a00703d   Thumb Code    72  uart_18xx_43xx.o(i.Chip_UART_Init)
    Chip_UART_SetBaud                        0x1a007089   Thumb Code    66  uart_18xx_43xx.o(i.Chip_UART_SetBaud)
    StopWatch_Init                           0x1a0070d1   Thumb Code    76  stopwatch_18xx_43xx.o(i.StopWatch_Init)
    StopWatch_Start                          0x1a007131   Thumb Code     8  stopwatch_18xx_43xx.o(i.StopWatch_Start)
    StopWatch_TicksToMs                      0x1a00713d   Thumb Code    12  stopwatch_18xx_43xx.o(i.StopWatch_TicksToMs)
    SystemCoreClockUpdate                    0x1a00714d   Thumb Code    14  chip_18xx_43xx.o(i.SystemCoreClockUpdate)
    _is_digit                                0x1a007161   Thumb Code    14  __printf_wp.o(i._is_digit)
    _sys_exit                                0x1a00716f   Thumb Code     6  board.o(i._sys_exit)
    ferror                                   0x1a007255   Thumb Code     8  board.o(i.ferror)
    fpuInit                                  0x1a00725d   Thumb Code    62  fpu_init.o(i.fpuInit)
    fputc                                    0x1a0072ad   Thumb Code    20  board.o(i.fputc)
    spifiDevDeInit                           0x1a0072c1   Thumb Code    28  spifilib_dev_common.o(i.spifiDevDeInit)
    spifiDevGetInfo                          0x1a0072dd   Thumb Code   206  spifilib_dev_common.o(i.spifiDevGetInfo)
    spifiDevGetMemoryMode                    0x1a0073b1   Thumb Code    12  spifilib_dev_common.o(i.spifiDevGetMemoryMode)
    spifiDevInit                             0x1a0073bd   Thumb Code    28  spifilib_dev_common.o(i.spifiDevInit)
    spifiDevRegister                         0x1a0073d9   Thumb Code    28  spifilib_dev_common.o(i.spifiDevRegister)
    spifiDevSetMemMode                       0x1a0073f5   Thumb Code   110  spifilib_dev_common.o(i.spifiDevSetMemMode)
    spifiDevSetOpts                          0x1a007463   Thumb Code   132  spifilib_dev_common.o(i.spifiDevSetOpts)
    spifiErase                               0x1a00775d   Thumb Code    48  spifilib_dev_common.o(i.spifiErase)
    spifiEraseByAddr                         0x1a00778d   Thumb Code    48  spifilib_dev_common.o(i.spifiEraseByAddr)
    spifiGetAddrFromBlock                    0x1a007c0f   Thumb Code    24  spifilib_dev_common.o(i.spifiGetAddrFromBlock)
    spifiGetAddrFromSubBlock                 0x1a007c27   Thumb Code    46  spifilib_dev_common.o(i.spifiGetAddrFromSubBlock)
    spifiGetBlockFromAddr                    0x1a007c55   Thumb Code    24  spifilib_dev_common.o(i.spifiGetBlockFromAddr)
    spifiGetHandleMemSize                    0x1a007c6d   Thumb Code    22  spifilib_dev_common.o(i.spifiGetHandleMemSize)
    spifiGetLibVersion                       0x1a007c83   Thumb Code     6  spifilib_dev_common.o(i.spifiGetLibVersion)
    spifiGetSubBlockFromAddr                 0x1a007c89   Thumb Code    48  spifilib_dev_common.o(i.spifiGetSubBlockFromAddr)
    spifiGetSubBlockFromBlock                0x1a007cb9   Thumb Code    42  spifilib_dev_common.o(i.spifiGetSubBlockFromBlock)
    spifiGetSuppFamilyCount                  0x1a007ce5   Thumb Code     6  spifilib_dev_common.o(i.spifiGetSuppFamilyCount)
    spifiGetSuppFamilyName                   0x1a007cf1   Thumb Code    36  spifilib_dev_common.o(i.spifiGetSuppFamilyName)
    spifiInit                                0x1a007d1d   Thumb Code    30  spifilib_dev_common.o(i.spifiInit)
    spifiInitDevice                          0x1a007d41   Thumb Code   190  spifilib_dev_common.o(i.spifiInitDevice)
    spifiProgram                             0x1a007dff   Thumb Code    70  spifilib_dev_common.o(i.spifiProgram)
    spifiRead                                0x1a007fdf   Thumb Code    70  spifilib_dev_common.o(i.spifiRead)
    spifiRegisterFamily                      0x1a008025   Thumb Code    26  spifilib_dev_common.o(i.spifiRegisterFamily)
    spifiReturnErrString                     0x1a008045   Thumb Code    16  spifilib_dev_common.o(i.spifiReturnErrString)
    spifi_REG_FAMILY_CommonCommandSet        0x1a008069   Thumb Code   328  spifilib_fam_standard_cmd.o(i.spifi_REG_FAMILY_CommonCommandSet)
    _fp_init                                 0x1a0081e9   Thumb Code    10  fpinit.o(x$fpl$fpinit)
    __fplib_config_fpu_vfp                   0x1a0081f1   Thumb Code     0  fpinit.o(x$fpl$fpinit)
    __fplib_config_pureend_doubles           0x1a0081f1   Thumb Code     0  fpinit.o(x$fpl$fpinit)
    ad_left                                  0x1a008220   Data           4  board.o(.constdata)
    ad_top                                   0x1a008224   Data           4  board.o(.constdata)
    ad_right                                 0x1a008228   Data           4  board.o(.constdata)
    ad_bottom                                0x1a00822c   Data           4  board.o(.constdata)
    MCB4300_LCD                              0x1a008230   Data          22  board.o(.constdata)
    ExtRateIn                                0x1a008248   Data           4  board.o(.constdata)
    OscRateIn                                0x1a00824c   Data           4  board.o(.constdata)
    Region$$Table$$Base                      0x1a008c10   Number         0  anon$$obj.o(Region$$Table)
    Region$$Table$$Limit                     0x1a008c40   Number         0  anon$$obj.o(Region$$Table)
    raw_os_active                            0x20000000   Data           1  raw-os.o(.data)
    idle_task_exit                           0x20000001   Data           1  raw-os.o(.data)
    raw_sched_lock                           0x20000002   Data           1  raw-os.o(.data)
    raw_int_nesting                          0x20000003   Data           1  raw-os.o(.data)
    high_ready_obj                           0x20000004   Data           4  raw-os.o(.data)
    raw_task_active                          0x20000008   Data           4  raw-os.o(.data)
    raw_idle_count                           0x20000010   Data           8  raw-os.o(.data)
    raw_tick_count                           0x20000018   Data           4  raw-os.o(.data)
    tick_head                                0x2000001c   Data           8  raw-os.o(.data)
    timer_head                               0x20000024   Data           8  raw-os.o(.data)
    raw_timer_count                          0x2000002c   Data           4  raw-os.o(.data)
    raw_timer_ctrl                           0x20000030   Data           4  raw-os.o(.data)
    mutex_recursion_levels                   0x20000034   Data           1  raw-os.o(.data)
    mutex_recursion_max_levels               0x20000035   Data           1  raw-os.o(.data)
    raw_task_debug                           0x20000038   Data           8  raw-os.o(.data)
    __stdout                                 0x20000044   Data           4  board.o(.data)
    __stdin                                  0x20000048   Data           4  board.o(.data)
    __stderr                                 0x2000004c   Data           4  board.o(.data)
    g_isPenDn                                0x20000050   Data           4  board.o(.data)
    g_isNewPenDn                             0x20000054   Data           4  board.o(.data)
    SystemCoreClock                          0x20000058   Data           4  chip_18xx_43xx.o(.data)
    raw_ready_queue                          0x20000144   Data         508  raw-os.o(.bss)
    raw_idle_obj                             0x20000340   Data         112  raw-os.o(.bss)
    idle_stack                               0x200003b0   Data        1024  raw-os.o(.bss)
    raw_timer_obj                            0x200007b0   Data         112  raw-os.o(.bss)
    timer_task_stack                         0x20000820   Data        1024  raw-os.o(.bss)
    timer_sem                                0x20000c20   Data          28  raw-os.o(.bss)
    timer_mutex                              0x20000c3c   Data          28  raw-os.o(.bss)
    tick_task_obj                            0x20000c58   Data         112  raw-os.o(.bss)
    tick_task_stack                          0x20000cc8   Data        1024  raw-os.o(.bss)
    tick_semaphore_obj                       0x200010c8   Data          28  raw-os.o(.bss)
    shell_task_stack                         0x200010e4   Data        8000  main.o(.bss)
    shell_task_obj                           0x20003024   Data         112  main.o(.bss)
    uart_sema                                0x20003094   Data          28  main.o(.bss)
    uart_fifo                                0x200030b0   Data          24  main.o(.bss)
    __libspace_start                         0x20003244   Data          96  libspace.o(.bss)
    __temporary_stack_top$libspace           0x200032a4   Data           0  libspace.o(.bss)



==============================================================================

Memory Map of the image

  Image Entry point : 0x1a000115

  Load Region LR_IROM1 (Base: 0x1a000000, Size: 0x00008d84, Max: 0x00080000, ABSOLUTE, COMPRESSED[0x00008c74])

    Execution Region RW_IRAM1 (Base: 0x10000000, Size: 0x00006000, Max: 0x00008000, ABSOLUTE)

    Base Addr    Size         Type   Attr      Idx    E Section Name        Object

    0x10000000   0x00006000   Zero   RW          659    .bss                test_suite.o


    Execution Region ER_IROM1 (Base: 0x1a000000, Size: 0x00008c40, Max: 0x00080000, ABSOLUTE)

    Base Addr    Size         Type   Attr      Idx    E Section Name        Object

    0x1a000000   0x00000114   Data   RO          317    RESET               keil_startup_lpc18xx43xx.o
    0x1a000114   0x00000008   Code   RO         3198  * !!!main             c_w.l(__main.o)
    0x1a00011c   0x00000034   Code   RO         3378    !!!scatter          c_w.l(__scatter.o)
    0x1a000150   0x0000005a   Code   RO         3376    !!dczerorl2         c_w.l(__dczerorl2.o)
    0x1a0001aa   0x00000002   PAD
    0x1a0001ac   0x0000001c   Code   RO         3380    !!handler_zi        c_w.l(__scatter_zi.o)
    0x1a0001c8   0x00000000   Code   RO         3191    .ARM.Collect$$_printf_percent$$00000000  c_w.l(_printf_percent.o)
    0x1a0001c8   0x00000006   Code   RO         3190    .ARM.Collect$$_printf_percent$$00000009  c_w.l(_printf_d.o)
    0x1a0001ce   0x00000006   Code   RO         3189    .ARM.Collect$$_printf_percent$$0000000C  c_w.l(_printf_x.o)
    0x1a0001d4   0x00000006   Code   RO         3188    .ARM.Collect$$_printf_percent$$00000014  c_w.l(_printf_s.o)
    0x1a0001da   0x00000004   Code   RO         3211    .ARM.Collect$$_printf_percent$$00000017  c_w.l(_printf_percent_end.o)
    0x1a0001de   0x00000002   Code   RO         3248    .ARM.Collect$$libinit$$00000000  c_w.l(libinit.o)
    0x1a0001e0   0x00000004   Code   RO         3260    .ARM.Collect$$libinit$$00000001  c_w.l(libinit2.o)
    0x1a0001e4   0x00000000   Code   RO         3263    .ARM.Collect$$libinit$$00000004  c_w.l(libinit2.o)
    0x1a0001e4   0x00000000   Code   RO         3266    .ARM.Collect$$libinit$$0000000A  c_w.l(libinit2.o)
    0x1a0001e4   0x00000000   Code   RO         3268    .ARM.Collect$$libinit$$0000000C  c_w.l(libinit2.o)
    0x1a0001e4   0x00000000   Code   RO         3270    .ARM.Collect$$libinit$$0000000E  c_w.l(libinit2.o)
    0x1a0001e4   0x00000000   Code   RO         3273    .ARM.Collect$$libinit$$00000011  c_w.l(libinit2.o)
    0x1a0001e4   0x00000000   Code   RO         3275    .ARM.Collect$$libinit$$00000013  c_w.l(libinit2.o)
    0x1a0001e4   0x00000000   Code   RO         3277    .ARM.Collect$$libinit$$00000015  c_w.l(libinit2.o)
    0x1a0001e4   0x00000000   Code   RO         3279    .ARM.Collect$$libinit$$00000017  c_w.l(libinit2.o)
    0x1a0001e4   0x00000000   Code   RO         3281    .ARM.Collect$$libinit$$00000019  c_w.l(libinit2.o)
    0x1a0001e4   0x00000000   Code   RO         3283    .ARM.Collect$$libinit$$0000001B  c_w.l(libinit2.o)
    0x1a0001e4   0x00000000   Code   RO         3285    .ARM.Collect$$libinit$$0000001D  c_w.l(libinit2.o)
    0x1a0001e4   0x00000000   Code   RO         3287    .ARM.Collect$$libinit$$0000001F  c_w.l(libinit2.o)
    0x1a0001e4   0x00000000   Code   RO         3289    .ARM.Collect$$libinit$$00000021  c_w.l(libinit2.o)
    0x1a0001e4   0x00000000   Code   RO         3291    .ARM.Collect$$libinit$$00000023  c_w.l(libinit2.o)
    0x1a0001e4   0x00000000   Code   RO         3293    .ARM.Collect$$libinit$$00000025  c_w.l(libinit2.o)
    0x1a0001e4   0x00000000   Code   RO         3297    .ARM.Collect$$libinit$$0000002C  c_w.l(libinit2.o)
    0x1a0001e4   0x00000000   Code   RO         3299    .ARM.Collect$$libinit$$0000002E  c_w.l(libinit2.o)
    0x1a0001e4   0x00000000   Code   RO         3301    .ARM.Collect$$libinit$$00000030  c_w.l(libinit2.o)
    0x1a0001e4   0x00000000   Code   RO         3303    .ARM.Collect$$libinit$$00000032  c_w.l(libinit2.o)
    0x1a0001e4   0x00000002   Code   RO         3304    .ARM.Collect$$libinit$$00000033  c_w.l(libinit2.o)
    0x1a0001e6   0x00000002   Code   RO         3330    .ARM.Collect$$libshutdown$$00000000  c_w.l(libshutdown.o)
    0x1a0001e8   0x00000000   Code   RO         3359    .ARM.Collect$$libshutdown$$00000002  c_w.l(libshutdown2.o)
    0x1a0001e8   0x00000000   Code   RO         3361    .ARM.Collect$$libshutdown$$00000004  c_w.l(libshutdown2.o)
    0x1a0001e8   0x00000000   Code   RO         3364    .ARM.Collect$$libshutdown$$00000007  c_w.l(libshutdown2.o)
    0x1a0001e8   0x00000000   Code   RO         3367    .ARM.Collect$$libshutdown$$0000000A  c_w.l(libshutdown2.o)
    0x1a0001e8   0x00000000   Code   RO         3369    .ARM.Collect$$libshutdown$$0000000C  c_w.l(libshutdown2.o)
    0x1a0001e8   0x00000000   Code   RO         3372    .ARM.Collect$$libshutdown$$0000000F  c_w.l(libshutdown2.o)
    0x1a0001e8   0x00000002   Code   RO         3373    .ARM.Collect$$libshutdown$$00000010  c_w.l(libshutdown2.o)
    0x1a0001ea   0x00000000   Code   RO         3200    .ARM.Collect$$rtentry$$00000000  c_w.l(__rtentry.o)
    0x1a0001ea   0x00000000   Code   RO         3215    .ARM.Collect$$rtentry$$00000002  c_w.l(__rtentry2.o)
    0x1a0001ea   0x00000006   Code   RO         3227    .ARM.Collect$$rtentry$$00000004  c_w.l(__rtentry4.o)
    0x1a0001f0   0x00000000   Code   RO         3217    .ARM.Collect$$rtentry$$00000009  c_w.l(__rtentry2.o)
    0x1a0001f0   0x00000004   Code   RO         3218    .ARM.Collect$$rtentry$$0000000A  c_w.l(__rtentry2.o)
    0x1a0001f4   0x00000000   Code   RO         3220    .ARM.Collect$$rtentry$$0000000C  c_w.l(__rtentry2.o)
    0x1a0001f4   0x00000008   Code   RO         3221    .ARM.Collect$$rtentry$$0000000D  c_w.l(__rtentry2.o)
    0x1a0001fc   0x00000002   Code   RO         3252    .ARM.Collect$$rtexit$$00000000  c_w.l(rtexit.o)
    0x1a0001fe   0x00000000   Code   RO         3306    .ARM.Collect$$rtexit$$00000002  c_w.l(rtexit2.o)
    0x1a0001fe   0x00000004   Code   RO         3307    .ARM.Collect$$rtexit$$00000003  c_w.l(rtexit2.o)
    0x1a000202   0x00000006   Code   RO         3308    .ARM.Collect$$rtexit$$00000004  c_w.l(rtexit2.o)
    0x1a000208   0x00003138   Code   RO            1    .text               raw-os.o
    0x1a003340   0x00000226   Code   RO          168    .text               fifo.o
    0x1a003566   0x00000002   PAD
    0x1a003568   0x000000a4   Code   RO          257    .text               cpu.o
    0x1a00360c   0x000001ba   Code   RO          261    .text               port.o
    0x1a0037c6   0x00000012   Code   RO          273    .text               port_hook.o
    0x1a0037d8   0x000000a0   Code   RO          291    .text               user_extension.o
    0x1a003878   0x0000008c   Code   RO          303    .text               port_error_process.o
    0x1a003904   0x00000044   Code   RO          318    .text               keil_startup_lpc18xx43xx.o
    0x1a003948   0x0000001c   Code   RO          324    .text               sysinit.o
    0x1a003964   0x000005e4   Code   RO          613    .text               main.o
    0x1a003f48   0x000025c0   Code   RO          658    .text               test_suite.o
    0x1a006508   0x00000018   Code   RO         3137    .text               c_w.l(noretval__2printf.o)
    0x1a006520   0x0000004e   Code   RO         3141    .text               c_w.l(_printf_pad.o)
    0x1a00656e   0x00000052   Code   RO         3143    .text               c_w.l(_printf_str.o)
    0x1a0065c0   0x00000078   Code   RO         3145    .text               c_w.l(_printf_dec.o)
    0x1a006638   0x00000058   Code   RO         3150    .text               c_w.l(_printf_hex_int.o)
    0x1a006690   0x00000138   Code   RO         3180    .text               c_w.l(__printf_flags_wp.o)
    0x1a0067c8   0x0000008a   Code   RO         3192    .text               c_w.l(rt_memcpy_v6.o)
    0x1a006852   0x00000006   Code   RO         3196    .text               c_w.l(heapauxi.o)
    0x1a006858   0x000000b2   Code   RO         3205    .text               c_w.l(_printf_intcommon.o)
    0x1a00690a   0x0000002c   Code   RO         3207    .text               c_w.l(_printf_char.o)
    0x1a006936   0x00000002   PAD
    0x1a006938   0x00000024   Code   RO         3209    .text               c_w.l(_printf_char_file.o)
    0x1a00695c   0x00000064   Code   RO         3212    .text               c_w.l(rt_memcpy_w.o)
    0x1a0069c0   0x00000030   Code   RO         3231    .text               c_w.l(_printf_char_common.o)
    0x1a0069f0   0x0000004a   Code   RO         3233    .text               c_w.l(sys_stackheap_outer.o)
    0x1a006a3a   0x00000012   Code   RO         3237    .text               c_w.l(exit.o)
    0x1a006a4c   0x00000008   Code   RO         3249    .text               c_w.l(libspace.o)
    0x1a006a54   0x000000b4   Code   RO         1217    i.Board_SetupClocking  lib_lpc_board_keil_mcb_4357.lib(board_sysinit.o)
    0x1a006b08   0x0000004c   Code   RO         1219    i.Board_SetupMuxing  lib_lpc_board_keil_mcb_4357.lib(board_sysinit.o)
    0x1a006b54   0x0000000c   Code   RO         1220    i.Board_SystemInit  lib_lpc_board_keil_mcb_4357.lib(board_sysinit.o)
    0x1a006b60   0x00000020   Code   RO          740    i.Board_UARTPutChar  lib_lpc_board_keil_mcb_4357.lib(board.o)
    0x1a006b80   0x00000044   Code   RO          742    i.Board_UART_Init   lib_lpc_board_keil_mcb_4357.lib(board.o)
    0x1a006bc4   0x00000038   Code   RO         2225    i.Chip_Clock_Enable  lib_lpc_chip_43xx.lib(clock_18xx_43xx.o)
    0x1a006bfc   0x0000003c   Code   RO         2229    i.Chip_Clock_EnableOpts  lib_lpc_chip_43xx.lib(clock_18xx_43xx.o)
    0x1a006c38   0x00000050   Code   RO         2231    i.Chip_Clock_FindBaseClock  lib_lpc_chip_43xx.lib(clock_18xx_43xx.o)
    0x1a006c88   0x00000024   Code   RO         2232    i.Chip_Clock_GetBaseClock  lib_lpc_chip_43xx.lib(clock_18xx_43xx.o)
    0x1a006cac   0x00000012   Code   RO         2234    i.Chip_Clock_GetBaseClocktHz  lib_lpc_chip_43xx.lib(clock_18xx_43xx.o)
    0x1a006cbe   0x00000002   PAD
    0x1a006cc0   0x000000d4   Code   RO         2235    i.Chip_Clock_GetClockInputHz  lib_lpc_chip_43xx.lib(clock_18xx_43xx.o)
    0x1a006d94   0x00000028   Code   RO         2236    i.Chip_Clock_GetDivRate  lib_lpc_chip_43xx.lib(clock_18xx_43xx.o)
    0x1a006dbc   0x00000020   Code   RO         2237    i.Chip_Clock_GetDividerDivisor  lib_lpc_chip_43xx.lib(clock_18xx_43xx.o)
    0x1a006ddc   0x00000020   Code   RO         2238    i.Chip_Clock_GetDividerSource  lib_lpc_chip_43xx.lib(clock_18xx_43xx.o)
    0x1a006dfc   0x00000078   Code   RO         2240    i.Chip_Clock_GetMainPLLHz  lib_lpc_chip_43xx.lib(clock_18xx_43xx.o)
    0x1a006e74   0x00000058   Code   RO         2242    i.Chip_Clock_GetRate  lib_lpc_chip_43xx.lib(clock_18xx_43xx.o)
    0x1a006ecc   0x00000048   Code   RO         2246    i.Chip_Clock_SetBaseClock  lib_lpc_chip_43xx.lib(clock_18xx_43xx.o)
    0x1a006f14   0x00000050   Code   RO         2247    i.Chip_Clock_SetDivider  lib_lpc_chip_43xx.lib(clock_18xx_43xx.o)
    0x1a006f64   0x00000010   Code   RO          748    i.Chip_SCU_PinMuxSet  lib_lpc_board_keil_mcb_4357.lib(board.o)
    0x1a006f74   0x00000030   Code   RO         1221    i.Chip_SCU_SetPinMuxing  lib_lpc_board_keil_mcb_4357.lib(board_sysinit.o)
    0x1a006fa4   0x0000000e   Code   RO         3026    i.Chip_SetupCoreClock  lib_lpc_chip_43xx.lib(sysinit_18xx_43xx.o)
    0x1a006fb2   0x00000002   PAD
    0x1a006fb4   0x00000030   Code   RO         2985    i.Chip_TIMER_GetClockIndex  lib_lpc_chip_43xx.lib(timer_18xx_43xx.o)
    0x1a006fe4   0x00000012   Code   RO         2986    i.Chip_TIMER_Init   lib_lpc_chip_43xx.lib(timer_18xx_43xx.o)
    0x1a006ff6   0x0000000a   Code   RO         1519    i.Chip_UART_DisableDivisorAccess  lib_lpc_chip_43xx.lib(uart_18xx_43xx.o)
    0x1a007000   0x0000000a   Code   RO         1520    i.Chip_UART_EnableDivisorAccess  lib_lpc_chip_43xx.lib(uart_18xx_43xx.o)
    0x1a00700a   0x00000002   PAD
    0x1a00700c   0x00000030   Code   RO         1522    i.Chip_UART_GetClockIndex  lib_lpc_chip_43xx.lib(uart_18xx_43xx.o)
    0x1a00703c   0x0000004c   Code   RO         1524    i.Chip_UART_Init    lib_lpc_chip_43xx.lib(uart_18xx_43xx.o)
    0x1a007088   0x00000042   Code   RO         1536    i.Chip_UART_SetBaud  lib_lpc_chip_43xx.lib(uart_18xx_43xx.o)
    0x1a0070ca   0x00000006   Code   RO         1538    i.Chip_UART_SetDivisorLatches  lib_lpc_chip_43xx.lib(uart_18xx_43xx.o)
    0x1a0070d0   0x00000060   Code   RO         1690    i.StopWatch_Init    lib_lpc_chip_43xx.lib(stopwatch_18xx_43xx.o)
    0x1a007130   0x0000000c   Code   RO         1692    i.StopWatch_Start   lib_lpc_chip_43xx.lib(stopwatch_18xx_43xx.o)
    0x1a00713c   0x00000010   Code   RO         1694    i.StopWatch_TicksToMs  lib_lpc_chip_43xx.lib(stopwatch_18xx_43xx.o)
    0x1a00714c   0x00000014   Code   RO         1295    i.SystemCoreClockUpdate  lib_lpc_chip_43xx.lib(chip_18xx_43xx.o)
    0x1a007160   0x0000000e   Code   RO         3178    i._is_digit         c_w.l(__printf_wp.o)
    0x1a00716e   0x00000006   Code   RO          750    i._sys_exit         lib_lpc_board_keil_mcb_4357.lib(board.o)
    0x1a007174   0x00000024   Code   RO         3030    i.clock_init_delay  lib_lpc_chip_43xx.lib(sysinit_18xx_43xx.o)
    0x1a007198   0x000000bc   Code   RO         3031    i.clock_main_init   lib_lpc_chip_43xx.lib(sysinit_18xx_43xx.o)
    0x1a007254   0x00000008   Code   RO          754    i.ferror            lib_lpc_board_keil_mcb_4357.lib(board.o)
    0x1a00725c   0x00000050   Code   RO         1754    i.fpuInit           lib_lpc_chip_43xx.lib(fpu_init.o)
    0x1a0072ac   0x00000014   Code   RO          756    i.fputc             lib_lpc_board_keil_mcb_4357.lib(board.o)
    0x1a0072c0   0x0000001c   Code   RO         1775    i.spifiDevDeInit    lib_lpcspifi_M4F.lib(spifilib_dev_common.o)
    0x1a0072dc   0x000000d4   Code   RO         1777    i.spifiDevGetInfo   lib_lpcspifi_M4F.lib(spifilib_dev_common.o)
    0x1a0073b0   0x0000000c   Code   RO         1778    i.spifiDevGetMemoryMode  lib_lpcspifi_M4F.lib(spifilib_dev_common.o)
    0x1a0073bc   0x0000001c   Code   RO         1779    i.spifiDevInit      lib_lpcspifi_M4F.lib(spifilib_dev_common.o)
    0x1a0073d8   0x0000001c   Code   RO         1780    i.spifiDevRegister  lib_lpcspifi_M4F.lib(spifilib_dev_common.o)
    0x1a0073f4   0x0000006e   Code   RO         1781    i.spifiDevSetMemMode  lib_lpcspifi_M4F.lib(spifilib_dev_common.o)
    0x1a007462   0x00000084   Code   RO         1782    i.spifiDevSetOpts   lib_lpcspifi_M4F.lib(spifilib_dev_common.o)
    0x1a0074e6   0x00000002   PAD
    0x1a0074e8   0x0000002c   Code   RO         1971    i.spifiDevice4BInitReadCommand  lib_lpcspifi_M4F.lib(spifilib_fam_standard_cmd.o)
    0x1a007514   0x0000001c   Code   RO         1972    i.spifiDevice4BInitWriteCommand  lib_lpcspifi_M4F.lib(spifilib_fam_standard_cmd.o)
    0x1a007530   0x00000002   Code   RO         1973    i.spifiDeviceDataClearStatusNone  lib_lpcspifi_M4F.lib(spifilib_fam_standard_cmd.o)
    0x1a007532   0x00000002   PAD
    0x1a007534   0x00000014   Code   RO         1974    i.spifiDeviceDataClearStatusS25FL032P  lib_lpcspifi_M4F.lib(spifilib_fam_standard_cmd.o)
    0x1a007548   0x00000018   Code   RO         1975    i.spifiDeviceDataGetStatusMX25L3235E  lib_lpcspifi_M4F.lib(spifilib_fam_standard_cmd.o)
    0x1a007560   0x00000048   Code   RO         1976    i.spifiDeviceDataGetStatusS25FL032P  lib_lpcspifi_M4F.lib(spifilib_fam_standard_cmd.o)
    0x1a0075a8   0x00000038   Code   RO         1977    i.spifiDeviceDataGetStatusS25FL164K  lib_lpcspifi_M4F.lib(spifilib_fam_standard_cmd.o)
    0x1a0075e0   0x00000038   Code   RO         1978    i.spifiDeviceDataGetStatusW25Q80BV  lib_lpcspifi_M4F.lib(spifilib_fam_standard_cmd.o)
    0x1a007618   0x00000004   Code   RO         1979    i.spifiDeviceDataInitDeinit  lib_lpcspifi_M4F.lib(spifilib_fam_standard_cmd.o)
    0x1a00761c   0x0000001e   Code   RO         1980    i.spifiDeviceDataInitDeinitS25FL164K  lib_lpcspifi_M4F.lib(spifilib_fam_standard_cmd.o)
    0x1a00763a   0x00000014   Code   RO         1981    i.spifiDeviceDataSetOptsQuadModeBit6  lib_lpcspifi_M4F.lib(spifilib_fam_standard_cmd.o)
    0x1a00764e   0x00000014   Code   RO         1982    i.spifiDeviceDataSetOptsQuadModeBit9  lib_lpcspifi_M4F.lib(spifilib_fam_standard_cmd.o)
    0x1a007662   0x00000002   PAD
    0x1a007664   0x0000002c   Code   RO         1983    i.spifiDeviceDataSetStatusMX25L3235E  lib_lpcspifi_M4F.lib(spifilib_fam_standard_cmd.o)
    0x1a007690   0x00000030   Code   RO         1984    i.spifiDeviceDataSetStatusS25FL032P  lib_lpcspifi_M4F.lib(spifilib_fam_standard_cmd.o)
    0x1a0076c0   0x00000034   Code   RO         1985    i.spifiDeviceDataSetStatusS25FL164K  lib_lpcspifi_M4F.lib(spifilib_fam_standard_cmd.o)
    0x1a0076f4   0x00000002   Code   RO         1986    i.spifiDeviceFxError  lib_lpcspifi_M4F.lib(spifilib_fam_standard_cmd.o)
    0x1a0076f6   0x00000002   PAD
    0x1a0076f8   0x0000002c   Code   RO         1987    i.spifiDeviceInitReadCommand  lib_lpcspifi_M4F.lib(spifilib_fam_standard_cmd.o)
    0x1a007724   0x0000001c   Code   RO         1988    i.spifiDeviceInitWriteCommand  lib_lpcspifi_M4F.lib(spifilib_fam_standard_cmd.o)
    0x1a007740   0x0000001c   Code   RO         1989    i.spifiDeviceInitWriteCommandMacronix  lib_lpcspifi_M4F.lib(spifilib_fam_standard_cmd.o)
    0x1a00775c   0x00000030   Code   RO         1783    i.spifiErase        lib_lpcspifi_M4F.lib(spifilib_dev_common.o)
    0x1a00778c   0x00000030   Code   RO         1784    i.spifiEraseByAddr  lib_lpcspifi_M4F.lib(spifilib_dev_common.o)
    0x1a0077bc   0x00000180   Code   RO         1990    i.spifiFamFxDeviceSetup  lib_lpcspifi_M4F.lib(spifilib_fam_standard_cmd.o)
    0x1a00793c   0x00000030   Code   RO         1991    i.spifiFamFxEraseAll  lib_lpcspifi_M4F.lib(spifilib_fam_standard_cmd.o)
    0x1a00796c   0x00000078   Code   RO         1992    i.spifiFamFxEraseBlock  lib_lpcspifi_M4F.lib(spifilib_fam_standard_cmd.o)
    0x1a0079e4   0x00000062   Code   RO         1993    i.spifiFamFxEraseSubBlock  lib_lpcspifi_M4F.lib(spifilib_fam_standard_cmd.o)
    0x1a007a46   0x00000058   Code   RO         1994    i.spifiFamFxGetDeviceStatus  lib_lpcspifi_M4F.lib(spifilib_fam_standard_cmd.o)
    0x1a007a9e   0x0000003e   Code   RO         1995    i.spifiFamFxLockDeviceCmd  lib_lpcspifi_M4F.lib(spifilib_fam_standard_cmd.o)
    0x1a007adc   0x000000ba   Code   RO         1996    i.spifiFamFxPageProgram  lib_lpcspifi_M4F.lib(spifilib_fam_standard_cmd.o)
    0x1a007b96   0x00000074   Code   RO         1997    i.spifiFamFxReadDevice  lib_lpcspifi_M4F.lib(spifilib_fam_standard_cmd.o)
    0x1a007c0a   0x00000004   Code   RO         1998    i.spifiFamFxResetDevice  lib_lpcspifi_M4F.lib(spifilib_fam_standard_cmd.o)
    0x1a007c0e   0x00000018   Code   RO         1785    i.spifiGetAddrFromBlock  lib_lpcspifi_M4F.lib(spifilib_dev_common.o)
    0x1a007c26   0x0000002e   Code   RO         1786    i.spifiGetAddrFromSubBlock  lib_lpcspifi_M4F.lib(spifilib_dev_common.o)
    0x1a007c54   0x00000018   Code   RO         1787    i.spifiGetBlockFromAddr  lib_lpcspifi_M4F.lib(spifilib_dev_common.o)
    0x1a007c6c   0x00000016   Code   RO         1788    i.spifiGetHandleMemSize  lib_lpcspifi_M4F.lib(spifilib_dev_common.o)
    0x1a007c82   0x00000006   Code   RO         1789    i.spifiGetLibVersion  lib_lpcspifi_M4F.lib(spifilib_dev_common.o)
    0x1a007c88   0x00000030   Code   RO         1790    i.spifiGetSubBlockFromAddr  lib_lpcspifi_M4F.lib(spifilib_dev_common.o)
    0x1a007cb8   0x0000002a   Code   RO         1791    i.spifiGetSubBlockFromBlock  lib_lpcspifi_M4F.lib(spifilib_dev_common.o)
    0x1a007ce2   0x00000002   PAD
    0x1a007ce4   0x0000000c   Code   RO         1792    i.spifiGetSuppFamilyCount  lib_lpcspifi_M4F.lib(spifilib_dev_common.o)
    0x1a007cf0   0x0000002c   Code   RO         1793    i.spifiGetSuppFamilyName  lib_lpcspifi_M4F.lib(spifilib_dev_common.o)
    0x1a007d1c   0x00000024   Code   RO         1794    i.spifiInit         lib_lpcspifi_M4F.lib(spifilib_dev_common.o)
    0x1a007d40   0x000000be   Code   RO         1795    i.spifiInitDevice   lib_lpcspifi_M4F.lib(spifilib_dev_common.o)
    0x1a007dfe   0x00000046   Code   RO         1796    i.spifiProgram      lib_lpcspifi_M4F.lib(spifilib_dev_common.o)
    0x1a007e44   0x0000001a   Code   RO         1999    i.spifiPrvCheckWriteState  lib_lpcspifi_M4F.lib(spifilib_fam_standard_cmd.o)
    0x1a007e5e   0x00000002   PAD
    0x1a007e60   0x0000007c   Code   RO         1797    i.spifiPrvDevDetect  lib_lpcspifi_M4F.lib(spifilib_dev_common.o)
    0x1a007edc   0x00000038   Code   RO         1798    i.spifiPrvDevGetID  lib_lpcspifi_M4F.lib(spifilib_dev_common.o)
    0x1a007f14   0x00000052   Code   RO         1799    i.spifiPrvFindDeviceMatch  lib_lpcspifi_M4F.lib(spifilib_dev_common.o)
    0x1a007f66   0x00000002   PAD
    0x1a007f68   0x0000002c   Code   RO         1801    i.spifiPrvPartDetect  lib_lpcspifi_M4F.lib(spifilib_dev_common.o)
    0x1a007f94   0x0000002a   Code   RO         2000    i.spifiPrvSetQuadModeBitPosition  lib_lpcspifi_M4F.lib(spifilib_fam_standard_cmd.o)
    0x1a007fbe   0x0000000e   Code   RO         2001    i.spifiPrvSetWREN   lib_lpcspifi_M4F.lib(spifilib_fam_standard_cmd.o)
    0x1a007fcc   0x00000012   Code   RO         2002    i.spifiPrvWaitUnBusy  lib_lpcspifi_M4F.lib(spifilib_fam_standard_cmd.o)
    0x1a007fde   0x00000046   Code   RO         1802    i.spifiRead         lib_lpcspifi_M4F.lib(spifilib_dev_common.o)
    0x1a008024   0x00000020   Code   RO         1803    i.spifiRegisterFamily  lib_lpcspifi_M4F.lib(spifilib_dev_common.o)
    0x1a008044   0x00000018   Code   RO         1804    i.spifiReturnErrString  lib_lpcspifi_M4F.lib(spifilib_dev_common.o)
    0x1a00805c   0x0000000c   Code   RO         1805    i.spifi_HW_ResetController  lib_lpcspifi_M4F.lib(spifilib_dev_common.o)
    0x1a008068   0x00000180   Code   RO         2003    i.spifi_REG_FAMILY_CommonCommandSet  lib_lpcspifi_M4F.lib(spifilib_fam_standard_cmd.o)
    0x1a0081e8   0x0000000a   Code   RO         3318    x$fpl$fpinit        fz_wm.l(fpinit.o)
    0x1a0081f2   0x00000018   Data   RO          615    .constdata          main.o
    0x1a00820a   0x00000002   PAD
    0x1a00820c   0x00000004   Data   RO          660    .constdata          test_suite.o
    0x1a008210   0x00000040   Data   RO          764    .constdata          lib_lpc_board_keil_mcb_4357.lib(board.o)
    0x1a008250   0x000002bc   Data   RO         1222    .constdata          lib_lpc_board_keil_mcb_4357.lib(board_sysinit.o)
    0x1a00850c   0x0000000e   Data   RO         1806    .constdata          lib_lpcspifi_M4F.lib(spifilib_dev_common.o)
    0x1a00851a   0x00000002   PAD
    0x1a00851c   0x00000348   Data   RO         2005    .constdata          lib_lpcspifi_M4F.lib(spifilib_fam_standard_cmd.o)
    0x1a008864   0x0000006c   Data   RO         2254    .constdata          lib_lpc_chip_43xx.lib(clock_18xx_43xx.o)
    0x1a0088d0   0x00000048   Data   RO         3032    .constdata          lib_lpc_chip_43xx.lib(sysinit_18xx_43xx.o)
    0x1a008918   0x00000028   Data   RO         3151    .constdata          c_w.l(_printf_hex_int.o)
    0x1a008940   0x00000011   Data   RO         3181    .constdata          c_w.l(__printf_flags_wp.o)
    0x1a008951   0x00000003   PAD
    0x1a008954   0x000000e2   Data   RO          661    .conststring        test_suite.o
    0x1a008a36   0x00000002   PAD
    0x1a008a38   0x000000f7   Data   RO         1807    .conststring        lib_lpcspifi_M4F.lib(spifilib_dev_common.o)
    0x1a008b2f   0x00000001   PAD
    0x1a008b30   0x000000de   Data   RO         2006    .conststring        lib_lpcspifi_M4F.lib(spifilib_fam_standard_cmd.o)
    0x1a008c0e   0x00000002   PAD
    0x1a008c10   0x00000030   Data   RO         3374    Region$$Table       anon$$obj.o


    Execution Region RW_IRAM2 (Base: 0x20000000, Size: 0x000039a8, Max: 0x00008000, ABSOLUTE, COMPRESSED[0x00000034])

    Base Addr    Size         Type   Attr      Idx    E Section Name        Object

    0x20000000   0x00000040   Data   RW            3    .data               raw-os.o
    0x20000040   0x00000004   Data   RW          662    .data               test_suite.o
    0x20000044   0x00000014   Data   RW          765    .data               lib_lpc_board_keil_mcb_4357.lib(board.o)
    0x20000058   0x00000004   Data   RW         1297    .data               lib_lpc_chip_43xx.lib(chip_18xx_43xx.o)
    0x2000005c   0x0000000c   Data   RW         1697    .data               lib_lpc_chip_43xx.lib(stopwatch_18xx_43xx.o)
    0x20000068   0x00000040   Data   RW         1808    .data               lib_lpcspifi_M4F.lib(spifilib_dev_common.o)
    0x200000a8   0x00000094   Data   RW         2007    .data               lib_lpcspifi_M4F.lib(spifilib_fam_standard_cmd.o)
    0x2000013c   0x00000008   Data   RW         2255    .data               lib_lpc_chip_43xx.lib(clock_18xx_43xx.o)
    0x20000144   0x00000fa0   Zero   RW            2    .bss                raw-os.o
    0x200010e4   0x00002108   Zero   RW          614    .bss                main.o
    0x200031ec   0x00000058   Zero   RW         2004    .bss                lib_lpcspifi_M4F.lib(spifilib_fam_standard_cmd.o)
    0x20003244   0x00000060   Zero   RW         3250    .bss                c_w.l(libspace.o)
    0x200032a4   0x00000004   PAD
    0x200032a8   0x00000100   Zero   RW          316    HEAP                keil_startup_lpc18xx43xx.o
    0x200033a8   0x00000600   Zero   RW          315    STACK               keil_startup_lpc18xx43xx.o


==============================================================================

Image component sizes


      Code (inc. data)   RO Data    RW Data    ZI Data      Debug   Object Name

       164         16          0          0          0        384   cpu.o
       550          0          0          0          0       8748   fifo.o
        68         28        276          0       1792        936   keil_startup_lpc18xx43xx.o
      1508        566         24          0       8456      51180   main.o
       442          0          0          0          0       1739   port.o
       140          0          0          0          0       1488   port_error_process.o
        18          0          0          0          0       1815   port_hook.o
     12600        478          0         64       4000      79126   raw-os.o
        28         10          0          0          0       5105   sysinit.o
      9664       4570        230          4      24576      26795   test_suite.o
       160          0          0          0          0       1676   user_extension.o

    ----------------------------------------------------------------------
     25344       5668        582         68      38824     178992   Object Totals
         0          0         48          0          0          0   (incl. Generated)
         2          0          4          0          0          0   (incl. Padding)

    ----------------------------------------------------------------------

      Code (inc. data)   RO Data    RW Data    ZI Data      Debug   Library Member Name

        90          0          0          0          0          0   __dczerorl2.o
         8          0          0          0          0         68   __main.o
       312          4         17          0          0         92   __printf_flags_wp.o
        14          0          0          0          0         68   __printf_wp.o
         0          0          0          0          0          0   __rtentry.o
        12          0          0          0          0          0   __rtentry2.o
         6          0          0          0          0          0   __rtentry4.o
        52          8          0          0          0          0   __scatter.o
        28          0          0          0          0          0   __scatter_zi.o
        44          0          0          0          0        108   _printf_char.o
        48          6          0          0          0         96   _printf_char_common.o
        36          4          0          0          0         80   _printf_char_file.o
         6          0          0          0          0          0   _printf_d.o
       120         16          0          0          0         92   _printf_dec.o
        88          4         40          0          0         88   _printf_hex_int.o
       178          0          0          0          0         88   _printf_intcommon.o
        78          0          0          0          0        108   _printf_pad.o
         0          0          0          0          0          0   _printf_percent.o
         4          0          0          0          0          0   _printf_percent_end.o
         6          0          0          0          0          0   _printf_s.o
        82          0          0          0          0         80   _printf_str.o
         6          0          0          0          0          0   _printf_x.o
        18          0          0          0          0         80   exit.o
         6          0          0          0          0        152   heapauxi.o
         2          0          0          0          0          0   libinit.o
         6          0          0          0          0          0   libinit2.o
         2          0          0          0          0          0   libshutdown.o
         2          0          0          0          0          0   libshutdown2.o
         8          4          0          0         96         68   libspace.o
        24          4          0          0          0         84   noretval__2printf.o
       138          0          0          0          0         68   rt_memcpy_v6.o
       100          0          0          0          0         80   rt_memcpy_w.o
         2          0          0          0          0          0   rtexit.o
        10          0          0          0          0          0   rtexit2.o
        74          0          0          0          0         80   sys_stackheap_outer.o
        10          0          0          0          0        116   fpinit.o
       150         18         64         20          0      34818   board.o
       316         44        700          0          0      11181   board_sysinit.o
        20          6          0          4          0       6862   chip_18xx_43xx.o
       926        140        108          8          0       9286   clock_18xx_43xx.o
        80         18          0          0          0       1234   fpu_init.o
       124         28          0         12          0       5065   stopwatch_18xx_43xx.o
       238         20         72          0          0       2286   sysinit_18xx_43xx.o
        66         12          0          0          0       1070   timer_18xx_43xx.o
       216         16          0          0          0       9189   uart_18xx_43xx.o
      1654         54        261         64          0      29698   spifilib_dev_common.o
      2212        274       1062        148         88      33472   spifilib_fam_standard_cmd.o

    ----------------------------------------------------------------------
      7646        680       2332        256        188     145857   Library Totals
        24          0          8          0          4          0   (incl. Padding)

    ----------------------------------------------------------------------

      Code (inc. data)   RO Data    RW Data    ZI Data      Debug   Library Name

      1610         50         57          0         96       1580   c_w.l
        10          0          0          0          0        116   fz_wm.l
       466         62        764         20          0      45999   lib_lpc_board_keil_mcb_4357.lib
      1670        240        180         24          0      34992   lib_lpc_chip_43xx.lib
      3866        328       1323        212         88      63170   lib_lpcspifi_M4F.lib

    ----------------------------------------------------------------------
      7646        680       2332        256        188     145857   Library Totals

    ----------------------------------------------------------------------

==============================================================================


      Code (inc. data)   RO Data    RW Data    ZI Data      Debug   

     32990       6348       2914        324      39012     313221   Grand Totals
     32990       6348       2914         52      39012     313221   ELF Image Totals (compressed)
     32990       6348       2914         52          0          0   ROM Totals

==============================================================================

    Total RO  Size (Code + RO Data)                35904 (  35.06kB)
    Total RW  Size (RW Data + ZI Data)             39336 (  38.41kB)
    Total ROM Size (Code + RO Data + RW Data)      35956 (  35.11kB)

==============================================================================

