Component: ARM Compiler 5.06 (build 20) Tool: armlink [4d35a3]

==============================================================================

Section Cross References

    raw-os.o(.text) refers to cpu.o(.text) for OS_CPU_SR_Save
    raw-os.o(.text) refers to port_error_process.o(.text) for port_system_error_process
    raw-os.o(.text) refers to raw-os.o(.data) for .data
    raw-os.o(.text) refers to raw-os.o(.bss) for .bss
    raw-os.o(.text) refers to user_extension.o(.text) for raw_memset
    raw-os.o(.text) refers to port.o(.text) for port_stack_init
    raw-os.o(.text) refers to port_hook.o(.text) for task_create_hook
    raw-os.o(.text) refers to port_extension.o(.text) for user_sys_time_get
    raw-os.o(.text) refers to lludivv7m.o(.text) for __aeabi_uldivmod
    fifo.o(.text) refers to cpu.o(.text) for OS_CPU_SR_Save
    fifo.o(.text) refers to user_extension.o(.text) for raw_memcpy
    rsh.o(.text) refers to cpu.o(.text) for OS_CPU_SR_Save
    rsh.o(.text) refers to string.o(.text) for raw_strncmp
    rsh.o(.text) refers to user_extension.o(.text) for raw_memset
    rsh.o(.text) refers to rsh.o(.data) for .data
    rsh.o(.text) refers to rsh.o(.conststring) for .conststring
    rsh.o(.constdata) refers to rsh.o(.conststring) for .conststring
    rsh.o(.constdata) refers to rsh.o(.text) for rsh_help_command
==============================================================================

Removing Unused input sections from the image.

    Removing rsh.o(.text), (472 bytes).
    Removing rsh.o(.constdata), (16 bytes).
    Removing rsh.o(.conststring), (50 bytes).
    Removing rsh.o(.conststring), (173 bytes).
    Removing rsh.o(.data), (20 bytes).
    Removing string.o(.text), (592 bytes).
    Removing sysinit.o(.rev16_text), (4 bytes).
    Removing sysinit.o(.revsh_text), (4 bytes).
    Removing lpc43xx_scu.o(.rev16_text), (4 bytes).
    Removing lpc43xx_scu.o(.revsh_text), (4 bytes).
    Removing lpc43xx_sdram.o(.rev16_text), (4 bytes).
    Removing lpc43xx_sdram.o(.revsh_text), (4 bytes).
    Removing lpc43xx_gpio.o(.rev16_text), (4 bytes).
    Removing lpc43xx_gpio.o(.revsh_text), (4 bytes).
    Removing lpc43xx_lcd.o(.rev16_text), (4 bytes).
    Removing lpc43xx_lcd.o(.revsh_text), (4 bytes).
    Removing main.o(.rev16_text), (4 bytes).
    Removing main.o(.revsh_text), (4 bytes).
==============================================================================

Image Symbol Table

    Local Symbols

    Symbol Name                              Value     Ov Type        Size  Object(Section)

    ../clib/angel/boardlib.s                 0x00000000   Number         0  boardshut.o ABSOLUTE
    ../clib/angel/boardlib.s                 0x00000000   Number         0  boardinit1.o ABSOLUTE
    ../clib/angel/boardlib.s                 0x00000000   Number         0  boardinit3.o ABSOLUTE
    ../clib/angel/boardlib.s                 0x00000000   Number         0  boardinit2.o ABSOLUTE
    ../clib/angel/handlers.s                 0x00000000   Number         0  __scatter_zi.o ABSOLUTE
    ../clib/angel/handlers.s                 0x00000000   Number         0  __scatter_copy.o ABSOLUTE
    ../clib/angel/kernel.s                   0x00000000   Number         0  __rtentry2.o ABSOLUTE
    ../clib/angel/kernel.s                   0x00000000   Number         0  __rtentry4.o ABSOLUTE
    ../clib/angel/kernel.s                   0x00000000   Number         0  __rtentry.o ABSOLUTE
    ../clib/angel/kernel.s                   0x00000000   Number         0  rtexit.o ABSOLUTE
    ../clib/angel/kernel.s                   0x00000000   Number         0  rtexit2.o ABSOLUTE
    ../clib/angel/rt.s                       0x00000000   Number         0  aeabi_ldiv0.o ABSOLUTE
    ../clib/angel/rt.s                       0x00000000   Number         0  rt_raise.o ABSOLUTE
    ../clib/angel/rt.s                       0x00000000   Number         0  rt_div0.o ABSOLUTE
    ../clib/angel/rt.s                       0x00000000   Number         0  aeabi_ldiv0_sigfpe.o ABSOLUTE
    ../clib/angel/scatter.s                  0x00000000   Number         0  __scatter.o ABSOLUTE
    ../clib/angel/startup.s                  0x00000000   Number         0  __main.o ABSOLUTE
    ../clib/angel/sys.s                      0x00000000   Number         0  libspace.o ABSOLUTE
    ../clib/angel/sys.s                      0x00000000   Number         0  sys_stackheap_outer.o ABSOLUTE
    ../clib/angel/sys.s                      0x00000000   Number         0  use_no_semi.o ABSOLUTE
    ../clib/angel/sys.s                      0x00000000   Number         0  indicate_semi.o ABSOLUTE
    ../clib/angel/sysapp.c                   0x00000000   Number         0  sys_command.o ABSOLUTE
    ../clib/angel/sysapp.c                   0x00000000   Number         0  sys_wrch.o ABSOLUTE
    ../clib/armsys.c                         0x00000000   Number         0  no_argv.o ABSOLUTE
    ../clib/armsys.c                         0x00000000   Number         0  argv_veneer.o ABSOLUTE
    ../clib/armsys.c                         0x00000000   Number         0  argv_veneer.o ABSOLUTE
    ../clib/armsys.c                         0x00000000   Number         0  _get_argv_nomalloc.o ABSOLUTE
    ../clib/heapalloc.c                      0x00000000   Number         0  hrguard.o ABSOLUTE
    ../clib/heapaux.c                        0x00000000   Number         0  heapauxi.o ABSOLUTE
    ../clib/libinit.s                        0x00000000   Number         0  libinit2.o ABSOLUTE
    ../clib/libinit.s                        0x00000000   Number         0  libshutdown.o ABSOLUTE
    ../clib/libinit.s                        0x00000000   Number         0  libinit.o ABSOLUTE
    ../clib/libinit.s                        0x00000000   Number         0  libshutdown2.o ABSOLUTE
    ../clib/longlong.s                       0x00000000   Number         0  lludivv7m.o ABSOLUTE
    ../clib/memcpset.s                       0x00000000   Number         0  rt_memcpy_w.o ABSOLUTE
    ../clib/memcpset.s                       0x00000000   Number         0  rt_memclr_w.o ABSOLUTE
    ../clib/memcpset.s                       0x00000000   Number         0  rt_memcpy_v6.o ABSOLUTE
    ../clib/printf.c                         0x00000000   Number         0  __printf_nopercent.o ABSOLUTE
    ../clib/printf.c                         0x00000000   Number         0  _printf_char_common.o ABSOLUTE
    ../clib/printf.c                         0x00000000   Number         0  _printf_char_file.o ABSOLUTE
    ../clib/printf.c                         0x00000000   Number         0  _printf_intcommon.o ABSOLUTE
    ../clib/printf.c                         0x00000000   Number         0  _printf_dec.o ABSOLUTE
    ../clib/printf.c                         0x00000000   Number         0  noretval__2printf.o ABSOLUTE
    ../clib/printf.c                         0x00000000   Number         0  __printf.o ABSOLUTE
    ../clib/printf.c                         0x00000000   Number         0  __printf_flags.o ABSOLUTE
    ../clib/printf.c                         0x00000000   Number         0  __printf_ss.o ABSOLUTE
    ../clib/printf.c                         0x00000000   Number         0  __printf_flags_ss.o ABSOLUTE
    ../clib/printf.c                         0x00000000   Number         0  __2printf.o ABSOLUTE
    ../clib/printf.c                         0x00000000   Number         0  __printf_flags_wp.o ABSOLUTE
    ../clib/printf.c                         0x00000000   Number         0  __printf_ss_wp.o ABSOLUTE
    ../clib/printf.c                         0x00000000   Number         0  __printf_flags_ss_wp.o ABSOLUTE
    ../clib/printf.c                         0x00000000   Number         0  __printf_wp.o ABSOLUTE
    ../clib/printf_percent.s                 0x00000000   Number         0  _printf_percent_end.o ABSOLUTE
    ../clib/printf_percent.s                 0x00000000   Number         0  _printf_d.o ABSOLUTE
    ../clib/printf_percent.s                 0x00000000   Number         0  _printf_percent.o ABSOLUTE
    ../clib/signal.c                         0x00000000   Number         0  defsig_other.o ABSOLUTE
    ../clib/signal.c                         0x00000000   Number         0  defsig_segv_inner.o ABSOLUTE
    ../clib/signal.c                         0x00000000   Number         0  defsig_cppl_inner.o ABSOLUTE
    ../clib/signal.c                         0x00000000   Number         0  defsig_pvfn_inner.o ABSOLUTE
    ../clib/signal.c                         0x00000000   Number         0  defsig_stak_inner.o ABSOLUTE
    ../clib/signal.c                         0x00000000   Number         0  defsig_rtmem_formal.o ABSOLUTE
    ../clib/signal.c                         0x00000000   Number         0  defsig_rtmem_outer.o ABSOLUTE
    ../clib/signal.c                         0x00000000   Number         0  defsig_rtmem_inner.o ABSOLUTE
    ../clib/signal.c                         0x00000000   Number         0  defsig_rtred_inner.o ABSOLUTE
    ../clib/signal.c                         0x00000000   Number         0  defsig_abrt_inner.o ABSOLUTE
    ../clib/signal.c                         0x00000000   Number         0  defsig_general.o ABSOLUTE
    ../clib/signal.c                         0x00000000   Number         0  __raise.o ABSOLUTE
    ../clib/signal.c                         0x00000000   Number         0  defsig_fpe_inner.o ABSOLUTE
    ../clib/signal.c                         0x00000000   Number         0  defsig_exit.o ABSOLUTE
    ../clib/signal.c                         0x00000000   Number         0  defsig_fpe_outer.o ABSOLUTE
    ../clib/signal.c                         0x00000000   Number         0  defsig_fpe_formal.o ABSOLUTE
    ../clib/signal.s                         0x00000000   Number         0  defsig.o ABSOLUTE
    ../clib/stdlib.c                         0x00000000   Number         0  exit.o ABSOLUTE
    ../fplib/fpinit.s                        0x00000000   Number         0  fpinit.o ABSOLUTE
    ..\..\..\..\software\common\lpc43xx_gpio.c 0x00000000   Number         0  lpc43xx_gpio.o ABSOLUTE
    ..\..\..\..\software\common\lpc43xx_lcd.c 0x00000000   Number         0  lpc43xx_lcd.o ABSOLUTE
    ..\..\..\..\software\common\lpc43xx_scu.c 0x00000000   Number         0  lpc43xx_scu.o ABSOLUTE
    ..\..\..\..\software\common\lpc43xx_sdram.c 0x00000000   Number         0  lpc43xx_sdram.o ABSOLUTE
    ..\..\..\..\software\kernel\port\cpu.asm 0x00000000   Number         0  cpu.o ABSOLUTE
    ..\..\..\..\software\kernel\port\port.c  0x00000000   Number         0  port.o ABSOLUTE
    ..\..\..\..\software\kernel\port\port_error_process.c 0x00000000   Number         0  port_error_process.o ABSOLUTE
    ..\..\..\..\software\kernel\port\port_extension.c 0x00000000   Number         0  port_extension.o ABSOLUTE
    ..\..\..\..\software\kernel\port\port_hook.c 0x00000000   Number         0  port_hook.o ABSOLUTE
    ..\..\..\..\software\kernel\port\raw_trace_port.c 0x00000000   Number         0  raw_trace_port.o ABSOLUTE
    ..\..\..\..\software\kernel\port\user_extension.c 0x00000000   Number         0  user_extension.o ABSOLUTE
    ..\..\..\..\software\kernel\raw-os\extension\lib\fifo.c 0x00000000   Number         0  fifo.o ABSOLUTE
    ..\..\..\..\software\kernel\raw-os\extension\lib\string.c 0x00000000   Number         0  string.o ABSOLUTE
    ..\..\..\..\software\kernel\raw-os\extension\shell\rsh.c 0x00000000   Number         0  rsh.o ABSOLUTE
    ..\..\..\..\software\kernel\raw-os\raw-os.c 0x00000000   Number         0  raw-os.o ABSOLUTE
    ..\..\board_common\uda1380.c             0x00000000   Number         0  uda1380.o ABSOLUTE
    ..\..\examples\lcd\main.c                0x00000000   Number         0  main.o ABSOLUTE
    ..\..\startup_code\keil_startup_lpc18xx43xx.s 0x00000000   Number         0  keil_startup_lpc18xx43xx.o ABSOLUTE
    ..\..\startup_code\sysinit.c             0x00000000   Number         0  sysinit.o ABSOLUTE
    ..\\..\\..\\..\\software\\common\\lpc43xx_gpio.c 0x00000000   Number         0  lpc43xx_gpio.o ABSOLUTE
    ..\\..\\..\\..\\software\\common\\lpc43xx_lcd.c 0x00000000   Number         0  lpc43xx_lcd.o ABSOLUTE
    ..\\..\\..\\..\\software\\common\\lpc43xx_scu.c 0x00000000   Number         0  lpc43xx_scu.o ABSOLUTE
    ..\\..\\..\\..\\software\\common\\lpc43xx_sdram.c 0x00000000   Number         0  lpc43xx_sdram.o ABSOLUTE
    ..\\..\\board_common\\uda1380.c          0x00000000   Number         0  uda1380.o ABSOLUTE
    ..\\..\\examples\\lcd\\main.c            0x00000000   Number         0  main.o ABSOLUTE
    ..\\..\\startup_code\\sysinit.c          0x00000000   Number         0  sysinit.o ABSOLUTE
    ..\\chip_common\\fpu_init.c              0x00000000   Number         0  fpu_init.o ABSOLUTE
    ..\chip_common\fpu_init.c                0x00000000   Number         0  fpu_init.o ABSOLUTE
    ..\chip_common\ring_buffer.c             0x00000000   Number         0  ring_buffer.o ABSOLUTE
    board.c                                  0x00000000   Number         0  board.o ABSOLUTE
    board.c                                  0x00000000   Number         0  board.o ABSOLUTE
    board_sysinit.c                          0x00000000   Number         0  board_sysinit.o ABSOLUTE
    board_sysinit.c                          0x00000000   Number         0  board_sysinit.o ABSOLUTE
    chip_18xx_43xx.c                         0x00000000   Number         0  chip_18xx_43xx.o ABSOLUTE
    chip_18xx_43xx.c                         0x00000000   Number         0  chip_18xx_43xx.o ABSOLUTE
    clock_18xx_43xx.c                        0x00000000   Number         0  clock_18xx_43xx.o ABSOLUTE
    clock_18xx_43xx.c                        0x00000000   Number         0  clock_18xx_43xx.o ABSOLUTE
    dc.s                                     0x00000000   Number         0  dc.o ABSOLUTE
    emc_18xx_43xx.c                          0x00000000   Number         0  emc_18xx_43xx.o ABSOLUTE
    emc_18xx_43xx.c                          0x00000000   Number         0  emc_18xx_43xx.o ABSOLUTE
    gpio_18xx_43xx.c                         0x00000000   Number         0  gpio_18xx_43xx.o ABSOLUTE
    gpio_18xx_43xx.c                         0x00000000   Number         0  gpio_18xx_43xx.o ABSOLUTE
    i2c_18xx_43xx.c                          0x00000000   Number         0  i2c_18xx_43xx.o ABSOLUTE
    i2c_18xx_43xx.c                          0x00000000   Number         0  i2c_18xx_43xx.o ABSOLUTE
    i2s_18xx_43xx.c                          0x00000000   Number         0  i2s_18xx_43xx.o ABSOLUTE
    i2s_18xx_43xx.c                          0x00000000   Number         0  i2s_18xx_43xx.o ABSOLUTE
    rgu_18xx_43xx.c                          0x00000000   Number         0  rgu_18xx_43xx.o ABSOLUTE
    rgu_18xx_43xx.c                          0x00000000   Number         0  rgu_18xx_43xx.o ABSOLUTE
    ssp_18xx_43xx.c                          0x00000000   Number         0  ssp_18xx_43xx.o ABSOLUTE
    ssp_18xx_43xx.c                          0x00000000   Number         0  ssp_18xx_43xx.o ABSOLUTE
    sysinit_18xx_43xx.c                      0x00000000   Number         0  sysinit_18xx_43xx.o ABSOLUTE
    sysinit_18xx_43xx.c                      0x00000000   Number         0  sysinit_18xx_43xx.o ABSOLUTE
    uart_18xx_43xx.c                         0x00000000   Number         0  uart_18xx_43xx.o ABSOLUTE
    uart_18xx_43xx.c                         0x00000000   Number         0  uart_18xx_43xx.o ABSOLUTE
    .data                                    0x10000000   Section       56  raw-os.o(.data)
    .data                                    0x10000038   Section        4  port.o(.data)
    mpu_region_numbers                       0x10000038   Data           4  port.o(.data)
    .data                                    0x1000003c   Section       12  lpc43xx_lcd.o(.data)
    g_lcdHSize                               0x1000003c   Data           4  lpc43xx_lcd.o(.data)
    g_lcdVSize                               0x10000040   Data           4  lpc43xx_lcd.o(.data)
    lcd_frame_buffer                         0x10000044   Data           4  lpc43xx_lcd.o(.data)
    .data                                    0x10000048   Section        8  main.o(.data)
    .data                                    0x10000050   Section       20  board.o(.data)
    .data                                    0x10000064   Section        4  chip_18xx_43xx.o(.data)
    .data                                    0x10000068   Section        8  clock_18xx_43xx.o(.data)
    audio_usb_pll_freq                       0x10000068   Data           8  clock_18xx_43xx.o(.data)
    .data                                    0x10000070   Section       56  i2c_18xx_43xx.o(.data)
    i2c                                      0x10000070   Data          56  i2c_18xx_43xx.o(.data)
    .bss                                     0x100000a8   Section     3548  raw-os.o(.bss)
    .bss                                     0x10000e88   Section     1932  main.o(.bss)
    fifo_buffer                              0x10001594   Data         128  main.o(.bss)
    .bss                                     0x10001614   Section       96  libspace.o(.bss)
    HEAP                                     0x10001678   Section      256  keil_startup_lpc18xx43xx.o(HEAP)
    Heap_Mem                                 0x10001678   Data         256  keil_startup_lpc18xx43xx.o(HEAP)
    STACK                                    0x10001778   Section     1536  keil_startup_lpc18xx43xx.o(STACK)
    __initial_sp                             0x10001d78   Data           0  keil_startup_lpc18xx43xx.o(STACK)
    RESET                                    0x1a000000   Section      276  keil_startup_lpc18xx43xx.o(RESET)
    !!!main                                  0x1a000114   Section        8  __main.o(!!!main)
    !!!scatter                               0x1a00011c   Section       52  __scatter.o(!!!scatter)
    !!handler_copy                           0x1a000150   Section       26  __scatter_copy.o(!!handler_copy)
    !!handler_zi                             0x1a00016c   Section       28  __scatter_zi.o(!!handler_zi)
    .ARM.Collect$$_printf_percent$$00000000  0x1a000188   Section        0  _printf_percent.o(.ARM.Collect$$_printf_percent$$00000000)
    .ARM.Collect$$_printf_percent$$00000009  0x1a000188   Section        6  _printf_d.o(.ARM.Collect$$_printf_percent$$00000009)
    .ARM.Collect$$_printf_percent$$00000017  0x1a00018e   Section        4  _printf_percent_end.o(.ARM.Collect$$_printf_percent$$00000017)
    .ARM.Collect$$libinit$$00000000          0x1a000192   Section        2  libinit.o(.ARM.Collect$$libinit$$00000000)
    .ARM.Collect$$libinit$$00000001          0x1a000194   Section        4  libinit2.o(.ARM.Collect$$libinit$$00000001)
    .ARM.Collect$$libinit$$00000004          0x1a000198   Section        0  libinit2.o(.ARM.Collect$$libinit$$00000004)
    .ARM.Collect$$libinit$$0000000A          0x1a000198   Section        0  libinit2.o(.ARM.Collect$$libinit$$0000000A)
    .ARM.Collect$$libinit$$0000000C          0x1a000198   Section        0  libinit2.o(.ARM.Collect$$libinit$$0000000C)
    .ARM.Collect$$libinit$$0000000E          0x1a000198   Section        0  libinit2.o(.ARM.Collect$$libinit$$0000000E)
    .ARM.Collect$$libinit$$00000011          0x1a000198   Section        0  libinit2.o(.ARM.Collect$$libinit$$00000011)
    .ARM.Collect$$libinit$$00000013          0x1a000198   Section        0  libinit2.o(.ARM.Collect$$libinit$$00000013)
    .ARM.Collect$$libinit$$00000015          0x1a000198   Section        0  libinit2.o(.ARM.Collect$$libinit$$00000015)
    .ARM.Collect$$libinit$$00000017          0x1a000198   Section        0  libinit2.o(.ARM.Collect$$libinit$$00000017)
    .ARM.Collect$$libinit$$00000019          0x1a000198   Section        0  libinit2.o(.ARM.Collect$$libinit$$00000019)
    .ARM.Collect$$libinit$$0000001B          0x1a000198   Section        0  libinit2.o(.ARM.Collect$$libinit$$0000001B)
    .ARM.Collect$$libinit$$0000001D          0x1a000198   Section        0  libinit2.o(.ARM.Collect$$libinit$$0000001D)
    .ARM.Collect$$libinit$$0000001F          0x1a000198   Section        0  libinit2.o(.ARM.Collect$$libinit$$0000001F)
    .ARM.Collect$$libinit$$00000021          0x1a000198   Section        0  libinit2.o(.ARM.Collect$$libinit$$00000021)
    .ARM.Collect$$libinit$$00000023          0x1a000198   Section        0  libinit2.o(.ARM.Collect$$libinit$$00000023)
    .ARM.Collect$$libinit$$00000025          0x1a000198   Section        0  libinit2.o(.ARM.Collect$$libinit$$00000025)
    .ARM.Collect$$libinit$$0000002C          0x1a000198   Section        0  libinit2.o(.ARM.Collect$$libinit$$0000002C)
    .ARM.Collect$$libinit$$0000002E          0x1a000198   Section        0  libinit2.o(.ARM.Collect$$libinit$$0000002E)
    .ARM.Collect$$libinit$$00000030          0x1a000198   Section        0  libinit2.o(.ARM.Collect$$libinit$$00000030)
    .ARM.Collect$$libinit$$00000032          0x1a000198   Section        0  libinit2.o(.ARM.Collect$$libinit$$00000032)
    .ARM.Collect$$libinit$$00000033          0x1a000198   Section        2  libinit2.o(.ARM.Collect$$libinit$$00000033)
    .ARM.Collect$$libshutdown$$00000000      0x1a00019a   Section        2  libshutdown.o(.ARM.Collect$$libshutdown$$00000000)
    .ARM.Collect$$libshutdown$$00000002      0x1a00019c   Section        0  libshutdown2.o(.ARM.Collect$$libshutdown$$00000002)
    .ARM.Collect$$libshutdown$$00000004      0x1a00019c   Section        0  libshutdown2.o(.ARM.Collect$$libshutdown$$00000004)
    .ARM.Collect$$libshutdown$$00000007      0x1a00019c   Section        0  libshutdown2.o(.ARM.Collect$$libshutdown$$00000007)
    .ARM.Collect$$libshutdown$$0000000A      0x1a00019c   Section        0  libshutdown2.o(.ARM.Collect$$libshutdown$$0000000A)
    .ARM.Collect$$libshutdown$$0000000C      0x1a00019c   Section        0  libshutdown2.o(.ARM.Collect$$libshutdown$$0000000C)
    .ARM.Collect$$libshutdown$$0000000F      0x1a00019c   Section        0  libshutdown2.o(.ARM.Collect$$libshutdown$$0000000F)
    .ARM.Collect$$libshutdown$$00000010      0x1a00019c   Section        2  libshutdown2.o(.ARM.Collect$$libshutdown$$00000010)
    .ARM.Collect$$rtentry$$00000000          0x1a00019e   Section        0  __rtentry.o(.ARM.Collect$$rtentry$$00000000)
    .ARM.Collect$$rtentry$$00000002          0x1a00019e   Section        0  __rtentry2.o(.ARM.Collect$$rtentry$$00000002)
    .ARM.Collect$$rtentry$$00000004          0x1a00019e   Section        6  __rtentry4.o(.ARM.Collect$$rtentry$$00000004)
    .ARM.Collect$$rtentry$$00000009          0x1a0001a4   Section        0  __rtentry2.o(.ARM.Collect$$rtentry$$00000009)
    .ARM.Collect$$rtentry$$0000000A          0x1a0001a4   Section        4  __rtentry2.o(.ARM.Collect$$rtentry$$0000000A)
    .ARM.Collect$$rtentry$$0000000C          0x1a0001a8   Section        0  __rtentry2.o(.ARM.Collect$$rtentry$$0000000C)
    .ARM.Collect$$rtentry$$0000000D          0x1a0001a8   Section        8  __rtentry2.o(.ARM.Collect$$rtentry$$0000000D)
    .ARM.Collect$$rtexit$$00000000           0x1a0001b0   Section        2  rtexit.o(.ARM.Collect$$rtexit$$00000000)
    .ARM.Collect$$rtexit$$00000002           0x1a0001b2   Section        0  rtexit2.o(.ARM.Collect$$rtexit$$00000002)
    .ARM.Collect$$rtexit$$00000003           0x1a0001b2   Section        4  rtexit2.o(.ARM.Collect$$rtexit$$00000003)
    .ARM.Collect$$rtexit$$00000004           0x1a0001b6   Section        6  rtexit2.o(.ARM.Collect$$rtexit$$00000004)
    .text                                    0x1a0001bc   Section        0  raw-os.o(.text)
    tick_task_process                        0x1a000721   Thumb Code    28  raw-os.o(.text)
    pend_task_wake_up                        0x1a0008c1   Thumb Code    96  raw-os.o(.text)
    is_list_empty                            0x1a0029a9   Thumb Code    14  raw-os.o(.text)
    list_insert                              0x1a0029b7   Thumb Code    14  raw-os.o(.text)
    list_delete                              0x1a0029c5   Thumb Code    12  raw-os.o(.text)
    add_to_priority_list                     0x1a0029d1   Thumb Code    30  raw-os.o(.text)
    bit_set                                  0x1a0029ef   Thumb Code    20  raw-os.o(.text)
    release_mutex                            0x1a002a03   Thumb Code    30  raw-os.o(.text)
    timer_list_remove                        0x1a002a21   Thumb Code    22  raw-os.o(.text)
    timer_list_priority_insert               0x1a002a37   Thumb Code    32  raw-os.o(.text)
    raw_byte_pool_search                     0x1a002a57   Thumb Code   188  raw-os.o(.text)
    .text                                    0x1a002b24   Section        0  fifo.o(.text)
    internal_fifo_out_peek                   0x1a002bc5   Thumb Code    62  fifo.o(.text)
    .text                                    0x1a002c98   Section      172  cpu.o(.text)
    $v0                                      0x1a002c98   Number         0  cpu.o(.text)
    .text                                    0x1a002d44   Section        0  port.o(.text)
    .text                                    0x1a002f18   Section        0  port_hook.o(.text)
    .text                                    0x1a002f36   Section        0  user_extension.o(.text)
    .text                                    0x1a002fbe   Section        0  port_error_process.o(.text)
    .text                                    0x1a003018   Section        0  port_extension.o(.text)
    .text                                    0x1a003048   Section       68  keil_startup_lpc18xx43xx.o(.text)
    $v0                                      0x1a003048   Number         0  keil_startup_lpc18xx43xx.o(.text)
    .text                                    0x1a00308c   Section        0  sysinit.o(.text)
    .text                                    0x1a0030a8   Section        0  lpc43xx_scu.o(.text)
    .text                                    0x1a0030bc   Section        0  lpc43xx_sdram.o(.text)
    .text                                    0x1a003518   Section        0  lpc43xx_gpio.o(.text)
    .text                                    0x1a003558   Section        0  lpc43xx_lcd.o(.text)
    .text                                    0x1a0038e4   Section        0  main.o(.text)
    NVIC_EnableIRQ                           0x1a003ac5   Thumb Code    22  main.o(.text)
    NVIC_SetPriority                         0x1a003adb   Thumb Code    32  main.o(.text)
    .text                                    0x1a003b50   Section        0  board.o(.text)
    delay                                    0x1a003bb9   Thumb Code    12  board.o(.text)
    Board_Audio_CodecInit                    0x1a003bc5   Thumb Code    32  board.o(.text)
    writeLCD00_16                            0x1a003be5   Thumb Code    58  board.o(.text)
    writeLCD01_16                            0x1a003c1f   Thumb Code    72  board.o(.text)
    writeLCDReg                              0x1a003c67   Thumb Code    20  board.o(.text)
    pinConfig                                0x1a003c7b   Thumb Code    14  board.o(.text)
    writeTSCReg                              0x1a003c89   Thumb Code    28  board.o(.text)
    readTSCReg                               0x1a003ca5   Thumb Code    24  board.o(.text)
    detectTSCTouch                           0x1a003cbd   Thumb Code    36  board.o(.text)
    getTSCCoord                              0x1a003ce1   Thumb Code   114  board.o(.text)
    Board_LED_Init                           0x1a003deb   Thumb Code    28  board.o(.text)
    Chip_SCU_PinMuxSet                       0x1a00456d   Thumb Code    12  board.o(.text)
    Chip_GPIO_SetPinState                    0x1a004579   Thumb Code    10  board.o(.text)
    Chip_GPIO_GetPinState                    0x1a004583   Thumb Code    18  board.o(.text)
    Chip_GPIO_SetPinDIROutput                0x1a004595   Thumb Code    72  board.o(.text)
    Chip_GPIO_SetPinDIRInput                 0x1a0045dd   Thumb Code    28  board.o(.text)
    .text                                    0x1a0045f8   Section        0  board_sysinit.o(.text)
    Chip_SCU_SetPinMuxing                    0x1a0045f9   Thumb Code    44  board_sysinit.o(.text)
    .text                                    0x1a004794   Section        0  uda1380.o(.text)
    Audio_Codec_SetDefaultValues             0x1a0047fb   Thumb Code    36  uda1380.o(.text)
    .text                                    0x1a004918   Section      238  lludivv7m.o(.text)
    .text                                    0x1a004a08   Section        0  noretval__2printf.o(.text)
    .text                                    0x1a004a20   Section        0  __printf.o(.text)
    .text                                    0x1a004a88   Section        0  _printf_dec.o(.text)
    .text                                    0x1a004b00   Section       78  rt_memclr_w.o(.text)
    .text                                    0x1a004b4e   Section        0  heapauxi.o(.text)
    .text                                    0x1a004b54   Section        0  _printf_intcommon.o(.text)
    .text                                    0x1a004c08   Section        0  _printf_char_file.o(.text)
    .text                                    0x1a004c2c   Section        0  _printf_char_common.o(.text)
    _printf_input_char                       0x1a004c2d   Thumb Code    10  _printf_char_common.o(.text)
    .text                                    0x1a004c5c   Section       74  sys_stackheap_outer.o(.text)
    .text                                    0x1a004ca6   Section        0  exit.o(.text)
    .text                                    0x1a004cb8   Section        8  libspace.o(.text)
    i.Chip_Clock_Enable                      0x1a004cc0   Section        0  clock_18xx_43xx.o(i.Chip_Clock_Enable)
    i.Chip_Clock_EnableOpts                  0x1a004cf8   Section        0  clock_18xx_43xx.o(i.Chip_Clock_EnableOpts)
    i.Chip_Clock_FindBaseClock               0x1a004d34   Section        0  clock_18xx_43xx.o(i.Chip_Clock_FindBaseClock)
    Chip_Clock_FindBaseClock                 0x1a004d35   Thumb Code    74  clock_18xx_43xx.o(i.Chip_Clock_FindBaseClock)
    i.Chip_Clock_GetBaseClock                0x1a004d84   Section        0  clock_18xx_43xx.o(i.Chip_Clock_GetBaseClock)
    i.Chip_Clock_GetBaseClocktHz             0x1a004da8   Section        0  clock_18xx_43xx.o(i.Chip_Clock_GetBaseClocktHz)
    i.Chip_Clock_GetClockInputHz             0x1a004dbc   Section        0  clock_18xx_43xx.o(i.Chip_Clock_GetClockInputHz)
    i.Chip_Clock_GetDivRate                  0x1a004e90   Section        0  clock_18xx_43xx.o(i.Chip_Clock_GetDivRate)
    Chip_Clock_GetDivRate                    0x1a004e91   Thumb Code    40  clock_18xx_43xx.o(i.Chip_Clock_GetDivRate)
    i.Chip_Clock_GetDividerDivisor           0x1a004eb8   Section        0  clock_18xx_43xx.o(i.Chip_Clock_GetDividerDivisor)
    i.Chip_Clock_GetDividerSource            0x1a004ed8   Section        0  clock_18xx_43xx.o(i.Chip_Clock_GetDividerSource)
    i.Chip_Clock_GetEMCRate                  0x1a004ef8   Section        0  clock_18xx_43xx.o(i.Chip_Clock_GetEMCRate)
    i.Chip_Clock_GetMainPLLHz                0x1a004f28   Section        0  clock_18xx_43xx.o(i.Chip_Clock_GetMainPLLHz)
    i.Chip_Clock_GetRate                     0x1a004fa0   Section        0  clock_18xx_43xx.o(i.Chip_Clock_GetRate)
    i.Chip_Clock_SetBaseClock                0x1a004ff8   Section        0  clock_18xx_43xx.o(i.Chip_Clock_SetBaseClock)
    i.Chip_Clock_SetDivider                  0x1a005040   Section        0  clock_18xx_43xx.o(i.Chip_Clock_SetDivider)
    i.Chip_EMC_Dynamic_Init                  0x1a005090   Section        0  emc_18xx_43xx.o(i.Chip_EMC_Dynamic_Init)
    i.Chip_EMC_Init                          0x1a0050ac   Section        0  emc_18xx_43xx.o(i.Chip_EMC_Init)
    i.Chip_EMC_Static_Init                   0x1a0050d8   Section        0  emc_18xx_43xx.o(i.Chip_EMC_Static_Init)
    i.Chip_GPIO_Init                         0x1a0050f4   Section        0  gpio_18xx_43xx.o(i.Chip_GPIO_Init)
    i.Chip_I2C_EventHandler                  0x1a0050f8   Section        0  i2c_18xx_43xx.o(i.Chip_I2C_EventHandler)
    i.Chip_I2C_EventHandlerPolling           0x1a005120   Section        0  i2c_18xx_43xx.o(i.Chip_I2C_EventHandlerPolling)
    i.Chip_I2C_GetMasterEventHandler         0x1a005160   Section        0  i2c_18xx_43xx.o(i.Chip_I2C_GetMasterEventHandler)
    i.Chip_I2C_Init                          0x1a005174   Section        0  i2c_18xx_43xx.o(i.Chip_I2C_Init)
    i.Chip_I2C_IsStateChanged                0x1a0051a0   Section        0  i2c_18xx_43xx.o(i.Chip_I2C_IsStateChanged)
    i.Chip_I2C_MasterCmdRead                 0x1a0051b8   Section        0  i2c_18xx_43xx.o(i.Chip_I2C_MasterCmdRead)
    i.Chip_I2C_MasterSend                    0x1a0051f2   Section        0  i2c_18xx_43xx.o(i.Chip_I2C_MasterSend)
    i.Chip_I2C_MasterStateHandler            0x1a005224   Section        0  i2c_18xx_43xx.o(i.Chip_I2C_MasterStateHandler)
    i.Chip_I2C_MasterTransfer                0x1a00525c   Section        0  i2c_18xx_43xx.o(i.Chip_I2C_MasterTransfer)
    i.Chip_I2C_SetClockRate                  0x1a0052c8   Section        0  i2c_18xx_43xx.o(i.Chip_I2C_SetClockRate)
    i.Chip_I2C_SetMasterEventHandler         0x1a005304   Section        0  i2c_18xx_43xx.o(i.Chip_I2C_SetMasterEventHandler)
    i.Chip_I2S_Init                          0x1a00532c   Section        0  i2s_18xx_43xx.o(i.Chip_I2S_Init)
    i.Chip_I2S_TxConfig                      0x1a005338   Section        0  i2s_18xx_43xx.o(i.Chip_I2S_TxConfig)
    i.Chip_RGU_InReset                       0x1a0053b4   Section        0  rgu_18xx_43xx.o(i.Chip_RGU_InReset)
    i.Chip_RGU_TriggerReset                  0x1a0053ec   Section        0  rgu_18xx_43xx.o(i.Chip_RGU_TriggerReset)
    i.Chip_SSP_ClearIntPending               0x1a005418   Section        0  ssp_18xx_43xx.o(i.Chip_SSP_ClearIntPending)
    Chip_SSP_ClearIntPending                 0x1a005419   Thumb Code     4  ssp_18xx_43xx.o(i.Chip_SSP_ClearIntPending)
    i.Chip_SSP_GetClockIndex                 0x1a00541c   Section        0  ssp_18xx_43xx.o(i.Chip_SSP_GetClockIndex)
    Chip_SSP_GetClockIndex                   0x1a00541d   Thumb Code    16  ssp_18xx_43xx.o(i.Chip_SSP_GetClockIndex)
    i.Chip_SSP_GetRawIntStatus               0x1a005430   Section        0  ssp_18xx_43xx.o(i.Chip_SSP_GetRawIntStatus)
    Chip_SSP_GetRawIntStatus                 0x1a005431   Thumb Code    16  ssp_18xx_43xx.o(i.Chip_SSP_GetRawIntStatus)
    i.Chip_SSP_GetStatus                     0x1a005440   Section        0  ssp_18xx_43xx.o(i.Chip_SSP_GetStatus)
    Chip_SSP_GetStatus                       0x1a005441   Thumb Code    16  ssp_18xx_43xx.o(i.Chip_SSP_GetStatus)
    i.Chip_SSP_Init                          0x1a005450   Section        0  ssp_18xx_43xx.o(i.Chip_SSP_Init)
    i.Chip_SSP_ReceiveFrame                  0x1a00548c   Section        0  ssp_18xx_43xx.o(i.Chip_SSP_ReceiveFrame)
    Chip_SSP_ReceiveFrame                    0x1a00548d   Thumb Code     8  ssp_18xx_43xx.o(i.Chip_SSP_ReceiveFrame)
    i.Chip_SSP_SendFrame                     0x1a005494   Section        0  ssp_18xx_43xx.o(i.Chip_SSP_SendFrame)
    Chip_SSP_SendFrame                       0x1a005495   Thumb Code     6  ssp_18xx_43xx.o(i.Chip_SSP_SendFrame)
    i.Chip_SSP_SetBitRate                    0x1a00549a   Section        0  ssp_18xx_43xx.o(i.Chip_SSP_SetBitRate)
    i.Chip_SSP_SetClockRate                  0x1a0054e0   Section        0  ssp_18xx_43xx.o(i.Chip_SSP_SetClockRate)
    i.Chip_SSP_SetMaster                     0x1a0054f4   Section        0  ssp_18xx_43xx.o(i.Chip_SSP_SetMaster)
    i.Chip_SSP_Set_Mode                      0x1a005510   Section        0  ssp_18xx_43xx.o(i.Chip_SSP_Set_Mode)
    Chip_SSP_Set_Mode                        0x1a005511   Thumb Code    12  ssp_18xx_43xx.o(i.Chip_SSP_Set_Mode)
    i.Chip_SSP_WriteFrames_Blocking          0x1a00551c   Section        0  ssp_18xx_43xx.o(i.Chip_SSP_WriteFrames_Blocking)
    i.Chip_SetupCoreClock                    0x1a005606   Section        0  sysinit_18xx_43xx.o(i.Chip_SetupCoreClock)
    i.Chip_UART_DisableDivisorAccess         0x1a005614   Section        0  uart_18xx_43xx.o(i.Chip_UART_DisableDivisorAccess)
    Chip_UART_DisableDivisorAccess           0x1a005615   Thumb Code    10  uart_18xx_43xx.o(i.Chip_UART_DisableDivisorAccess)
    i.Chip_UART_EnableDivisorAccess          0x1a00561e   Section        0  uart_18xx_43xx.o(i.Chip_UART_EnableDivisorAccess)
    Chip_UART_EnableDivisorAccess            0x1a00561f   Thumb Code    10  uart_18xx_43xx.o(i.Chip_UART_EnableDivisorAccess)
    i.Chip_UART_GetClockIndex                0x1a005628   Section        0  uart_18xx_43xx.o(i.Chip_UART_GetClockIndex)
    Chip_UART_GetClockIndex                  0x1a005629   Thumb Code    36  uart_18xx_43xx.o(i.Chip_UART_GetClockIndex)
    i.Chip_UART_Init                         0x1a005658   Section        0  uart_18xx_43xx.o(i.Chip_UART_Init)
    i.Chip_UART_SetBaud                      0x1a0056a4   Section        0  uart_18xx_43xx.o(i.Chip_UART_SetBaud)
    i.Chip_UART_SetDivisorLatches            0x1a0056e6   Section        0  uart_18xx_43xx.o(i.Chip_UART_SetDivisorLatches)
    Chip_UART_SetDivisorLatches              0x1a0056e7   Thumb Code     6  uart_18xx_43xx.o(i.Chip_UART_SetDivisorLatches)
    i.SystemCoreClockUpdate                  0x1a0056ec   Section        0  chip_18xx_43xx.o(i.SystemCoreClockUpdate)
    i.clock_init_delay                       0x1a005700   Section        0  sysinit_18xx_43xx.o(i.clock_init_delay)
    clock_init_delay                         0x1a005701   Thumb Code    36  sysinit_18xx_43xx.o(i.clock_init_delay)
    i.clock_main_init                        0x1a005724   Section        0  sysinit_18xx_43xx.o(i.clock_main_init)
    clock_main_init                          0x1a005725   Thumb Code   168  sysinit_18xx_43xx.o(i.clock_main_init)
    i.convertTimmingParam                    0x1a0057e0   Section        0  emc_18xx_43xx.o(i.convertTimmingParam)
    convertTimmingParam                      0x1a0057e1   Thumb Code    50  emc_18xx_43xx.o(i.convertTimmingParam)
    i.fpuInit                                0x1a005818   Section        0  fpu_init.o(i.fpuInit)
    i.getClkDiv                              0x1a005868   Section        0  i2s_18xx_43xx.o(i.getClkDiv)
    getClkDiv                                0x1a005869   Thumb Code   354  i2s_18xx_43xx.o(i.getClkDiv)
    i.getClkRate                             0x1a0059cc   Section        0  i2c_18xx_43xx.o(i.getClkRate)
    getClkRate                               0x1a0059cd   Thumb Code    22  i2c_18xx_43xx.o(i.getClkRate)
    i.getColsLen                             0x1a0059e8   Section        0  emc_18xx_43xx.o(i.getColsLen)
    getColsLen                               0x1a0059e9   Thumb Code    40  emc_18xx_43xx.o(i.getColsLen)
    i.getCurState                            0x1a005a10   Section        0  i2c_18xx_43xx.o(i.getCurState)
    getCurState                              0x1a005a11   Thumb Code    10  i2c_18xx_43xx.o(i.getCurState)
    i.handleMasterXferState                  0x1a005a1a   Section        0  i2c_18xx_43xx.o(i.handleMasterXferState)
    i.initDynMem                             0x1a005afa   Section        0  emc_18xx_43xx.o(i.initDynMem)
    i.initStaticMem                          0x1a005ce2   Section        0  emc_18xx_43xx.o(i.initStaticMem)
    i.startSlaverXfer                        0x1a005d4a   Section        0  i2c_18xx_43xx.o(i.startSlaverXfer)
    startSlaverXfer                          0x1a005d4b   Thumb Code    10  i2c_18xx_43xx.o(i.startSlaverXfer)
    x$fpl$fpinit                             0x1a005d54   Section       10  fpinit.o(x$fpl$fpinit)
    $v0                                      0x1a005d54   Number         0  fpinit.o(x$fpl$fpinit)
    .constdata                               0x1a005d60   Section       64  board.o(.constdata)
    ledports                                 0x1a005d60   Data           8  board.o(.constdata)
    ledbits                                  0x1a005d68   Data           8  board.o(.constdata)
    .constdata                               0x1a005da0   Section      700  board_sysinit.o(.constdata)
    InitClkStates                            0x1a005da0   Data          16  board_sysinit.o(.constdata)
    spifipinmuxing                           0x1a005db0   Data          24  board_sysinit.o(.constdata)
    pinmuxing                                0x1a005dc8   Data         496  board_sysinit.o(.constdata)
    pinclockmuxing                           0x1a005fb8   Data          16  board_sysinit.o(.constdata)
    MT48LC4M32_config                        0x1a005fc8   Data         116  board_sysinit.o(.constdata)
    S29GL64N90_config                        0x1a00603c   Data          32  board_sysinit.o(.constdata)
    .constdata                               0x1a00605c   Section       31  uda1380.o(.constdata)
    UDA_sys_regs_dat                         0x1a00605c   Data          11  uda1380.o(.constdata)
    UDA_interfil_regs_dat                    0x1a006067   Data          11  uda1380.o(.constdata)
    UDA_decimator_regs_dat                   0x1a006072   Data           9  uda1380.o(.constdata)
    .constdata                               0x1a00607c   Section      108  clock_18xx_43xx.o(.constdata)
    periph_to_base                           0x1a00607c   Data         108  clock_18xx_43xx.o(.constdata)
    .constdata                               0x1a0060e8   Section       72  sysinit_18xx_43xx.o(.constdata)
    InitClkStates                            0x1a0060e8   Data          72  sysinit_18xx_43xx.o(.constdata)

    Global Symbols

    Symbol Name                              Value     Ov Type        Size  Object(Section)

    BuildAttributes$$THM_ISAv4$E$P$D$K$B$S$7EM$VFPi3$EXTD16$VFPS$VFMA$PE$A:L22UL41UL21$X:L11$S22US41US21$IEEE1$IW$USESV6$~STKCKD$USESV7$~SHL$OSPACE$ROPI$EBA8$UX$STANDARDLIB$REQ8$PRES8$EABIv2 0x00000000   Number         0  anon$$obj.o ABSOLUTE
    __ARM_use_no_argv                        0x00000000   Number         0  main.o ABSOLUTE
    __ARM_exceptions_init                     - Undefined Weak Reference
    __alloca_initialize                       - Undefined Weak Reference
    __arm_preinit_                            - Undefined Weak Reference
    __cpp_initialize__aeabi_                  - Undefined Weak Reference
    __cxa_finalize                            - Undefined Weak Reference
    __rt_locale                               - Undefined Weak Reference
    __sigvec_lookup                           - Undefined Weak Reference
    _atexit_init                              - Undefined Weak Reference
    _call_atexit_fns                          - Undefined Weak Reference
    _clock_init                               - Undefined Weak Reference
    _fp_trap_init                             - Undefined Weak Reference
    _fp_trap_shutdown                         - Undefined Weak Reference
    _get_lc_collate                           - Undefined Weak Reference
    _get_lc_ctype                             - Undefined Weak Reference
    _get_lc_monetary                          - Undefined Weak Reference
    _get_lc_numeric                           - Undefined Weak Reference
    _get_lc_time                              - Undefined Weak Reference
    _getenv_init                              - Undefined Weak Reference
    _handle_redirection                       - Undefined Weak Reference
    _init_alloc                               - Undefined Weak Reference
    _init_user_alloc                          - Undefined Weak Reference
    _initio                                   - Undefined Weak Reference
    _printf_post_padding                      - Undefined Weak Reference
    _printf_pre_padding                       - Undefined Weak Reference
    _printf_truncate_signed                   - Undefined Weak Reference
    _printf_truncate_unsigned                 - Undefined Weak Reference
    _rand_init                                - Undefined Weak Reference
    _signal_finish                            - Undefined Weak Reference
    _signal_init                              - Undefined Weak Reference
    _terminate_alloc                          - Undefined Weak Reference
    _terminate_user_alloc                     - Undefined Weak Reference
    _terminateio                              - Undefined Weak Reference
    idle_task_exit                           0x10000000   Data           1  raw-os.o(.data)
    raw_sched_lock                           0x10000001   Data           1  raw-os.o(.data)
    raw_int_nesting                          0x10000002   Data           1  raw-os.o(.data)
    raw_os_active                            0x10000004   Data           2  raw-os.o(.data)
    high_ready_obj                           0x10000008   Data           4  raw-os.o(.data)
    raw_task_active                          0x1000000c   Data           4  raw-os.o(.data)
    raw_tick_count                           0x10000010   Data           4  raw-os.o(.data)
    raw_timer_count                          0x10000014   Data           4  raw-os.o(.data)
    raw_timer_ctrl                           0x10000018   Data           4  raw-os.o(.data)
    raw_idle_count                           0x10000020   Data           8  raw-os.o(.data)
    timer_head                               0x10000028   Data           8  raw-os.o(.data)
    sys_time_tick                            0x10000030   Data           8  raw-os.o(.data)
    g_lcdShowMemory                          0x10000048   Data           4  main.o(.data)
    frame                                    0x1000004c   Data           4  main.o(.data)
    __stdout                                 0x10000050   Data           4  board.o(.data)
    __stdin                                  0x10000054   Data           4  board.o(.data)
    __stderr                                 0x10000058   Data           4  board.o(.data)
    g_isPenDn                                0x1000005c   Data           4  board.o(.data)
    g_isNewPenDn                             0x10000060   Data           4  board.o(.data)
    SystemCoreClock                          0x10000064   Data           4  chip_18xx_43xx.o(.data)
    raw_ready_queue                          0x100000a8   Data         508  raw-os.o(.bss)
    raw_idle_obj                             0x100002a8   Data         144  raw-os.o(.bss)
    idle_stack                               0x10000338   Data         320  raw-os.o(.bss)
    tick_head                                0x10000478   Data          64  raw-os.o(.bss)
    raw_timer_obj                            0x100004b8   Data         144  raw-os.o(.bss)
    timer_task_stack                         0x10000548   Data        1024  raw-os.o(.bss)
    timer_sem                                0x10000948   Data          36  raw-os.o(.bss)
    timer_mutex                              0x1000096c   Data          40  raw-os.o(.bss)
    raw_task_debug                           0x10000994   Data          56  raw-os.o(.bss)
    tick_task_obj                            0x100009d0   Data         144  raw-os.o(.bss)
    tick_task_stack                          0x10000a60   Data        1024  raw-os.o(.bss)
    tick_semaphore_obj                       0x10000e60   Data          36  raw-os.o(.bss)
    shell_task_stack                         0x10000e88   Data        1600  main.o(.bss)
    shell_task_obj                           0x100014c8   Data         144  main.o(.bss)
    uart_sema                                0x10001558   Data          36  main.o(.bss)
    uart_fifo                                0x1000157c   Data          24  main.o(.bss)
    __libspace_start                         0x10001614   Data          96  libspace.o(.bss)
    __temporary_stack_top$libspace           0x10001674   Data           0  libspace.o(.bss)
    Stack_Mem                                0x10001778   Data        1536  keil_startup_lpc18xx43xx.o(STACK)
    __Vectors                                0x1a000000   Data           4  keil_startup_lpc18xx43xx.o(RESET)
    __main                                   0x1a000115   Thumb Code     8  __main.o(!!!main)
    __scatterload                            0x1a00011d   Thumb Code     0  __scatter.o(!!!scatter)
    __scatterload_rt2                        0x1a00011d   Thumb Code    44  __scatter.o(!!!scatter)
    __scatterload_rt2_thumb_only             0x1a00011d   Thumb Code     0  __scatter.o(!!!scatter)
    __scatterload_null                       0x1a00012b   Thumb Code     0  __scatter.o(!!!scatter)
    __scatterload_copy                       0x1a000151   Thumb Code    26  __scatter_copy.o(!!handler_copy)
    __scatterload_zeroinit                   0x1a00016d   Thumb Code    28  __scatter_zi.o(!!handler_zi)
    _printf_d                                0x1a000189   Thumb Code     0  _printf_d.o(.ARM.Collect$$_printf_percent$$00000009)
    _printf_percent                          0x1a000189   Thumb Code     0  _printf_percent.o(.ARM.Collect$$_printf_percent$$00000000)
    _printf_percent_end                      0x1a00018f   Thumb Code     0  _printf_percent_end.o(.ARM.Collect$$_printf_percent$$00000017)
    __rt_lib_init                            0x1a000193   Thumb Code     0  libinit.o(.ARM.Collect$$libinit$$00000000)
    __rt_lib_init_fp_1                       0x1a000195   Thumb Code     0  libinit2.o(.ARM.Collect$$libinit$$00000001)
    __rt_lib_init_alloca_1                   0x1a000199   Thumb Code     0  libinit2.o(.ARM.Collect$$libinit$$0000002E)
    __rt_lib_init_argv_1                     0x1a000199   Thumb Code     0  libinit2.o(.ARM.Collect$$libinit$$0000002C)
    __rt_lib_init_atexit_1                   0x1a000199   Thumb Code     0  libinit2.o(.ARM.Collect$$libinit$$0000001B)
    __rt_lib_init_clock_1                    0x1a000199   Thumb Code     0  libinit2.o(.ARM.Collect$$libinit$$00000021)
    __rt_lib_init_cpp_1                      0x1a000199   Thumb Code     0  libinit2.o(.ARM.Collect$$libinit$$00000032)
    __rt_lib_init_exceptions_1               0x1a000199   Thumb Code     0  libinit2.o(.ARM.Collect$$libinit$$00000030)
    __rt_lib_init_fp_trap_1                  0x1a000199   Thumb Code     0  libinit2.o(.ARM.Collect$$libinit$$0000001F)
    __rt_lib_init_getenv_1                   0x1a000199   Thumb Code     0  libinit2.o(.ARM.Collect$$libinit$$00000023)
    __rt_lib_init_heap_1                     0x1a000199   Thumb Code     0  libinit2.o(.ARM.Collect$$libinit$$0000000A)
    __rt_lib_init_lc_collate_1               0x1a000199   Thumb Code     0  libinit2.o(.ARM.Collect$$libinit$$00000011)
    __rt_lib_init_lc_ctype_1                 0x1a000199   Thumb Code     0  libinit2.o(.ARM.Collect$$libinit$$00000013)
    __rt_lib_init_lc_monetary_1              0x1a000199   Thumb Code     0  libinit2.o(.ARM.Collect$$libinit$$00000015)
    __rt_lib_init_lc_numeric_1               0x1a000199   Thumb Code     0  libinit2.o(.ARM.Collect$$libinit$$00000017)
    __rt_lib_init_lc_time_1                  0x1a000199   Thumb Code     0  libinit2.o(.ARM.Collect$$libinit$$00000019)
    __rt_lib_init_preinit_1                  0x1a000199   Thumb Code     0  libinit2.o(.ARM.Collect$$libinit$$00000004)
    __rt_lib_init_rand_1                     0x1a000199   Thumb Code     0  libinit2.o(.ARM.Collect$$libinit$$0000000E)
    __rt_lib_init_return                     0x1a000199   Thumb Code     0  libinit2.o(.ARM.Collect$$libinit$$00000033)
    __rt_lib_init_signal_1                   0x1a000199   Thumb Code     0  libinit2.o(.ARM.Collect$$libinit$$0000001D)
    __rt_lib_init_stdio_1                    0x1a000199   Thumb Code     0  libinit2.o(.ARM.Collect$$libinit$$00000025)
    __rt_lib_init_user_alloc_1               0x1a000199   Thumb Code     0  libinit2.o(.ARM.Collect$$libinit$$0000000C)
    __rt_lib_shutdown                        0x1a00019b   Thumb Code     0  libshutdown.o(.ARM.Collect$$libshutdown$$00000000)
    __rt_lib_shutdown_cpp_1                  0x1a00019d   Thumb Code     0  libshutdown2.o(.ARM.Collect$$libshutdown$$00000002)
    __rt_lib_shutdown_fp_trap_1              0x1a00019d   Thumb Code     0  libshutdown2.o(.ARM.Collect$$libshutdown$$00000007)
    __rt_lib_shutdown_heap_1                 0x1a00019d   Thumb Code     0  libshutdown2.o(.ARM.Collect$$libshutdown$$0000000F)
    __rt_lib_shutdown_return                 0x1a00019d   Thumb Code     0  libshutdown2.o(.ARM.Collect$$libshutdown$$00000010)
    __rt_lib_shutdown_signal_1               0x1a00019d   Thumb Code     0  libshutdown2.o(.ARM.Collect$$libshutdown$$0000000A)
    __rt_lib_shutdown_stdio_1                0x1a00019d   Thumb Code     0  libshutdown2.o(.ARM.Collect$$libshutdown$$00000004)
    __rt_lib_shutdown_user_alloc_1           0x1a00019d   Thumb Code     0  libshutdown2.o(.ARM.Collect$$libshutdown$$0000000C)
    __rt_entry                               0x1a00019f   Thumb Code     0  __rtentry.o(.ARM.Collect$$rtentry$$00000000)
    __rt_entry_presh_1                       0x1a00019f   Thumb Code     0  __rtentry2.o(.ARM.Collect$$rtentry$$00000002)
    __rt_entry_sh                            0x1a00019f   Thumb Code     0  __rtentry4.o(.ARM.Collect$$rtentry$$00000004)
    __rt_entry_li                            0x1a0001a5   Thumb Code     0  __rtentry2.o(.ARM.Collect$$rtentry$$0000000A)
    __rt_entry_postsh_1                      0x1a0001a5   Thumb Code     0  __rtentry2.o(.ARM.Collect$$rtentry$$00000009)
    __rt_entry_main                          0x1a0001a9   Thumb Code     0  __rtentry2.o(.ARM.Collect$$rtentry$$0000000D)
    __rt_entry_postli_1                      0x1a0001a9   Thumb Code     0  __rtentry2.o(.ARM.Collect$$rtentry$$0000000C)
    __rt_exit                                0x1a0001b1   Thumb Code     0  rtexit.o(.ARM.Collect$$rtexit$$00000000)
    __rt_exit_ls                             0x1a0001b3   Thumb Code     0  rtexit2.o(.ARM.Collect$$rtexit$$00000003)
    __rt_exit_prels_1                        0x1a0001b3   Thumb Code     0  rtexit2.o(.ARM.Collect$$rtexit$$00000002)
    __rt_exit_exit                           0x1a0001b7   Thumb Code     0  rtexit2.o(.ARM.Collect$$rtexit$$00000004)
    get_ready_task                           0x1a0001bd   Thumb Code    16  raw-os.o(.text)
    raw_sched                                0x1a0001cd   Thumb Code    46  raw-os.o(.text)
    raw_semaphore_create                     0x1a0001fb   Thumb Code    54  raw-os.o(.text)
    raw_task_semaphore_create                0x1a000231   Thumb Code    16  raw-os.o(.text)
    tick_list_remove                         0x1a000241   Thumb Code    24  raw-os.o(.text)
    mutex_priority_look                      0x1a000259   Thumb Code    74  raw-os.o(.text)
    change_pend_list_priority                0x1a0002a3   Thumb Code    34  raw-os.o(.text)
    add_ready_list_end                       0x1a0002c5   Thumb Code    40  raw-os.o(.text)
    add_ready_list_head                      0x1a0002ed   Thumb Code    40  raw-os.o(.text)
    bit_search_first_one                     0x1a000315   Thumb Code   116  raw-os.o(.text)
    remove_ready_list                        0x1a000389   Thumb Code   104  raw-os.o(.text)
    change_internal_task_priority            0x1a0003f1   Thumb Code   168  raw-os.o(.text)
    mutex_state_change                       0x1a000499   Thumb Code    38  raw-os.o(.text)
    add_ready_list                           0x1a0004bf   Thumb Code    20  raw-os.o(.text)
    tick_list_update                         0x1a0004d3   Thumb Code   246  raw-os.o(.text)
    block_state_post_process                 0x1a0005c9   Thumb Code    62  raw-os.o(.text)
    tick_list_insert                         0x1a000607   Thumb Code    62  raw-os.o(.text)
    raw_pend_object                          0x1a000645   Thumb Code    70  raw-os.o(.text)
    raw_semaphore_get                        0x1a00068b   Thumb Code   140  raw-os.o(.text)
    raw_task_semaphore_get                   0x1a000717   Thumb Code    10  raw-os.o(.text)
    raw_task_create                          0x1a00073d   Thumb Code   266  raw-os.o(.text)
    tick_task_start                          0x1a000847   Thumb Code    56  raw-os.o(.text)
    raw_mutex_create                         0x1a00087f   Thumb Code    66  raw-os.o(.text)
    raw_wake_object                          0x1a000921   Thumb Code     2  raw-os.o(.text)
    raw_mutex_put                            0x1a000923   Thumb Code   170  raw-os.o(.text)
    raw_mutex_get                            0x1a0009cd   Thumb Code   346  raw-os.o(.text)
    raw_semaphore_set                        0x1a000b27   Thumb Code    84  raw-os.o(.text)
    timer_task                               0x1a000b7b   Thumb Code   166  raw-os.o(.text)
    raw_timer_init                           0x1a000c21   Thumb Code    66  raw-os.o(.text)
    raw_idle_task                            0x1a000c63   Thumb Code    30  raw-os.o(.text)
    tick_list_init                           0x1a000c81   Thumb Code    24  raw-os.o(.text)
    run_queue_init                           0x1a000c99   Thumb Code    26  raw-os.o(.text)
    raw_os_init                              0x1a000cb3   Thumb Code   132  raw-os.o(.text)
    raw_os_start                             0x1a000d37   Thumb Code    36  raw-os.o(.text)
    move_to_ready_list_end                   0x1a000d5b   Thumb Code    34  raw-os.o(.text)
    calculate_time_slice                     0x1a000d7d   Thumb Code    76  raw-os.o(.text)
    wake_send_msg                            0x1a000dc9   Thumb Code     4  raw-os.o(.text)
    wake_send_msg_size                       0x1a000dcd   Thumb Code     6  raw-os.o(.text)
    delete_pend_obj                          0x1a000dd3   Thumb Code    98  raw-os.o(.text)
    raw_task_stack_check                     0x1a000e35   Thumb Code    52  raw-os.o(.text)
    raw_isr_stack_check                      0x1a000e69   Thumb Code    14  raw-os.o(.text)
    raw_disable_sche                         0x1a000e77   Thumb Code    42  raw-os.o(.text)
    raw_enable_sche                          0x1a000ea1   Thumb Code    58  raw-os.o(.text)
    raw_sleep                                0x1a000edb   Thumb Code   174  raw-os.o(.text)
    raw_task_yield                           0x1a000f89   Thumb Code    36  raw-os.o(.text)
    raw_time_sleep                           0x1a000fad   Thumb Code    94  raw-os.o(.text)
    task_suspend                             0x1a00100b   Thumb Code   154  raw-os.o(.text)
    raw_task_suspend                         0x1a0010a5   Thumb Code    24  raw-os.o(.text)
    task_resume                              0x1a0010bd   Thumb Code   162  raw-os.o(.text)
    raw_task_resume                          0x1a00115f   Thumb Code    10  raw-os.o(.text)
    chg_pri_mutex                            0x1a001169   Thumb Code   114  raw-os.o(.text)
    raw_task_priority_change                 0x1a0011db   Thumb Code   140  raw-os.o(.text)
    raw_task_free_mutex                      0x1a001267   Thumb Code    68  raw-os.o(.text)
    raw_task_delete                          0x1a0012ab   Thumb Code   180  raw-os.o(.text)
    raw_set_task_user_point                  0x1a00135f   Thumb Code    34  raw-os.o(.text)
    raw_get_task_user_point                  0x1a001381   Thumb Code     8  raw-os.o(.text)
    raw_task_time_slice_change               0x1a001389   Thumb Code    52  raw-os.o(.text)
    raw_set_sched_way                        0x1a0013bd   Thumb Code    56  raw-os.o(.text)
    raw_get_sched_way                        0x1a0013f5   Thumb Code    46  raw-os.o(.text)
    raw_task_wait_abort                      0x1a001423   Thumb Code   164  raw-os.o(.text)
    raw_task_identify                        0x1a0014c7   Thumb Code     6  raw-os.o(.text)
    raw_iter_block_task                      0x1a0014cd   Thumb Code    72  raw-os.o(.text)
    raw_get_system_global_space              0x1a001515   Thumb Code     6  raw-os.o(.text)
    raw_block_pool_create                    0x1a00151b   Thumb Code   108  raw-os.o(.text)
    raw_block_allocate                       0x1a001587   Thumb Code    76  raw-os.o(.text)
    raw_block_release                        0x1a0015d3   Thumb Code    52  raw-os.o(.text)
    raw_byte_pool_create                     0x1a001607   Thumb Code    88  raw-os.o(.text)
    raw_byte_allocate                        0x1a00165f   Thumb Code    94  raw-os.o(.text)
    raw_byte_release                         0x1a0016bd   Thumb Code    64  raw-os.o(.text)
    raw_event_create                         0x1a0016fd   Thumb Code    42  raw-os.o(.text)
    raw_event_get                            0x1a001727   Thumb Code   238  raw-os.o(.text)
    event_set                                0x1a001815   Thumb Code   132  raw-os.o(.text)
    raw_event_set                            0x1a001899   Thumb Code    22  raw-os.o(.text)
    raw_event_delete                         0x1a0018af   Thumb Code    96  raw-os.o(.text)
    raw_mutex_delete                         0x1a00190f   Thumb Code   104  raw-os.o(.text)
    raw_queue_create                         0x1a001977   Thumb Code    78  raw-os.o(.text)
    raw_queue_block_way_set                  0x1a0019c5   Thumb Code    14  raw-os.o(.text)
    raw_queue_full_register                  0x1a0019d3   Thumb Code    32  raw-os.o(.text)
    msg_post                                 0x1a0019f3   Thumb Code   198  raw-os.o(.text)
    raw_queue_front_post                     0x1a001ab9   Thumb Code    22  raw-os.o(.text)
    raw_queue_end_post                       0x1a001acf   Thumb Code    22  raw-os.o(.text)
    raw_queue_post_notify                    0x1a001ae5   Thumb Code    22  raw-os.o(.text)
    raw_queue_all_post                       0x1a001afb   Thumb Code    20  raw-os.o(.text)
    raw_queue_send_notify                    0x1a001b0f   Thumb Code    56  raw-os.o(.text)
    raw_queue_receive                        0x1a001b47   Thumb Code   214  raw-os.o(.text)
    raw_queue_full_check                     0x1a001c1d   Thumb Code    58  raw-os.o(.text)
    raw_queue_flush                          0x1a001c57   Thumb Code    70  raw-os.o(.text)
    raw_queue_delete                         0x1a001c9d   Thumb Code    94  raw-os.o(.text)
    raw_queue_get_information                0x1a001cfb   Thumb Code    82  raw-os.o(.text)
    raw_queue_buffer_create                  0x1a001d4d   Thumb Code    98  raw-os.o(.text)
    queue_buffer_post                        0x1a001daf   Thumb Code   194  raw-os.o(.text)
    raw_queue_buffer_end_post                0x1a001e71   Thumb Code    30  raw-os.o(.text)
    raw_queue_buffer_receive                 0x1a001e8f   Thumb Code   288  raw-os.o(.text)
    raw_queue_buffer_flush                   0x1a001faf   Thumb Code    62  raw-os.o(.text)
    raw_queue_buffer_delete                  0x1a001fed   Thumb Code    94  raw-os.o(.text)
    raw_queue_buffer_info_get                0x1a00204b   Thumb Code    66  raw-os.o(.text)
    raw_queue_size_create                    0x1a00208d   Thumb Code    90  raw-os.o(.text)
    raw_queue_size_full_register             0x1a0020e7   Thumb Code    32  raw-os.o(.text)
    msg_size_post                            0x1a002107   Thumb Code   198  raw-os.o(.text)
    raw_queue_size_receive                   0x1a0021cd   Thumb Code   258  raw-os.o(.text)
    raw_queue_size_front_post                0x1a0022cf   Thumb Code    30  raw-os.o(.text)
    raw_queue_size_end_post                  0x1a0022ed   Thumb Code    30  raw-os.o(.text)
    raw_queue_size_all_post                  0x1a00230b   Thumb Code    28  raw-os.o(.text)
    raw_queue_size_full_check                0x1a002327   Thumb Code    58  raw-os.o(.text)
    raw_queue_size_flush                     0x1a002361   Thumb Code    74  raw-os.o(.text)
    raw_queue_size_delete                    0x1a0023ab   Thumb Code    94  raw-os.o(.text)
    raw_queue_size_get_information           0x1a002409   Thumb Code    78  raw-os.o(.text)
    raw_semaphore_block_way_set              0x1a002457   Thumb Code    26  raw-os.o(.text)
    semaphore_put                            0x1a002471   Thumb Code   138  raw-os.o(.text)
    raw_semaphore_put                        0x1a0024fb   Thumb Code    12  raw-os.o(.text)
    raw_semaphore_put_notify                 0x1a002507   Thumb Code    12  raw-os.o(.text)
    raw_semaphore_put_all                    0x1a002513   Thumb Code    12  raw-os.o(.text)
    raw_semphore_send_notify                 0x1a00251f   Thumb Code    56  raw-os.o(.text)
    raw_semaphore_delete                     0x1a002557   Thumb Code    94  raw-os.o(.text)
    raw_stack_check                          0x1a0025b5   Thumb Code    68  raw-os.o(.text)
    raw_statistics_check                     0x1a0025f9   Thumb Code    46  raw-os.o(.text)
    raw_finish_int                           0x1a002627   Thumb Code    80  raw-os.o(.text)
    call_timer_task                          0x1a002677   Thumb Code    20  raw-os.o(.text)
    raw_task_semaphore_put                   0x1a00268b   Thumb Code     4  raw-os.o(.text)
    raw_time_tick                            0x1a00268f   Thumb Code    48  raw-os.o(.text)
    raw_enter_interrupt                      0x1a0026bf   Thumb Code    62  raw-os.o(.text)
    raw_system_time_get                      0x1a0026fd   Thumb Code    36  raw-os.o(.text)
    raw_os_version_get                       0x1a002721   Thumb Code     6  raw-os.o(.text)
    raw_task_qsize_create                    0x1a002727   Thumb Code    20  raw-os.o(.text)
    raw_task_qsize_receive                   0x1a00273b   Thumb Code    20  raw-os.o(.text)
    raw_task_qsize_front_post                0x1a00274f   Thumb Code     4  raw-os.o(.text)
    raw_task_qsize_end_post                  0x1a002753   Thumb Code     4  raw-os.o(.text)
    raw_task_qsize_flush                     0x1a002757   Thumb Code     4  raw-os.o(.text)
    raw_task_qsize_delete                    0x1a00275b   Thumb Code     4  raw-os.o(.text)
    raw_task_qsize_get_information           0x1a00275f   Thumb Code     4  raw-os.o(.text)
    raw_task_semaphore_set                   0x1a002763   Thumb Code     6  raw-os.o(.text)
    raw_task_semaphore_delete                0x1a002769   Thumb Code     4  raw-os.o(.text)
    raw_timer_activate                       0x1a00276d   Thumb Code   132  raw-os.o(.text)
    raw_timer_create                         0x1a0027f1   Thumb Code    96  raw-os.o(.text)
    raw_timer_change                         0x1a002851   Thumb Code   104  raw-os.o(.text)
    raw_timer_deactivate                     0x1a0028b9   Thumb Code   132  raw-os.o(.text)
    raw_timer_delete                         0x1a00293d   Thumb Code   108  raw-os.o(.text)
    fifo_init                                0x1a002b25   Thumb Code    68  fifo.o(.text)
    fifo_in                                  0x1a002b69   Thumb Code    92  fifo.o(.text)
    fifo_out_peek                            0x1a002c03   Thumb Code    38  fifo.o(.text)
    fifo_out                                 0x1a002c29   Thumb Code    50  fifo.o(.text)
    fifo_out_all                             0x1a002c5b   Thumb Code    62  fifo.o(.text)
    OS_CPU_SR_Save                           0x1a002c99   Thumb Code     0  cpu.o(.text)
    OS_CPU_SR_Restore                        0x1a002ca1   Thumb Code     0  cpu.o(.text)
    CPU_IntDis                               0x1a002ca7   Thumb Code     0  cpu.o(.text)
    CPU_IntEn                                0x1a002cab   Thumb Code     0  cpu.o(.text)
    raw_start_first_task                     0x1a002caf   Thumb Code     0  cpu.o(.text)
    port_task_switch                         0x1a002cd7   Thumb Code     0  cpu.o(.text)
    raw_int_switch                           0x1a002ce1   Thumb Code     0  cpu.o(.text)
    PendSV_Handler                           0x1a002ceb   Thumb Code     0  cpu.o(.text)
    port_stack_init                          0x1a002d45   Thumb Code   324  port.o(.text)
    port_isr_stack_check                     0x1a002e89   Thumb Code     2  port.o(.text)
    port_isr_stack_free_check                0x1a002e8b   Thumb Code    20  port.o(.text)
    system_mpu_enable                        0x1a002e9f   Thumb Code    62  port.o(.text)
    task_stack_mpu_set                       0x1a002edd   Thumb Code    38  port.o(.text)
    raw_os_init_hook                         0x1a002f19   Thumb Code    14  port_hook.o(.text)
    raw_task_delete_hook                     0x1a002f27   Thumb Code     2  port_hook.o(.text)
    raw_task_abort_hook                      0x1a002f29   Thumb Code     2  port_hook.o(.text)
    raw_idle_task_hook                       0x1a002f2b   Thumb Code     2  port_hook.o(.text)
    raw_task_switch_hook                     0x1a002f2d   Thumb Code     2  port_hook.o(.text)
    raw_tick_hook                            0x1a002f2f   Thumb Code     2  port_hook.o(.text)
    task_create_hook                         0x1a002f31   Thumb Code     2  port_hook.o(.text)
    raw_idle_coroutine_hook                  0x1a002f33   Thumb Code     4  port_hook.o(.text)
    raw_memcpy                               0x1a002f37   Thumb Code    74  user_extension.o(.text)
    raw_memset                               0x1a002f81   Thumb Code    62  user_extension.o(.text)
    port_system_error_process                0x1a002fbf   Thumb Code    88  port_error_process.o(.text)
    cpu_timer_init                           0x1a003019   Thumb Code    26  port_extension.o(.text)
    user_cpu_time_get                        0x1a003033   Thumb Code     6  port_extension.o(.text)
    user_sys_time_get                        0x1a003039   Thumb Code     6  port_extension.o(.text)
    Reset_Handler                            0x1a003049   Thumb Code     8  keil_startup_lpc18xx43xx.o(.text)
    NMI_Handler                              0x1a003051   Thumb Code     2  keil_startup_lpc18xx43xx.o(.text)
    HardFault_Handler                        0x1a003053   Thumb Code     2  keil_startup_lpc18xx43xx.o(.text)
    MemManage_Handler                        0x1a003055   Thumb Code     2  keil_startup_lpc18xx43xx.o(.text)
    BusFault_Handler                         0x1a003057   Thumb Code     2  keil_startup_lpc18xx43xx.o(.text)
    UsageFault_Handler                       0x1a003059   Thumb Code     2  keil_startup_lpc18xx43xx.o(.text)
    SVC_Handler                              0x1a00305b   Thumb Code     2  keil_startup_lpc18xx43xx.o(.text)
    DebugMon_Handler                         0x1a00305d   Thumb Code     2  keil_startup_lpc18xx43xx.o(.text)
    UnHandled_Vector                         0x1a003063   Thumb Code     2  keil_startup_lpc18xx43xx.o(.text)
    ADC0_IRQHandler                          0x1a003065   Thumb Code     0  keil_startup_lpc18xx43xx.o(.text)
    ADC1_IRQHandler                          0x1a003065   Thumb Code     0  keil_startup_lpc18xx43xx.o(.text)
    ADCHS_IRQHandler                         0x1a003065   Thumb Code     0  keil_startup_lpc18xx43xx.o(.text)
    ATIMER_IRQHandler                        0x1a003065   Thumb Code     0  keil_startup_lpc18xx43xx.o(.text)
    CAN0_IRQHandler                          0x1a003065   Thumb Code     0  keil_startup_lpc18xx43xx.o(.text)
    CAN1_IRQHandler                          0x1a003065   Thumb Code     0  keil_startup_lpc18xx43xx.o(.text)
    DAC_IRQHandler                           0x1a003065   Thumb Code     0  keil_startup_lpc18xx43xx.o(.text)
    DMA_IRQHandler                           0x1a003065   Thumb Code     0  keil_startup_lpc18xx43xx.o(.text)
    ETH_IRQHandler                           0x1a003065   Thumb Code     0  keil_startup_lpc18xx43xx.o(.text)
    EVRT_IRQHandler                          0x1a003065   Thumb Code     0  keil_startup_lpc18xx43xx.o(.text)
    FLASHEEPROM_IRQHandler                   0x1a003065   Thumb Code     0  keil_startup_lpc18xx43xx.o(.text)
    GINT0_IRQHandler                         0x1a003065   Thumb Code     0  keil_startup_lpc18xx43xx.o(.text)
    GINT1_IRQHandler                         0x1a003065   Thumb Code     0  keil_startup_lpc18xx43xx.o(.text)
    GPIO0_IRQHandler                         0x1a003065   Thumb Code     0  keil_startup_lpc18xx43xx.o(.text)
    GPIO1_IRQHandler                         0x1a003065   Thumb Code     0  keil_startup_lpc18xx43xx.o(.text)
    GPIO2_IRQHandler                         0x1a003065   Thumb Code     0  keil_startup_lpc18xx43xx.o(.text)
    GPIO3_IRQHandler                         0x1a003065   Thumb Code     0  keil_startup_lpc18xx43xx.o(.text)
    GPIO4_IRQHandler                         0x1a003065   Thumb Code     0  keil_startup_lpc18xx43xx.o(.text)
    GPIO5_IRQHandler                         0x1a003065   Thumb Code     0  keil_startup_lpc18xx43xx.o(.text)
    GPIO6_IRQHandler                         0x1a003065   Thumb Code     0  keil_startup_lpc18xx43xx.o(.text)
    GPIO7_IRQHandler                         0x1a003065   Thumb Code     0  keil_startup_lpc18xx43xx.o(.text)
    I2C0_IRQHandler                          0x1a003065   Thumb Code     0  keil_startup_lpc18xx43xx.o(.text)
    I2C1_IRQHandler                          0x1a003065   Thumb Code     0  keil_startup_lpc18xx43xx.o(.text)
    I2S0_IRQHandler                          0x1a003065   Thumb Code     0  keil_startup_lpc18xx43xx.o(.text)
    I2S1_IRQHandler                          0x1a003065   Thumb Code     0  keil_startup_lpc18xx43xx.o(.text)
    LCD_IRQHandler                           0x1a003065   Thumb Code     0  keil_startup_lpc18xx43xx.o(.text)
    MCPWM_IRQHandler                         0x1a003065   Thumb Code     0  keil_startup_lpc18xx43xx.o(.text)
    MX_CORE_IRQHandler                       0x1a003065   Thumb Code     0  keil_startup_lpc18xx43xx.o(.text)
    QEI_IRQHandler                           0x1a003065   Thumb Code     0  keil_startup_lpc18xx43xx.o(.text)
    RIT_IRQHandler                           0x1a003065   Thumb Code     0  keil_startup_lpc18xx43xx.o(.text)
    RTC_IRQHandler                           0x1a003065   Thumb Code     0  keil_startup_lpc18xx43xx.o(.text)
    SCT_IRQHandler                           0x1a003065   Thumb Code     0  keil_startup_lpc18xx43xx.o(.text)
    SDIO_IRQHandler                          0x1a003065   Thumb Code     0  keil_startup_lpc18xx43xx.o(.text)
    SGPIO_IRQHandler                         0x1a003065   Thumb Code     0  keil_startup_lpc18xx43xx.o(.text)
    SPIFI_IRQHandler                         0x1a003065   Thumb Code     0  keil_startup_lpc18xx43xx.o(.text)
    SPI_IRQHandler                           0x1a003065   Thumb Code     0  keil_startup_lpc18xx43xx.o(.text)
    SSP0_IRQHandler                          0x1a003065   Thumb Code     0  keil_startup_lpc18xx43xx.o(.text)
    SSP1_IRQHandler                          0x1a003065   Thumb Code     0  keil_startup_lpc18xx43xx.o(.text)
    TIMER0_IRQHandler                        0x1a003065   Thumb Code     0  keil_startup_lpc18xx43xx.o(.text)
    TIMER1_IRQHandler                        0x1a003065   Thumb Code     0  keil_startup_lpc18xx43xx.o(.text)
    TIMER2_IRQHandler                        0x1a003065   Thumb Code     0  keil_startup_lpc18xx43xx.o(.text)
    TIMER3_IRQHandler                        0x1a003065   Thumb Code     0  keil_startup_lpc18xx43xx.o(.text)
    UART0_IRQHandler                         0x1a003065   Thumb Code     0  keil_startup_lpc18xx43xx.o(.text)
    UART1_IRQHandler                         0x1a003065   Thumb Code     0  keil_startup_lpc18xx43xx.o(.text)
    UART2_IRQHandler                         0x1a003065   Thumb Code     0  keil_startup_lpc18xx43xx.o(.text)
    USB0_IRQHandler                          0x1a003065   Thumb Code     0  keil_startup_lpc18xx43xx.o(.text)
    USB1_IRQHandler                          0x1a003065   Thumb Code     0  keil_startup_lpc18xx43xx.o(.text)
    WDT_IRQHandler                           0x1a003065   Thumb Code     0  keil_startup_lpc18xx43xx.o(.text)
    __user_initial_stackheap                 0x1a003069   Thumb Code     0  keil_startup_lpc18xx43xx.o(.text)
    SystemInit                               0x1a00308d   Thumb Code    20  sysinit.o(.text)
    scu_pinmux                               0x1a0030a9   Thumb Code    16  lpc43xx_scu.o(.text)
    emc_init                                 0x1a0030bd   Thumb Code   944  lpc43xx_sdram.o(.text)
    sdram_init                               0x1a00346d   Thumb Code   144  lpc43xx_sdram.o(.text)
    GPIO_SetDir                              0x1a003519   Thumb Code    22  lpc43xx_gpio.o(.text)
    GPIO_SetValue                            0x1a00352f   Thumb Code    12  lpc43xx_gpio.o(.text)
    GPIO_ClearValue                          0x1a00353b   Thumb Code    12  lpc43xx_gpio.o(.text)
    GPIO_ReadValue                           0x1a003547   Thumb Code    12  lpc43xx_gpio.o(.text)
    MCPMW_Init                               0x1a003559   Thumb Code    38  lpc43xx_lcd.o(.text)
    MCPWM_Set_Ratio                          0x1a00357f   Thumb Code    12  lpc43xx_lcd.o(.text)
    LCD_init                                 0x1a00358b   Thumb Code   704  lpc43xx_lcd.o(.text)
    LCD_enable                               0x1a00384b   Thumb Code    52  lpc43xx_lcd.o(.text)
    LCD_displayMemorySet                     0x1a00387f   Thumb Code    10  lpc43xx_lcd.o(.text)
    LCD_backLightCtl                         0x1a003889   Thumb Code    10  lpc43xx_lcd.o(.text)
    LCD_one_pixel_write                      0x1a003893   Thumb Code    18  lpc43xx_lcd.o(.text)
    LCD_one_pixel_read                       0x1a0038a5   Thumb Code    16  lpc43xx_lcd.o(.text)
    SysTick_Handler                          0x1a0038e5   Thumb Code    18  main.o(.text)
    OS_CPU_SysTickInit                       0x1a0038f7   Thumb Code    48  main.o(.text)
    uart_3_recv                              0x1a003927   Thumb Code    76  main.o(.text)
    UART3_IRQHandler                         0x1a003973   Thumb Code    56  main.o(.text)
    shell_task                               0x1a0039ab   Thumb Code   226  main.o(.text)
    main                                     0x1a003a8d   Thumb Code    56  main.o(.text)
    Board_UARTPutChar                        0x1a003b51   Thumb Code    26  board.o(.text)
    _sys_open                                0x1a003b6b   Thumb Code     6  board.o(.text)
    fputc                                    0x1a003b71   Thumb Code    20  board.o(.text)
    Board_UARTGetChar                        0x1a003b85   Thumb Code    28  board.o(.text)
    fgetc                                    0x1a003ba1   Thumb Code    10  board.o(.text)
    ferror                                   0x1a003bab   Thumb Code     8  board.o(.text)
    _sys_exit                                0x1a003bb3   Thumb Code     6  board.o(.text)
    Board_UART_Init                          0x1a003d53   Thumb Code    88  board.o(.text)
    Board_Debug_Init                         0x1a003dab   Thumb Code    42  board.o(.text)
    Board_UARTPutSTR                         0x1a003dd5   Thumb Code    22  board.o(.text)
    Board_LED_Set                            0x1a003e07   Thumb Code    28  board.o(.text)
    Board_LED_Test                           0x1a003e23   Thumb Code    28  board.o(.text)
    Board_LED_Toggle                         0x1a003e3f   Thumb Code    24  board.o(.text)
    Board_ENET_GetMacADDR                    0x1a003e57   Thumb Code    22  board.o(.text)
    Board_Init                               0x1a003e6d   Thumb Code    66  board.o(.text)
    Board_ADC_Init                           0x1a003eaf   Thumb Code     2  board.o(.text)
    Board_I2C_Init                           0x1a003eb1   Thumb Code    44  board.o(.text)
    Board_Audio_Init                         0x1a003edd   Thumb Code    52  board.o(.text)
    Board_InitLCDController                  0x1a003f11   Thumb Code   660  board.o(.text)
    Board_LCD_Init                           0x1a0041a5   Thumb Code    36  board.o(.text)
    Board_InitTouchController                0x1a0041c9   Thumb Code   202  board.o(.text)
    Board_I2C_GetTouchPos                    0x1a004293   Thumb Code   196  board.o(.text)
    Board_GetTouchPos                        0x1a004357   Thumb Code    60  board.o(.text)
    Board_SetLCDBacklight                    0x1a004393   Thumb Code    28  board.o(.text)
    Board_SDMMC_Init                         0x1a0043af   Thumb Code    74  board.o(.text)
    Board_SSP_Init                           0x1a0043f9   Thumb Code   106  board.o(.text)
    Board_Buttons_Init                       0x1a004463   Thumb Code    24  board.o(.text)
    Board_Joystick_Init                      0x1a00447b   Thumb Code   104  board.o(.text)
    Joystick_GetStatus                       0x1a0044e3   Thumb Code    96  board.o(.text)
    Buttons_GetStatus                        0x1a004543   Thumb Code    24  board.o(.text)
    Board_DAC_Init                           0x1a00455b   Thumb Code    18  board.o(.text)
    Board_SetupMuxing                        0x1a004625   Thumb Code    58  board_sysinit.o(.text)
    Board_SetupExtMemory                     0x1a00465f   Thumb Code    82  board_sysinit.o(.text)
    Board_SetupClocking                      0x1a0046b1   Thumb Code   160  board_sysinit.o(.text)
    Board_SystemInit                         0x1a004751   Thumb Code    12  board_sysinit.o(.text)
    UDA1380_REG_VerifyMult                   0x1a004795   Thumb Code    72  uda1380.o(.text)
    UDA1380_REG_WriteMult                    0x1a0047dd   Thumb Code    30  uda1380.o(.text)
    UDA1380_REG_Write                        0x1a00481f   Thumb Code    36  uda1380.o(.text)
    UDA1380_REG_Read                         0x1a004843   Thumb Code    42  uda1380.o(.text)
    UDA1380_REG_WriteVerify                  0x1a00486d   Thumb Code    34  uda1380.o(.text)
    UDA1380_Init                             0x1a00488f   Thumb Code   118  uda1380.o(.text)
    __aeabi_uldivmod                         0x1a004919   Thumb Code     0  lludivv7m.o(.text)
    _ll_udiv                                 0x1a004919   Thumb Code   238  lludivv7m.o(.text)
    __2printf                                0x1a004a09   Thumb Code    20  noretval__2printf.o(.text)
    __printf                                 0x1a004a21   Thumb Code   104  __printf.o(.text)
    _printf_int_dec                          0x1a004a89   Thumb Code   104  _printf_dec.o(.text)
    __aeabi_memclr4                          0x1a004b01   Thumb Code     0  rt_memclr_w.o(.text)
    __aeabi_memclr8                          0x1a004b01   Thumb Code     0  rt_memclr_w.o(.text)
    __rt_memclr_w                            0x1a004b01   Thumb Code    78  rt_memclr_w.o(.text)
    _memset_w                                0x1a004b05   Thumb Code     0  rt_memclr_w.o(.text)
    __use_two_region_memory                  0x1a004b4f   Thumb Code     2  heapauxi.o(.text)
    __rt_heap_escrow$2region                 0x1a004b51   Thumb Code     2  heapauxi.o(.text)
    __rt_heap_expand$2region                 0x1a004b53   Thumb Code     2  heapauxi.o(.text)
    _printf_int_common                       0x1a004b55   Thumb Code   178  _printf_intcommon.o(.text)
    _printf_char_file                        0x1a004c09   Thumb Code    32  _printf_char_file.o(.text)
    _printf_char_common                      0x1a004c37   Thumb Code    32  _printf_char_common.o(.text)
    __user_setup_stackheap                   0x1a004c5d   Thumb Code    74  sys_stackheap_outer.o(.text)
    exit                                     0x1a004ca7   Thumb Code    18  exit.o(.text)
    __user_libspace                          0x1a004cb9   Thumb Code     8  libspace.o(.text)
    __user_perproc_libspace                  0x1a004cb9   Thumb Code     0  libspace.o(.text)
    __user_perthread_libspace                0x1a004cb9   Thumb Code     0  libspace.o(.text)
    Chip_Clock_Enable                        0x1a004cc1   Thumb Code    46  clock_18xx_43xx.o(i.Chip_Clock_Enable)
    Chip_Clock_EnableOpts                    0x1a004cf9   Thumb Code    52  clock_18xx_43xx.o(i.Chip_Clock_EnableOpts)
    Chip_Clock_GetBaseClock                  0x1a004d85   Thumb Code    32  clock_18xx_43xx.o(i.Chip_Clock_GetBaseClock)
    Chip_Clock_GetBaseClocktHz               0x1a004da9   Thumb Code    18  clock_18xx_43xx.o(i.Chip_Clock_GetBaseClocktHz)
    Chip_Clock_GetClockInputHz               0x1a004dbd   Thumb Code   182  clock_18xx_43xx.o(i.Chip_Clock_GetClockInputHz)
    Chip_Clock_GetDividerDivisor             0x1a004eb9   Thumb Code    18  clock_18xx_43xx.o(i.Chip_Clock_GetDividerDivisor)
    Chip_Clock_GetDividerSource              0x1a004ed9   Thumb Code    26  clock_18xx_43xx.o(i.Chip_Clock_GetDividerSource)
    Chip_Clock_GetEMCRate                    0x1a004ef9   Thumb Code    38  clock_18xx_43xx.o(i.Chip_Clock_GetEMCRate)
    Chip_Clock_GetMainPLLHz                  0x1a004f29   Thumb Code   110  clock_18xx_43xx.o(i.Chip_Clock_GetMainPLLHz)
    Chip_Clock_GetRate                       0x1a004fa1   Thumb Code    78  clock_18xx_43xx.o(i.Chip_Clock_GetRate)
    Chip_Clock_SetBaseClock                  0x1a004ff9   Thumb Code    64  clock_18xx_43xx.o(i.Chip_Clock_SetBaseClock)
    Chip_Clock_SetDivider                    0x1a005041   Thumb Code    64  clock_18xx_43xx.o(i.Chip_Clock_SetDivider)
    Chip_EMC_Dynamic_Init                    0x1a005091   Thumb Code    22  emc_18xx_43xx.o(i.Chip_EMC_Dynamic_Init)
    Chip_EMC_Init                            0x1a0050ad   Thumb Code    40  emc_18xx_43xx.o(i.Chip_EMC_Init)
    Chip_EMC_Static_Init                     0x1a0050d9   Thumb Code    22  emc_18xx_43xx.o(i.Chip_EMC_Static_Init)
    Chip_GPIO_Init                           0x1a0050f5   Thumb Code     2  gpio_18xx_43xx.o(i.Chip_GPIO_Init)
    Chip_I2C_EventHandler                    0x1a0050f9   Thumb Code    36  i2c_18xx_43xx.o(i.Chip_I2C_EventHandler)
    Chip_I2C_EventHandlerPolling             0x1a005121   Thumb Code    58  i2c_18xx_43xx.o(i.Chip_I2C_EventHandlerPolling)
    Chip_I2C_GetMasterEventHandler           0x1a005161   Thumb Code    16  i2c_18xx_43xx.o(i.Chip_I2C_GetMasterEventHandler)
    Chip_I2C_Init                            0x1a005175   Thumb Code    40  i2c_18xx_43xx.o(i.Chip_I2C_Init)
    Chip_I2C_IsStateChanged                  0x1a0051a1   Thumb Code    20  i2c_18xx_43xx.o(i.Chip_I2C_IsStateChanged)
    Chip_I2C_MasterCmdRead                   0x1a0051b9   Thumb Code    58  i2c_18xx_43xx.o(i.Chip_I2C_MasterCmdRead)
    Chip_I2C_MasterSend                      0x1a0051f3   Thumb Code    50  i2c_18xx_43xx.o(i.Chip_I2C_MasterSend)
    Chip_I2C_MasterStateHandler              0x1a005225   Thumb Code    50  i2c_18xx_43xx.o(i.Chip_I2C_MasterStateHandler)
    Chip_I2C_MasterTransfer                  0x1a00525d   Thumb Code   102  i2c_18xx_43xx.o(i.Chip_I2C_MasterTransfer)
    Chip_I2C_SetClockRate                    0x1a0052c9   Thumb Code    56  i2c_18xx_43xx.o(i.Chip_I2C_SetClockRate)
    Chip_I2C_SetMasterEventHandler           0x1a005305   Thumb Code    34  i2c_18xx_43xx.o(i.Chip_I2C_SetMasterEventHandler)
    Chip_I2S_Init                            0x1a00532d   Thumb Code    12  i2s_18xx_43xx.o(i.Chip_I2S_Init)
    Chip_I2S_TxConfig                        0x1a005339   Thumb Code   122  i2s_18xx_43xx.o(i.Chip_I2S_TxConfig)
    Chip_RGU_InReset                         0x1a0053b5   Thumb Code    52  rgu_18xx_43xx.o(i.Chip_RGU_InReset)
    Chip_RGU_TriggerReset                    0x1a0053ed   Thumb Code    38  rgu_18xx_43xx.o(i.Chip_RGU_TriggerReset)
    Chip_SSP_Init                            0x1a005451   Thumb Code    56  ssp_18xx_43xx.o(i.Chip_SSP_Init)
    Chip_SSP_SetBitRate                      0x1a00549b   Thumb Code    70  ssp_18xx_43xx.o(i.Chip_SSP_SetBitRate)
    Chip_SSP_SetClockRate                    0x1a0054e1   Thumb Code    20  ssp_18xx_43xx.o(i.Chip_SSP_SetClockRate)
    Chip_SSP_SetMaster                       0x1a0054f5   Thumb Code    28  ssp_18xx_43xx.o(i.Chip_SSP_SetMaster)
    Chip_SSP_WriteFrames_Blocking            0x1a00551d   Thumb Code   234  ssp_18xx_43xx.o(i.Chip_SSP_WriteFrames_Blocking)
    Chip_SetupCoreClock                      0x1a005607   Thumb Code    14  sysinit_18xx_43xx.o(i.Chip_SetupCoreClock)
    Chip_UART_Init                           0x1a005659   Thumb Code    72  uart_18xx_43xx.o(i.Chip_UART_Init)
    Chip_UART_SetBaud                        0x1a0056a5   Thumb Code    66  uart_18xx_43xx.o(i.Chip_UART_SetBaud)
    SystemCoreClockUpdate                    0x1a0056ed   Thumb Code    14  chip_18xx_43xx.o(i.SystemCoreClockUpdate)
    fpuInit                                  0x1a005819   Thumb Code    62  fpu_init.o(i.fpuInit)
    handleMasterXferState                    0x1a005a1b   Thumb Code   224  i2c_18xx_43xx.o(i.handleMasterXferState)
    initDynMem                               0x1a005afb   Thumb Code   488  emc_18xx_43xx.o(i.initDynMem)
    initStaticMem                            0x1a005ce3   Thumb Code   104  emc_18xx_43xx.o(i.initStaticMem)
    _fp_init                                 0x1a005d55   Thumb Code    10  fpinit.o(x$fpl$fpinit)
    __fplib_config_fpu_vfp                   0x1a005d5d   Thumb Code     0  fpinit.o(x$fpl$fpinit)
    __fplib_config_pureend_doubles           0x1a005d5d   Thumb Code     0  fpinit.o(x$fpl$fpinit)
    ad_left                                  0x1a005d70   Data           4  board.o(.constdata)
    ad_top                                   0x1a005d74   Data           4  board.o(.constdata)
    ad_right                                 0x1a005d78   Data           4  board.o(.constdata)
    ad_bottom                                0x1a005d7c   Data           4  board.o(.constdata)
    MCB4300_LCD                              0x1a005d80   Data          22  board.o(.constdata)
    ExtRateIn                                0x1a005d98   Data           4  board.o(.constdata)
    OscRateIn                                0x1a005d9c   Data           4  board.o(.constdata)
    Region$$Table$$Base                      0x1a006130   Number         0  anon$$obj.o(Region$$Table)
    Region$$Table$$Limit                     0x1a006150   Number         0  anon$$obj.o(Region$$Table)



==============================================================================

Memory Map of the image

  Image Entry point : 0x1a000115

  Load Region LR_IROM1 (Base: 0x1a000000, Size: 0x000061f8, Max: 0x00080000, ABSOLUTE)

    Execution Region RW_IRAM1 (Base: 0x10000000, Size: 0x00001d78, Max: 0x00008000, ABSOLUTE)

    Base Addr    Size         Type   Attr      Idx    E Section Name        Object

    0x10000000   0x00000038   Data   RW            3    .data               raw-os.o
    0x10000038   0x00000004   Data   RW          271    .data               port.o
    0x1000003c   0x0000000c   Data   RW          654    .data               lpc43xx_lcd.o
    0x10000048   0x00000008   Data   RW          688    .data               main.o
    0x10000050   0x00000014   Data   RW          719    .data               lib_lpc_board_keil_mcb_4357.lib(board.o)
    0x10000064   0x00000004   Data   RW         1004    .data               lib_lpc_chip_43xx.lib(chip_18xx_43xx.o)
    0x10000068   0x00000008   Data   RW         1523    .data               lib_lpc_chip_43xx.lib(clock_18xx_43xx.o)
    0x10000070   0x00000038   Data   RW         1869    .data               lib_lpc_chip_43xx.lib(i2c_18xx_43xx.o)
    0x100000a8   0x00000ddc   Zero   RW            2    .bss                raw-os.o
    0x10000e84   0x00000004   PAD
    0x10000e88   0x0000078c   Zero   RW          686    .bss                main.o
    0x10001614   0x00000060   Zero   RW         2417    .bss                c_w.l(libspace.o)
    0x10001674   0x00000004   PAD
    0x10001678   0x00000100   Zero   RW          340    HEAP                keil_startup_lpc18xx43xx.o
    0x10001778   0x00000600   Zero   RW          339    STACK               keil_startup_lpc18xx43xx.o


    Execution Region ER_IROM1 (Base: 0x1a000000, Size: 0x00006150, Max: 0x00080000, ABSOLUTE)

    Base Addr    Size         Type   Attr      Idx    E Section Name        Object

    0x1a000000   0x00000114   Data   RO          341    RESET               keil_startup_lpc18xx43xx.o
    0x1a000114   0x00000008   Code   RO         2367  * !!!main             c_w.l(__main.o)
    0x1a00011c   0x00000034   Code   RO         2543    !!!scatter          c_w.l(__scatter.o)
    0x1a000150   0x0000001a   Code   RO         2545    !!handler_copy      c_w.l(__scatter_copy.o)
    0x1a00016a   0x00000002   PAD
    0x1a00016c   0x0000001c   Code   RO         2547    !!handler_zi        c_w.l(__scatter_zi.o)
    0x1a000188   0x00000000   Code   RO         2360    .ARM.Collect$$_printf_percent$$00000000  c_w.l(_printf_percent.o)
    0x1a000188   0x00000006   Code   RO         2359    .ARM.Collect$$_printf_percent$$00000009  c_w.l(_printf_d.o)
    0x1a00018e   0x00000004   Code   RO         2378    .ARM.Collect$$_printf_percent$$00000017  c_w.l(_printf_percent_end.o)
    0x1a000192   0x00000002   Code   RO         2415    .ARM.Collect$$libinit$$00000000  c_w.l(libinit.o)
    0x1a000194   0x00000004   Code   RO         2427    .ARM.Collect$$libinit$$00000001  c_w.l(libinit2.o)
    0x1a000198   0x00000000   Code   RO         2430    .ARM.Collect$$libinit$$00000004  c_w.l(libinit2.o)
    0x1a000198   0x00000000   Code   RO         2433    .ARM.Collect$$libinit$$0000000A  c_w.l(libinit2.o)
    0x1a000198   0x00000000   Code   RO         2435    .ARM.Collect$$libinit$$0000000C  c_w.l(libinit2.o)
    0x1a000198   0x00000000   Code   RO         2437    .ARM.Collect$$libinit$$0000000E  c_w.l(libinit2.o)
    0x1a000198   0x00000000   Code   RO         2440    .ARM.Collect$$libinit$$00000011  c_w.l(libinit2.o)
    0x1a000198   0x00000000   Code   RO         2442    .ARM.Collect$$libinit$$00000013  c_w.l(libinit2.o)
    0x1a000198   0x00000000   Code   RO         2444    .ARM.Collect$$libinit$$00000015  c_w.l(libinit2.o)
    0x1a000198   0x00000000   Code   RO         2446    .ARM.Collect$$libinit$$00000017  c_w.l(libinit2.o)
    0x1a000198   0x00000000   Code   RO         2448    .ARM.Collect$$libinit$$00000019  c_w.l(libinit2.o)
    0x1a000198   0x00000000   Code   RO         2450    .ARM.Collect$$libinit$$0000001B  c_w.l(libinit2.o)
    0x1a000198   0x00000000   Code   RO         2452    .ARM.Collect$$libinit$$0000001D  c_w.l(libinit2.o)
    0x1a000198   0x00000000   Code   RO         2454    .ARM.Collect$$libinit$$0000001F  c_w.l(libinit2.o)
    0x1a000198   0x00000000   Code   RO         2456    .ARM.Collect$$libinit$$00000021  c_w.l(libinit2.o)
    0x1a000198   0x00000000   Code   RO         2458    .ARM.Collect$$libinit$$00000023  c_w.l(libinit2.o)
    0x1a000198   0x00000000   Code   RO         2460    .ARM.Collect$$libinit$$00000025  c_w.l(libinit2.o)
    0x1a000198   0x00000000   Code   RO         2464    .ARM.Collect$$libinit$$0000002C  c_w.l(libinit2.o)
    0x1a000198   0x00000000   Code   RO         2466    .ARM.Collect$$libinit$$0000002E  c_w.l(libinit2.o)
    0x1a000198   0x00000000   Code   RO         2468    .ARM.Collect$$libinit$$00000030  c_w.l(libinit2.o)
    0x1a000198   0x00000000   Code   RO         2470    .ARM.Collect$$libinit$$00000032  c_w.l(libinit2.o)
    0x1a000198   0x00000002   Code   RO         2471    .ARM.Collect$$libinit$$00000033  c_w.l(libinit2.o)
    0x1a00019a   0x00000002   Code   RO         2497    .ARM.Collect$$libshutdown$$00000000  c_w.l(libshutdown.o)
    0x1a00019c   0x00000000   Code   RO         2526    .ARM.Collect$$libshutdown$$00000002  c_w.l(libshutdown2.o)
    0x1a00019c   0x00000000   Code   RO         2528    .ARM.Collect$$libshutdown$$00000004  c_w.l(libshutdown2.o)
    0x1a00019c   0x00000000   Code   RO         2531    .ARM.Collect$$libshutdown$$00000007  c_w.l(libshutdown2.o)
    0x1a00019c   0x00000000   Code   RO         2534    .ARM.Collect$$libshutdown$$0000000A  c_w.l(libshutdown2.o)
    0x1a00019c   0x00000000   Code   RO         2536    .ARM.Collect$$libshutdown$$0000000C  c_w.l(libshutdown2.o)
    0x1a00019c   0x00000000   Code   RO         2539    .ARM.Collect$$libshutdown$$0000000F  c_w.l(libshutdown2.o)
    0x1a00019c   0x00000002   Code   RO         2540    .ARM.Collect$$libshutdown$$00000010  c_w.l(libshutdown2.o)
    0x1a00019e   0x00000000   Code   RO         2369    .ARM.Collect$$rtentry$$00000000  c_w.l(__rtentry.o)
    0x1a00019e   0x00000000   Code   RO         2382    .ARM.Collect$$rtentry$$00000002  c_w.l(__rtentry2.o)
    0x1a00019e   0x00000006   Code   RO         2394    .ARM.Collect$$rtentry$$00000004  c_w.l(__rtentry4.o)
    0x1a0001a4   0x00000000   Code   RO         2384    .ARM.Collect$$rtentry$$00000009  c_w.l(__rtentry2.o)
    0x1a0001a4   0x00000004   Code   RO         2385    .ARM.Collect$$rtentry$$0000000A  c_w.l(__rtentry2.o)
    0x1a0001a8   0x00000000   Code   RO         2387    .ARM.Collect$$rtentry$$0000000C  c_w.l(__rtentry2.o)
    0x1a0001a8   0x00000008   Code   RO         2388    .ARM.Collect$$rtentry$$0000000D  c_w.l(__rtentry2.o)
    0x1a0001b0   0x00000002   Code   RO         2419    .ARM.Collect$$rtexit$$00000000  c_w.l(rtexit.o)
    0x1a0001b2   0x00000000   Code   RO         2473    .ARM.Collect$$rtexit$$00000002  c_w.l(rtexit2.o)
    0x1a0001b2   0x00000004   Code   RO         2474    .ARM.Collect$$rtexit$$00000003  c_w.l(rtexit2.o)
    0x1a0001b6   0x00000006   Code   RO         2475    .ARM.Collect$$rtexit$$00000004  c_w.l(rtexit2.o)
    0x1a0001bc   0x00002968   Code   RO            1    .text               raw-os.o
    0x1a002b24   0x00000174   Code   RO          175    .text               fifo.o
    0x1a002c98   0x000000ac   Code   RO          266    .text               cpu.o
    0x1a002d44   0x000001d4   Code   RO          270    .text               port.o
    0x1a002f18   0x0000001e   Code   RO          285    .text               port_hook.o
    0x1a002f36   0x00000088   Code   RO          303    .text               user_extension.o
    0x1a002fbe   0x00000058   Code   RO          315    .text               port_error_process.o
    0x1a003016   0x00000002   PAD
    0x1a003018   0x00000030   Code   RO          327    .text               port_extension.o
    0x1a003048   0x00000044   Code   RO          342    .text               keil_startup_lpc18xx43xx.o
    0x1a00308c   0x0000001c   Code   RO          348    .text               sysinit.o
    0x1a0030a8   0x00000014   Code   RO          574    .text               lpc43xx_scu.o
    0x1a0030bc   0x0000045c   Code   RO          607    .text               lpc43xx_sdram.o
    0x1a003518   0x00000040   Code   RO          630    .text               lpc43xx_gpio.o
    0x1a003558   0x0000038c   Code   RO          653    .text               lpc43xx_lcd.o
    0x1a0038e4   0x0000026c   Code   RO          685    .text               main.o
    0x1a003b50   0x00000aa8   Code   RO          717    .text               lib_lpc_board_keil_mcb_4357.lib(board.o)
    0x1a0045f8   0x0000019c   Code   RO          951    .text               lib_lpc_board_keil_mcb_4357.lib(board_sysinit.o)
    0x1a004794   0x00000184   Code   RO         1458    .text               lib_lpc_board_keil_mcb_4357.lib(uda1380.o)
    0x1a004918   0x000000ee   Code   RO         2329    .text               c_w.l(lludivv7m.o)
    0x1a004a06   0x00000002   PAD
    0x1a004a08   0x00000018   Code   RO         2333    .text               c_w.l(noretval__2printf.o)
    0x1a004a20   0x00000068   Code   RO         2335    .text               c_w.l(__printf.o)
    0x1a004a88   0x00000078   Code   RO         2337    .text               c_w.l(_printf_dec.o)
    0x1a004b00   0x0000004e   Code   RO         2363    .text               c_w.l(rt_memclr_w.o)
    0x1a004b4e   0x00000006   Code   RO         2365    .text               c_w.l(heapauxi.o)
    0x1a004b54   0x000000b2   Code   RO         2374    .text               c_w.l(_printf_intcommon.o)
    0x1a004c06   0x00000002   PAD
    0x1a004c08   0x00000024   Code   RO         2376    .text               c_w.l(_printf_char_file.o)
    0x1a004c2c   0x00000030   Code   RO         2398    .text               c_w.l(_printf_char_common.o)
    0x1a004c5c   0x0000004a   Code   RO         2400    .text               c_w.l(sys_stackheap_outer.o)
    0x1a004ca6   0x00000012   Code   RO         2404    .text               c_w.l(exit.o)
    0x1a004cb8   0x00000008   Code   RO         2416    .text               c_w.l(libspace.o)
    0x1a004cc0   0x00000038   Code   RO         1493    i.Chip_Clock_Enable  lib_lpc_chip_43xx.lib(clock_18xx_43xx.o)
    0x1a004cf8   0x0000003c   Code   RO         1497    i.Chip_Clock_EnableOpts  lib_lpc_chip_43xx.lib(clock_18xx_43xx.o)
    0x1a004d34   0x00000050   Code   RO         1499    i.Chip_Clock_FindBaseClock  lib_lpc_chip_43xx.lib(clock_18xx_43xx.o)
    0x1a004d84   0x00000024   Code   RO         1500    i.Chip_Clock_GetBaseClock  lib_lpc_chip_43xx.lib(clock_18xx_43xx.o)
    0x1a004da8   0x00000012   Code   RO         1502    i.Chip_Clock_GetBaseClocktHz  lib_lpc_chip_43xx.lib(clock_18xx_43xx.o)
    0x1a004dba   0x00000002   PAD
    0x1a004dbc   0x000000d4   Code   RO         1503    i.Chip_Clock_GetClockInputHz  lib_lpc_chip_43xx.lib(clock_18xx_43xx.o)
    0x1a004e90   0x00000028   Code   RO         1504    i.Chip_Clock_GetDivRate  lib_lpc_chip_43xx.lib(clock_18xx_43xx.o)
    0x1a004eb8   0x00000020   Code   RO         1505    i.Chip_Clock_GetDividerDivisor  lib_lpc_chip_43xx.lib(clock_18xx_43xx.o)
    0x1a004ed8   0x00000020   Code   RO         1506    i.Chip_Clock_GetDividerSource  lib_lpc_chip_43xx.lib(clock_18xx_43xx.o)
    0x1a004ef8   0x00000030   Code   RO         1507    i.Chip_Clock_GetEMCRate  lib_lpc_chip_43xx.lib(clock_18xx_43xx.o)
    0x1a004f28   0x00000078   Code   RO         1508    i.Chip_Clock_GetMainPLLHz  lib_lpc_chip_43xx.lib(clock_18xx_43xx.o)
    0x1a004fa0   0x00000058   Code   RO         1510    i.Chip_Clock_GetRate  lib_lpc_chip_43xx.lib(clock_18xx_43xx.o)
    0x1a004ff8   0x00000048   Code   RO         1514    i.Chip_Clock_SetBaseClock  lib_lpc_chip_43xx.lib(clock_18xx_43xx.o)
    0x1a005040   0x00000050   Code   RO         1515    i.Chip_Clock_SetDivider  lib_lpc_chip_43xx.lib(clock_18xx_43xx.o)
    0x1a005090   0x0000001c   Code   RO         1711    i.Chip_EMC_Dynamic_Init  lib_lpc_chip_43xx.lib(emc_18xx_43xx.o)
    0x1a0050ac   0x0000002c   Code   RO         1713    i.Chip_EMC_Init     lib_lpc_chip_43xx.lib(emc_18xx_43xx.o)
    0x1a0050d8   0x0000001c   Code   RO         1716    i.Chip_EMC_Static_Init  lib_lpc_chip_43xx.lib(emc_18xx_43xx.o)
    0x1a0050f4   0x00000002   Code   RO         1789    i.Chip_GPIO_Init    lib_lpc_chip_43xx.lib(gpio_18xx_43xx.o)
    0x1a0050f6   0x00000002   PAD
    0x1a0050f8   0x00000028   Code   RO         1843    i.Chip_I2C_EventHandler  lib_lpc_chip_43xx.lib(i2c_18xx_43xx.o)
    0x1a005120   0x00000040   Code   RO         1844    i.Chip_I2C_EventHandlerPolling  lib_lpc_chip_43xx.lib(i2c_18xx_43xx.o)
    0x1a005160   0x00000014   Code   RO         1846    i.Chip_I2C_GetMasterEventHandler  lib_lpc_chip_43xx.lib(i2c_18xx_43xx.o)
    0x1a005174   0x0000002c   Code   RO         1847    i.Chip_I2C_Init     lib_lpc_chip_43xx.lib(i2c_18xx_43xx.o)
    0x1a0051a0   0x00000018   Code   RO         1849    i.Chip_I2C_IsStateChanged  lib_lpc_chip_43xx.lib(i2c_18xx_43xx.o)
    0x1a0051b8   0x0000003a   Code   RO         1850    i.Chip_I2C_MasterCmdRead  lib_lpc_chip_43xx.lib(i2c_18xx_43xx.o)
    0x1a0051f2   0x00000032   Code   RO         1852    i.Chip_I2C_MasterSend  lib_lpc_chip_43xx.lib(i2c_18xx_43xx.o)
    0x1a005224   0x00000038   Code   RO         1853    i.Chip_I2C_MasterStateHandler  lib_lpc_chip_43xx.lib(i2c_18xx_43xx.o)
    0x1a00525c   0x0000006c   Code   RO         1854    i.Chip_I2C_MasterTransfer  lib_lpc_chip_43xx.lib(i2c_18xx_43xx.o)
    0x1a0052c8   0x0000003c   Code   RO         1855    i.Chip_I2C_SetClockRate  lib_lpc_chip_43xx.lib(i2c_18xx_43xx.o)
    0x1a005304   0x00000028   Code   RO         1856    i.Chip_I2C_SetMasterEventHandler  lib_lpc_chip_43xx.lib(i2c_18xx_43xx.o)
    0x1a00532c   0x0000000c   Code   RO         2017    i.Chip_I2S_Init     lib_lpc_chip_43xx.lib(i2s_18xx_43xx.o)
    0x1a005338   0x0000007a   Code   RO         2021    i.Chip_I2S_TxConfig  lib_lpc_chip_43xx.lib(i2s_18xx_43xx.o)
    0x1a0053b2   0x00000002   PAD
    0x1a0053b4   0x00000038   Code   RO         1229    i.Chip_RGU_InReset  lib_lpc_chip_43xx.lib(rgu_18xx_43xx.o)
    0x1a0053ec   0x0000002c   Code   RO         1230    i.Chip_RGU_TriggerReset  lib_lpc_chip_43xx.lib(rgu_18xx_43xx.o)
    0x1a005418   0x00000004   Code   RO         2081    i.Chip_SSP_ClearIntPending  lib_lpc_chip_43xx.lib(ssp_18xx_43xx.o)
    0x1a00541c   0x00000014   Code   RO         2083    i.Chip_SSP_GetClockIndex  lib_lpc_chip_43xx.lib(ssp_18xx_43xx.o)
    0x1a005430   0x00000010   Code   RO         2084    i.Chip_SSP_GetRawIntStatus  lib_lpc_chip_43xx.lib(ssp_18xx_43xx.o)
    0x1a005440   0x00000010   Code   RO         2085    i.Chip_SSP_GetStatus  lib_lpc_chip_43xx.lib(ssp_18xx_43xx.o)
    0x1a005450   0x0000003c   Code   RO         2086    i.Chip_SSP_Init     lib_lpc_chip_43xx.lib(ssp_18xx_43xx.o)
    0x1a00548c   0x00000008   Code   RO         2092    i.Chip_SSP_ReceiveFrame  lib_lpc_chip_43xx.lib(ssp_18xx_43xx.o)
    0x1a005494   0x00000006   Code   RO         2093    i.Chip_SSP_SendFrame  lib_lpc_chip_43xx.lib(ssp_18xx_43xx.o)
    0x1a00549a   0x00000046   Code   RO         2094    i.Chip_SSP_SetBitRate  lib_lpc_chip_43xx.lib(ssp_18xx_43xx.o)
    0x1a0054e0   0x00000014   Code   RO         2095    i.Chip_SSP_SetClockRate  lib_lpc_chip_43xx.lib(ssp_18xx_43xx.o)
    0x1a0054f4   0x0000001c   Code   RO         2096    i.Chip_SSP_SetMaster  lib_lpc_chip_43xx.lib(ssp_18xx_43xx.o)
    0x1a005510   0x0000000c   Code   RO         2097    i.Chip_SSP_Set_Mode  lib_lpc_chip_43xx.lib(ssp_18xx_43xx.o)
    0x1a00551c   0x000000ea   Code   RO         2098    i.Chip_SSP_WriteFrames_Blocking  lib_lpc_chip_43xx.lib(ssp_18xx_43xx.o)
    0x1a005606   0x0000000e   Code   RO         2219    i.Chip_SetupCoreClock  lib_lpc_chip_43xx.lib(sysinit_18xx_43xx.o)
    0x1a005614   0x0000000a   Code   RO         1271    i.Chip_UART_DisableDivisorAccess  lib_lpc_chip_43xx.lib(uart_18xx_43xx.o)
    0x1a00561e   0x0000000a   Code   RO         1272    i.Chip_UART_EnableDivisorAccess  lib_lpc_chip_43xx.lib(uart_18xx_43xx.o)
    0x1a005628   0x00000030   Code   RO         1274    i.Chip_UART_GetClockIndex  lib_lpc_chip_43xx.lib(uart_18xx_43xx.o)
    0x1a005658   0x0000004c   Code   RO         1276    i.Chip_UART_Init    lib_lpc_chip_43xx.lib(uart_18xx_43xx.o)
    0x1a0056a4   0x00000042   Code   RO         1288    i.Chip_UART_SetBaud  lib_lpc_chip_43xx.lib(uart_18xx_43xx.o)
    0x1a0056e6   0x00000006   Code   RO         1290    i.Chip_UART_SetDivisorLatches  lib_lpc_chip_43xx.lib(uart_18xx_43xx.o)
    0x1a0056ec   0x00000014   Code   RO         1002    i.SystemCoreClockUpdate  lib_lpc_chip_43xx.lib(chip_18xx_43xx.o)
    0x1a005700   0x00000024   Code   RO         2223    i.clock_init_delay  lib_lpc_chip_43xx.lib(sysinit_18xx_43xx.o)
    0x1a005724   0x000000bc   Code   RO         2224    i.clock_main_init   lib_lpc_chip_43xx.lib(sysinit_18xx_43xx.o)
    0x1a0057e0   0x00000038   Code   RO         1717    i.convertTimmingParam  lib_lpc_chip_43xx.lib(emc_18xx_43xx.o)
    0x1a005818   0x00000050   Code   RO         1435    i.fpuInit           lib_lpc_chip_43xx.lib(fpu_init.o)
    0x1a005868   0x00000162   Code   RO         2022    i.getClkDiv         lib_lpc_chip_43xx.lib(i2s_18xx_43xx.o)
    0x1a0059ca   0x00000002   PAD
    0x1a0059cc   0x0000001c   Code   RO         1859    i.getClkRate        lib_lpc_chip_43xx.lib(i2c_18xx_43xx.o)
    0x1a0059e8   0x00000028   Code   RO         1718    i.getColsLen        lib_lpc_chip_43xx.lib(emc_18xx_43xx.o)
    0x1a005a10   0x0000000a   Code   RO         1860    i.getCurState       lib_lpc_chip_43xx.lib(i2c_18xx_43xx.o)
    0x1a005a1a   0x000000e0   Code   RO         1862    i.handleMasterXferState  lib_lpc_chip_43xx.lib(i2c_18xx_43xx.o)
    0x1a005afa   0x000001e8   Code   RO         1719    i.initDynMem        lib_lpc_chip_43xx.lib(emc_18xx_43xx.o)
    0x1a005ce2   0x00000068   Code   RO         1720    i.initStaticMem     lib_lpc_chip_43xx.lib(emc_18xx_43xx.o)
    0x1a005d4a   0x0000000a   Code   RO         1867    i.startSlaverXfer   lib_lpc_chip_43xx.lib(i2c_18xx_43xx.o)
    0x1a005d54   0x0000000a   Code   RO         2485    x$fpl$fpinit        fz_wm.l(fpinit.o)
    0x1a005d5e   0x00000002   PAD
    0x1a005d60   0x00000040   Data   RO          718    .constdata          lib_lpc_board_keil_mcb_4357.lib(board.o)
    0x1a005da0   0x000002bc   Data   RO          952    .constdata          lib_lpc_board_keil_mcb_4357.lib(board_sysinit.o)
    0x1a00605c   0x0000001f   Data   RO         1459    .constdata          lib_lpc_board_keil_mcb_4357.lib(uda1380.o)
    0x1a00607b   0x00000001   PAD
    0x1a00607c   0x0000006c   Data   RO         1522    .constdata          lib_lpc_chip_43xx.lib(clock_18xx_43xx.o)
    0x1a0060e8   0x00000048   Data   RO         2225    .constdata          lib_lpc_chip_43xx.lib(sysinit_18xx_43xx.o)
    0x1a006130   0x00000020   Data   RO         2541    Region$$Table       anon$$obj.o


==============================================================================

Image component sizes


      Code (inc. data)   RO Data    RW Data    ZI Data      Debug   Object Name

       172         16          0          0          0        380   cpu.o
       372          0          0          0          0       8828   fifo.o
        68         28        276          0       1792        932   keil_startup_lpc18xx43xx.o
        64          6          0          0          0       1347   lpc43xx_gpio.o
       908         48          0         12          0      13060   lpc43xx_lcd.o
        20          4          0          0          0       1041   lpc43xx_scu.o
      1116         28          0          0          0       2130   lpc43xx_sdram.o
       620         86          0          8       1932      36592   main.o
       468         22          0          4          0       3882   port.o
        88          0          0          0          0       1336   port_error_process.o
        48         10          0          0          0        937   port_extension.o
        30          0          0          0          0       1955   port_hook.o
     10600        300          0         56       3548      84007   raw-os.o
        28          8          0          0          0       5137   sysinit.o
       136          0          0          0          0       1848   user_extension.o

    ----------------------------------------------------------------------
     14740        556        308         80       7276     163412   Object Totals
         0          0         32          0          0          0   (incl. Generated)
         2          0          0          0          4          0   (incl. Padding)

    ----------------------------------------------------------------------

      Code (inc. data)   RO Data    RW Data    ZI Data      Debug   Library Member Name

         8          0          0          0          0         68   __main.o
       104          0          0          0          0         84   __printf.o
         0          0          0          0          0          0   __rtentry.o
        12          0          0          0          0          0   __rtentry2.o
         6          0          0          0          0          0   __rtentry4.o
        52          8          0          0          0          0   __scatter.o
        26          0          0          0          0          0   __scatter_copy.o
        28          0          0          0          0          0   __scatter_zi.o
        48          6          0          0          0         96   _printf_char_common.o
        36          4          0          0          0         80   _printf_char_file.o
         6          0          0          0          0          0   _printf_d.o
       120         16          0          0          0         92   _printf_dec.o
       178          0          0          0          0         88   _printf_intcommon.o
         0          0          0          0          0          0   _printf_percent.o
         4          0          0          0          0          0   _printf_percent_end.o
        18          0          0          0          0         80   exit.o
         6          0          0          0          0        152   heapauxi.o
         2          0          0          0          0          0   libinit.o
         6          0          0          0          0          0   libinit2.o
         2          0          0          0          0          0   libshutdown.o
         2          0          0          0          0          0   libshutdown2.o
         8          4          0          0         96         68   libspace.o
       238          0          0          0          0        100   lludivv7m.o
        24          4          0          0          0         84   noretval__2printf.o
        78          0          0          0          0         80   rt_memclr_w.o
         2          0          0          0          0          0   rtexit.o
        10          0          0          0          0          0   rtexit2.o
        74          0          0          0          0         80   sys_stackheap_outer.o
        10          0          0          0          0        116   fpinit.o
      2728        102         64         20          0      62486   board.o
       412         56        700          0          0      10122   board_sysinit.o
       388         20         31          0          0       3135   uda1380.o
        20          6          0          4          0      26534   chip_18xx_43xx.o
       974        150        108          8          0       9866   clock_18xx_43xx.o
       788         22          0          0          0       5204   emc_18xx_43xx.o
        80         18          0          0          0       1234   fpu_init.o
         2          0          0          0          0       3265   gpio_18xx_43xx.o
       836         62          0         56          0      10510   i2c_18xx_43xx.o
       488          0          0          0          0       2828   i2s_18xx_43xx.o
       100         10          0          0          0       1447   rgu_18xx_43xx.o
       494          8          0          0          0      11299   ssp_18xx_43xx.o
       238         20         72          0          0       2286   sysinit_18xx_43xx.o
       216         16          0          0          0       9189   uart_18xx_43xx.o

    ----------------------------------------------------------------------
      8888        532        976         88        100     160673   Library Totals
        16          0          1          0          4          0   (incl. Padding)

    ----------------------------------------------------------------------

      Code (inc. data)   RO Data    RW Data    ZI Data      Debug   Library Name

      1098         42          0          0         96       1152   c_w.l
        10          0          0          0          0        116   fz_wm.l
      3528        178        795         20          0      75743   lib_lpc_board_keil_mcb_4357.lib
      4236        312        180         68          0      83662   lib_lpc_chip_43xx.lib

    ----------------------------------------------------------------------
      8888        532        976         88        100     160673   Library Totals

    ----------------------------------------------------------------------

==============================================================================


      Code (inc. data)   RO Data    RW Data    ZI Data      Debug   

     23628       1088       1284        168       7376     314617   Grand Totals
     23628       1088       1284        168       7376     314617   ELF Image Totals
     23628       1088       1284        168          0          0   ROM Totals

==============================================================================

    Total RO  Size (Code + RO Data)                24912 (  24.33kB)
    Total RW  Size (RW Data + ZI Data)              7544 (   7.37kB)
    Total ROM Size (Code + RO Data + RW Data)      25080 (  24.49kB)

==============================================================================

