Component: ARM Compiler 5.05 update 1 (build 106) Tool: armlink [4d0efa]

==============================================================================

Section Cross References

    raw-os.o(.text) refers to cpu.o(.text) for OS_CPU_SR_Save
    raw-os.o(.text) refers to raw-os.o(.data) for task_0_events
    raw-os.o(.text) refers to raw-os.o(.bss) for raw_task_0_obj
    raw-os.o(.text) refers to user_extension.o(.text) for raw_memset
    raw-os.o(.text) refers to port_hook.o(.text) for task_create_hook
    raw-os.o(.text) refers to port.o(.text) for port_stack_init
    fifo.o(.text) refers to cpu.o(.text) for OS_CPU_SR_Save
    fifo.o(.text) refers to user_extension.o(.text) for raw_memcpy
    rsh.o(.text) refers to cpu.o(.text) for OS_CPU_SR_Save
    rsh.o(.text) refers to string.o(.text) for raw_strncmp
    rsh.o(.text) refers to user_extension.o(.text) for raw_memset
    rsh.o(.text) refers to rsh.o(.data) for current_command_list_point
    rsh.o(.text) refers to rsh.o(.conststring) for .conststring
    rsh.o(.constdata) refers to rsh.o(.conststring) for .conststring
    rsh.o(.constdata) refers to rsh.o(.text) for rsh_help_command
    rsh.o(.data) refers to rsh.o(.constdata) for xHelpCommand
    cpu.o(.text) refers to raw-os.o(.text) for raw_stack_check
    cpu.o(.text) refers to raw-os.o(.data) for raw_task_active
==============================================================================

Removing Unused input sections from the image.

    Removing rsh.o(.text), (608 bytes).
    Removing rsh.o(.constdata), (16 bytes).
    Removing rsh.o(.conststring), (225 bytes).
    Removing rsh.o(.data), (20 bytes).
    Removing string.o(.text), (700 bytes).
    Removing sysinit.o(.rev16_text), (4 bytes).
    Removing sysinit.o(.revsh_text), (4 bytes).
    Removing lpc43xx_scu.o(.rev16_text), (4 bytes).
    Removing lpc43xx_scu.o(.revsh_text), (4 bytes).
    Removing lpc43xx_sdram.o(.rev16_text), (4 bytes).
    Removing lpc43xx_sdram.o(.revsh_text), (4 bytes).
    Removing main.o(.rev16_text), (4 bytes).
    Removing main.o(.revsh_text), (4 bytes).
    Removing main.o(.data), (4 bytes).
    Removing board.o(.rev16_text), (4 bytes).
    Removing board.o(.revsh_text), (4 bytes).
    Removing board.o(i.Board_ADC_Init), (2 bytes).
    Removing board.o(i.Board_Audio_CodecInit), (32 bytes).
==============================================================================

Image Symbol Table

    Local Symbols

    Symbol Name                              Value     Ov Type        Size  Object(Section)

    ../clib/angel/boardlib.s                 0x00000000   Number         0  boardinit3.o ABSOLUTE
    ../clib/angel/boardlib.s                 0x00000000   Number         0  boardinit2.o ABSOLUTE
    ../clib/angel/boardlib.s                 0x00000000   Number         0  boardshut.o ABSOLUTE
    ../clib/angel/boardlib.s                 0x00000000   Number         0  boardinit1.o ABSOLUTE
    ../clib/angel/handlers.s                 0x00000000   Number         0  __scatter_copy.o ABSOLUTE
    ../clib/angel/handlers.s                 0x00000000   Number         0  __scatter_zi.o ABSOLUTE
    ../clib/angel/kernel.s                   0x00000000   Number         0  __rtentry2.o ABSOLUTE
    ../clib/angel/kernel.s                   0x00000000   Number         0  rtexit.o ABSOLUTE
    ../clib/angel/kernel.s                   0x00000000   Number         0  __rtentry4.o ABSOLUTE
    ../clib/angel/kernel.s                   0x00000000   Number         0  rtexit2.o ABSOLUTE
    ../clib/angel/kernel.s                   0x00000000   Number         0  __rtentry.o ABSOLUTE
    ../clib/angel/rt.s                       0x00000000   Number         0  aeabi_ldiv0.o ABSOLUTE
    ../clib/angel/rt.s                       0x00000000   Number         0  rt_raise.o ABSOLUTE
    ../clib/angel/rt.s                       0x00000000   Number         0  aeabi_ldiv0_sigfpe.o ABSOLUTE
    ../clib/angel/rt.s                       0x00000000   Number         0  rt_div0.o ABSOLUTE
    ../clib/angel/scatter.s                  0x00000000   Number         0  __scatter.o ABSOLUTE
    ../clib/angel/startup.s                  0x00000000   Number         0  __main.o ABSOLUTE
    ../clib/angel/sys.s                      0x00000000   Number         0  libspace.o ABSOLUTE
    ../clib/angel/sys.s                      0x00000000   Number         0  sys_stackheap_outer.o ABSOLUTE
    ../clib/angel/sys.s                      0x00000000   Number         0  indicate_semi.o ABSOLUTE
    ../clib/angel/sys.s                      0x00000000   Number         0  use_no_semi.o ABSOLUTE
    ../clib/angel/sysapp.c                   0x00000000   Number         0  sys_wrch.o ABSOLUTE
    ../clib/angel/sysapp.c                   0x00000000   Number         0  sys_command.o ABSOLUTE
    ../clib/armsys.c                         0x00000000   Number         0  no_argv.o ABSOLUTE
    ../clib/armsys.c                         0x00000000   Number         0  _get_argv_nomalloc.o ABSOLUTE
    ../clib/armsys.c                         0x00000000   Number         0  argv_veneer.o ABSOLUTE
    ../clib/armsys.c                         0x00000000   Number         0  argv_veneer.o ABSOLUTE
    ../clib/heapalloc.c                      0x00000000   Number         0  hrguard.o ABSOLUTE
    ../clib/heapaux.c                        0x00000000   Number         0  heapauxi.o ABSOLUTE
    ../clib/libinit.s                        0x00000000   Number         0  libinit.o ABSOLUTE
    ../clib/libinit.s                        0x00000000   Number         0  libshutdown.o ABSOLUTE
    ../clib/libinit.s                        0x00000000   Number         0  libshutdown2.o ABSOLUTE
    ../clib/libinit.s                        0x00000000   Number         0  libinit2.o ABSOLUTE
    ../clib/longlong.s                       0x00000000   Number         0  lludivv7m.o ABSOLUTE
    ../clib/memcpset.s                       0x00000000   Number         0  rt_memclr_w.o ABSOLUTE
    ../clib/memcpset.s                       0x00000000   Number         0  rt_memcpy_w.o ABSOLUTE
    ../clib/memcpset.s                       0x00000000   Number         0  rt_memcpy_v6.o ABSOLUTE
    ../clib/printf.c                         0x00000000   Number         0  __printf_nopercent.o ABSOLUTE
    ../clib/printf.c                         0x00000000   Number         0  _printf_char_common.o ABSOLUTE
    ../clib/printf.c                         0x00000000   Number         0  _printf_intcommon.o ABSOLUTE
    ../clib/printf.c                         0x00000000   Number         0  noretval__2printf.o ABSOLUTE
    ../clib/printf.c                         0x00000000   Number         0  __printf_wp.o ABSOLUTE
    ../clib/printf.c                         0x00000000   Number         0  __printf_flags_wp.o ABSOLUTE
    ../clib/printf.c                         0x00000000   Number         0  __printf_ss_wp.o ABSOLUTE
    ../clib/printf.c                         0x00000000   Number         0  _printf_char_file.o ABSOLUTE
    ../clib/printf.c                         0x00000000   Number         0  __printf_flags_ss_wp.o ABSOLUTE
    ../clib/printf.c                         0x00000000   Number         0  __printf_flags_ss.o ABSOLUTE
    ../clib/printf.c                         0x00000000   Number         0  __printf_flags.o ABSOLUTE
    ../clib/printf.c                         0x00000000   Number         0  _printf_dec.o ABSOLUTE
    ../clib/printf.c                         0x00000000   Number         0  __printf.o ABSOLUTE
    ../clib/printf.c                         0x00000000   Number         0  __2printf.o ABSOLUTE
    ../clib/printf.c                         0x00000000   Number         0  __printf_ss.o ABSOLUTE
    ../clib/printf_percent.s                 0x00000000   Number         0  _printf_d.o ABSOLUTE
    ../clib/printf_percent.s                 0x00000000   Number         0  _printf_percent.o ABSOLUTE
    ../clib/printf_percent.s                 0x00000000   Number         0  _printf_percent_end.o ABSOLUTE
    ../clib/signal.c                         0x00000000   Number         0  defsig_rtred_inner.o ABSOLUTE
    ../clib/signal.c                         0x00000000   Number         0  defsig_fpe_formal.o ABSOLUTE
    ../clib/signal.c                         0x00000000   Number         0  defsig_fpe_outer.o ABSOLUTE
    ../clib/signal.c                         0x00000000   Number         0  defsig_rtmem_outer.o ABSOLUTE
    ../clib/signal.c                         0x00000000   Number         0  defsig_exit.o ABSOLUTE
    ../clib/signal.c                         0x00000000   Number         0  defsig_fpe_inner.o ABSOLUTE
    ../clib/signal.c                         0x00000000   Number         0  __raise.o ABSOLUTE
    ../clib/signal.c                         0x00000000   Number         0  defsig_other.o ABSOLUTE
    ../clib/signal.c                         0x00000000   Number         0  defsig_abrt_inner.o ABSOLUTE
    ../clib/signal.c                         0x00000000   Number         0  defsig_segv_inner.o ABSOLUTE
    ../clib/signal.c                         0x00000000   Number         0  defsig_cppl_inner.o ABSOLUTE
    ../clib/signal.c                         0x00000000   Number         0  defsig_pvfn_inner.o ABSOLUTE
    ../clib/signal.c                         0x00000000   Number         0  defsig_stak_inner.o ABSOLUTE
    ../clib/signal.c                         0x00000000   Number         0  defsig_rtmem_formal.o ABSOLUTE
    ../clib/signal.c                         0x00000000   Number         0  defsig_general.o ABSOLUTE
    ../clib/signal.c                         0x00000000   Number         0  defsig_rtmem_inner.o ABSOLUTE
    ../clib/signal.s                         0x00000000   Number         0  defsig.o ABSOLUTE
    ../clib/stdlib.c                         0x00000000   Number         0  exit.o ABSOLUTE
    ../fplib/fpinit.s                        0x00000000   Number         0  fpinit.o ABSOLUTE
    ..\..\..\..\software\common\lpc43xx_scu.c 0x00000000   Number         0  lpc43xx_scu.o ABSOLUTE
    ..\..\..\..\software\common\lpc43xx_sdram.c 0x00000000   Number         0  lpc43xx_sdram.o ABSOLUTE
    ..\..\..\..\software\kernel\port\cpu.asm 0x00000000   Number         0  cpu.o ABSOLUTE
    ..\..\..\..\software\kernel\port\port.c  0x00000000   Number         0  port.o ABSOLUTE
    ..\..\..\..\software\kernel\port\port_hook.c 0x00000000   Number         0  port_hook.o ABSOLUTE
    ..\..\..\..\software\kernel\port\raw_trace_port.c 0x00000000   Number         0  raw_trace_port.o ABSOLUTE
    ..\..\..\..\software\kernel\port\user_extension.c 0x00000000   Number         0  user_extension.o ABSOLUTE
    ..\..\..\..\software\kernel\raw-os\extension\lib\fifo.c 0x00000000   Number         0  fifo.o ABSOLUTE
    ..\..\..\..\software\kernel\raw-os\extension\lib\string.c 0x00000000   Number         0  string.o ABSOLUTE
    ..\..\..\..\software\kernel\raw-os\extension\shell\rsh.c 0x00000000   Number         0  rsh.o ABSOLUTE
    ..\..\..\..\software\kernel\raw-os\raw-os.c 0x00000000   Number         0  raw-os.o ABSOLUTE
    ..\..\board_common\uda1380.c             0x00000000   Number         0  uda1380.o ABSOLUTE
    ..\..\examples\sct_pwm\main.c            0x00000000   Number         0  main.o ABSOLUTE
    ..\..\startup_code\keil_startup_lpc18xx43xx.s 0x00000000   Number         0  keil_startup_lpc18xx43xx.o ABSOLUTE
    ..\..\startup_code\sysinit.c             0x00000000   Number         0  sysinit.o ABSOLUTE
    ..\\..\\..\\..\\software\\common\\lpc43xx_scu.c 0x00000000   Number         0  lpc43xx_scu.o ABSOLUTE
    ..\\..\\..\\..\\software\\common\\lpc43xx_sdram.c 0x00000000   Number         0  lpc43xx_sdram.o ABSOLUTE
    ..\\..\\board_common\\uda1380.c          0x00000000   Number         0  uda1380.o ABSOLUTE
    ..\\..\\examples\\sct_pwm\\main.c        0x00000000   Number         0  main.o ABSOLUTE
    ..\\..\\startup_code\\sysinit.c          0x00000000   Number         0  sysinit.o ABSOLUTE
    ..\\chip_common\\fpu_init.c              0x00000000   Number         0  fpu_init.o ABSOLUTE
    ..\chip_common\fpu_init.c                0x00000000   Number         0  fpu_init.o ABSOLUTE
    ..\chip_common\ring_buffer.c             0x00000000   Number         0  ring_buffer.o ABSOLUTE
    board.c                                  0x00000000   Number         0  board.o ABSOLUTE
    board.c                                  0x00000000   Number         0  board.o ABSOLUTE
    board_sysinit.c                          0x00000000   Number         0  board_sysinit.o ABSOLUTE
    board_sysinit.c                          0x00000000   Number         0  board_sysinit.o ABSOLUTE
    chip_18xx_43xx.c                         0x00000000   Number         0  chip_18xx_43xx.o ABSOLUTE
    chip_18xx_43xx.c                         0x00000000   Number         0  chip_18xx_43xx.o ABSOLUTE
    clock_18xx_43xx.c                        0x00000000   Number         0  clock_18xx_43xx.o ABSOLUTE
    clock_18xx_43xx.c                        0x00000000   Number         0  clock_18xx_43xx.o ABSOLUTE
    dc.s                                     0x00000000   Number         0  dc.o ABSOLUTE
    emc_18xx_43xx.c                          0x00000000   Number         0  emc_18xx_43xx.o ABSOLUTE
    emc_18xx_43xx.c                          0x00000000   Number         0  emc_18xx_43xx.o ABSOLUTE
    gpio_18xx_43xx.c                         0x00000000   Number         0  gpio_18xx_43xx.o ABSOLUTE
    gpio_18xx_43xx.c                         0x00000000   Number         0  gpio_18xx_43xx.o ABSOLUTE
    i2c_18xx_43xx.c                          0x00000000   Number         0  i2c_18xx_43xx.o ABSOLUTE
    i2c_18xx_43xx.c                          0x00000000   Number         0  i2c_18xx_43xx.o ABSOLUTE
    i2s_18xx_43xx.c                          0x00000000   Number         0  i2s_18xx_43xx.o ABSOLUTE
    i2s_18xx_43xx.c                          0x00000000   Number         0  i2s_18xx_43xx.o ABSOLUTE
    rgu_18xx_43xx.c                          0x00000000   Number         0  rgu_18xx_43xx.o ABSOLUTE
    rgu_18xx_43xx.c                          0x00000000   Number         0  rgu_18xx_43xx.o ABSOLUTE
    sct_18xx_43xx.c                          0x00000000   Number         0  sct_18xx_43xx.o ABSOLUTE
    sct_18xx_43xx.c                          0x00000000   Number         0  sct_18xx_43xx.o ABSOLUTE
    sct_pwm_18xx_43xx.c                      0x00000000   Number         0  sct_pwm_18xx_43xx.o ABSOLUTE
    sct_pwm_18xx_43xx.c                      0x00000000   Number         0  sct_pwm_18xx_43xx.o ABSOLUTE
    ssp_18xx_43xx.c                          0x00000000   Number         0  ssp_18xx_43xx.o ABSOLUTE
    ssp_18xx_43xx.c                          0x00000000   Number         0  ssp_18xx_43xx.o ABSOLUTE
    sysinit_18xx_43xx.c                      0x00000000   Number         0  sysinit_18xx_43xx.o ABSOLUTE
    sysinit_18xx_43xx.c                      0x00000000   Number         0  sysinit_18xx_43xx.o ABSOLUTE
    uart_18xx_43xx.c                         0x00000000   Number         0  uart_18xx_43xx.o ABSOLUTE
    uart_18xx_43xx.c                         0x00000000   Number         0  uart_18xx_43xx.o ABSOLUTE
    .data                                    0x10000000   Section       92  raw-os.o(.data)
    .data                                    0x1000005c   Section       20  board.o(.data)
    .data                                    0x10000070   Section        4  chip_18xx_43xx.o(.data)
    .data                                    0x10000074   Section        8  clock_18xx_43xx.o(.data)
    audio_usb_pll_freq                       0x10000074   Data           8  clock_18xx_43xx.o(.data)
    .bss                                     0x1000007c   Section     4840  raw-os.o(.bss)
    .bss                                     0x10001364   Section     1868  main.o(.bss)
    fifo_buffer                              0x10001a30   Data         128  main.o(.bss)
    .bss                                     0x10001ab0   Section       96  libspace.o(.bss)
    HEAP                                     0x10001b10   Section      256  keil_startup_lpc18xx43xx.o(HEAP)
    Heap_Mem                                 0x10001b10   Data         256  keil_startup_lpc18xx43xx.o(HEAP)
    STACK                                    0x10001c10   Section     1536  keil_startup_lpc18xx43xx.o(STACK)
    Stack_Mem                                0x10001c10   Data        1536  keil_startup_lpc18xx43xx.o(STACK)
    __initial_sp                             0x10002210   Data           0  keil_startup_lpc18xx43xx.o(STACK)
    RESET                                    0x1a000000   Section      276  keil_startup_lpc18xx43xx.o(RESET)
    !!!main                                  0x1a000114   Section        8  __main.o(!!!main)
    !!!scatter                               0x1a00011c   Section       52  __scatter.o(!!!scatter)
    !!handler_copy                           0x1a000150   Section       26  __scatter_copy.o(!!handler_copy)
    !!handler_zi                             0x1a00016c   Section       28  __scatter_zi.o(!!handler_zi)
    .ARM.Collect$$_printf_percent$$00000000  0x1a000188   Section        0  _printf_percent.o(.ARM.Collect$$_printf_percent$$00000000)
    .ARM.Collect$$_printf_percent$$00000009  0x1a000188   Section        6  _printf_d.o(.ARM.Collect$$_printf_percent$$00000009)
    .ARM.Collect$$_printf_percent$$00000017  0x1a00018e   Section        4  _printf_percent_end.o(.ARM.Collect$$_printf_percent$$00000017)
    .ARM.Collect$$libinit$$00000000          0x1a000192   Section        2  libinit.o(.ARM.Collect$$libinit$$00000000)
    .ARM.Collect$$libinit$$00000001          0x1a000194   Section        4  libinit2.o(.ARM.Collect$$libinit$$00000001)
    .ARM.Collect$$libinit$$00000004          0x1a000198   Section        0  libinit2.o(.ARM.Collect$$libinit$$00000004)
    .ARM.Collect$$libinit$$0000000A          0x1a000198   Section        0  libinit2.o(.ARM.Collect$$libinit$$0000000A)
    .ARM.Collect$$libinit$$0000000C          0x1a000198   Section        0  libinit2.o(.ARM.Collect$$libinit$$0000000C)
    .ARM.Collect$$libinit$$0000000E          0x1a000198   Section        0  libinit2.o(.ARM.Collect$$libinit$$0000000E)
    .ARM.Collect$$libinit$$00000011          0x1a000198   Section        0  libinit2.o(.ARM.Collect$$libinit$$00000011)
    .ARM.Collect$$libinit$$00000013          0x1a000198   Section        0  libinit2.o(.ARM.Collect$$libinit$$00000013)
    .ARM.Collect$$libinit$$00000015          0x1a000198   Section        0  libinit2.o(.ARM.Collect$$libinit$$00000015)
    .ARM.Collect$$libinit$$00000017          0x1a000198   Section        0  libinit2.o(.ARM.Collect$$libinit$$00000017)
    .ARM.Collect$$libinit$$00000019          0x1a000198   Section        0  libinit2.o(.ARM.Collect$$libinit$$00000019)
    .ARM.Collect$$libinit$$0000001B          0x1a000198   Section        0  libinit2.o(.ARM.Collect$$libinit$$0000001B)
    .ARM.Collect$$libinit$$0000001D          0x1a000198   Section        0  libinit2.o(.ARM.Collect$$libinit$$0000001D)
    .ARM.Collect$$libinit$$0000001F          0x1a000198   Section        0  libinit2.o(.ARM.Collect$$libinit$$0000001F)
    .ARM.Collect$$libinit$$00000021          0x1a000198   Section        0  libinit2.o(.ARM.Collect$$libinit$$00000021)
    .ARM.Collect$$libinit$$00000023          0x1a000198   Section        0  libinit2.o(.ARM.Collect$$libinit$$00000023)
    .ARM.Collect$$libinit$$00000025          0x1a000198   Section        0  libinit2.o(.ARM.Collect$$libinit$$00000025)
    .ARM.Collect$$libinit$$0000002C          0x1a000198   Section        0  libinit2.o(.ARM.Collect$$libinit$$0000002C)
    .ARM.Collect$$libinit$$0000002E          0x1a000198   Section        0  libinit2.o(.ARM.Collect$$libinit$$0000002E)
    .ARM.Collect$$libinit$$00000030          0x1a000198   Section        0  libinit2.o(.ARM.Collect$$libinit$$00000030)
    .ARM.Collect$$libinit$$00000032          0x1a000198   Section        0  libinit2.o(.ARM.Collect$$libinit$$00000032)
    .ARM.Collect$$libinit$$00000033          0x1a000198   Section        2  libinit2.o(.ARM.Collect$$libinit$$00000033)
    .ARM.Collect$$libshutdown$$00000000      0x1a00019a   Section        2  libshutdown.o(.ARM.Collect$$libshutdown$$00000000)
    .ARM.Collect$$libshutdown$$00000003      0x1a00019c   Section        0  libshutdown2.o(.ARM.Collect$$libshutdown$$00000003)
    .ARM.Collect$$libshutdown$$00000006      0x1a00019c   Section        0  libshutdown2.o(.ARM.Collect$$libshutdown$$00000006)
    .ARM.Collect$$libshutdown$$00000009      0x1a00019c   Section        0  libshutdown2.o(.ARM.Collect$$libshutdown$$00000009)
    .ARM.Collect$$libshutdown$$0000000B      0x1a00019c   Section        0  libshutdown2.o(.ARM.Collect$$libshutdown$$0000000B)
    .ARM.Collect$$libshutdown$$0000000E      0x1a00019c   Section        0  libshutdown2.o(.ARM.Collect$$libshutdown$$0000000E)
    .ARM.Collect$$libshutdown$$0000000F      0x1a00019c   Section        2  libshutdown2.o(.ARM.Collect$$libshutdown$$0000000F)
    .ARM.Collect$$rtentry$$00000000          0x1a00019e   Section        0  __rtentry.o(.ARM.Collect$$rtentry$$00000000)
    .ARM.Collect$$rtentry$$00000002          0x1a00019e   Section        0  __rtentry2.o(.ARM.Collect$$rtentry$$00000002)
    .ARM.Collect$$rtentry$$00000004          0x1a00019e   Section        6  __rtentry4.o(.ARM.Collect$$rtentry$$00000004)
    .ARM.Collect$$rtentry$$00000009          0x1a0001a4   Section        0  __rtentry2.o(.ARM.Collect$$rtentry$$00000009)
    .ARM.Collect$$rtentry$$0000000A          0x1a0001a4   Section        4  __rtentry2.o(.ARM.Collect$$rtentry$$0000000A)
    .ARM.Collect$$rtentry$$0000000C          0x1a0001a8   Section        0  __rtentry2.o(.ARM.Collect$$rtentry$$0000000C)
    .ARM.Collect$$rtentry$$0000000D          0x1a0001a8   Section        8  __rtentry2.o(.ARM.Collect$$rtentry$$0000000D)
    .ARM.Collect$$rtexit$$00000000           0x1a0001b0   Section        2  rtexit.o(.ARM.Collect$$rtexit$$00000000)
    .ARM.Collect$$rtexit$$00000002           0x1a0001b2   Section        0  rtexit2.o(.ARM.Collect$$rtexit$$00000002)
    .ARM.Collect$$rtexit$$00000003           0x1a0001b2   Section        4  rtexit2.o(.ARM.Collect$$rtexit$$00000003)
    .ARM.Collect$$rtexit$$00000004           0x1a0001b6   Section        6  rtexit2.o(.ARM.Collect$$rtexit$$00000004)
    .text                                    0x1a0001bc   Section        0  raw-os.o(.text)
    list_insert                              0x1a0001bd   Thumb Code    14  raw-os.o(.text)
    add_to_priority_list                     0x1a0003cb   Thumb Code    50  raw-os.o(.text)
    bit_set                                  0x1a000417   Thumb Code    26  raw-os.o(.text)
    release_mutex                            0x1a000623   Thumb Code   110  raw-os.o(.text)
    tick_task_process                        0x1a000a7f   Thumb Code    28  raw-os.o(.text)
    pend_task_wake_up                        0x1a000cd3   Thumb Code   104  raw-os.o(.text)
    int_msg_handler                          0x1a0012ab   Thumb Code   180  raw-os.o(.text)
    int_msg_init                             0x1a00135f   Thumb Code    52  raw-os.o(.text)
    task_0_post                              0x1a001393   Thumb Code   192  raw-os.o(.text)
    task_0_tick_handler                      0x1a001705   Thumb Code    30  raw-os.o(.text)
    task_0_process                           0x1a001723   Thumb Code   160  raw-os.o(.text)
    timer_list_remove                        0x1a0019b1   Thumb Code    20  raw-os.o(.text)
    timer_list_priority_insert               0x1a0019c5   Thumb Code    60  raw-os.o(.text)
    timer_list_init                          0x1a001df5   Thumb Code    10  raw-os.o(.text)
    raw_byte_pool_search                     0x1a002a6f   Thumb Code   282  raw-os.o(.text)
    internal_raw_mq_send                     0x1a002ca1   Thumb Code   208  raw-os.o(.text)
    list_init                                0x1a003c51   Thumb Code     6  raw-os.o(.text)
    is_list_empty                            0x1a003c57   Thumb Code    16  raw-os.o(.text)
    list_delete                              0x1a003c67   Thumb Code    14  raw-os.o(.text)
    msg_insert                               0x1a003c75   Thumb Code    72  raw-os.o(.text)
    .text                                    0x1a003cbc   Section        0  fifo.o(.text)
    fifo_unused                              0x1a003cbd   Thumb Code    16  fifo.o(.text)
    is_power_of_2                            0x1a003ccd   Thumb Code    18  fifo.o(.text)
    fifo_copy_in                             0x1a003d1f   Thumb Code    68  fifo.o(.text)
    kfifo_copy_out                           0x1a003db1   Thumb Code    70  fifo.o(.text)
    internal_fifo_out_peek                   0x1a003df7   Thumb Code    40  fifo.o(.text)
    .text                                    0x1a003ee0   Section      164  cpu.o(.text)
    $v0                                      0x1a003ee0   Number         0  cpu.o(.text)
    .text                                    0x1a003f84   Section        0  port.o(.text)
    .text                                    0x1a00413c   Section        0  port_hook.o(.text)
    .text                                    0x1a00414e   Section        0  user_extension.o(.text)
    .text                                    0x1a0041f0   Section       68  keil_startup_lpc18xx43xx.o(.text)
    $v0                                      0x1a0041f0   Number         0  keil_startup_lpc18xx43xx.o(.text)
    .text                                    0x1a004234   Section        0  sysinit.o(.text)
    .text                                    0x1a004250   Section        0  lpc43xx_scu.o(.text)
    .text                                    0x1a004274   Section        0  lpc43xx_sdram.o(.text)
    .text                                    0x1a004724   Section        0  main.o(.text)
    NVIC_SetPriority                         0x1a004725   Thumb Code    32  main.o(.text)
    uart_3_irq                               0x1a0047dd   Thumb Code    58  main.o(.text)
    uart3_int_init                           0x1a004827   Thumb Code    32  main.o(.text)
    NVIC_EnableIRQ                           0x1a00498f   Thumb Code    22  main.o(.text)
    Chip_SCTPWM_SetDutyCycle                 0x1a0049a5   Thumb Code    14  main.o(.text)
    .text                                    0x1a004a18   Section        0  noretval__2printf.o(.text)
    .text                                    0x1a004a30   Section        0  __printf.o(.text)
    .text                                    0x1a004a98   Section        0  _printf_dec.o(.text)
    .text                                    0x1a004b10   Section        0  heapauxi.o(.text)
    .text                                    0x1a004b16   Section        0  _printf_intcommon.o(.text)
    .text                                    0x1a004bc8   Section        0  _printf_char_file.o(.text)
    .text                                    0x1a004bec   Section        0  _printf_char_common.o(.text)
    _printf_input_char                       0x1a004bed   Thumb Code    10  _printf_char_common.o(.text)
    .text                                    0x1a004c1c   Section       74  sys_stackheap_outer.o(.text)
    .text                                    0x1a004c66   Section        0  exit.o(.text)
    .text                                    0x1a004c74   Section        8  libspace.o(.text)
    i.Board_SetupClocking                    0x1a004c7c   Section        0  board_sysinit.o(i.Board_SetupClocking)
    i.Board_SetupMuxing                      0x1a004d30   Section        0  board_sysinit.o(i.Board_SetupMuxing)
    i.Board_SystemInit                       0x1a004d7c   Section        0  board_sysinit.o(i.Board_SystemInit)
    i.Board_UARTPutChar                      0x1a004d88   Section        0  board.o(i.Board_UARTPutChar)
    i.Board_UART_Init                        0x1a004da8   Section        0  board.o(i.Board_UART_Init)
    i.Chip_Clock_EnableOpts                  0x1a004dec   Section        0  clock_18xx_43xx.o(i.Chip_Clock_EnableOpts)
    i.Chip_Clock_FindBaseClock               0x1a004e28   Section        0  clock_18xx_43xx.o(i.Chip_Clock_FindBaseClock)
    Chip_Clock_FindBaseClock                 0x1a004e29   Thumb Code    74  clock_18xx_43xx.o(i.Chip_Clock_FindBaseClock)
    i.Chip_Clock_GetBaseClock                0x1a004e78   Section        0  clock_18xx_43xx.o(i.Chip_Clock_GetBaseClock)
    i.Chip_Clock_GetBaseClocktHz             0x1a004e9c   Section        0  clock_18xx_43xx.o(i.Chip_Clock_GetBaseClocktHz)
    i.Chip_Clock_GetClockInputHz             0x1a004eb0   Section        0  clock_18xx_43xx.o(i.Chip_Clock_GetClockInputHz)
    i.Chip_Clock_GetDivRate                  0x1a004f84   Section        0  clock_18xx_43xx.o(i.Chip_Clock_GetDivRate)
    Chip_Clock_GetDivRate                    0x1a004f85   Thumb Code    40  clock_18xx_43xx.o(i.Chip_Clock_GetDivRate)
    i.Chip_Clock_GetDividerDivisor           0x1a004fac   Section        0  clock_18xx_43xx.o(i.Chip_Clock_GetDividerDivisor)
    i.Chip_Clock_GetDividerSource            0x1a004fcc   Section        0  clock_18xx_43xx.o(i.Chip_Clock_GetDividerSource)
    i.Chip_Clock_GetMainPLLHz                0x1a004fec   Section        0  clock_18xx_43xx.o(i.Chip_Clock_GetMainPLLHz)
    i.Chip_Clock_GetRate                     0x1a005064   Section        0  clock_18xx_43xx.o(i.Chip_Clock_GetRate)
    i.Chip_Clock_SetBaseClock                0x1a0050bc   Section        0  clock_18xx_43xx.o(i.Chip_Clock_SetBaseClock)
    i.Chip_Clock_SetDivider                  0x1a005104   Section        0  clock_18xx_43xx.o(i.Chip_Clock_SetDivider)
    i.Chip_SCTPWM_SetOutPin                  0x1a005154   Section        0  sct_pwm_18xx_43xx.o(i.Chip_SCTPWM_SetOutPin)
    i.Chip_SCTPWM_SetRate                    0x1a0051a8   Section        0  sct_pwm_18xx_43xx.o(i.Chip_SCTPWM_SetRate)
    i.Chip_SCT_Init                          0x1a005210   Section        0  sct_18xx_43xx.o(i.Chip_SCT_Init)
    i.Chip_SCT_SetControl                    0x1a005222   Section        0  sct_pwm_18xx_43xx.o(i.Chip_SCT_SetControl)
    Chip_SCT_SetControl                      0x1a005223   Thumb Code     8  sct_pwm_18xx_43xx.o(i.Chip_SCT_SetControl)
    i.Chip_SCU_PinMuxSet                     0x1a00522c   Section        0  board.o(i.Chip_SCU_PinMuxSet)
    Chip_SCU_PinMuxSet                       0x1a00522d   Thumb Code    12  board.o(i.Chip_SCU_PinMuxSet)
    i.Chip_SCU_SetPinMuxing                  0x1a00523c   Section        0  board_sysinit.o(i.Chip_SCU_SetPinMuxing)
    Chip_SCU_SetPinMuxing                    0x1a00523d   Thumb Code    44  board_sysinit.o(i.Chip_SCU_SetPinMuxing)
    i.Chip_SetupCoreClock                    0x1a00526c   Section        0  sysinit_18xx_43xx.o(i.Chip_SetupCoreClock)
    i.Chip_UART_DisableDivisorAccess         0x1a00527a   Section        0  uart_18xx_43xx.o(i.Chip_UART_DisableDivisorAccess)
    Chip_UART_DisableDivisorAccess           0x1a00527b   Thumb Code    10  uart_18xx_43xx.o(i.Chip_UART_DisableDivisorAccess)
    i.Chip_UART_EnableDivisorAccess          0x1a005284   Section        0  uart_18xx_43xx.o(i.Chip_UART_EnableDivisorAccess)
    Chip_UART_EnableDivisorAccess            0x1a005285   Thumb Code    10  uart_18xx_43xx.o(i.Chip_UART_EnableDivisorAccess)
    i.Chip_UART_GetClockIndex                0x1a005290   Section        0  uart_18xx_43xx.o(i.Chip_UART_GetClockIndex)
    Chip_UART_GetClockIndex                  0x1a005291   Thumb Code    36  uart_18xx_43xx.o(i.Chip_UART_GetClockIndex)
    i.Chip_UART_Init                         0x1a0052c0   Section        0  uart_18xx_43xx.o(i.Chip_UART_Init)
    i.Chip_UART_SetBaud                      0x1a00530c   Section        0  uart_18xx_43xx.o(i.Chip_UART_SetBaud)
    i.Chip_UART_SetDivisorLatches            0x1a00534e   Section        0  uart_18xx_43xx.o(i.Chip_UART_SetDivisorLatches)
    Chip_UART_SetDivisorLatches              0x1a00534f   Thumb Code     6  uart_18xx_43xx.o(i.Chip_UART_SetDivisorLatches)
    i.SystemCoreClockUpdate                  0x1a005354   Section        0  chip_18xx_43xx.o(i.SystemCoreClockUpdate)
    i._sys_exit                              0x1a005368   Section        0  board.o(i._sys_exit)
    i.clock_init_delay                       0x1a00536e   Section        0  sysinit_18xx_43xx.o(i.clock_init_delay)
    clock_init_delay                         0x1a00536f   Thumb Code    36  sysinit_18xx_43xx.o(i.clock_init_delay)
    i.clock_main_init                        0x1a005394   Section        0  sysinit_18xx_43xx.o(i.clock_main_init)
    clock_main_init                          0x1a005395   Thumb Code   168  sysinit_18xx_43xx.o(i.clock_main_init)
    i.ferror                                 0x1a005450   Section        0  board.o(i.ferror)
    i.fpuInit                                0x1a005458   Section        0  fpu_init.o(i.fpuInit)
    i.fputc                                  0x1a0054a8   Section        0  board.o(i.fputc)
    x$fpl$fpinit                             0x1a0054bc   Section       10  fpinit.o(x$fpl$fpinit)
    $v0                                      0x1a0054bc   Number         0  fpinit.o(x$fpl$fpinit)
    .constdata                               0x1a0054c8   Section       64  board.o(.constdata)
    ledports                                 0x1a0054c8   Data           8  board.o(.constdata)
    ledbits                                  0x1a0054d0   Data           8  board.o(.constdata)
    .constdata                               0x1a005508   Section      700  board_sysinit.o(.constdata)
    InitClkStates                            0x1a005508   Data          16  board_sysinit.o(.constdata)
    spifipinmuxing                           0x1a005518   Data          24  board_sysinit.o(.constdata)
    pinmuxing                                0x1a005530   Data         496  board_sysinit.o(.constdata)
    pinclockmuxing                           0x1a005720   Data          16  board_sysinit.o(.constdata)
    MT48LC4M32_config                        0x1a005730   Data         116  board_sysinit.o(.constdata)
    S29GL64N90_config                        0x1a0057a4   Data          32  board_sysinit.o(.constdata)
    .constdata                               0x1a0057c4   Section      108  clock_18xx_43xx.o(.constdata)
    periph_to_base                           0x1a0057c4   Data         108  clock_18xx_43xx.o(.constdata)
    .constdata                               0x1a005830   Section       72  sysinit_18xx_43xx.o(.constdata)
    InitClkStates                            0x1a005830   Data          72  sysinit_18xx_43xx.o(.constdata)

    Global Symbols

    Symbol Name                              Value     Ov Type        Size  Object(Section)

    BuildAttributes$$THM_ISAv4$E$P$D$K$B$S$7EM$VFPi3$EXTD16$VFPS$VFMA$PE$A:L22UL41UL21$X:L11$S22US41US21$IEEE1$IW$USESV6$~STKCKD$USESV7$~SHL$OSPACE$ROPI$EBA8$UX$STANDARDLIB$REQ8$PRES8$EABIv2 0x00000000   Number         0  anon$$obj.o ABSOLUTE
    __ARM_use_no_argv                        0x00000000   Number         0  main.o ABSOLUTE
    __ARM_exceptions_init                     - Undefined Weak Reference
    __alloca_initialize                       - Undefined Weak Reference
    __arm_preinit_                            - Undefined Weak Reference
    __cpp_initialize__aeabi_                  - Undefined Weak Reference
    __cxa_finalize                            - Undefined Weak Reference
    __rt_locale                               - Undefined Weak Reference
    __sigvec_lookup                           - Undefined Weak Reference
    _atexit_init                              - Undefined Weak Reference
    _call_atexit_fns                          - Undefined Weak Reference
    _clock_init                               - Undefined Weak Reference
    _fp_trap_init                             - Undefined Weak Reference
    _fp_trap_shutdown                         - Undefined Weak Reference
    _get_lc_collate                           - Undefined Weak Reference
    _get_lc_ctype                             - Undefined Weak Reference
    _get_lc_monetary                          - Undefined Weak Reference
    _get_lc_numeric                           - Undefined Weak Reference
    _get_lc_time                              - Undefined Weak Reference
    _getenv_init                              - Undefined Weak Reference
    _handle_redirection                       - Undefined Weak Reference
    _init_alloc                               - Undefined Weak Reference
    _init_user_alloc                          - Undefined Weak Reference
    _initio                                   - Undefined Weak Reference
    _printf_post_padding                      - Undefined Weak Reference
    _printf_pre_padding                       - Undefined Weak Reference
    _printf_truncate_signed                   - Undefined Weak Reference
    _printf_truncate_unsigned                 - Undefined Weak Reference
    _rand_init                                - Undefined Weak Reference
    _signal_finish                            - Undefined Weak Reference
    _signal_init                              - Undefined Weak Reference
    _terminate_alloc                          - Undefined Weak Reference
    _terminate_user_alloc                     - Undefined Weak Reference
    _terminateio                              - Undefined Weak Reference
    raw_os_active                            0x10000000   Data           1  raw-os.o(.data)
    idle_task_exit                           0x10000001   Data           1  raw-os.o(.data)
    raw_sched_lock                           0x10000002   Data           1  raw-os.o(.data)
    raw_int_nesting                          0x10000003   Data           1  raw-os.o(.data)
    high_ready_obj                           0x10000004   Data           4  raw-os.o(.data)
    raw_task_active                          0x10000008   Data           4  raw-os.o(.data)
    raw_idle_count                           0x10000010   Data           8  raw-os.o(.data)
    raw_tick_count                           0x10000018   Data           4  raw-os.o(.data)
    tick_head                                0x1000001c   Data           8  raw-os.o(.data)
    timer_head                               0x10000024   Data           8  raw-os.o(.data)
    raw_timer_count                          0x1000002c   Data           4  raw-os.o(.data)
    raw_timer_ctrl                           0x10000030   Data           4  raw-os.o(.data)
    mutex_recursion_levels                   0x10000034   Data           1  raw-os.o(.data)
    mutex_recursion_max_levels               0x10000035   Data           1  raw-os.o(.data)
    raw_task_debug                           0x10000038   Data           8  raw-os.o(.data)
    task_0_event_head                        0x10000040   Data           2  raw-os.o(.data)
    task_0_event_end                         0x10000042   Data           2  raw-os.o(.data)
    task_0_events                            0x10000044   Data           2  raw-os.o(.data)
    peak_events                              0x10000046   Data           2  raw-os.o(.data)
    task_0_event_handler                     0x10000048   Data           4  raw-os.o(.data)
    task_0_exit                              0x1000004c   Data           1  raw-os.o(.data)
    free_object_int_msg                      0x10000050   Data           4  raw-os.o(.data)
    int_msg_full                             0x10000054   Data           4  raw-os.o(.data)
    msg_event_handler                        0x10000058   Data           4  raw-os.o(.data)
    __stdout                                 0x1000005c   Data           4  board.o(.data)
    __stdin                                  0x10000060   Data           4  board.o(.data)
    __stderr                                 0x10000064   Data           4  board.o(.data)
    g_isPenDn                                0x10000068   Data           4  board.o(.data)
    g_isNewPenDn                             0x1000006c   Data           4  board.o(.data)
    SystemCoreClock                          0x10000070   Data           4  chip_18xx_43xx.o(.data)
    raw_ready_queue                          0x1000007c   Data         508  raw-os.o(.bss)
    raw_idle_obj                             0x10000278   Data          92  raw-os.o(.bss)
    idle_stack                               0x100002d4   Data         400  raw-os.o(.bss)
    raw_timer_obj                            0x10000464   Data          92  raw-os.o(.bss)
    timer_task_stack                         0x100004c0   Data         800  raw-os.o(.bss)
    timer_sem                                0x100007e0   Data          24  raw-os.o(.bss)
    timer_mutex                              0x100007f8   Data          28  raw-os.o(.bss)
    task_0_events_queue                      0x10000814   Data         384  raw-os.o(.bss)
    raw_task_0_obj                           0x10000994   Data          92  raw-os.o(.bss)
    task_0_stack                             0x100009f0   Data        1024  raw-os.o(.bss)
    object_int_msg                           0x10000df0   Data         480  raw-os.o(.bss)
    tick_task_obj                            0x10000fd0   Data          92  raw-os.o(.bss)
    tick_task_stack                          0x1000102c   Data         800  raw-os.o(.bss)
    tick_semaphore_obj                       0x1000134c   Data          24  raw-os.o(.bss)
    shell_task_stack                         0x10001364   Data        1600  main.o(.bss)
    shell_task_obj                           0x100019a4   Data          92  main.o(.bss)
    uart_sema                                0x10001a00   Data          24  main.o(.bss)
    uart_fifo                                0x10001a18   Data          24  main.o(.bss)
    __libspace_start                         0x10001ab0   Data          96  libspace.o(.bss)
    __temporary_stack_top$libspace           0x10001b10   Data           0  libspace.o(.bss)
    __Vectors                                0x1a000000   Data           4  keil_startup_lpc18xx43xx.o(RESET)
    __main                                   0x1a000115   Thumb Code     8  __main.o(!!!main)
    __scatterload                            0x1a00011d   Thumb Code     0  __scatter.o(!!!scatter)
    __scatterload_rt2                        0x1a00011d   Thumb Code    44  __scatter.o(!!!scatter)
    __scatterload_rt2_thumb_only             0x1a00011d   Thumb Code     0  __scatter.o(!!!scatter)
    __scatterload_null                       0x1a00012b   Thumb Code     0  __scatter.o(!!!scatter)
    __scatterload_copy                       0x1a000151   Thumb Code    26  __scatter_copy.o(!!handler_copy)
    __scatterload_zeroinit                   0x1a00016d   Thumb Code    28  __scatter_zi.o(!!handler_zi)
    _printf_d                                0x1a000189   Thumb Code     0  _printf_d.o(.ARM.Collect$$_printf_percent$$00000009)
    _printf_percent                          0x1a000189   Thumb Code     0  _printf_percent.o(.ARM.Collect$$_printf_percent$$00000000)
    _printf_percent_end                      0x1a00018f   Thumb Code     0  _printf_percent_end.o(.ARM.Collect$$_printf_percent$$00000017)
    __rt_lib_init                            0x1a000193   Thumb Code     0  libinit.o(.ARM.Collect$$libinit$$00000000)
    __rt_lib_init_fp_1                       0x1a000195   Thumb Code     0  libinit2.o(.ARM.Collect$$libinit$$00000001)
    __rt_lib_init_alloca_1                   0x1a000199   Thumb Code     0  libinit2.o(.ARM.Collect$$libinit$$0000002E)
    __rt_lib_init_argv_1                     0x1a000199   Thumb Code     0  libinit2.o(.ARM.Collect$$libinit$$0000002C)
    __rt_lib_init_atexit_1                   0x1a000199   Thumb Code     0  libinit2.o(.ARM.Collect$$libinit$$0000001B)
    __rt_lib_init_clock_1                    0x1a000199   Thumb Code     0  libinit2.o(.ARM.Collect$$libinit$$00000021)
    __rt_lib_init_cpp_1                      0x1a000199   Thumb Code     0  libinit2.o(.ARM.Collect$$libinit$$00000032)
    __rt_lib_init_exceptions_1               0x1a000199   Thumb Code     0  libinit2.o(.ARM.Collect$$libinit$$00000030)
    __rt_lib_init_fp_trap_1                  0x1a000199   Thumb Code     0  libinit2.o(.ARM.Collect$$libinit$$0000001F)
    __rt_lib_init_getenv_1                   0x1a000199   Thumb Code     0  libinit2.o(.ARM.Collect$$libinit$$00000023)
    __rt_lib_init_heap_1                     0x1a000199   Thumb Code     0  libinit2.o(.ARM.Collect$$libinit$$0000000A)
    __rt_lib_init_lc_collate_1               0x1a000199   Thumb Code     0  libinit2.o(.ARM.Collect$$libinit$$00000011)
    __rt_lib_init_lc_ctype_1                 0x1a000199   Thumb Code     0  libinit2.o(.ARM.Collect$$libinit$$00000013)
    __rt_lib_init_lc_monetary_1              0x1a000199   Thumb Code     0  libinit2.o(.ARM.Collect$$libinit$$00000015)
    __rt_lib_init_lc_numeric_1               0x1a000199   Thumb Code     0  libinit2.o(.ARM.Collect$$libinit$$00000017)
    __rt_lib_init_lc_time_1                  0x1a000199   Thumb Code     0  libinit2.o(.ARM.Collect$$libinit$$00000019)
    __rt_lib_init_preinit_1                  0x1a000199   Thumb Code     0  libinit2.o(.ARM.Collect$$libinit$$00000004)
    __rt_lib_init_rand_1                     0x1a000199   Thumb Code     0  libinit2.o(.ARM.Collect$$libinit$$0000000E)
    __rt_lib_init_return                     0x1a000199   Thumb Code     0  libinit2.o(.ARM.Collect$$libinit$$00000033)
    __rt_lib_init_signal_1                   0x1a000199   Thumb Code     0  libinit2.o(.ARM.Collect$$libinit$$0000001D)
    __rt_lib_init_stdio_1                    0x1a000199   Thumb Code     0  libinit2.o(.ARM.Collect$$libinit$$00000025)
    __rt_lib_init_user_alloc_1               0x1a000199   Thumb Code     0  libinit2.o(.ARM.Collect$$libinit$$0000000C)
    __rt_lib_shutdown                        0x1a00019b   Thumb Code     0  libshutdown.o(.ARM.Collect$$libshutdown$$00000000)
    __rt_lib_shutdown_fp_trap_1              0x1a00019d   Thumb Code     0  libshutdown2.o(.ARM.Collect$$libshutdown$$00000006)
    __rt_lib_shutdown_heap_1                 0x1a00019d   Thumb Code     0  libshutdown2.o(.ARM.Collect$$libshutdown$$0000000E)
    __rt_lib_shutdown_return                 0x1a00019d   Thumb Code     0  libshutdown2.o(.ARM.Collect$$libshutdown$$0000000F)
    __rt_lib_shutdown_signal_1               0x1a00019d   Thumb Code     0  libshutdown2.o(.ARM.Collect$$libshutdown$$00000009)
    __rt_lib_shutdown_stdio_1                0x1a00019d   Thumb Code     0  libshutdown2.o(.ARM.Collect$$libshutdown$$00000003)
    __rt_lib_shutdown_user_alloc_1           0x1a00019d   Thumb Code     0  libshutdown2.o(.ARM.Collect$$libshutdown$$0000000B)
    __rt_entry                               0x1a00019f   Thumb Code     0  __rtentry.o(.ARM.Collect$$rtentry$$00000000)
    __rt_entry_presh_1                       0x1a00019f   Thumb Code     0  __rtentry2.o(.ARM.Collect$$rtentry$$00000002)
    __rt_entry_sh                            0x1a00019f   Thumb Code     0  __rtentry4.o(.ARM.Collect$$rtentry$$00000004)
    __rt_entry_li                            0x1a0001a5   Thumb Code     0  __rtentry2.o(.ARM.Collect$$rtentry$$0000000A)
    __rt_entry_postsh_1                      0x1a0001a5   Thumb Code     0  __rtentry2.o(.ARM.Collect$$rtentry$$00000009)
    __rt_entry_main                          0x1a0001a9   Thumb Code     0  __rtentry2.o(.ARM.Collect$$rtentry$$0000000D)
    __rt_entry_postli_1                      0x1a0001a9   Thumb Code     0  __rtentry2.o(.ARM.Collect$$rtentry$$0000000C)
    __rt_exit                                0x1a0001b1   Thumb Code     0  rtexit.o(.ARM.Collect$$rtexit$$00000000)
    __rt_exit_ls                             0x1a0001b3   Thumb Code     0  rtexit2.o(.ARM.Collect$$rtexit$$00000003)
    __rt_exit_prels_1                        0x1a0001b3   Thumb Code     0  rtexit2.o(.ARM.Collect$$rtexit$$00000002)
    __rt_exit_exit                           0x1a0001b7   Thumb Code     0  rtexit2.o(.ARM.Collect$$rtexit$$00000004)
    get_ready_task                           0x1a0001cb   Thumb Code    34  raw-os.o(.text)
    raw_sched                                0x1a0001ed   Thumb Code    64  raw-os.o(.text)
    raw_semaphore_create                     0x1a00022d   Thumb Code    46  raw-os.o(.text)
    raw_task_semaphore_create                0x1a00025b   Thumb Code    28  raw-os.o(.text)
    hybrid_int_process                       0x1a000277   Thumb Code   206  raw-os.o(.text)
    tick_list_remove                         0x1a000345   Thumb Code    22  raw-os.o(.text)
    mtx_chg_pri                              0x1a00035b   Thumb Code   112  raw-os.o(.text)
    change_pend_list_priority                0x1a0003fd   Thumb Code    26  raw-os.o(.text)
    add_ready_list_end                       0x1a000431   Thumb Code    40  raw-os.o(.text)
    add_ready_list_head                      0x1a000459   Thumb Code    40  raw-os.o(.text)
    bit_search_first_one                     0x1a000481   Thumb Code   146  raw-os.o(.text)
    remove_ready_list                        0x1a000513   Thumb Code   116  raw-os.o(.text)
    change_internal_task_priority            0x1a000587   Thumb Code   156  raw-os.o(.text)
    mutex_state_change                       0x1a000691   Thumb Code    38  raw-os.o(.text)
    add_ready_list                           0x1a0006b7   Thumb Code    38  raw-os.o(.text)
    tick_list_update                         0x1a0006dd   Thumb Code   296  raw-os.o(.text)
    block_state_post_process                 0x1a000805   Thumb Code    74  raw-os.o(.text)
    tick_list_insert                         0x1a00084f   Thumb Code    94  raw-os.o(.text)
    raw_pend_object                          0x1a0008ad   Thumb Code    92  raw-os.o(.text)
    raw_semaphore_get                        0x1a000909   Thumb Code   356  raw-os.o(.text)
    raw_task_semaphore_get                   0x1a000a6d   Thumb Code    18  raw-os.o(.text)
    raw_task_create                          0x1a000a9b   Thumb Code   516  raw-os.o(.text)
    tick_task_start                          0x1a000c9f   Thumb Code    52  raw-os.o(.text)
    wake_send_msg                            0x1a000d3b   Thumb Code    16  raw-os.o(.text)
    msg_post                                 0x1a000d4b   Thumb Code   456  raw-os.o(.text)
    raw_wake_object                          0x1a000f13   Thumb Code    12  raw-os.o(.text)
    semaphore_put                            0x1a000f1f   Thumb Code   290  raw-os.o(.text)
    task_resume                              0x1a001041   Thumb Code   276  raw-os.o(.text)
    task_suspend                             0x1a001155   Thumb Code   342  raw-os.o(.text)
    raw_task_0_post                          0x1a001453   Thumb Code    22  raw-os.o(.text)
    int_msg_post                             0x1a001469   Thumb Code   176  raw-os.o(.text)
    raw_semaphore_put                        0x1a001519   Thumb Code    52  raw-os.o(.text)
    call_timer_task                          0x1a00154d   Thumb Code    30  raw-os.o(.text)
    move_to_ready_list_end                   0x1a00156b   Thumb Code    30  raw-os.o(.text)
    calculate_time_slice                     0x1a001589   Thumb Code   368  raw-os.o(.text)
    raw_task_semaphore_put                   0x1a0016f9   Thumb Code    12  raw-os.o(.text)
    raw_task_0_init                          0x1a0017c3   Thumb Code    50  raw-os.o(.text)
    raw_mutex_create                         0x1a0017f5   Thumb Code    74  raw-os.o(.text)
    raw_mutex_put                            0x1a00183f   Thumb Code   370  raw-os.o(.text)
    raw_mutex_get                            0x1a001a01   Thumb Code   604  raw-os.o(.text)
    raw_semaphore_set                        0x1a001c5d   Thumb Code   214  raw-os.o(.text)
    timer_task                               0x1a001d33   Thumb Code   194  raw-os.o(.text)
    raw_timer_init                           0x1a001dff   Thumb Code    62  raw-os.o(.text)
    raw_idle_task                            0x1a001e3d   Thumb Code    42  raw-os.o(.text)
    tick_list_init                           0x1a001e67   Thumb Code    10  raw-os.o(.text)
    run_queue_init                           0x1a001e71   Thumb Code    32  raw-os.o(.text)
    raw_os_init                              0x1a001e91   Thumb Code   206  raw-os.o(.text)
    raw_os_start                             0x1a001f5f   Thumb Code    44  raw-os.o(.text)
    wake_send_msg_size                       0x1a001f8b   Thumb Code    20  raw-os.o(.text)
    delete_pend_obj                          0x1a001f9f   Thumb Code   106  raw-os.o(.text)
    raw_task_stack_check                     0x1a002009   Thumb Code    36  raw-os.o(.text)
    raw_disable_sche                         0x1a00202d   Thumb Code    60  raw-os.o(.text)
    raw_enable_sche                          0x1a002069   Thumb Code    80  raw-os.o(.text)
    raw_sleep                                0x1a0020b9   Thumb Code   208  raw-os.o(.text)
    raw_time_sleep                           0x1a002189   Thumb Code   102  raw-os.o(.text)
    raw_task_suspend                         0x1a0021ef   Thumb Code    62  raw-os.o(.text)
    raw_task_resume                          0x1a00222d   Thumb Code    50  raw-os.o(.text)
    chg_pri_mutex                            0x1a00225f   Thumb Code   130  raw-os.o(.text)
    raw_task_priority_change                 0x1a0022e1   Thumb Code   280  raw-os.o(.text)
    raw_task_free_mutex                      0x1a0023f9   Thumb Code    82  raw-os.o(.text)
    raw_task_delete                          0x1a00244b   Thumb Code   324  raw-os.o(.text)
    raw_set_task_user_point                  0x1a00258f   Thumb Code    44  raw-os.o(.text)
    raw_get_task_user_point                  0x1a0025bb   Thumb Code    12  raw-os.o(.text)
    raw_task_time_slice_change               0x1a0025c7   Thumb Code   108  raw-os.o(.text)
    raw_set_sched_way                        0x1a002633   Thumb Code   108  raw-os.o(.text)
    raw_get_sched_way                        0x1a00269f   Thumb Code   104  raw-os.o(.text)
    raw_task_wait_abort                      0x1a002707   Thumb Code   284  raw-os.o(.text)
    raw_task_identify                        0x1a002823   Thumb Code     6  raw-os.o(.text)
    raw_iter_block_task                      0x1a002829   Thumb Code   130  raw-os.o(.text)
    raw_get_system_global_space              0x1a0028ab   Thumb Code    26  raw-os.o(.text)
    task_0_tick_post                         0x1a0028c5   Thumb Code    22  raw-os.o(.text)
    raw_task_0_front_post                    0x1a0028db   Thumb Code    22  raw-os.o(.text)
    raw_block_pool_create                    0x1a0028f1   Thumb Code   126  raw-os.o(.text)
    raw_block_allocate                       0x1a00296f   Thumb Code    88  raw-os.o(.text)
    raw_block_release                        0x1a0029c7   Thumb Code    72  raw-os.o(.text)
    raw_byte_pool_create                     0x1a002a0f   Thumb Code    96  raw-os.o(.text)
    raw_byte_allocate                        0x1a002b89   Thumb Code   140  raw-os.o(.text)
    raw_byte_release                         0x1a002c15   Thumb Code    84  raw-os.o(.text)
    raw_mq_init                              0x1a002c69   Thumb Code    56  raw-os.o(.text)
    raw_mq_send                              0x1a002d71   Thumb Code    32  raw-os.o(.text)
    raw_mq_receive                           0x1a002d91   Thumb Code   302  raw-os.o(.text)
    raw_mqueue_flush                         0x1a002ebf   Thumb Code   106  raw-os.o(.text)
    raw_mqueue_delete                        0x1a002f29   Thumb Code   148  raw-os.o(.text)
    raw_mqueue_get_information               0x1a002fbd   Thumb Code    70  raw-os.o(.text)
    raw_mutex_delete                         0x1a003003   Thumb Code   174  raw-os.o(.text)
    raw_queue_create                         0x1a0030b1   Thumb Code    74  raw-os.o(.text)
    raw_queue_front_post                     0x1a0030fb   Thumb Code    62  raw-os.o(.text)
    raw_queue_end_post                       0x1a003139   Thumb Code    64  raw-os.o(.text)
    raw_queue_post_notify                    0x1a003179   Thumb Code    58  raw-os.o(.text)
    raw_queue_all_post                       0x1a0031b3   Thumb Code    60  raw-os.o(.text)
    raw_queue_send_notify                    0x1a0031ef   Thumb Code   146  raw-os.o(.text)
    raw_queue_receive                        0x1a003281   Thumb Code   400  raw-os.o(.text)
    raw_queue_full_check                     0x1a003411   Thumb Code   156  raw-os.o(.text)
    raw_queue_flush                          0x1a0034ad   Thumb Code   154  raw-os.o(.text)
    raw_queue_delete                         0x1a003547   Thumb Code   172  raw-os.o(.text)
    raw_queue_get_information                0x1a0035f3   Thumb Code   188  raw-os.o(.text)
    raw_semaphore_put_notify                 0x1a0036af   Thumb Code    46  raw-os.o(.text)
    raw_semaphore_put_all                    0x1a0036dd   Thumb Code    46  raw-os.o(.text)
    raw_semphore_send_notify                 0x1a00370b   Thumb Code   146  raw-os.o(.text)
    raw_semaphore_delete                     0x1a00379d   Thumb Code   182  raw-os.o(.text)
    raw_stack_check                          0x1a003853   Thumb Code    64  raw-os.o(.text)
    raw_finish_int                           0x1a003893   Thumb Code   102  raw-os.o(.text)
    raw_time_tick                            0x1a0038f9   Thumb Code    54  raw-os.o(.text)
    raw_enter_interrupt                      0x1a00392f   Thumb Code    60  raw-os.o(.text)
    raw_system_time_get                      0x1a00396b   Thumb Code     6  raw-os.o(.text)
    raw_system_time_set                      0x1a003971   Thumb Code    90  raw-os.o(.text)
    raw_task_semaphore_set                   0x1a0039cb   Thumb Code    16  raw-os.o(.text)
    raw_task_semaphore_delete                0x1a0039db   Thumb Code    12  raw-os.o(.text)
    raw_timer_activate                       0x1a0039e7   Thumb Code   134  raw-os.o(.text)
    raw_timer_create                         0x1a003a6d   Thumb Code   114  raw-os.o(.text)
    raw_timer_change                         0x1a003adf   Thumb Code   108  raw-os.o(.text)
    raw_timer_deactivate                     0x1a003b4b   Thumb Code   112  raw-os.o(.text)
    raw_timer_delete                         0x1a003bbb   Thumb Code   150  raw-os.o(.text)
    fifo_init                                0x1a003cdf   Thumb Code    64  fifo.o(.text)
    fifo_in                                  0x1a003d63   Thumb Code    78  fifo.o(.text)
    fifo_out_peek                            0x1a003e1f   Thumb Code    50  fifo.o(.text)
    fifo_out                                 0x1a003e51   Thumb Code    62  fifo.o(.text)
    fifo_out_all                             0x1a003e8f   Thumb Code    82  fifo.o(.text)
    OS_CPU_SR_Save                           0x1a003ee1   Thumb Code     0  cpu.o(.text)
    OS_CPU_SR_Restore                        0x1a003ee9   Thumb Code     0  cpu.o(.text)
    CPU_IntDis                               0x1a003eef   Thumb Code     0  cpu.o(.text)
    CPU_IntEn                                0x1a003ef3   Thumb Code     0  cpu.o(.text)
    raw_start_first_task                     0x1a003ef7   Thumb Code     0  cpu.o(.text)
    port_task_switch                         0x1a003f1f   Thumb Code     0  cpu.o(.text)
    raw_int_switch                           0x1a003f29   Thumb Code     0  cpu.o(.text)
    PendSV_Handler                           0x1a003f33   Thumb Code     0  cpu.o(.text)
    port_stack_init                          0x1a003f85   Thumb Code   440  port.o(.text)
    raw_os_init_hook                         0x1a00413d   Thumb Code     2  port_hook.o(.text)
    raw_task_delete_hook                     0x1a00413f   Thumb Code     2  port_hook.o(.text)
    raw_task_abort_hook                      0x1a004141   Thumb Code     2  port_hook.o(.text)
    raw_idle_task_hook                       0x1a004143   Thumb Code     2  port_hook.o(.text)
    raw_task_switch_hook                     0x1a004145   Thumb Code     2  port_hook.o(.text)
    raw_tick_hook                            0x1a004147   Thumb Code     2  port_hook.o(.text)
    task_create_hook                         0x1a004149   Thumb Code     2  port_hook.o(.text)
    raw_idle_coroutine_hook                  0x1a00414b   Thumb Code     4  port_hook.o(.text)
    raw_memcpy                               0x1a00414f   Thumb Code    90  user_extension.o(.text)
    raw_memset                               0x1a0041a9   Thumb Code    70  user_extension.o(.text)
    Reset_Handler                            0x1a0041f1   Thumb Code     8  keil_startup_lpc18xx43xx.o(.text)
    NMI_Handler                              0x1a0041f9   Thumb Code     2  keil_startup_lpc18xx43xx.o(.text)
    HardFault_Handler                        0x1a0041fb   Thumb Code     2  keil_startup_lpc18xx43xx.o(.text)
    MemManage_Handler                        0x1a0041fd   Thumb Code     2  keil_startup_lpc18xx43xx.o(.text)
    BusFault_Handler                         0x1a0041ff   Thumb Code     2  keil_startup_lpc18xx43xx.o(.text)
    UsageFault_Handler                       0x1a004201   Thumb Code     2  keil_startup_lpc18xx43xx.o(.text)
    SVC_Handler                              0x1a004203   Thumb Code     2  keil_startup_lpc18xx43xx.o(.text)
    DebugMon_Handler                         0x1a004205   Thumb Code     2  keil_startup_lpc18xx43xx.o(.text)
    UnHandled_Vector                         0x1a00420b   Thumb Code     2  keil_startup_lpc18xx43xx.o(.text)
    ADC0_IRQHandler                          0x1a00420d   Thumb Code     0  keil_startup_lpc18xx43xx.o(.text)
    ADC1_IRQHandler                          0x1a00420d   Thumb Code     0  keil_startup_lpc18xx43xx.o(.text)
    ADCHS_IRQHandler                         0x1a00420d   Thumb Code     0  keil_startup_lpc18xx43xx.o(.text)
    ATIMER_IRQHandler                        0x1a00420d   Thumb Code     0  keil_startup_lpc18xx43xx.o(.text)
    CAN0_IRQHandler                          0x1a00420d   Thumb Code     0  keil_startup_lpc18xx43xx.o(.text)
    CAN1_IRQHandler                          0x1a00420d   Thumb Code     0  keil_startup_lpc18xx43xx.o(.text)
    DAC_IRQHandler                           0x1a00420d   Thumb Code     0  keil_startup_lpc18xx43xx.o(.text)
    DMA_IRQHandler                           0x1a00420d   Thumb Code     0  keil_startup_lpc18xx43xx.o(.text)
    ETH_IRQHandler                           0x1a00420d   Thumb Code     0  keil_startup_lpc18xx43xx.o(.text)
    EVRT_IRQHandler                          0x1a00420d   Thumb Code     0  keil_startup_lpc18xx43xx.o(.text)
    FLASHEEPROM_IRQHandler                   0x1a00420d   Thumb Code     0  keil_startup_lpc18xx43xx.o(.text)
    GINT0_IRQHandler                         0x1a00420d   Thumb Code     0  keil_startup_lpc18xx43xx.o(.text)
    GINT1_IRQHandler                         0x1a00420d   Thumb Code     0  keil_startup_lpc18xx43xx.o(.text)
    GPIO0_IRQHandler                         0x1a00420d   Thumb Code     0  keil_startup_lpc18xx43xx.o(.text)
    GPIO1_IRQHandler                         0x1a00420d   Thumb Code     0  keil_startup_lpc18xx43xx.o(.text)
    GPIO2_IRQHandler                         0x1a00420d   Thumb Code     0  keil_startup_lpc18xx43xx.o(.text)
    GPIO3_IRQHandler                         0x1a00420d   Thumb Code     0  keil_startup_lpc18xx43xx.o(.text)
    GPIO4_IRQHandler                         0x1a00420d   Thumb Code     0  keil_startup_lpc18xx43xx.o(.text)
    GPIO5_IRQHandler                         0x1a00420d   Thumb Code     0  keil_startup_lpc18xx43xx.o(.text)
    GPIO6_IRQHandler                         0x1a00420d   Thumb Code     0  keil_startup_lpc18xx43xx.o(.text)
    GPIO7_IRQHandler                         0x1a00420d   Thumb Code     0  keil_startup_lpc18xx43xx.o(.text)
    I2C0_IRQHandler                          0x1a00420d   Thumb Code     0  keil_startup_lpc18xx43xx.o(.text)
    I2C1_IRQHandler                          0x1a00420d   Thumb Code     0  keil_startup_lpc18xx43xx.o(.text)
    I2S0_IRQHandler                          0x1a00420d   Thumb Code     0  keil_startup_lpc18xx43xx.o(.text)
    I2S1_IRQHandler                          0x1a00420d   Thumb Code     0  keil_startup_lpc18xx43xx.o(.text)
    LCD_IRQHandler                           0x1a00420d   Thumb Code     0  keil_startup_lpc18xx43xx.o(.text)
    MCPWM_IRQHandler                         0x1a00420d   Thumb Code     0  keil_startup_lpc18xx43xx.o(.text)
    MX_CORE_IRQHandler                       0x1a00420d   Thumb Code     0  keil_startup_lpc18xx43xx.o(.text)
    QEI_IRQHandler                           0x1a00420d   Thumb Code     0  keil_startup_lpc18xx43xx.o(.text)
    RIT_IRQHandler                           0x1a00420d   Thumb Code     0  keil_startup_lpc18xx43xx.o(.text)
    RTC_IRQHandler                           0x1a00420d   Thumb Code     0  keil_startup_lpc18xx43xx.o(.text)
    SCT_IRQHandler                           0x1a00420d   Thumb Code     0  keil_startup_lpc18xx43xx.o(.text)
    SDIO_IRQHandler                          0x1a00420d   Thumb Code     0  keil_startup_lpc18xx43xx.o(.text)
    SGPIO_IRQHandler                         0x1a00420d   Thumb Code     0  keil_startup_lpc18xx43xx.o(.text)
    SPIFI_IRQHandler                         0x1a00420d   Thumb Code     0  keil_startup_lpc18xx43xx.o(.text)
    SPI_IRQHandler                           0x1a00420d   Thumb Code     0  keil_startup_lpc18xx43xx.o(.text)
    SSP0_IRQHandler                          0x1a00420d   Thumb Code     0  keil_startup_lpc18xx43xx.o(.text)
    SSP1_IRQHandler                          0x1a00420d   Thumb Code     0  keil_startup_lpc18xx43xx.o(.text)
    TIMER0_IRQHandler                        0x1a00420d   Thumb Code     0  keil_startup_lpc18xx43xx.o(.text)
    TIMER1_IRQHandler                        0x1a00420d   Thumb Code     0  keil_startup_lpc18xx43xx.o(.text)
    TIMER2_IRQHandler                        0x1a00420d   Thumb Code     0  keil_startup_lpc18xx43xx.o(.text)
    TIMER3_IRQHandler                        0x1a00420d   Thumb Code     0  keil_startup_lpc18xx43xx.o(.text)
    UART0_IRQHandler                         0x1a00420d   Thumb Code     0  keil_startup_lpc18xx43xx.o(.text)
    UART1_IRQHandler                         0x1a00420d   Thumb Code     0  keil_startup_lpc18xx43xx.o(.text)
    UART2_IRQHandler                         0x1a00420d   Thumb Code     0  keil_startup_lpc18xx43xx.o(.text)
    USB0_IRQHandler                          0x1a00420d   Thumb Code     0  keil_startup_lpc18xx43xx.o(.text)
    USB1_IRQHandler                          0x1a00420d   Thumb Code     0  keil_startup_lpc18xx43xx.o(.text)
    WDT_IRQHandler                           0x1a00420d   Thumb Code     0  keil_startup_lpc18xx43xx.o(.text)
    __user_initial_stackheap                 0x1a004211   Thumb Code     0  keil_startup_lpc18xx43xx.o(.text)
    SystemInit                               0x1a004235   Thumb Code    18  sysinit.o(.text)
    scu_pinmux                               0x1a004251   Thumb Code    30  lpc43xx_scu.o(.text)
    emc_init                                 0x1a004275   Thumb Code   980  lpc43xx_sdram.o(.text)
    sdram_init                               0x1a004649   Thumb Code   184  lpc43xx_sdram.o(.text)
    SysTick_Handler                          0x1a004745   Thumb Code    16  main.o(.text)
    OS_CPU_SysTickInit                       0x1a004755   Thumb Code    60  main.o(.text)
    uart_3_recv                              0x1a004791   Thumb Code    76  main.o(.text)
    UART3_IRQHandler                         0x1a004817   Thumb Code    16  main.o(.text)
    shell_task                               0x1a004847   Thumb Code   274  main.o(.text)
    main                                     0x1a004959   Thumb Code    54  main.o(.text)
    __2printf                                0x1a004a19   Thumb Code    20  noretval__2printf.o(.text)
    __printf                                 0x1a004a31   Thumb Code   104  __printf.o(.text)
    _printf_int_dec                          0x1a004a99   Thumb Code   104  _printf_dec.o(.text)
    __use_two_region_memory                  0x1a004b11   Thumb Code     2  heapauxi.o(.text)
    __rt_heap_escrow$2region                 0x1a004b13   Thumb Code     2  heapauxi.o(.text)
    __rt_heap_expand$2region                 0x1a004b15   Thumb Code     2  heapauxi.o(.text)
    _printf_int_common                       0x1a004b17   Thumb Code   178  _printf_intcommon.o(.text)
    _printf_char_file                        0x1a004bc9   Thumb Code    32  _printf_char_file.o(.text)
    _printf_char_common                      0x1a004bf7   Thumb Code    32  _printf_char_common.o(.text)
    __user_setup_stackheap                   0x1a004c1d   Thumb Code    74  sys_stackheap_outer.o(.text)
    exit                                     0x1a004c67   Thumb Code    12  exit.o(.text)
    __user_libspace                          0x1a004c75   Thumb Code     8  libspace.o(.text)
    __user_perproc_libspace                  0x1a004c75   Thumb Code     0  libspace.o(.text)
    __user_perthread_libspace                0x1a004c75   Thumb Code     0  libspace.o(.text)
    Board_SetupClocking                      0x1a004c7d   Thumb Code   158  board_sysinit.o(i.Board_SetupClocking)
    Board_SetupMuxing                        0x1a004d31   Thumb Code    58  board_sysinit.o(i.Board_SetupMuxing)
    Board_SystemInit                         0x1a004d7d   Thumb Code    12  board_sysinit.o(i.Board_SystemInit)
    Board_UARTPutChar                        0x1a004d89   Thumb Code    26  board.o(i.Board_UARTPutChar)
    Board_UART_Init                          0x1a004da9   Thumb Code    60  board.o(i.Board_UART_Init)
    Chip_Clock_EnableOpts                    0x1a004ded   Thumb Code    52  clock_18xx_43xx.o(i.Chip_Clock_EnableOpts)
    Chip_Clock_GetBaseClock                  0x1a004e79   Thumb Code    32  clock_18xx_43xx.o(i.Chip_Clock_GetBaseClock)
    Chip_Clock_GetBaseClocktHz               0x1a004e9d   Thumb Code    18  clock_18xx_43xx.o(i.Chip_Clock_GetBaseClocktHz)
    Chip_Clock_GetClockInputHz               0x1a004eb1   Thumb Code   182  clock_18xx_43xx.o(i.Chip_Clock_GetClockInputHz)
    Chip_Clock_GetDividerDivisor             0x1a004fad   Thumb Code    18  clock_18xx_43xx.o(i.Chip_Clock_GetDividerDivisor)
    Chip_Clock_GetDividerSource              0x1a004fcd   Thumb Code    26  clock_18xx_43xx.o(i.Chip_Clock_GetDividerSource)
    Chip_Clock_GetMainPLLHz                  0x1a004fed   Thumb Code   110  clock_18xx_43xx.o(i.Chip_Clock_GetMainPLLHz)
    Chip_Clock_GetRate                       0x1a005065   Thumb Code    78  clock_18xx_43xx.o(i.Chip_Clock_GetRate)
    Chip_Clock_SetBaseClock                  0x1a0050bd   Thumb Code    64  clock_18xx_43xx.o(i.Chip_Clock_SetBaseClock)
    Chip_Clock_SetDivider                    0x1a005105   Thumb Code    64  clock_18xx_43xx.o(i.Chip_Clock_SetDivider)
    Chip_SCTPWM_SetOutPin                    0x1a005155   Thumb Code    84  sct_pwm_18xx_43xx.o(i.Chip_SCTPWM_SetOutPin)
    Chip_SCTPWM_SetRate                      0x1a0051a9   Thumb Code   100  sct_pwm_18xx_43xx.o(i.Chip_SCTPWM_SetRate)
    Chip_SCT_Init                            0x1a005211   Thumb Code    18  sct_18xx_43xx.o(i.Chip_SCT_Init)
    Chip_SetupCoreClock                      0x1a00526d   Thumb Code    14  sysinit_18xx_43xx.o(i.Chip_SetupCoreClock)
    Chip_UART_Init                           0x1a0052c1   Thumb Code    72  uart_18xx_43xx.o(i.Chip_UART_Init)
    Chip_UART_SetBaud                        0x1a00530d   Thumb Code    66  uart_18xx_43xx.o(i.Chip_UART_SetBaud)
    SystemCoreClockUpdate                    0x1a005355   Thumb Code    14  chip_18xx_43xx.o(i.SystemCoreClockUpdate)
    _sys_exit                                0x1a005369   Thumb Code     6  board.o(i._sys_exit)
    ferror                                   0x1a005451   Thumb Code     8  board.o(i.ferror)
    fpuInit                                  0x1a005459   Thumb Code    62  fpu_init.o(i.fpuInit)
    fputc                                    0x1a0054a9   Thumb Code    20  board.o(i.fputc)
    _fp_init                                 0x1a0054bd   Thumb Code    10  fpinit.o(x$fpl$fpinit)
    __fplib_config_fpu_vfp                   0x1a0054c5   Thumb Code     0  fpinit.o(x$fpl$fpinit)
    __fplib_config_pureend_doubles           0x1a0054c5   Thumb Code     0  fpinit.o(x$fpl$fpinit)
    ad_left                                  0x1a0054d8   Data           4  board.o(.constdata)
    ad_top                                   0x1a0054dc   Data           4  board.o(.constdata)
    ad_right                                 0x1a0054e0   Data           4  board.o(.constdata)
    ad_bottom                                0x1a0054e4   Data           4  board.o(.constdata)
    MCB4300_LCD                              0x1a0054e8   Data          22  board.o(.constdata)
    ExtRateIn                                0x1a005500   Data           4  board.o(.constdata)
    OscRateIn                                0x1a005504   Data           4  board.o(.constdata)
    Region$$Table$$Base                      0x1a005878   Number         0  anon$$obj.o(Region$$Table)
    Region$$Table$$Limit                     0x1a005898   Number         0  anon$$obj.o(Region$$Table)



==============================================================================

Memory Map of the image

  Image Entry point : 0x1a000115

  Load Region LR_IROM1 (Base: 0x1a000000, Size: 0x00005914, Max: 0x00080000, ABSOLUTE)

    Execution Region RW_IRAM1 (Base: 0x10000000, Size: 0x00002210, Max: 0x00008000, ABSOLUTE)

    Base Addr    Size         Type   Attr      Idx    E Section Name        Object

    0x10000000   0x0000005c   Data   RW            3    .data               raw-os.o
    0x1000005c   0x00000014   Data   RW          693    .data               lib_lpc_board_keil_mcb_4357.lib(board.o)
    0x10000070   0x00000004   Data   RW         1215    .data               lib_lpc_chip_43xx.lib(chip_18xx_43xx.o)
    0x10000074   0x00000008   Data   RW         1806    .data               lib_lpc_chip_43xx.lib(clock_18xx_43xx.o)
    0x1000007c   0x000012e8   Zero   RW            2    .bss                raw-os.o
    0x10001364   0x0000074c   Zero   RW          606    .bss                main.o
    0x10001ab0   0x00000060   Zero   RW         2732    .bss                c_w.l(libspace.o)
    0x10001b10   0x00000100   Zero   RW          315    HEAP                keil_startup_lpc18xx43xx.o
    0x10001c10   0x00000600   Zero   RW          314    STACK               keil_startup_lpc18xx43xx.o


    Execution Region ER_IROM1 (Base: 0x1a000000, Size: 0x00005898, Max: 0x00080000, ABSOLUTE)

    Base Addr    Size         Type   Attr      Idx    E Section Name        Object

    0x1a000000   0x00000114   Data   RO          316    RESET               keil_startup_lpc18xx43xx.o
    0x1a000114   0x00000008   Code   RO         2682  * !!!main             c_w.l(__main.o)
    0x1a00011c   0x00000034   Code   RO         2857    !!!scatter          c_w.l(__scatter.o)
    0x1a000150   0x0000001a   Code   RO         2859    !!handler_copy      c_w.l(__scatter_copy.o)
    0x1a00016a   0x00000002   PAD
    0x1a00016c   0x0000001c   Code   RO         2861    !!handler_zi        c_w.l(__scatter_zi.o)
    0x1a000188   0x00000000   Code   RO         2675    .ARM.Collect$$_printf_percent$$00000000  c_w.l(_printf_percent.o)
    0x1a000188   0x00000006   Code   RO         2674    .ARM.Collect$$_printf_percent$$00000009  c_w.l(_printf_d.o)
    0x1a00018e   0x00000004   Code   RO         2693    .ARM.Collect$$_printf_percent$$00000017  c_w.l(_printf_percent_end.o)
    0x1a000192   0x00000002   Code   RO         2730    .ARM.Collect$$libinit$$00000000  c_w.l(libinit.o)
    0x1a000194   0x00000004   Code   RO         2742    .ARM.Collect$$libinit$$00000001  c_w.l(libinit2.o)
    0x1a000198   0x00000000   Code   RO         2745    .ARM.Collect$$libinit$$00000004  c_w.l(libinit2.o)
    0x1a000198   0x00000000   Code   RO         2748    .ARM.Collect$$libinit$$0000000A  c_w.l(libinit2.o)
    0x1a000198   0x00000000   Code   RO         2750    .ARM.Collect$$libinit$$0000000C  c_w.l(libinit2.o)
    0x1a000198   0x00000000   Code   RO         2752    .ARM.Collect$$libinit$$0000000E  c_w.l(libinit2.o)
    0x1a000198   0x00000000   Code   RO         2755    .ARM.Collect$$libinit$$00000011  c_w.l(libinit2.o)
    0x1a000198   0x00000000   Code   RO         2757    .ARM.Collect$$libinit$$00000013  c_w.l(libinit2.o)
    0x1a000198   0x00000000   Code   RO         2759    .ARM.Collect$$libinit$$00000015  c_w.l(libinit2.o)
    0x1a000198   0x00000000   Code   RO         2761    .ARM.Collect$$libinit$$00000017  c_w.l(libinit2.o)
    0x1a000198   0x00000000   Code   RO         2763    .ARM.Collect$$libinit$$00000019  c_w.l(libinit2.o)
    0x1a000198   0x00000000   Code   RO         2765    .ARM.Collect$$libinit$$0000001B  c_w.l(libinit2.o)
    0x1a000198   0x00000000   Code   RO         2767    .ARM.Collect$$libinit$$0000001D  c_w.l(libinit2.o)
    0x1a000198   0x00000000   Code   RO         2769    .ARM.Collect$$libinit$$0000001F  c_w.l(libinit2.o)
    0x1a000198   0x00000000   Code   RO         2771    .ARM.Collect$$libinit$$00000021  c_w.l(libinit2.o)
    0x1a000198   0x00000000   Code   RO         2773    .ARM.Collect$$libinit$$00000023  c_w.l(libinit2.o)
    0x1a000198   0x00000000   Code   RO         2775    .ARM.Collect$$libinit$$00000025  c_w.l(libinit2.o)
    0x1a000198   0x00000000   Code   RO         2779    .ARM.Collect$$libinit$$0000002C  c_w.l(libinit2.o)
    0x1a000198   0x00000000   Code   RO         2781    .ARM.Collect$$libinit$$0000002E  c_w.l(libinit2.o)
    0x1a000198   0x00000000   Code   RO         2783    .ARM.Collect$$libinit$$00000030  c_w.l(libinit2.o)
    0x1a000198   0x00000000   Code   RO         2785    .ARM.Collect$$libinit$$00000032  c_w.l(libinit2.o)
    0x1a000198   0x00000002   Code   RO         2786    .ARM.Collect$$libinit$$00000033  c_w.l(libinit2.o)
    0x1a00019a   0x00000002   Code   RO         2812    .ARM.Collect$$libshutdown$$00000000  c_w.l(libshutdown.o)
    0x1a00019c   0x00000000   Code   RO         2842    .ARM.Collect$$libshutdown$$00000003  c_w.l(libshutdown2.o)
    0x1a00019c   0x00000000   Code   RO         2845    .ARM.Collect$$libshutdown$$00000006  c_w.l(libshutdown2.o)
    0x1a00019c   0x00000000   Code   RO         2848    .ARM.Collect$$libshutdown$$00000009  c_w.l(libshutdown2.o)
    0x1a00019c   0x00000000   Code   RO         2850    .ARM.Collect$$libshutdown$$0000000B  c_w.l(libshutdown2.o)
    0x1a00019c   0x00000000   Code   RO         2853    .ARM.Collect$$libshutdown$$0000000E  c_w.l(libshutdown2.o)
    0x1a00019c   0x00000002   Code   RO         2854    .ARM.Collect$$libshutdown$$0000000F  c_w.l(libshutdown2.o)
    0x1a00019e   0x00000000   Code   RO         2684    .ARM.Collect$$rtentry$$00000000  c_w.l(__rtentry.o)
    0x1a00019e   0x00000000   Code   RO         2697    .ARM.Collect$$rtentry$$00000002  c_w.l(__rtentry2.o)
    0x1a00019e   0x00000006   Code   RO         2709    .ARM.Collect$$rtentry$$00000004  c_w.l(__rtentry4.o)
    0x1a0001a4   0x00000000   Code   RO         2699    .ARM.Collect$$rtentry$$00000009  c_w.l(__rtentry2.o)
    0x1a0001a4   0x00000004   Code   RO         2700    .ARM.Collect$$rtentry$$0000000A  c_w.l(__rtentry2.o)
    0x1a0001a8   0x00000000   Code   RO         2702    .ARM.Collect$$rtentry$$0000000C  c_w.l(__rtentry2.o)
    0x1a0001a8   0x00000008   Code   RO         2703    .ARM.Collect$$rtentry$$0000000D  c_w.l(__rtentry2.o)
    0x1a0001b0   0x00000002   Code   RO         2734    .ARM.Collect$$rtexit$$00000000  c_w.l(rtexit.o)
    0x1a0001b2   0x00000000   Code   RO         2788    .ARM.Collect$$rtexit$$00000002  c_w.l(rtexit2.o)
    0x1a0001b2   0x00000004   Code   RO         2789    .ARM.Collect$$rtexit$$00000003  c_w.l(rtexit2.o)
    0x1a0001b6   0x00000006   Code   RO         2790    .ARM.Collect$$rtexit$$00000004  c_w.l(rtexit2.o)
    0x1a0001bc   0x00003b00   Code   RO            1    .text               raw-os.o
    0x1a003cbc   0x00000224   Code   RO          176    .text               fifo.o
    0x1a003ee0   0x000000a4   Code   RO          268    .text               cpu.o
    0x1a003f84   0x000001b8   Code   RO          272    .text               port.o
    0x1a00413c   0x00000012   Code   RO          284    .text               port_hook.o
    0x1a00414e   0x000000a0   Code   RO          302    .text               user_extension.o
    0x1a0041ee   0x00000002   PAD
    0x1a0041f0   0x00000044   Code   RO          317    .text               keil_startup_lpc18xx43xx.o
    0x1a004234   0x0000001c   Code   RO          323    .text               sysinit.o
    0x1a004250   0x00000024   Code   RO          549    .text               lpc43xx_scu.o
    0x1a004274   0x000004b0   Code   RO          582    .text               lpc43xx_sdram.o
    0x1a004724   0x000002f4   Code   RO          605    .text               main.o
    0x1a004a18   0x00000018   Code   RO         2648    .text               c_w.l(noretval__2printf.o)
    0x1a004a30   0x00000068   Code   RO         2650    .text               c_w.l(__printf.o)
    0x1a004a98   0x00000078   Code   RO         2652    .text               c_w.l(_printf_dec.o)
    0x1a004b10   0x00000006   Code   RO         2680    .text               c_w.l(heapauxi.o)
    0x1a004b16   0x000000b2   Code   RO         2689    .text               c_w.l(_printf_intcommon.o)
    0x1a004bc8   0x00000024   Code   RO         2691    .text               c_w.l(_printf_char_file.o)
    0x1a004bec   0x00000030   Code   RO         2713    .text               c_w.l(_printf_char_common.o)
    0x1a004c1c   0x0000004a   Code   RO         2715    .text               c_w.l(sys_stackheap_outer.o)
    0x1a004c66   0x0000000c   Code   RO         2719    .text               c_w.l(exit.o)
    0x1a004c72   0x00000002   PAD
    0x1a004c74   0x00000008   Code   RO         2731    .text               c_w.l(libspace.o)
    0x1a004c7c   0x000000b4   Code   RO         1139    i.Board_SetupClocking  lib_lpc_board_keil_mcb_4357.lib(board_sysinit.o)
    0x1a004d30   0x0000004c   Code   RO         1141    i.Board_SetupMuxing  lib_lpc_board_keil_mcb_4357.lib(board_sysinit.o)
    0x1a004d7c   0x0000000c   Code   RO         1142    i.Board_SystemInit  lib_lpc_board_keil_mcb_4357.lib(board_sysinit.o)
    0x1a004d88   0x00000020   Code   RO          668    i.Board_UARTPutChar  lib_lpc_board_keil_mcb_4357.lib(board.o)
    0x1a004da8   0x00000044   Code   RO          670    i.Board_UART_Init   lib_lpc_board_keil_mcb_4357.lib(board.o)
    0x1a004dec   0x0000003c   Code   RO         1780    i.Chip_Clock_EnableOpts  lib_lpc_chip_43xx.lib(clock_18xx_43xx.o)
    0x1a004e28   0x00000050   Code   RO         1782    i.Chip_Clock_FindBaseClock  lib_lpc_chip_43xx.lib(clock_18xx_43xx.o)
    0x1a004e78   0x00000024   Code   RO         1783    i.Chip_Clock_GetBaseClock  lib_lpc_chip_43xx.lib(clock_18xx_43xx.o)
    0x1a004e9c   0x00000012   Code   RO         1785    i.Chip_Clock_GetBaseClocktHz  lib_lpc_chip_43xx.lib(clock_18xx_43xx.o)
    0x1a004eae   0x00000002   PAD
    0x1a004eb0   0x000000d4   Code   RO         1786    i.Chip_Clock_GetClockInputHz  lib_lpc_chip_43xx.lib(clock_18xx_43xx.o)
    0x1a004f84   0x00000028   Code   RO         1787    i.Chip_Clock_GetDivRate  lib_lpc_chip_43xx.lib(clock_18xx_43xx.o)
    0x1a004fac   0x00000020   Code   RO         1788    i.Chip_Clock_GetDividerDivisor  lib_lpc_chip_43xx.lib(clock_18xx_43xx.o)
    0x1a004fcc   0x00000020   Code   RO         1789    i.Chip_Clock_GetDividerSource  lib_lpc_chip_43xx.lib(clock_18xx_43xx.o)
    0x1a004fec   0x00000078   Code   RO         1791    i.Chip_Clock_GetMainPLLHz  lib_lpc_chip_43xx.lib(clock_18xx_43xx.o)
    0x1a005064   0x00000058   Code   RO         1793    i.Chip_Clock_GetRate  lib_lpc_chip_43xx.lib(clock_18xx_43xx.o)
    0x1a0050bc   0x00000048   Code   RO         1797    i.Chip_Clock_SetBaseClock  lib_lpc_chip_43xx.lib(clock_18xx_43xx.o)
    0x1a005104   0x00000050   Code   RO         1798    i.Chip_Clock_SetDivider  lib_lpc_chip_43xx.lib(clock_18xx_43xx.o)
    0x1a005154   0x00000054   Code   RO         1478    i.Chip_SCTPWM_SetOutPin  lib_lpc_chip_43xx.lib(sct_pwm_18xx_43xx.o)
    0x1a0051a8   0x00000068   Code   RO         1479    i.Chip_SCTPWM_SetRate  lib_lpc_chip_43xx.lib(sct_pwm_18xx_43xx.o)
    0x1a005210   0x00000012   Code   RO         1434    i.Chip_SCT_Init     lib_lpc_chip_43xx.lib(sct_18xx_43xx.o)
    0x1a005222   0x00000008   Code   RO         1480    i.Chip_SCT_SetControl  lib_lpc_chip_43xx.lib(sct_pwm_18xx_43xx.o)
    0x1a00522a   0x00000002   PAD
    0x1a00522c   0x00000010   Code   RO          676    i.Chip_SCU_PinMuxSet  lib_lpc_board_keil_mcb_4357.lib(board.o)
    0x1a00523c   0x00000030   Code   RO         1143    i.Chip_SCU_SetPinMuxing  lib_lpc_board_keil_mcb_4357.lib(board_sysinit.o)
    0x1a00526c   0x0000000e   Code   RO         2534    i.Chip_SetupCoreClock  lib_lpc_chip_43xx.lib(sysinit_18xx_43xx.o)
    0x1a00527a   0x0000000a   Code   RO         1519    i.Chip_UART_DisableDivisorAccess  lib_lpc_chip_43xx.lib(uart_18xx_43xx.o)
    0x1a005284   0x0000000a   Code   RO         1520    i.Chip_UART_EnableDivisorAccess  lib_lpc_chip_43xx.lib(uart_18xx_43xx.o)
    0x1a00528e   0x00000002   PAD
    0x1a005290   0x00000030   Code   RO         1522    i.Chip_UART_GetClockIndex  lib_lpc_chip_43xx.lib(uart_18xx_43xx.o)
    0x1a0052c0   0x0000004c   Code   RO         1524    i.Chip_UART_Init    lib_lpc_chip_43xx.lib(uart_18xx_43xx.o)
    0x1a00530c   0x00000042   Code   RO         1536    i.Chip_UART_SetBaud  lib_lpc_chip_43xx.lib(uart_18xx_43xx.o)
    0x1a00534e   0x00000006   Code   RO         1538    i.Chip_UART_SetDivisorLatches  lib_lpc_chip_43xx.lib(uart_18xx_43xx.o)
    0x1a005354   0x00000014   Code   RO         1213    i.SystemCoreClockUpdate  lib_lpc_chip_43xx.lib(chip_18xx_43xx.o)
    0x1a005368   0x00000006   Code   RO          678    i._sys_exit         lib_lpc_board_keil_mcb_4357.lib(board.o)
    0x1a00536e   0x00000024   Code   RO         2538    i.clock_init_delay  lib_lpc_chip_43xx.lib(sysinit_18xx_43xx.o)
    0x1a005392   0x00000002   PAD
    0x1a005394   0x000000bc   Code   RO         2539    i.clock_main_init   lib_lpc_chip_43xx.lib(sysinit_18xx_43xx.o)
    0x1a005450   0x00000008   Code   RO          682    i.ferror            lib_lpc_board_keil_mcb_4357.lib(board.o)
    0x1a005458   0x00000050   Code   RO         1683    i.fpuInit           lib_lpc_chip_43xx.lib(fpu_init.o)
    0x1a0054a8   0x00000014   Code   RO          684    i.fputc             lib_lpc_board_keil_mcb_4357.lib(board.o)
    0x1a0054bc   0x0000000a   Code   RO         2800    x$fpl$fpinit        fz_wm.l(fpinit.o)
    0x1a0054c6   0x00000002   PAD
    0x1a0054c8   0x00000040   Data   RO          692    .constdata          lib_lpc_board_keil_mcb_4357.lib(board.o)
    0x1a005508   0x000002bc   Data   RO         1144    .constdata          lib_lpc_board_keil_mcb_4357.lib(board_sysinit.o)
    0x1a0057c4   0x0000006c   Data   RO         1805    .constdata          lib_lpc_chip_43xx.lib(clock_18xx_43xx.o)
    0x1a005830   0x00000048   Data   RO         2540    .constdata          lib_lpc_chip_43xx.lib(sysinit_18xx_43xx.o)
    0x1a005878   0x00000020   Data   RO         2855    Region$$Table       anon$$obj.o


==============================================================================

Image component sizes


      Code (inc. data)   RO Data    RW Data    ZI Data      Debug   Object Name

       164         16          0          0          0        396   cpu.o
       548          0          0          0          0       7640   fifo.o
        68         28        276          0       1792        948   keil_startup_lpc18xx43xx.o
        36          6          0          0          0       1085   lpc43xx_scu.o
      1200         36          0          0          0       2202   lpc43xx_sdram.o
       756        102          0          0       1868      47922   main.o
       440          0          0          0          0       1530   port.o
        18          0          0          0          0       1839   port_hook.o
     15104        626          0         92       4840      70717   raw-os.o
        28         10          0          0          0       5141   sysinit.o
       160          0          0          0          0       1668   user_extension.o

    ----------------------------------------------------------------------
     18524        824        308         92       8500     141088   Object Totals
         0          0         32          0          0          0   (incl. Generated)
         2          0          0          0          0          0   (incl. Padding)

    ----------------------------------------------------------------------

      Code (inc. data)   RO Data    RW Data    ZI Data      Debug   Library Member Name

         8          0          0          0          0         68   __main.o
       104          0          0          0          0         84   __printf.o
         0          0          0          0          0          0   __rtentry.o
        12          0          0          0          0          0   __rtentry2.o
         6          0          0          0          0          0   __rtentry4.o
        52          8          0          0          0          0   __scatter.o
        26          0          0          0          0          0   __scatter_copy.o
        28          0          0          0          0          0   __scatter_zi.o
        48          6          0          0          0         96   _printf_char_common.o
        36          4          0          0          0         80   _printf_char_file.o
         6          0          0          0          0          0   _printf_d.o
       120         16          0          0          0         92   _printf_dec.o
       178          0          0          0          0         88   _printf_intcommon.o
         0          0          0          0          0          0   _printf_percent.o
         4          0          0          0          0          0   _printf_percent_end.o
        12          0          0          0          0         72   exit.o
         6          0          0          0          0        152   heapauxi.o
         2          0          0          0          0          0   libinit.o
         6          0          0          0          0          0   libinit2.o
         2          0          0          0          0          0   libshutdown.o
         2          0          0          0          0          0   libshutdown2.o
         8          4          0          0         96         68   libspace.o
        24          4          0          0          0         84   noretval__2printf.o
         2          0          0          0          0          0   rtexit.o
        10          0          0          0          0          0   rtexit2.o
        74          0          0          0          0         80   sys_stackheap_outer.o
        10          0          0          0          0        116   fpinit.o
       150         18         64         20          0      31758   board.o
       316         44        700          0          0      11181   board_sysinit.o
        20          6          0          4          0       7750   chip_18xx_43xx.o
       870        130        108          8          0       8770   clock_18xx_43xx.o
        80         18          0          0          0       1234   fpu_init.o
        18          0          0          0          0        516   sct_18xx_43xx.o
       196          4          0          0          0       6462   sct_pwm_18xx_43xx.o
       238         20         72          0          0       2286   sysinit_18xx_43xx.o
       216         16          0          0          0       9189   uart_18xx_43xx.o

    ----------------------------------------------------------------------
      2904        298        944         32         96      80226   Library Totals
        14          0          0          0          0          0   (incl. Padding)

    ----------------------------------------------------------------------

      Code (inc. data)   RO Data    RW Data    ZI Data      Debug   Library Name

       776         42          0          0         96        964   c_w.l
        10          0          0          0          0        116   fz_wm.l
       466         62        764         20          0      42939   lib_lpc_board_keil_mcb_4357.lib
      1638        194        180         12          0      36207   lib_lpc_chip_43xx.lib

    ----------------------------------------------------------------------
      2904        298        944         32         96      80226   Library Totals

    ----------------------------------------------------------------------

==============================================================================


      Code (inc. data)   RO Data    RW Data    ZI Data      Debug   

     21428       1122       1252        124       8596     216350   Grand Totals
     21428       1122       1252        124       8596     216350   ELF Image Totals
     21428       1122       1252        124          0          0   ROM Totals

==============================================================================

    Total RO  Size (Code + RO Data)                22680 (  22.15kB)
    Total RW  Size (RW Data + ZI Data)              8720 (   8.52kB)
    Total ROM Size (Code + RO Data + RW Data)      22804 (  22.27kB)

==============================================================================

